{
	"contracts/GovernanceToken.sol": {
		"GovernanceToken": {
			"abi": [
				{
					"inputs": [],
					"stateMutability": "nonpayable",
					"type": "constructor"
				},
				{
					"anonymous": false,
					"inputs": [
						{
							"indexed": true,
							"internalType": "address",
							"name": "owner",
							"type": "address"
						},
						{
							"indexed": true,
							"internalType": "address",
							"name": "spender",
							"type": "address"
						},
						{
							"indexed": false,
							"internalType": "uint256",
							"name": "value",
							"type": "uint256"
						}
					],
					"name": "Approval",
					"type": "event"
				},
				{
					"anonymous": false,
					"inputs": [
						{
							"indexed": true,
							"internalType": "address",
							"name": "user",
							"type": "address"
						},
						{
							"indexed": false,
							"internalType": "uint256",
							"name": "amount",
							"type": "uint256"
						}
					],
					"name": "Burned",
					"type": "event"
				},
				{
					"anonymous": false,
					"inputs": [
						{
							"indexed": true,
							"internalType": "address",
							"name": "previousOwner",
							"type": "address"
						},
						{
							"indexed": true,
							"internalType": "address",
							"name": "newOwner",
							"type": "address"
						}
					],
					"name": "OwnershipTransferred",
					"type": "event"
				},
				{
					"anonymous": false,
					"inputs": [
						{
							"indexed": true,
							"internalType": "address",
							"name": "user",
							"type": "address"
						},
						{
							"indexed": false,
							"internalType": "uint256",
							"name": "amount",
							"type": "uint256"
						}
					],
					"name": "Staked",
					"type": "event"
				},
				{
					"anonymous": false,
					"inputs": [
						{
							"indexed": true,
							"internalType": "address",
							"name": "from",
							"type": "address"
						},
						{
							"indexed": true,
							"internalType": "address",
							"name": "to",
							"type": "address"
						},
						{
							"indexed": false,
							"internalType": "uint256",
							"name": "value",
							"type": "uint256"
						}
					],
					"name": "Transfer",
					"type": "event"
				},
				{
					"anonymous": false,
					"inputs": [
						{
							"indexed": true,
							"internalType": "address",
							"name": "user",
							"type": "address"
						},
						{
							"indexed": false,
							"internalType": "uint256",
							"name": "amount",
							"type": "uint256"
						}
					],
					"name": "Unstaked",
					"type": "event"
				},
				{
					"inputs": [
						{
							"internalType": "address",
							"name": "account",
							"type": "address"
						}
					],
					"name": "balanceOf",
					"outputs": [
						{
							"internalType": "uint256",
							"name": "",
							"type": "uint256"
						}
					],
					"stateMutability": "view",
					"type": "function"
				},
				{
					"inputs": [
						{
							"internalType": "uint256",
							"name": "amount",
							"type": "uint256"
						}
					],
					"name": "burn",
					"outputs": [],
					"stateMutability": "nonpayable",
					"type": "function"
				},
				{
					"inputs": [],
					"name": "decimals",
					"outputs": [
						{
							"internalType": "uint8",
							"name": "",
							"type": "uint8"
						}
					],
					"stateMutability": "pure",
					"type": "function"
				},
				{
					"inputs": [],
					"name": "name",
					"outputs": [
						{
							"internalType": "string",
							"name": "",
							"type": "string"
						}
					],
					"stateMutability": "view",
					"type": "function"
				},
				{
					"inputs": [],
					"name": "owner",
					"outputs": [
						{
							"internalType": "address",
							"name": "",
							"type": "address"
						}
					],
					"stateMutability": "view",
					"type": "function"
				},
				{
					"inputs": [
						{
							"internalType": "uint256",
							"name": "amount",
							"type": "uint256"
						}
					],
					"name": "stake",
					"outputs": [],
					"stateMutability": "nonpayable",
					"type": "function"
				},
				{
					"inputs": [],
					"name": "stakingRewardRate",
					"outputs": [
						{
							"internalType": "uint256",
							"name": "",
							"type": "uint256"
						}
					],
					"stateMutability": "view",
					"type": "function"
				},
				{
					"inputs": [],
					"name": "symbol",
					"outputs": [
						{
							"internalType": "string",
							"name": "",
							"type": "string"
						}
					],
					"stateMutability": "view",
					"type": "function"
				},
				{
					"inputs": [],
					"name": "totalSupply",
					"outputs": [
						{
							"internalType": "uint256",
							"name": "",
							"type": "uint256"
						}
					],
					"stateMutability": "view",
					"type": "function"
				}
			],
			"devdoc": {
				"kind": "dev",
				"methods": {},
				"version": 1
			},
			"evm": {
				"assembly": "    /* \"contracts/GovernanceToken.sol\":2160:3194  contract GovernanceToken is ERC20, Ownable {... */\n  mstore(0x40, 0x80)\n    /* \"contracts/GovernanceToken.sol\":2357:2358  5 */\n  0x05\n    /* \"contracts/GovernanceToken.sol\":2322:2358  uint256 public stakingRewardRate = 5 */\n  0x08\n  sstore\n    /* \"contracts/GovernanceToken.sol\":2536:2649  constructor() ERC20(\"DAO Governance Token\", \"DGT\") {... */\n  callvalue\n  dup1\n  iszero\n  tag_1\n  jumpi\n  0x00\n  dup1\n  revert\ntag_1:\n  pop\n    /* \"contracts/GovernanceToken.sol\":461:574  constructor(string memory name_, string memory symbol_) {... */\n  mload(0x40)\n  dup1\n  0x40\n  add\n  0x40\n  mstore\n  dup1\n  0x14\n  dup2\n  mstore\n  0x20\n  add\n  0x44414f20476f7665726e616e636520546f6b656e000000000000000000000000\n  dup2\n  mstore\n  pop\n  mload(0x40)\n  dup1\n  0x40\n  add\n  0x40\n  mstore\n  dup1\n  0x03\n  dup2\n  mstore\n  0x20\n  add\n  shl(0xea, 0x1111d5)\n  dup2\n  mstore\n  pop\n    /* \"contracts/GovernanceToken.sol\":535:540  name_ */\n  dup2\n    /* \"contracts/GovernanceToken.sol\":527:532  _name */\n  0x03\n    /* \"contracts/GovernanceToken.sol\":527:540  _name = name_ */\n  swap1\n  dup2\n  tag_6\n  swap2\n  swap1\n  tag_7\n  jump\t// in\ntag_6:\n  pop\n    /* \"contracts/GovernanceToken.sol\":550:557  _symbol */\n  0x04\n    /* \"contracts/GovernanceToken.sol\":550:567  _symbol = symbol_ */\n  tag_8\n    /* \"contracts/GovernanceToken.sol\":560:567  symbol_ */\n  dup3\n    /* \"contracts/GovernanceToken.sol\":550:557  _symbol */\n  dup3\n    /* \"contracts/GovernanceToken.sol\":550:567  _symbol = symbol_ */\n  tag_7\n  jump\t// in\ntag_8:\n  pop\n  pop\n    /* \"contracts/GovernanceToken.sol\":1840:1846  _owner */\n  0x05\n    /* \"contracts/GovernanceToken.sol\":1840:1859  _owner = msg.sender */\n  dup1\n  sload\n  not(sub(shl(0xa0, 0x01), 0x01))\n  and\n    /* \"contracts/GovernanceToken.sol\":1849:1859  msg.sender */\n  caller\n    /* \"contracts/GovernanceToken.sol\":1840:1859  _owner = msg.sender */\n  swap1\n  dup2\n  or\n  swap1\n  swap2\n  sstore\n    /* \"contracts/GovernanceToken.sol\":1874:1914  OwnershipTransferred(address(0), _owner) */\n  mload(0x40)\n    /* \"contracts/GovernanceToken.sol\":1849:1859  msg.sender */\n  swap1\n  swap2\n  pop\n    /* \"contracts/GovernanceToken.sol\":1840:1846  _owner */\n  0x00\n  swap1\n    /* \"contracts/GovernanceToken.sol\":1874:1914  OwnershipTransferred(address(0), _owner) */\n  0x8be0079c531659141344cd1fd0a4f28419497f9722a3daafe3b4186f6b6457e0\n  swap1\n    /* \"contracts/GovernanceToken.sol\":1840:1846  _owner */\n  dup3\n  swap1\n    /* \"contracts/GovernanceToken.sol\":1874:1914  OwnershipTransferred(address(0), _owner) */\n  log3\n    /* \"contracts/GovernanceToken.sol\":2597:2642  _mint(msg.sender, 1_000_000 * 10**decimals()) */\n  tag_11\n    /* \"contracts/GovernanceToken.sol\":2603:2613  msg.sender */\n  caller\n    /* \"contracts/GovernanceToken.sol\":2627:2641  10**decimals() */\n  tag_14\n    /* \"contracts/GovernanceToken.sol\":823:825  18 */\n  0x12\n    /* \"contracts/GovernanceToken.sol\":2627:2629  10 */\n  0x0a\n    /* \"contracts/GovernanceToken.sol\":2627:2641  10**decimals() */\n  tag_15\n  jump\t// in\ntag_14:\n    /* \"contracts/GovernanceToken.sol\":2615:2641  1_000_000 * 10**decimals() */\n  tag_16\n  swap1\n    /* \"contracts/GovernanceToken.sol\":2615:2624  1_000_000 */\n  0x0f4240\n    /* \"contracts/GovernanceToken.sol\":2615:2641  1_000_000 * 10**decimals() */\n  tag_17\n  jump\t// in\ntag_16:\n    /* \"contracts/GovernanceToken.sol\":2597:2602  _mint */\n  tag_18\n    /* \"contracts/GovernanceToken.sol\":2597:2642  _mint(msg.sender, 1_000_000 * 10**decimals()) */\n  jump\t// in\ntag_11:\n    /* \"contracts/GovernanceToken.sol\":2160:3194  contract GovernanceToken is ERC20, Ownable {... */\n  jump(tag_38)\n    /* \"contracts/GovernanceToken.sol\":1047:1308  function _mint(address account, uint256 amount) internal {... */\ntag_18:\n  sub(shl(0xa0, 0x01), 0x01)\n    /* \"contracts/GovernanceToken.sol\":1122:1143  account != address(0) */\n  dup3\n  and\n    /* \"contracts/GovernanceToken.sol\":1114:1179  require(account != address(0), \"ERC20: mint to the zero address\") */\n  tag_22\n  jumpi\n  mload(0x40)\n  shl(0xe5, 0x461bcd)\n  dup2\n  mstore\n    /* \"#utility.yul\":4594:4596   */\n  0x20\n    /* \"contracts/GovernanceToken.sol\":1114:1179  require(account != address(0), \"ERC20: mint to the zero address\") */\n  0x04\n  dup3\n  add\n    /* \"#utility.yul\":4576:4597   */\n  mstore\n    /* \"#utility.yul\":4633:4635   */\n  0x1f\n    /* \"#utility.yul\":4613:4631   */\n  0x24\n  dup3\n  add\n    /* \"#utility.yul\":4606:4636   */\n  mstore\n    /* \"#utility.yul\":4672:4705   */\n  0x45524332303a206d696e7420746f20746865207a65726f206164647265737300\n    /* \"#utility.yul\":4652:4670   */\n  0x44\n  dup3\n  add\n    /* \"#utility.yul\":4645:4706   */\n  mstore\n    /* \"#utility.yul\":4723:4741   */\n  0x64\n  add\n    /* \"contracts/GovernanceToken.sol\":1114:1179  require(account != address(0), \"ERC20: mint to the zero address\") */\n  mload(0x40)\n  dup1\n  swap2\n  sub\n  swap1\n  revert\ntag_22:\n    /* \"contracts/GovernanceToken.sol\":1205:1211  amount */\n  dup1\n    /* \"contracts/GovernanceToken.sol\":1189:1201  _totalSupply */\n  0x02\n  0x00\n    /* \"contracts/GovernanceToken.sol\":1189:1211  _totalSupply += amount */\n  dup3\n  dup3\n  sload\n  tag_25\n  swap2\n  swap1\n  tag_26\n  jump\t// in\ntag_25:\n  swap1\n  swap2\n  sstore\n  pop\n  pop\n  sub(shl(0xa0, 0x01), 0x01)\n    /* \"contracts/GovernanceToken.sol\":1221:1239  _balances[account] */\n  dup3\n  and\n    /* \"contracts/GovernanceToken.sol\":1221:1230  _balances */\n  0x00\n    /* \"contracts/GovernanceToken.sol\":1221:1239  _balances[account] */\n  swap1\n  dup2\n  mstore\n  0x20\n  dup2\n  swap1\n  mstore\n  0x40\n  dup2\n  keccak256\n    /* \"contracts/GovernanceToken.sol\":1221:1249  _balances[account] += amount */\n  dup1\n  sload\n    /* \"contracts/GovernanceToken.sol\":1243:1249  amount */\n  dup4\n  swap3\n    /* \"contracts/GovernanceToken.sol\":1221:1230  _balances */\n  swap1\n    /* \"contracts/GovernanceToken.sol\":1221:1249  _balances[account] += amount */\n  tag_27\n  swap1\n    /* \"contracts/GovernanceToken.sol\":1243:1249  amount */\n  dup5\n  swap1\n    /* \"contracts/GovernanceToken.sol\":1221:1249  _balances[account] += amount */\n  tag_26\n  jump\t// in\ntag_27:\n  swap1\n  swap2\n  sstore\n  pop\n  pop\n    /* \"contracts/GovernanceToken.sol\":1264:1301  Transfer(address(0), account, amount) */\n  mload(0x40)\n    /* \"#utility.yul\":5028:5053   */\n  dup2\n  dup2\n  mstore\n  sub(shl(0xa0, 0x01), 0x01)\n    /* \"contracts/GovernanceToken.sol\":1264:1301  Transfer(address(0), account, amount) */\n  dup4\n  and\n  swap1\n    /* \"contracts/GovernanceToken.sol\":1281:1282  0 */\n  0x00\n  swap1\n    /* \"contracts/GovernanceToken.sol\":1264:1301  Transfer(address(0), account, amount) */\n  0xddf252ad1be2c89b69c2b068fc378daa952ba7f163c4a11628f55a4df523b3ef\n  swap1\n    /* \"#utility.yul\":5016:5018   */\n  0x20\n    /* \"#utility.yul\":5001:5019   */\n  add\n    /* \"contracts/GovernanceToken.sol\":1264:1301  Transfer(address(0), account, amount) */\n  mload(0x40)\n  dup1\n  swap2\n  sub\n  swap1\n  log3\n    /* \"contracts/GovernanceToken.sol\":1047:1308  function _mint(address account, uint256 amount) internal {... */\n  pop\n  pop\n  jump\t// out\n    /* \"#utility.yul\":14:141   */\ntag_30:\n    /* \"#utility.yul\":75:85   */\n  0x4e487b71\n    /* \"#utility.yul\":70:73   */\n  0xe0\n    /* \"#utility.yul\":66:86   */\n  shl\n    /* \"#utility.yul\":63:64   */\n  0x00\n    /* \"#utility.yul\":56:87   */\n  mstore\n    /* \"#utility.yul\":106:110   */\n  0x41\n    /* \"#utility.yul\":103:104   */\n  0x04\n    /* \"#utility.yul\":96:111   */\n  mstore\n    /* \"#utility.yul\":130:134   */\n  0x24\n    /* \"#utility.yul\":127:128   */\n  0x00\n    /* \"#utility.yul\":120:135   */\n  revert\n    /* \"#utility.yul\":146:526   */\ntag_31:\n    /* \"#utility.yul\":225:226   */\n  0x01\n    /* \"#utility.yul\":221:233   */\n  dup2\n  dup2\n  shr\n  swap1\n    /* \"#utility.yul\":268:280   */\n  dup3\n  and\n  dup1\n    /* \"#utility.yul\":289:350   */\n  tag_41\n  jumpi\n    /* \"#utility.yul\":343:347   */\n  0x7f\n    /* \"#utility.yul\":335:341   */\n  dup3\n    /* \"#utility.yul\":331:348   */\n  and\n    /* \"#utility.yul\":321:348   */\n  swap2\n  pop\n    /* \"#utility.yul\":289:350   */\ntag_41:\n    /* \"#utility.yul\":396:398   */\n  0x20\n    /* \"#utility.yul\":388:394   */\n  dup3\n    /* \"#utility.yul\":385:399   */\n  lt\n    /* \"#utility.yul\":365:383   */\n  dup2\n    /* \"#utility.yul\":362:400   */\n  sub\n    /* \"#utility.yul\":359:520   */\n  tag_42\n  jumpi\n    /* \"#utility.yul\":442:452   */\n  0x4e487b71\n    /* \"#utility.yul\":437:440   */\n  0xe0\n    /* \"#utility.yul\":433:453   */\n  shl\n    /* \"#utility.yul\":430:431   */\n  0x00\n    /* \"#utility.yul\":423:454   */\n  mstore\n    /* \"#utility.yul\":477:481   */\n  0x22\n    /* \"#utility.yul\":474:475   */\n  0x04\n    /* \"#utility.yul\":467:482   */\n  mstore\n    /* \"#utility.yul\":505:509   */\n  0x24\n    /* \"#utility.yul\":502:503   */\n  0x00\n    /* \"#utility.yul\":495:510   */\n  revert\n    /* \"#utility.yul\":359:520   */\ntag_42:\n  pop\n    /* \"#utility.yul\":146:526   */\n  swap2\n  swap1\n  pop\n  jump\t// out\n    /* \"#utility.yul\":657:1175   */\ntag_33:\n    /* \"#utility.yul\":759:761   */\n  0x1f\n    /* \"#utility.yul\":754:757   */\n  dup3\n    /* \"#utility.yul\":751:762   */\n  gt\n    /* \"#utility.yul\":748:1169   */\n  iszero\n  tag_45\n  jumpi\n    /* \"#utility.yul\":795:800   */\n  dup1\n    /* \"#utility.yul\":792:793   */\n  0x00\n    /* \"#utility.yul\":785:801   */\n  mstore\n    /* \"#utility.yul\":839:843   */\n  0x20\n    /* \"#utility.yul\":836:837   */\n  0x00\n    /* \"#utility.yul\":826:844   */\n  keccak256\n    /* \"#utility.yul\":909:911   */\n  0x1f\n    /* \"#utility.yul\":897:907   */\n  dup5\n    /* \"#utility.yul\":893:912   */\n  add\n    /* \"#utility.yul\":890:891   */\n  0x05\n    /* \"#utility.yul\":886:913   */\n  shr\n    /* \"#utility.yul\":880:884   */\n  dup2\n    /* \"#utility.yul\":876:914   */\n  add\n    /* \"#utility.yul\":945:949   */\n  0x20\n    /* \"#utility.yul\":933:943   */\n  dup6\n    /* \"#utility.yul\":930:950   */\n  lt\n    /* \"#utility.yul\":927:974   */\n  iszero\n  tag_46\n  jumpi\n  pop\n    /* \"#utility.yul\":968:972   */\n  dup1\n    /* \"#utility.yul\":927:974   */\ntag_46:\n    /* \"#utility.yul\":1023:1025   */\n  0x1f\n    /* \"#utility.yul\":1018:1021   */\n  dup5\n    /* \"#utility.yul\":1014:1026   */\n  add\n    /* \"#utility.yul\":1011:1012   */\n  0x05\n    /* \"#utility.yul\":1007:1027   */\n  shr\n    /* \"#utility.yul\":1001:1005   */\n  dup3\n    /* \"#utility.yul\":997:1028   */\n  add\n    /* \"#utility.yul\":987:1028   */\n  swap2\n  pop\n    /* \"#utility.yul\":1078:1159   */\ntag_47:\n    /* \"#utility.yul\":1096:1098   */\n  dup2\n    /* \"#utility.yul\":1089:1094   */\n  dup2\n    /* \"#utility.yul\":1086:1099   */\n  lt\n    /* \"#utility.yul\":1078:1159   */\n  iszero\n  tag_49\n  jumpi\n    /* \"#utility.yul\":1155:1156   */\n  0x00\n    /* \"#utility.yul\":1141:1157   */\n  dup2\n  sstore\n    /* \"#utility.yul\":1122:1123   */\n  0x01\n    /* \"#utility.yul\":1111:1124   */\n  add\n    /* \"#utility.yul\":1078:1159   */\n  jump(tag_47)\ntag_49:\n    /* \"#utility.yul\":1082:1085   */\n  pop\n  pop\n    /* \"#utility.yul\":748:1169   */\ntag_45:\n    /* \"#utility.yul\":657:1175   */\n  pop\n  pop\n  pop\n  jump\t// out\n    /* \"#utility.yul\":1351:2650   */\ntag_7:\n    /* \"#utility.yul\":1471:1481   */\n  dup2\n  mload\n  sub(shl(0x40, 0x01), 0x01)\n    /* \"#utility.yul\":1493:1523   */\n  dup2\n  gt\n    /* \"#utility.yul\":1490:1546   */\n  iszero\n  tag_53\n  jumpi\n    /* \"#utility.yul\":1526:1544   */\n  tag_53\n  tag_30\n  jump\t// in\ntag_53:\n    /* \"#utility.yul\":1555:1652   */\n  tag_54\n    /* \"#utility.yul\":1645:1651   */\n  dup2\n    /* \"#utility.yul\":1605:1643   */\n  tag_55\n    /* \"#utility.yul\":1637:1641   */\n  dup5\n    /* \"#utility.yul\":1631:1642   */\n  sload\n    /* \"#utility.yul\":1605:1643   */\n  tag_31\n  jump\t// in\ntag_55:\n    /* \"#utility.yul\":1599:1603   */\n  dup5\n    /* \"#utility.yul\":1555:1652   */\n  tag_33\n  jump\t// in\ntag_54:\n    /* \"#utility.yul\":1701:1705   */\n  0x20\n    /* \"#utility.yul\":1732:1734   */\n  0x1f\n    /* \"#utility.yul\":1721:1735   */\n  dup3\n  gt\n    /* \"#utility.yul\":1749:1750   */\n  0x01\n    /* \"#utility.yul\":1744:2393   */\n  dup2\n  eq\n  tag_57\n  jumpi\n    /* \"#utility.yul\":2437:2438   */\n  0x00\n    /* \"#utility.yul\":2454:2460   */\n  dup4\n    /* \"#utility.yul\":2451:2540   */\n  iszero\n  tag_58\n  jumpi\n  pop\n    /* \"#utility.yul\":2506:2525   */\n  dup5\n  dup3\n  add\n    /* \"#utility.yul\":2500:2526   */\n  mload\n    /* \"#utility.yul\":2451:2540   */\ntag_58:\n  not(0x00)\n    /* \"#utility.yul\":1308:1309   */\n  0x03\n    /* \"#utility.yul\":1304:1315   */\n  dup6\n  swap1\n  shl\n    /* \"#utility.yul\":1300:1324   */\n  shr\n    /* \"#utility.yul\":1296:1325   */\n  not\n    /* \"#utility.yul\":1286:1326   */\n  and\n    /* \"#utility.yul\":1332:1333   */\n  0x01\n    /* \"#utility.yul\":1328:1339   */\n  dup5\n  swap1\n  shl\n    /* \"#utility.yul\":1283:1340   */\n  or\n    /* \"#utility.yul\":2553:2634   */\n  dup5\n  sstore\n    /* \"#utility.yul\":1714:2644   */\n  jump(tag_49)\n    /* \"#utility.yul\":1744:2393   */\ntag_57:\n    /* \"#utility.yul\":604:605   */\n  0x00\n    /* \"#utility.yul\":597:611   */\n  dup5\n  dup2\n  mstore\n    /* \"#utility.yul\":641:645   */\n  0x20\n    /* \"#utility.yul\":628:646   */\n  dup2\n  keccak256\n  not(0x1f)\n    /* \"#utility.yul\":1780:1800   */\n  dup6\n  and\n  swap2\n    /* \"#utility.yul\":1898:2120   */\ntag_61:\n    /* \"#utility.yul\":1912:1919   */\n  dup3\n    /* \"#utility.yul\":1909:1910   */\n  dup2\n    /* \"#utility.yul\":1906:1920   */\n  lt\n    /* \"#utility.yul\":1898:2120   */\n  iszero\n  tag_63\n  jumpi\n    /* \"#utility.yul\":1994:2013   */\n  dup8\n  dup6\n  add\n    /* \"#utility.yul\":1988:2014   */\n  mload\n    /* \"#utility.yul\":1973:2015   */\n  dup3\n  sstore\n    /* \"#utility.yul\":2101:2105   */\n  0x20\n    /* \"#utility.yul\":2086:2106   */\n  swap5\n  dup6\n  add\n  swap5\n    /* \"#utility.yul\":2054:2055   */\n  0x01\n    /* \"#utility.yul\":2042:2056   */\n  swap1\n  swap3\n  add\n  swap2\n    /* \"#utility.yul\":1928:1940   */\n  add\n    /* \"#utility.yul\":1898:2120   */\n  jump(tag_61)\ntag_63:\n    /* \"#utility.yul\":1902:1905   */\n  pop\n    /* \"#utility.yul\":2148:2154   */\n  dup5\n    /* \"#utility.yul\":2139:2146   */\n  dup3\n    /* \"#utility.yul\":2136:2155   */\n  lt\n    /* \"#utility.yul\":2133:2334   */\n  iszero\n  tag_64\n  jumpi\n    /* \"#utility.yul\":2209:2228   */\n  dup7\n  dup5\n  add\n    /* \"#utility.yul\":2203:2229   */\n  mload\n  not(0x00)\n    /* \"#utility.yul\":2292:2293   */\n  0x03\n    /* \"#utility.yul\":2288:2302   */\n  dup8\n  swap1\n  shl\n    /* \"#utility.yul\":2304:2307   */\n  0xf8\n    /* \"#utility.yul\":2284:2308   */\n  and\n    /* \"#utility.yul\":2280:2317   */\n  shr\n    /* \"#utility.yul\":2276:2318   */\n  not\n    /* \"#utility.yul\":2261:2319   */\n  and\n    /* \"#utility.yul\":2246:2320   */\n  dup2\n  sstore\n    /* \"#utility.yul\":2133:2334   */\ntag_64:\n  pop\n  pop\n  pop\n  pop\n    /* \"#utility.yul\":2380:2381   */\n  0x01\n    /* \"#utility.yul\":2364:2378   */\n  swap1\n  dup2\n  shl\n    /* \"#utility.yul\":2360:2382   */\n  add\n    /* \"#utility.yul\":2347:2383   */\n  swap1\n  sstore\n  pop\n    /* \"#utility.yul\":1351:2650   */\n  jump\t// out\n    /* \"#utility.yul\":2655:2782   */\ntag_35:\n    /* \"#utility.yul\":2716:2726   */\n  0x4e487b71\n    /* \"#utility.yul\":2711:2714   */\n  0xe0\n    /* \"#utility.yul\":2707:2727   */\n  shl\n    /* \"#utility.yul\":2704:2705   */\n  0x00\n    /* \"#utility.yul\":2697:2728   */\n  mstore\n    /* \"#utility.yul\":2747:2751   */\n  0x11\n    /* \"#utility.yul\":2744:2745   */\n  0x04\n    /* \"#utility.yul\":2737:2752   */\n  mstore\n    /* \"#utility.yul\":2771:2775   */\n  0x24\n    /* \"#utility.yul\":2768:2769   */\n  0x00\n    /* \"#utility.yul\":2761:2776   */\n  revert\n    /* \"#utility.yul\":2787:3162   */\ntag_36:\n    /* \"#utility.yul\":2875:2876   */\n  0x01\n    /* \"#utility.yul\":2893:2898   */\n  dup2\n    /* \"#utility.yul\":2907:3156   */\ntag_67:\n    /* \"#utility.yul\":2928:2929   */\n  0x01\n    /* \"#utility.yul\":2918:2926   */\n  dup5\n    /* \"#utility.yul\":2915:2930   */\n  gt\n    /* \"#utility.yul\":2907:3156   */\n  iszero\n  tag_69\n  jumpi\n    /* \"#utility.yul\":2978:2982   */\n  dup1\n    /* \"#utility.yul\":2973:2976   */\n  dup6\n    /* \"#utility.yul\":2969:2983   */\n  div\n    /* \"#utility.yul\":2963:2967   */\n  dup2\n    /* \"#utility.yul\":2960:2984   */\n  gt\n    /* \"#utility.yul\":2957:3007   */\n  iszero\n  tag_71\n  jumpi\n    /* \"#utility.yul\":2987:3005   */\n  tag_71\n  tag_35\n  jump\t// in\ntag_71:\n    /* \"#utility.yul\":3037:3038   */\n  0x01\n    /* \"#utility.yul\":3027:3035   */\n  dup5\n    /* \"#utility.yul\":3023:3039   */\n  and\n    /* \"#utility.yul\":3020:3069   */\n  iszero\n  tag_72\n  jumpi\n    /* \"#utility.yul\":3051:3067   */\n  swap1\n  dup2\n  mul\n  swap1\n    /* \"#utility.yul\":3020:3069   */\ntag_72:\n    /* \"#utility.yul\":3134:3135   */\n  0x01\n    /* \"#utility.yul\":3130:3146   */\n  swap4\n  swap1\n  swap4\n  shr\n  swap3\n    /* \"#utility.yul\":3090:3105   */\n  dup1\n  mul\n    /* \"#utility.yul\":2907:3156   */\n  jump(tag_67)\ntag_69:\n    /* \"#utility.yul\":2787:3162   */\n  swap4\n  pop\n  swap4\n  swap2\n  pop\n  pop\n  jump\t// out\n    /* \"#utility.yul\":3167:4069   */\ntag_37:\n    /* \"#utility.yul\":3216:3221   */\n  0x00\n    /* \"#utility.yul\":3246:3254   */\n  dup3\n    /* \"#utility.yul\":3236:3316   */\n  tag_74\n  jumpi\n  pop\n    /* \"#utility.yul\":3287:3288   */\n  0x01\n    /* \"#utility.yul\":3301:3306   */\n  jump(tag_73)\n    /* \"#utility.yul\":3236:3316   */\ntag_74:\n    /* \"#utility.yul\":3335:3339   */\n  dup2\n    /* \"#utility.yul\":3325:3401   */\n  tag_75\n  jumpi\n  pop\n    /* \"#utility.yul\":3372:3373   */\n  0x00\n    /* \"#utility.yul\":3386:3391   */\n  jump(tag_73)\n    /* \"#utility.yul\":3325:3401   */\ntag_75:\n    /* \"#utility.yul\":3417:3421   */\n  dup2\n    /* \"#utility.yul\":3435:3436   */\n  0x01\n    /* \"#utility.yul\":3430:3489   */\n  dup2\n  eq\n  tag_77\n  jumpi\n    /* \"#utility.yul\":3503:3504   */\n  0x02\n    /* \"#utility.yul\":3498:3672   */\n  dup2\n  eq\n  tag_78\n  jumpi\n    /* \"#utility.yul\":3410:3672   */\n  jump(tag_76)\n    /* \"#utility.yul\":3430:3489   */\ntag_77:\n    /* \"#utility.yul\":3460:3461   */\n  0x01\n    /* \"#utility.yul\":3451:3461   */\n  swap2\n  pop\n    /* \"#utility.yul\":3474:3479   */\n  pop\n  jump(tag_73)\n    /* \"#utility.yul\":3498:3672   */\ntag_78:\n    /* \"#utility.yul\":3535:3538   */\n  0xff\n    /* \"#utility.yul\":3525:3533   */\n  dup5\n    /* \"#utility.yul\":3522:3539   */\n  gt\n    /* \"#utility.yul\":3519:3562   */\n  iszero\n  tag_80\n  jumpi\n    /* \"#utility.yul\":3542:3560   */\n  tag_80\n  tag_35\n  jump\t// in\ntag_80:\n  pop\n  pop\n    /* \"#utility.yul\":3598:3599   */\n  0x01\n    /* \"#utility.yul\":3584:3600   */\n  dup3\n  shl\n    /* \"#utility.yul\":3657:3662   */\n  jump(tag_73)\n    /* \"#utility.yul\":3410:3672   */\ntag_76:\n  pop\n    /* \"#utility.yul\":3756:3758   */\n  0x20\n    /* \"#utility.yul\":3746:3754   */\n  dup4\n    /* \"#utility.yul\":3743:3759   */\n  lt\n    /* \"#utility.yul\":3737:3740   */\n  0x0133\n    /* \"#utility.yul\":3731:3735   */\n  dup4\n    /* \"#utility.yul\":3728:3741   */\n  lt\n    /* \"#utility.yul\":3724:3760   */\n  and\n    /* \"#utility.yul\":3718:3720   */\n  0x4e\n    /* \"#utility.yul\":3708:3716   */\n  dup5\n    /* \"#utility.yul\":3705:3721   */\n  lt\n    /* \"#utility.yul\":3700:3702   */\n  0x0b\n    /* \"#utility.yul\":3694:3698   */\n  dup5\n    /* \"#utility.yul\":3691:3703   */\n  lt\n    /* \"#utility.yul\":3687:3722   */\n  and\n    /* \"#utility.yul\":3684:3761   */\n  or\n    /* \"#utility.yul\":3681:3884   */\n  iszero\n  tag_81\n  jumpi\n  pop\n    /* \"#utility.yul\":3793:3812   */\n  dup2\n  dup2\n  exp\n    /* \"#utility.yul\":3869:3874   */\n  jump(tag_73)\n    /* \"#utility.yul\":3681:3884   */\ntag_81:\n    /* \"#utility.yul\":3916:3958   */\n  tag_82\n  not(0x00)\n    /* \"#utility.yul\":3941:3949   */\n  dup5\n    /* \"#utility.yul\":3935:3939   */\n  dup5\n    /* \"#utility.yul\":3916:3958   */\n  tag_36\n  jump\t// in\ntag_82:\n    /* \"#utility.yul\":3994:4000   */\n  dup1\n    /* \"#utility.yul\":3990:3991   */\n  0x00\n    /* \"#utility.yul\":3986:3992   */\n  not\n    /* \"#utility.yul\":3982:4001   */\n  div\n    /* \"#utility.yul\":3973:3980   */\n  dup3\n    /* \"#utility.yul\":3970:4002   */\n  gt\n    /* \"#utility.yul\":3967:4025   */\n  iszero\n  tag_84\n  jumpi\n    /* \"#utility.yul\":4005:4023   */\n  tag_84\n  tag_35\n  jump\t// in\ntag_84:\n    /* \"#utility.yul\":4043:4063   */\n  mul\n  swap1\n  pop\n    /* \"#utility.yul\":3167:4069   */\ntag_73:\n  swap3\n  swap2\n  pop\n  pop\n  jump\t// out\n    /* \"#utility.yul\":4074:4214   */\ntag_15:\n    /* \"#utility.yul\":4132:4137   */\n  0x00\n    /* \"#utility.yul\":4161:4208   */\n  tag_86\n    /* \"#utility.yul\":4202:4206   */\n  0xff\n    /* \"#utility.yul\":4192:4200   */\n  dup5\n    /* \"#utility.yul\":4188:4207   */\n  and\n    /* \"#utility.yul\":4182:4186   */\n  dup4\n    /* \"#utility.yul\":4161:4208   */\n  tag_37\n  jump\t// in\ntag_86:\n    /* \"#utility.yul\":4152:4208   */\n  swap4\n    /* \"#utility.yul\":4074:4214   */\n  swap3\n  pop\n  pop\n  pop\n  jump\t// out\n    /* \"#utility.yul\":4219:4387   */\ntag_17:\n    /* \"#utility.yul\":4292:4301   */\n  dup1\n  dup3\n  mul\n    /* \"#utility.yul\":4323:4332   */\n  dup2\n  iszero\n    /* \"#utility.yul\":4340:4355   */\n  dup3\n  dup3\n  div\n    /* \"#utility.yul\":4334:4356   */\n  dup5\n  eq\n    /* \"#utility.yul\":4320:4357   */\n  or\n    /* \"#utility.yul\":4310:4381   */\n  tag_73\n  jumpi\n    /* \"#utility.yul\":4361:4379   */\n  tag_73\n  tag_35\n  jump\t// in\n    /* \"#utility.yul\":4752:4877   */\ntag_26:\n    /* \"#utility.yul\":4817:4826   */\n  dup1\n  dup3\n  add\n    /* \"#utility.yul\":4838:4848   */\n  dup1\n  dup3\n  gt\n    /* \"#utility.yul\":4835:4871   */\n  iszero\n  tag_73\n  jumpi\n    /* \"#utility.yul\":4851:4869   */\n  tag_73\n  tag_35\n  jump\t// in\n    /* \"#utility.yul\":4882:5059   */\ntag_38:\n    /* \"contracts/GovernanceToken.sol\":2160:3194  contract GovernanceToken is ERC20, Ownable {... */\n  dataSize(sub_0)\n  dup1\n  dataOffset(sub_0)\n  0x00\n  codecopy\n  0x00\n  return\nstop\n\nsub_0: assembly {\n        /* \"contracts/GovernanceToken.sol\":2160:3194  contract GovernanceToken is ERC20, Ownable {... */\n      mstore(0x40, 0x80)\n      callvalue\n      dup1\n      iszero\n      tag_1\n      jumpi\n      0x00\n      dup1\n      revert\n    tag_1:\n      pop\n      jumpi(tag_2, lt(calldatasize, 0x04))\n      shr(0xe0, calldataload(0x00))\n      dup1\n      0x4f3fc2df\n      gt\n      tag_12\n      jumpi\n      dup1\n      0x4f3fc2df\n      eq\n      tag_7\n      jumpi\n      dup1\n      0x70a08231\n      eq\n      tag_8\n      jumpi\n      dup1\n      0x8da5cb5b\n      eq\n      tag_9\n      jumpi\n      dup1\n      0x95d89b41\n      eq\n      tag_10\n      jumpi\n      dup1\n      0xa694fc3a\n      eq\n      tag_11\n      jumpi\n      0x00\n      dup1\n      revert\n    tag_12:\n      dup1\n      0x06fdde03\n      eq\n      tag_3\n      jumpi\n      dup1\n      0x18160ddd\n      eq\n      tag_4\n      jumpi\n      dup1\n      0x313ce567\n      eq\n      tag_5\n      jumpi\n      dup1\n      0x42966c68\n      eq\n      tag_6\n      jumpi\n    tag_2:\n      0x00\n      dup1\n      revert\n        /* \"contracts/GovernanceToken.sol\":580:661  function name() public view returns (string memory) {... */\n    tag_3:\n      tag_13\n      tag_14\n      jump\t// in\n    tag_13:\n      mload(0x40)\n      tag_15\n      swap2\n      swap1\n      tag_16\n      jump\t// in\n    tag_15:\n      mload(0x40)\n      dup1\n      swap2\n      sub\n      swap1\n      return\n        /* \"contracts/GovernanceToken.sol\":838:927  function totalSupply() public view returns (uint256) {... */\n    tag_4:\n        /* \"contracts/GovernanceToken.sol\":908:920  _totalSupply */\n      sload(0x02)\n        /* \"contracts/GovernanceToken.sol\":838:927  function totalSupply() public view returns (uint256) {... */\n    tag_17:\n      mload(0x40)\n        /* \"#utility.yul\":583:608   */\n      swap1\n      dup2\n      mstore\n        /* \"#utility.yul\":571:573   */\n      0x20\n        /* \"#utility.yul\":556:574   */\n      add\n        /* \"contracts/GovernanceToken.sol\":838:927  function totalSupply() public view returns (uint256) {... */\n      tag_15\n        /* \"#utility.yul\":437:614   */\n      jump\n        /* \"contracts/GovernanceToken.sol\":758:832  function decimals() public pure returns (uint8) {... */\n    tag_5:\n      mload(0x40)\n        /* \"contracts/GovernanceToken.sol\":823:825  18 */\n      0x12\n        /* \"#utility.yul\":761:797   */\n      dup2\n      mstore\n        /* \"#utility.yul\":749:751   */\n      0x20\n        /* \"#utility.yul\":734:752   */\n      add\n        /* \"contracts/GovernanceToken.sol\":758:832  function decimals() public pure returns (uint8) {... */\n      tag_15\n        /* \"#utility.yul\":619:803   */\n      jump\n        /* \"contracts/GovernanceToken.sol\":2993:3192  function burn(uint256 amount) public {... */\n    tag_6:\n      tag_25\n      tag_26\n      calldatasize\n      0x04\n      tag_27\n      jump\t// in\n    tag_26:\n      tag_28\n      jump\t// in\n    tag_25:\n      stop\n        /* \"contracts/GovernanceToken.sol\":2322:2358  uint256 public stakingRewardRate = 5 */\n    tag_7:\n      tag_17\n      sload(0x08)\n      dup2\n      jump\n        /* \"contracts/GovernanceToken.sol\":933:1041  function balanceOf(address account) public view returns (uint256) {... */\n    tag_8:\n      tag_17\n      tag_33\n      calldatasize\n      0x04\n      tag_34\n      jump\t// in\n    tag_33:\n      sub(shl(0xa0, 0x01), 0x01)\n        /* \"contracts/GovernanceToken.sol\":1016:1034  _balances[account] */\n      and\n        /* \"contracts/GovernanceToken.sol\":990:997  uint256 */\n      0x00\n        /* \"contracts/GovernanceToken.sol\":1016:1034  _balances[account] */\n      swap1\n      dup2\n      mstore\n      0x20\n      dup2\n      swap1\n      mstore\n      0x40\n      swap1\n      keccak256\n      sload\n      swap1\n        /* \"contracts/GovernanceToken.sol\":933:1041  function balanceOf(address account) public view returns (uint256) {... */\n      jump\n        /* \"contracts/GovernanceToken.sol\":1927:2004  function owner() public view returns (address) {... */\n    tag_9:\n        /* \"contracts/GovernanceToken.sol\":1991:1997  _owner */\n      sload(0x05)\n        /* \"contracts/GovernanceToken.sol\":1927:2004  function owner() public view returns (address) {... */\n      mload(0x40)\n      sub(shl(0xa0, 0x01), 0x01)\n        /* \"contracts/GovernanceToken.sol\":1991:1997  _owner */\n      swap1\n      swap2\n      and\n        /* \"#utility.yul\":1430:1481   */\n      dup2\n      mstore\n        /* \"#utility.yul\":1418:1420   */\n      0x20\n        /* \"#utility.yul\":1403:1421   */\n      add\n        /* \"contracts/GovernanceToken.sol\":1927:2004  function owner() public view returns (address) {... */\n      tag_15\n        /* \"#utility.yul\":1284:1487   */\n      jump\n        /* \"contracts/GovernanceToken.sol\":667:752  function symbol() public view returns (string memory) {... */\n    tag_10:\n      tag_13\n      tag_42\n      jump\t// in\n        /* \"contracts/GovernanceToken.sol\":2655:2987  function stake(uint256 amount) public {... */\n    tag_11:\n      tag_25\n      tag_45\n      calldatasize\n      0x04\n      tag_27\n      jump\t// in\n    tag_45:\n      tag_46\n      jump\t// in\n        /* \"contracts/GovernanceToken.sol\":580:661  function name() public view returns (string memory) {... */\n    tag_14:\n        /* \"contracts/GovernanceToken.sol\":617:630  string memory */\n      0x60\n        /* \"contracts/GovernanceToken.sol\":649:654  _name */\n      0x03\n        /* \"contracts/GovernanceToken.sol\":642:654  return _name */\n      dup1\n      sload\n      tag_48\n      swap1\n      tag_49\n      jump\t// in\n    tag_48:\n      dup1\n      0x1f\n      add\n      0x20\n      dup1\n      swap2\n      div\n      mul\n      0x20\n      add\n      mload(0x40)\n      swap1\n      dup2\n      add\n      0x40\n      mstore\n      dup1\n      swap3\n      swap2\n      swap1\n      dup2\n      dup2\n      mstore\n      0x20\n      add\n      dup3\n      dup1\n      sload\n      tag_50\n      swap1\n      tag_49\n      jump\t// in\n    tag_50:\n      dup1\n      iszero\n      tag_51\n      jumpi\n      dup1\n      0x1f\n      lt\n      tag_52\n      jumpi\n      0x0100\n      dup1\n      dup4\n      sload\n      div\n      mul\n      dup4\n      mstore\n      swap2\n      0x20\n      add\n      swap2\n      jump(tag_51)\n    tag_52:\n      dup3\n      add\n      swap2\n      swap1\n      0x00\n      mstore\n      keccak256(0x00, 0x20)\n      swap1\n    tag_53:\n      dup2\n      sload\n      dup2\n      mstore\n      swap1\n      0x01\n      add\n      swap1\n      0x20\n      add\n      dup1\n      dup4\n      gt\n      tag_53\n      jumpi\n      dup3\n      swap1\n      sub\n      0x1f\n      and\n      dup3\n      add\n      swap2\n    tag_51:\n      pop\n      pop\n      pop\n      pop\n      pop\n      swap1\n      pop\n        /* \"contracts/GovernanceToken.sol\":580:661  function name() public view returns (string memory) {... */\n      swap1\n      jump\t// out\n        /* \"contracts/GovernanceToken.sol\":2993:3192  function burn(uint256 amount) public {... */\n    tag_28:\n        /* \"contracts/GovernanceToken.sol\":3058:3068  msg.sender */\n      caller\n        /* \"contracts/GovernanceToken.sol\":990:997  uint256 */\n      0x00\n        /* \"contracts/GovernanceToken.sol\":1016:1034  _balances[account] */\n      swap1\n      dup2\n      mstore\n      0x20\n      dup2\n      swap1\n      mstore\n      0x40\n      swap1\n      keccak256\n      sload\n        /* \"contracts/GovernanceToken.sol\":3073:3079  amount */\n      dup2\n      gt\n        /* \"contracts/GovernanceToken.sol\":3048:3079  balanceOf(msg.sender) >= amount */\n      iszero\n        /* \"contracts/GovernanceToken.sol\":3040:3109  require(balanceOf(msg.sender) >= amount, \"Not enough tokens to burn\") */\n      tag_58\n      jumpi\n      mload(0x40)\n      shl(0xe5, 0x461bcd)\n      dup2\n      mstore\n        /* \"#utility.yul\":2079:2081   */\n      0x20\n        /* \"contracts/GovernanceToken.sol\":3040:3109  require(balanceOf(msg.sender) >= amount, \"Not enough tokens to burn\") */\n      0x04\n      dup3\n      add\n        /* \"#utility.yul\":2061:2082   */\n      mstore\n        /* \"#utility.yul\":2118:2120   */\n      0x19\n        /* \"#utility.yul\":2098:2116   */\n      0x24\n      dup3\n      add\n        /* \"#utility.yul\":2091:2121   */\n      mstore\n        /* \"#utility.yul\":2157:2184   */\n      0x4e6f7420656e6f75676820746f6b656e7320746f206275726e00000000000000\n        /* \"#utility.yul\":2137:2155   */\n      0x44\n      dup3\n      add\n        /* \"#utility.yul\":2130:2185   */\n      mstore\n        /* \"#utility.yul\":2202:2220   */\n      0x64\n      add\n        /* \"contracts/GovernanceToken.sol\":3040:3109  require(balanceOf(msg.sender) >= amount, \"Not enough tokens to burn\") */\n    tag_59:\n      mload(0x40)\n      dup1\n      swap2\n      sub\n      swap1\n      revert\n    tag_58:\n        /* \"contracts/GovernanceToken.sol\":3119:3144  _burn(msg.sender, amount) */\n      tag_61\n        /* \"contracts/GovernanceToken.sol\":3125:3135  msg.sender */\n      caller\n        /* \"contracts/GovernanceToken.sol\":3137:3143  amount */\n      dup3\n        /* \"contracts/GovernanceToken.sol\":3119:3124  _burn */\n      tag_62\n        /* \"contracts/GovernanceToken.sol\":3119:3144  _burn(msg.sender, amount) */\n      jump\t// in\n    tag_61:\n        /* \"contracts/GovernanceToken.sol\":3159:3185  Burned(msg.sender, amount) */\n      mload(0x40)\n        /* \"#utility.yul\":583:608   */\n      dup2\n      dup2\n      mstore\n        /* \"contracts/GovernanceToken.sol\":3166:3176  msg.sender */\n      caller\n      swap1\n        /* \"contracts/GovernanceToken.sol\":3159:3185  Burned(msg.sender, amount) */\n      0x696de425f79f4a40bc6d2122ca50507f0efbeabbff86a84871b7196ab8ea8df7\n      swap1\n        /* \"#utility.yul\":571:573   */\n      0x20\n        /* \"#utility.yul\":556:574   */\n      add\n        /* \"contracts/GovernanceToken.sol\":3159:3185  Burned(msg.sender, amount) */\n    tag_63:\n      mload(0x40)\n      dup1\n      swap2\n      sub\n      swap1\n      log2\n        /* \"contracts/GovernanceToken.sol\":2993:3192  function burn(uint256 amount) public {... */\n      pop\n      jump\t// out\n        /* \"contracts/GovernanceToken.sol\":667:752  function symbol() public view returns (string memory) {... */\n    tag_42:\n        /* \"contracts/GovernanceToken.sol\":706:719  string memory */\n      0x60\n        /* \"contracts/GovernanceToken.sol\":738:745  _symbol */\n      0x04\n        /* \"contracts/GovernanceToken.sol\":731:745  return _symbol */\n      dup1\n      sload\n      tag_48\n      swap1\n      tag_49\n      jump\t// in\n        /* \"contracts/GovernanceToken.sol\":2655:2987  function stake(uint256 amount) public {... */\n    tag_46:\n        /* \"contracts/GovernanceToken.sol\":2720:2721  0 */\n      0x00\n        /* \"contracts/GovernanceToken.sol\":2711:2717  amount */\n      dup2\n        /* \"contracts/GovernanceToken.sol\":2711:2721  amount > 0 */\n      gt\n        /* \"contracts/GovernanceToken.sol\":2703:2755  require(amount > 0, \"Amount must be greater than 0\") */\n      tag_73\n      jumpi\n      mload(0x40)\n      shl(0xe5, 0x461bcd)\n      dup2\n      mstore\n        /* \"#utility.yul\":2433:2435   */\n      0x20\n        /* \"contracts/GovernanceToken.sol\":2703:2755  require(amount > 0, \"Amount must be greater than 0\") */\n      0x04\n      dup3\n      add\n        /* \"#utility.yul\":2415:2436   */\n      mstore\n        /* \"#utility.yul\":2472:2474   */\n      0x1d\n        /* \"#utility.yul\":2452:2470   */\n      0x24\n      dup3\n      add\n        /* \"#utility.yul\":2445:2475   */\n      mstore\n        /* \"#utility.yul\":2511:2542   */\n      0x416d6f756e74206d7573742062652067726561746572207468616e2030000000\n        /* \"#utility.yul\":2491:2509   */\n      0x44\n      dup3\n      add\n        /* \"#utility.yul\":2484:2543   */\n      mstore\n        /* \"#utility.yul\":2560:2578   */\n      0x64\n      add\n        /* \"contracts/GovernanceToken.sol\":2703:2755  require(amount > 0, \"Amount must be greater than 0\") */\n      tag_59\n        /* \"#utility.yul\":2231:2584   */\n      jump\n        /* \"contracts/GovernanceToken.sol\":2703:2755  require(amount > 0, \"Amount must be greater than 0\") */\n    tag_73:\n        /* \"contracts/GovernanceToken.sol\":2783:2793  msg.sender */\n      caller\n        /* \"contracts/GovernanceToken.sol\":990:997  uint256 */\n      0x00\n        /* \"contracts/GovernanceToken.sol\":1016:1034  _balances[account] */\n      swap1\n      dup2\n      mstore\n      0x20\n      dup2\n      swap1\n      mstore\n      0x40\n      swap1\n      keccak256\n      sload\n        /* \"contracts/GovernanceToken.sol\":2798:2804  amount */\n      dup2\n      gt\n        /* \"contracts/GovernanceToken.sol\":2773:2804  balanceOf(msg.sender) >= amount */\n      iszero\n        /* \"contracts/GovernanceToken.sol\":2765:2838  require(balanceOf(msg.sender) >= amount, \"Insufficient balance to stake\") */\n      tag_77\n      jumpi\n      mload(0x40)\n      shl(0xe5, 0x461bcd)\n      dup2\n      mstore\n        /* \"#utility.yul\":2791:2793   */\n      0x20\n        /* \"contracts/GovernanceToken.sol\":2765:2838  require(balanceOf(msg.sender) >= amount, \"Insufficient balance to stake\") */\n      0x04\n      dup3\n      add\n        /* \"#utility.yul\":2773:2794   */\n      mstore\n        /* \"#utility.yul\":2830:2832   */\n      0x1d\n        /* \"#utility.yul\":2810:2828   */\n      0x24\n      dup3\n      add\n        /* \"#utility.yul\":2803:2833   */\n      mstore\n        /* \"#utility.yul\":2869:2900   */\n      0x496e73756666696369656e742062616c616e636520746f207374616b65000000\n        /* \"#utility.yul\":2849:2867   */\n      0x44\n      dup3\n      add\n        /* \"#utility.yul\":2842:2901   */\n      mstore\n        /* \"#utility.yul\":2918:2936   */\n      0x64\n      add\n        /* \"contracts/GovernanceToken.sol\":2765:2838  require(balanceOf(msg.sender) >= amount, \"Insufficient balance to stake\") */\n      tag_59\n        /* \"#utility.yul\":2589:2942   */\n      jump\n        /* \"contracts/GovernanceToken.sol\":2765:2838  require(balanceOf(msg.sender) >= amount, \"Insufficient balance to stake\") */\n    tag_77:\n        /* \"contracts/GovernanceToken.sol\":2863:2873  msg.sender */\n      caller\n        /* \"contracts/GovernanceToken.sol\":2848:2874  _stakedBalance[msg.sender] */\n      0x00\n      swap1\n      dup2\n      mstore\n        /* \"contracts/GovernanceToken.sol\":2848:2862  _stakedBalance */\n      0x06\n        /* \"contracts/GovernanceToken.sol\":2848:2874  _stakedBalance[msg.sender] */\n      0x20\n      mstore\n      0x40\n      dup2\n      keccak256\n        /* \"contracts/GovernanceToken.sol\":2848:2884  _stakedBalance[msg.sender] += amount */\n      dup1\n      sload\n        /* \"contracts/GovernanceToken.sol\":2878:2884  amount */\n      dup4\n      swap3\n        /* \"contracts/GovernanceToken.sol\":2848:2874  _stakedBalance[msg.sender] */\n      swap1\n        /* \"contracts/GovernanceToken.sol\":2848:2884  _stakedBalance[msg.sender] += amount */\n      tag_80\n      swap1\n        /* \"contracts/GovernanceToken.sol\":2878:2884  amount */\n      dup5\n      swap1\n        /* \"contracts/GovernanceToken.sol\":2848:2884  _stakedBalance[msg.sender] += amount */\n      tag_81\n      jump\t// in\n    tag_80:\n      swap1\n      swap2\n      sstore\n      pop\n      pop\n        /* \"contracts/GovernanceToken.sol\":2910:2920  msg.sender */\n      caller\n        /* \"contracts/GovernanceToken.sol\":2894:2921  _lastStakedTime[msg.sender] */\n      0x00\n      dup2\n      dup2\n      mstore\n        /* \"contracts/GovernanceToken.sol\":2894:2909  _lastStakedTime */\n      0x07\n        /* \"contracts/GovernanceToken.sol\":2894:2921  _lastStakedTime[msg.sender] */\n      0x20\n      mstore\n      0x40\n      swap1\n      dup2\n      swap1\n      keccak256\n        /* \"contracts/GovernanceToken.sol\":2924:2939  block.timestamp */\n      timestamp\n        /* \"contracts/GovernanceToken.sol\":2894:2939  _lastStakedTime[msg.sender] = block.timestamp */\n      swap1\n      sstore\n        /* \"contracts/GovernanceToken.sol\":2954:2980  Staked(msg.sender, amount) */\n      mload\n      0x9e71bc8eea02a63969f509818f2dafb9254532904319f9dbda79b67bd34a5f3d\n      swap1\n      tag_63\n      swap1\n        /* \"contracts/GovernanceToken.sol\":2973:2979  amount */\n      dup5\n        /* \"#utility.yul\":583:608   */\n      dup2\n      mstore\n        /* \"#utility.yul\":571:573   */\n      0x20\n        /* \"#utility.yul\":556:574   */\n      add\n      swap1\n        /* \"#utility.yul\":437:614   */\n      jump\n        /* \"contracts/GovernanceToken.sol\":1314:1662  function _burn(address account, uint256 amount) internal {... */\n    tag_62:\n      sub(shl(0xa0, 0x01), 0x01)\n        /* \"contracts/GovernanceToken.sol\":1389:1410  account != address(0) */\n      dup3\n      and\n        /* \"contracts/GovernanceToken.sol\":1381:1448  require(account != address(0), \"ERC20: burn from the zero address\") */\n      tag_84\n      jumpi\n      mload(0x40)\n      shl(0xe5, 0x461bcd)\n      dup2\n      mstore\n        /* \"#utility.yul\":3411:3413   */\n      0x20\n        /* \"contracts/GovernanceToken.sol\":1381:1448  require(account != address(0), \"ERC20: burn from the zero address\") */\n      0x04\n      dup3\n      add\n        /* \"#utility.yul\":3393:3414   */\n      mstore\n        /* \"#utility.yul\":3450:3452   */\n      0x21\n        /* \"#utility.yul\":3430:3448   */\n      0x24\n      dup3\n      add\n        /* \"#utility.yul\":3423:3453   */\n      mstore\n        /* \"#utility.yul\":3489:3523   */\n      0x45524332303a206275726e2066726f6d20746865207a65726f20616464726573\n        /* \"#utility.yul\":3469:3487   */\n      0x44\n      dup3\n      add\n        /* \"#utility.yul\":3462:3524   */\n      mstore\n      shl(0xf8, 0x73)\n        /* \"#utility.yul\":3540:3558   */\n      0x64\n      dup3\n      add\n        /* \"#utility.yul\":3533:3564   */\n      mstore\n        /* \"#utility.yul\":3581:3600   */\n      0x84\n      add\n        /* \"contracts/GovernanceToken.sol\":1381:1448  require(account != address(0), \"ERC20: burn from the zero address\") */\n      tag_59\n        /* \"#utility.yul\":3209:3606   */\n      jump\n        /* \"contracts/GovernanceToken.sol\":1381:1448  require(account != address(0), \"ERC20: burn from the zero address\") */\n    tag_84:\n      sub(shl(0xa0, 0x01), 0x01)\n        /* \"contracts/GovernanceToken.sol\":1466:1484  _balances[account] */\n      dup3\n      and\n        /* \"contracts/GovernanceToken.sol\":1466:1475  _balances */\n      0x00\n        /* \"contracts/GovernanceToken.sol\":1466:1484  _balances[account] */\n      swap1\n      dup2\n      mstore\n      0x20\n      dup2\n      swap1\n      mstore\n      0x40\n      swap1\n      keccak256\n      sload\n        /* \"contracts/GovernanceToken.sol\":1466:1494  _balances[account] >= amount */\n      dup2\n      gt\n      iszero\n        /* \"contracts/GovernanceToken.sol\":1458:1533  require(_balances[account] >= amount, \"ERC20: burn amount exceeds balance\") */\n      tag_87\n      jumpi\n      mload(0x40)\n      shl(0xe5, 0x461bcd)\n      dup2\n      mstore\n        /* \"#utility.yul\":3813:3815   */\n      0x20\n        /* \"contracts/GovernanceToken.sol\":1458:1533  require(_balances[account] >= amount, \"ERC20: burn amount exceeds balance\") */\n      0x04\n      dup3\n      add\n        /* \"#utility.yul\":3795:3816   */\n      mstore\n        /* \"#utility.yul\":3852:3854   */\n      0x22\n        /* \"#utility.yul\":3832:3850   */\n      0x24\n      dup3\n      add\n        /* \"#utility.yul\":3825:3855   */\n      mstore\n        /* \"#utility.yul\":3891:3925   */\n      0x45524332303a206275726e20616d6f756e7420657863656564732062616c616e\n        /* \"#utility.yul\":3871:3889   */\n      0x44\n      dup3\n      add\n        /* \"#utility.yul\":3864:3926   */\n      mstore\n      shl(0xf0, 0x6365)\n        /* \"#utility.yul\":3942:3960   */\n      0x64\n      dup3\n      add\n        /* \"#utility.yul\":3935:3967   */\n      mstore\n        /* \"#utility.yul\":3984:4003   */\n      0x84\n      add\n        /* \"contracts/GovernanceToken.sol\":1458:1533  require(_balances[account] >= amount, \"ERC20: burn amount exceeds balance\") */\n      tag_59\n        /* \"#utility.yul\":3611:4009   */\n      jump\n        /* \"contracts/GovernanceToken.sol\":1458:1533  require(_balances[account] >= amount, \"ERC20: burn amount exceeds balance\") */\n    tag_87:\n      sub(shl(0xa0, 0x01), 0x01)\n        /* \"contracts/GovernanceToken.sol\":1543:1561  _balances[account] */\n      dup3\n      and\n        /* \"contracts/GovernanceToken.sol\":1543:1552  _balances */\n      0x00\n        /* \"contracts/GovernanceToken.sol\":1543:1561  _balances[account] */\n      swap1\n      dup2\n      mstore\n      0x20\n      dup2\n      swap1\n      mstore\n      0x40\n      dup2\n      keccak256\n        /* \"contracts/GovernanceToken.sol\":1543:1571  _balances[account] -= amount */\n      dup1\n      sload\n        /* \"contracts/GovernanceToken.sol\":1565:1571  amount */\n      dup4\n      swap3\n        /* \"contracts/GovernanceToken.sol\":1543:1552  _balances */\n      swap1\n        /* \"contracts/GovernanceToken.sol\":1543:1571  _balances[account] -= amount */\n      tag_90\n      swap1\n        /* \"contracts/GovernanceToken.sol\":1565:1571  amount */\n      dup5\n      swap1\n        /* \"contracts/GovernanceToken.sol\":1543:1571  _balances[account] -= amount */\n      tag_91\n      jump\t// in\n    tag_90:\n      swap3\n      pop\n      pop\n      dup2\n      swap1\n      sstore\n      pop\n        /* \"contracts/GovernanceToken.sol\":1597:1603  amount */\n      dup1\n        /* \"contracts/GovernanceToken.sol\":1581:1593  _totalSupply */\n      0x02\n      0x00\n        /* \"contracts/GovernanceToken.sol\":1581:1603  _totalSupply -= amount */\n      dup3\n      dup3\n      sload\n      tag_92\n      swap2\n      swap1\n      tag_91\n      jump\t// in\n    tag_92:\n      swap1\n      swap2\n      sstore\n      pop\n      pop\n        /* \"contracts/GovernanceToken.sol\":1618:1655  Transfer(account, address(0), amount) */\n      mload(0x40)\n        /* \"#utility.yul\":583:608   */\n      dup2\n      dup2\n      mstore\n        /* \"contracts/GovernanceToken.sol\":1644:1645  0 */\n      0x00\n      swap1\n      sub(shl(0xa0, 0x01), 0x01)\n        /* \"contracts/GovernanceToken.sol\":1618:1655  Transfer(account, address(0), amount) */\n      dup5\n      and\n      swap1\n      0xddf252ad1be2c89b69c2b068fc378daa952ba7f163c4a11628f55a4df523b3ef\n      swap1\n        /* \"#utility.yul\":571:573   */\n      0x20\n        /* \"#utility.yul\":556:574   */\n      add\n        /* \"contracts/GovernanceToken.sol\":1618:1655  Transfer(account, address(0), amount) */\n      mload(0x40)\n      dup1\n      swap2\n      sub\n      swap1\n      log3\n        /* \"contracts/GovernanceToken.sol\":1314:1662  function _burn(address account, uint256 amount) internal {... */\n      pop\n      pop\n      jump\t// out\n        /* \"#utility.yul\":14:432   */\n    tag_16:\n        /* \"#utility.yul\":163:165   */\n      0x20\n        /* \"#utility.yul\":152:161   */\n      dup2\n        /* \"#utility.yul\":145:166   */\n      mstore\n        /* \"#utility.yul\":126:130   */\n      0x00\n        /* \"#utility.yul\":195:201   */\n      dup3\n        /* \"#utility.yul\":189:202   */\n      mload\n        /* \"#utility.yul\":238:244   */\n      dup1\n        /* \"#utility.yul\":233:235   */\n      0x20\n        /* \"#utility.yul\":222:231   */\n      dup5\n        /* \"#utility.yul\":218:236   */\n      add\n        /* \"#utility.yul\":211:245   */\n      mstore\n        /* \"#utility.yul\":297:303   */\n      dup1\n        /* \"#utility.yul\":292:294   */\n      0x20\n        /* \"#utility.yul\":284:290   */\n      dup6\n        /* \"#utility.yul\":280:295   */\n      add\n        /* \"#utility.yul\":275:277   */\n      0x40\n        /* \"#utility.yul\":264:273   */\n      dup6\n        /* \"#utility.yul\":260:278   */\n      add\n        /* \"#utility.yul\":254:304   */\n      mcopy\n        /* \"#utility.yul\":353:354   */\n      0x00\n        /* \"#utility.yul\":348:350   */\n      0x40\n        /* \"#utility.yul\":339:345   */\n      dup3\n        /* \"#utility.yul\":328:337   */\n      dup6\n        /* \"#utility.yul\":324:346   */\n      add\n        /* \"#utility.yul\":320:351   */\n      add\n        /* \"#utility.yul\":313:355   */\n      mstore\n        /* \"#utility.yul\":423:425   */\n      0x40\n        /* \"#utility.yul\":416:418   */\n      0x1f\n        /* \"#utility.yul\":412:419   */\n      not\n        /* \"#utility.yul\":407:409   */\n      0x1f\n        /* \"#utility.yul\":399:405   */\n      dup4\n        /* \"#utility.yul\":395:410   */\n      add\n        /* \"#utility.yul\":391:420   */\n      and\n        /* \"#utility.yul\":380:389   */\n      dup5\n        /* \"#utility.yul\":376:421   */\n      add\n        /* \"#utility.yul\":372:426   */\n      add\n        /* \"#utility.yul\":364:426   */\n      swap2\n      pop\n      pop\n        /* \"#utility.yul\":14:432   */\n      swap3\n      swap2\n      pop\n      pop\n      jump\t// out\n        /* \"#utility.yul\":808:988   */\n    tag_27:\n        /* \"#utility.yul\":867:873   */\n      0x00\n        /* \"#utility.yul\":920:922   */\n      0x20\n        /* \"#utility.yul\":908:917   */\n      dup3\n        /* \"#utility.yul\":899:906   */\n      dup5\n        /* \"#utility.yul\":895:918   */\n      sub\n        /* \"#utility.yul\":891:923   */\n      slt\n        /* \"#utility.yul\":888:940   */\n      iszero\n      tag_100\n      jumpi\n        /* \"#utility.yul\":936:937   */\n      0x00\n        /* \"#utility.yul\":933:934   */\n      dup1\n        /* \"#utility.yul\":926:938   */\n      revert\n        /* \"#utility.yul\":888:940   */\n    tag_100:\n      pop\n        /* \"#utility.yul\":959:982   */\n      calldataload\n      swap2\n        /* \"#utility.yul\":808:988   */\n      swap1\n      pop\n      jump\t// out\n        /* \"#utility.yul\":993:1279   */\n    tag_34:\n        /* \"#utility.yul\":1052:1058   */\n      0x00\n        /* \"#utility.yul\":1105:1107   */\n      0x20\n        /* \"#utility.yul\":1093:1102   */\n      dup3\n        /* \"#utility.yul\":1084:1091   */\n      dup5\n        /* \"#utility.yul\":1080:1103   */\n      sub\n        /* \"#utility.yul\":1076:1108   */\n      slt\n        /* \"#utility.yul\":1073:1125   */\n      iszero\n      tag_102\n      jumpi\n        /* \"#utility.yul\":1121:1122   */\n      0x00\n        /* \"#utility.yul\":1118:1119   */\n      dup1\n        /* \"#utility.yul\":1111:1123   */\n      revert\n        /* \"#utility.yul\":1073:1125   */\n    tag_102:\n        /* \"#utility.yul\":1147:1170   */\n      dup2\n      calldataload\n      sub(shl(0xa0, 0x01), 0x01)\n        /* \"#utility.yul\":1199:1230   */\n      dup2\n      and\n        /* \"#utility.yul\":1189:1231   */\n      dup2\n      eq\n        /* \"#utility.yul\":1179:1249   */\n      tag_103\n      jumpi\n        /* \"#utility.yul\":1245:1246   */\n      0x00\n        /* \"#utility.yul\":1242:1243   */\n      dup1\n        /* \"#utility.yul\":1235:1247   */\n      revert\n        /* \"#utility.yul\":1179:1249   */\n    tag_103:\n        /* \"#utility.yul\":1268:1273   */\n      swap4\n        /* \"#utility.yul\":993:1279   */\n      swap3\n      pop\n      pop\n      pop\n      jump\t// out\n        /* \"#utility.yul\":1492:1872   */\n    tag_49:\n        /* \"#utility.yul\":1571:1572   */\n      0x01\n        /* \"#utility.yul\":1567:1579   */\n      dup2\n      dup2\n      shr\n      swap1\n        /* \"#utility.yul\":1614:1626   */\n      dup3\n      and\n      dup1\n        /* \"#utility.yul\":1635:1696   */\n      tag_106\n      jumpi\n        /* \"#utility.yul\":1689:1693   */\n      0x7f\n        /* \"#utility.yul\":1681:1687   */\n      dup3\n        /* \"#utility.yul\":1677:1694   */\n      and\n        /* \"#utility.yul\":1667:1694   */\n      swap2\n      pop\n        /* \"#utility.yul\":1635:1696   */\n    tag_106:\n        /* \"#utility.yul\":1742:1744   */\n      0x20\n        /* \"#utility.yul\":1734:1740   */\n      dup3\n        /* \"#utility.yul\":1731:1745   */\n      lt\n        /* \"#utility.yul\":1711:1729   */\n      dup2\n        /* \"#utility.yul\":1708:1746   */\n      sub\n        /* \"#utility.yul\":1705:1866   */\n      tag_107\n      jumpi\n        /* \"#utility.yul\":1788:1798   */\n      0x4e487b71\n        /* \"#utility.yul\":1783:1786   */\n      0xe0\n        /* \"#utility.yul\":1779:1799   */\n      shl\n        /* \"#utility.yul\":1776:1777   */\n      0x00\n        /* \"#utility.yul\":1769:1800   */\n      mstore\n        /* \"#utility.yul\":1823:1827   */\n      0x22\n        /* \"#utility.yul\":1820:1821   */\n      0x04\n        /* \"#utility.yul\":1813:1828   */\n      mstore\n        /* \"#utility.yul\":1851:1855   */\n      0x24\n        /* \"#utility.yul\":1848:1849   */\n      0x00\n        /* \"#utility.yul\":1841:1856   */\n      revert\n        /* \"#utility.yul\":1705:1866   */\n    tag_107:\n      pop\n        /* \"#utility.yul\":1492:1872   */\n      swap2\n      swap1\n      pop\n      jump\t// out\n        /* \"#utility.yul\":2947:3074   */\n    tag_94:\n        /* \"#utility.yul\":3008:3018   */\n      0x4e487b71\n        /* \"#utility.yul\":3003:3006   */\n      0xe0\n        /* \"#utility.yul\":2999:3019   */\n      shl\n        /* \"#utility.yul\":2996:2997   */\n      0x00\n        /* \"#utility.yul\":2989:3020   */\n      mstore\n        /* \"#utility.yul\":3039:3043   */\n      0x11\n        /* \"#utility.yul\":3036:3037   */\n      0x04\n        /* \"#utility.yul\":3029:3044   */\n      mstore\n        /* \"#utility.yul\":3063:3067   */\n      0x24\n        /* \"#utility.yul\":3060:3061   */\n      0x00\n        /* \"#utility.yul\":3053:3068   */\n      revert\n        /* \"#utility.yul\":3079:3204   */\n    tag_81:\n        /* \"#utility.yul\":3144:3153   */\n      dup1\n      dup3\n      add\n        /* \"#utility.yul\":3165:3175   */\n      dup1\n      dup3\n      gt\n        /* \"#utility.yul\":3162:3198   */\n      iszero\n      tag_114\n      jumpi\n        /* \"#utility.yul\":3178:3196   */\n      tag_114\n      tag_94\n      jump\t// in\n    tag_114:\n        /* \"#utility.yul\":3079:3204   */\n      swap3\n      swap2\n      pop\n      pop\n      jump\t// out\n        /* \"#utility.yul\":4014:4142   */\n    tag_91:\n        /* \"#utility.yul\":4081:4090   */\n      dup2\n      dup2\n      sub\n        /* \"#utility.yul\":4102:4113   */\n      dup2\n      dup2\n      gt\n        /* \"#utility.yul\":4099:4136   */\n      iszero\n      tag_114\n      jumpi\n        /* \"#utility.yul\":4116:4134   */\n      tag_114\n      tag_94\n      jump\t// in\n\n    auxdata: 0xa26469706673582212207e16f772ecfccee192dc7227a2d0c480caf482fa28f749749927f551899592b764736f6c634300081a0033\n}\n",
				"bytecode": {
					"linkReferences": {},
					"object": "60806040526005600855348015610014575f80fd5b506040518060400160405280601481526020017f44414f20476f7665726e616e636520546f6b656e000000000000000000000000815250604051806040016040528060038152602001621111d560ea1b81525081600390816100769190610266565b5060046100838282610266565b5050600580546001600160a01b031916339081179091556040519091505f907f8be0079c531659141344cd1fd0a4f28419497f9722a3daafe3b4186f6b6457e0908290a36100e9336100d76012600a610419565b6100e490620f424061042e565b6100ee565b610458565b6001600160a01b0382166101485760405162461bcd60e51b815260206004820152601f60248201527f45524332303a206d696e7420746f20746865207a65726f206164647265737300604482015260640160405180910390fd5b8060025f8282546101599190610445565b90915550506001600160a01b0382165f9081526020819052604081208054839290610185908490610445565b90915550506040518181526001600160a01b038316905f907fddf252ad1be2c89b69c2b068fc378daa952ba7f163c4a11628f55a4df523b3ef9060200160405180910390a35050565b634e487b7160e01b5f52604160045260245ffd5b600181811c908216806101f657607f821691505b60208210810361021457634e487b7160e01b5f52602260045260245ffd5b50919050565b601f82111561026157805f5260205f20601f840160051c8101602085101561023f5750805b601f840160051c820191505b8181101561025e575f815560010161024b565b50505b505050565b81516001600160401b0381111561027f5761027f6101ce565b6102938161028d84546101e2565b8461021a565b6020601f8211600181146102c5575f83156102ae5750848201515b5f19600385901b1c1916600184901b17845561025e565b5f84815260208120601f198516915b828110156102f457878501518255602094850194600190920191016102d4565b508482101561031157868401515f19600387901b60f8161c191681555b50505050600190811b01905550565b634e487b7160e01b5f52601160045260245ffd5b6001815b600184111561036f5780850481111561035357610353610320565b600184161561036157908102905b60019390931c928002610338565b935093915050565b5f8261038557506001610413565b8161039157505f610413565b81600181146103a757600281146103b1576103cd565b6001915050610413565b60ff8411156103c2576103c2610320565b50506001821b610413565b5060208310610133831016604e8410600b84101617156103f0575081810a610413565b6103fc5f198484610334565b805f190482111561040f5761040f610320565b0290505b92915050565b5f61042760ff841683610377565b9392505050565b808202811582820484141761041357610413610320565b8082018082111561041357610413610320565b610628806104655f395ff3fe608060405234801561000f575f80fd5b5060043610610090575f3560e01c80634f3fc2df116100635780634f3fc2df146100e857806370a08231146100f15780638da5cb5b1461011957806395d89b4114610134578063a694fc3a1461013c575f80fd5b806306fdde031461009457806318160ddd146100b2578063313ce567146100c457806342966c68146100d3575b5f80fd5b61009c61014f565b6040516100a99190610501565b60405180910390f35b6002545b6040519081526020016100a9565b604051601281526020016100a9565b6100e66100e1366004610536565b6101df565b005b6100b660085481565b6100b66100ff36600461054d565b6001600160a01b03165f9081526020819052604090205490565b6005546040516001600160a01b0390911681526020016100a9565b61009c610285565b6100e661014a366004610536565b610294565b60606003805461015e9061057a565b80601f016020809104026020016040519081016040528092919081815260200182805461018a9061057a565b80156101d55780601f106101ac576101008083540402835291602001916101d5565b820191905f5260205f20905b8154815290600101906020018083116101b857829003601f168201915b5050505050905090565b335f908152602081905260409020548111156102425760405162461bcd60e51b815260206004820152601960248201527f4e6f7420656e6f75676820746f6b656e7320746f206275726e0000000000000060448201526064015b60405180910390fd5b61024c33826103a7565b60405181815233907f696de425f79f4a40bc6d2122ca50507f0efbeabbff86a84871b7196ab8ea8df7906020015b60405180910390a250565b60606004805461015e9061057a565b5f81116102e35760405162461bcd60e51b815260206004820152601d60248201527f416d6f756e74206d7573742062652067726561746572207468616e20300000006044820152606401610239565b335f908152602081905260409020548111156103415760405162461bcd60e51b815260206004820152601d60248201527f496e73756666696369656e742062616c616e636520746f207374616b650000006044820152606401610239565b335f908152600660205260408120805483929061035f9084906105c6565b9091555050335f8181526007602052604090819020429055517f9e71bc8eea02a63969f509818f2dafb9254532904319f9dbda79b67bd34a5f3d9061027a9084815260200190565b6001600160a01b0382166104075760405162461bcd60e51b815260206004820152602160248201527f45524332303a206275726e2066726f6d20746865207a65726f206164647265736044820152607360f81b6064820152608401610239565b6001600160a01b0382165f908152602081905260409020548111156104795760405162461bcd60e51b815260206004820152602260248201527f45524332303a206275726e20616d6f756e7420657863656564732062616c616e604482015261636560f01b6064820152608401610239565b6001600160a01b0382165f90815260208190526040812080548392906104a09084906105df565b925050819055508060025f8282546104b891906105df565b90915550506040518181525f906001600160a01b038416907fddf252ad1be2c89b69c2b068fc378daa952ba7f163c4a11628f55a4df523b3ef9060200160405180910390a35050565b602081525f82518060208401528060208501604085015e5f604082850101526040601f19601f83011684010191505092915050565b5f60208284031215610546575f80fd5b5035919050565b5f6020828403121561055d575f80fd5b81356001600160a01b0381168114610573575f80fd5b9392505050565b600181811c9082168061058e57607f821691505b6020821081036105ac57634e487b7160e01b5f52602260045260245ffd5b50919050565b634e487b7160e01b5f52601160045260245ffd5b808201808211156105d9576105d96105b2565b92915050565b818103818111156105d9576105d96105b256fea26469706673582212207e16f772ecfccee192dc7227a2d0c480caf482fa28f749749927f551899592b764736f6c634300081a0033",
					"opcodes": "PUSH1 0x80 PUSH1 0x40 MSTORE PUSH1 0x5 PUSH1 0x8 SSTORE CALLVALUE DUP1 ISZERO PUSH2 0x14 JUMPI PUSH0 DUP1 REVERT JUMPDEST POP PUSH1 0x40 MLOAD DUP1 PUSH1 0x40 ADD PUSH1 0x40 MSTORE DUP1 PUSH1 0x14 DUP2 MSTORE PUSH1 0x20 ADD PUSH32 0x44414F20476F7665726E616E636520546F6B656E000000000000000000000000 DUP2 MSTORE POP PUSH1 0x40 MLOAD DUP1 PUSH1 0x40 ADD PUSH1 0x40 MSTORE DUP1 PUSH1 0x3 DUP2 MSTORE PUSH1 0x20 ADD PUSH3 0x1111D5 PUSH1 0xEA SHL DUP2 MSTORE POP DUP2 PUSH1 0x3 SWAP1 DUP2 PUSH2 0x76 SWAP2 SWAP1 PUSH2 0x266 JUMP JUMPDEST POP PUSH1 0x4 PUSH2 0x83 DUP3 DUP3 PUSH2 0x266 JUMP JUMPDEST POP POP PUSH1 0x5 DUP1 SLOAD PUSH1 0x1 PUSH1 0x1 PUSH1 0xA0 SHL SUB NOT AND CALLER SWAP1 DUP2 OR SWAP1 SWAP2 SSTORE PUSH1 0x40 MLOAD SWAP1 SWAP2 POP PUSH0 SWAP1 PUSH32 0x8BE0079C531659141344CD1FD0A4F28419497F9722A3DAAFE3B4186F6B6457E0 SWAP1 DUP3 SWAP1 LOG3 PUSH2 0xE9 CALLER PUSH2 0xD7 PUSH1 0x12 PUSH1 0xA PUSH2 0x419 JUMP JUMPDEST PUSH2 0xE4 SWAP1 PUSH3 0xF4240 PUSH2 0x42E JUMP JUMPDEST PUSH2 0xEE JUMP JUMPDEST PUSH2 0x458 JUMP JUMPDEST PUSH1 0x1 PUSH1 0x1 PUSH1 0xA0 SHL SUB DUP3 AND PUSH2 0x148 JUMPI PUSH1 0x40 MLOAD PUSH3 0x461BCD PUSH1 0xE5 SHL DUP2 MSTORE PUSH1 0x20 PUSH1 0x4 DUP3 ADD MSTORE PUSH1 0x1F PUSH1 0x24 DUP3 ADD MSTORE PUSH32 0x45524332303A206D696E7420746F20746865207A65726F206164647265737300 PUSH1 0x44 DUP3 ADD MSTORE PUSH1 0x64 ADD PUSH1 0x40 MLOAD DUP1 SWAP2 SUB SWAP1 REVERT JUMPDEST DUP1 PUSH1 0x2 PUSH0 DUP3 DUP3 SLOAD PUSH2 0x159 SWAP2 SWAP1 PUSH2 0x445 JUMP JUMPDEST SWAP1 SWAP2 SSTORE POP POP PUSH1 0x1 PUSH1 0x1 PUSH1 0xA0 SHL SUB DUP3 AND PUSH0 SWAP1 DUP2 MSTORE PUSH1 0x20 DUP2 SWAP1 MSTORE PUSH1 0x40 DUP2 KECCAK256 DUP1 SLOAD DUP4 SWAP3 SWAP1 PUSH2 0x185 SWAP1 DUP5 SWAP1 PUSH2 0x445 JUMP JUMPDEST SWAP1 SWAP2 SSTORE POP POP PUSH1 0x40 MLOAD DUP2 DUP2 MSTORE PUSH1 0x1 PUSH1 0x1 PUSH1 0xA0 SHL SUB DUP4 AND SWAP1 PUSH0 SWAP1 PUSH32 0xDDF252AD1BE2C89B69C2B068FC378DAA952BA7F163C4A11628F55A4DF523B3EF SWAP1 PUSH1 0x20 ADD PUSH1 0x40 MLOAD DUP1 SWAP2 SUB SWAP1 LOG3 POP POP JUMP JUMPDEST PUSH4 0x4E487B71 PUSH1 0xE0 SHL PUSH0 MSTORE PUSH1 0x41 PUSH1 0x4 MSTORE PUSH1 0x24 PUSH0 REVERT JUMPDEST PUSH1 0x1 DUP2 DUP2 SHR SWAP1 DUP3 AND DUP1 PUSH2 0x1F6 JUMPI PUSH1 0x7F DUP3 AND SWAP2 POP JUMPDEST PUSH1 0x20 DUP3 LT DUP2 SUB PUSH2 0x214 JUMPI PUSH4 0x4E487B71 PUSH1 0xE0 SHL PUSH0 MSTORE PUSH1 0x22 PUSH1 0x4 MSTORE PUSH1 0x24 PUSH0 REVERT JUMPDEST POP SWAP2 SWAP1 POP JUMP JUMPDEST PUSH1 0x1F DUP3 GT ISZERO PUSH2 0x261 JUMPI DUP1 PUSH0 MSTORE PUSH1 0x20 PUSH0 KECCAK256 PUSH1 0x1F DUP5 ADD PUSH1 0x5 SHR DUP2 ADD PUSH1 0x20 DUP6 LT ISZERO PUSH2 0x23F JUMPI POP DUP1 JUMPDEST PUSH1 0x1F DUP5 ADD PUSH1 0x5 SHR DUP3 ADD SWAP2 POP JUMPDEST DUP2 DUP2 LT ISZERO PUSH2 0x25E JUMPI PUSH0 DUP2 SSTORE PUSH1 0x1 ADD PUSH2 0x24B JUMP JUMPDEST POP POP JUMPDEST POP POP POP JUMP JUMPDEST DUP2 MLOAD PUSH1 0x1 PUSH1 0x1 PUSH1 0x40 SHL SUB DUP2 GT ISZERO PUSH2 0x27F JUMPI PUSH2 0x27F PUSH2 0x1CE JUMP JUMPDEST PUSH2 0x293 DUP2 PUSH2 0x28D DUP5 SLOAD PUSH2 0x1E2 JUMP JUMPDEST DUP5 PUSH2 0x21A JUMP JUMPDEST PUSH1 0x20 PUSH1 0x1F DUP3 GT PUSH1 0x1 DUP2 EQ PUSH2 0x2C5 JUMPI PUSH0 DUP4 ISZERO PUSH2 0x2AE JUMPI POP DUP5 DUP3 ADD MLOAD JUMPDEST PUSH0 NOT PUSH1 0x3 DUP6 SWAP1 SHL SHR NOT AND PUSH1 0x1 DUP5 SWAP1 SHL OR DUP5 SSTORE PUSH2 0x25E JUMP JUMPDEST PUSH0 DUP5 DUP2 MSTORE PUSH1 0x20 DUP2 KECCAK256 PUSH1 0x1F NOT DUP6 AND SWAP2 JUMPDEST DUP3 DUP2 LT ISZERO PUSH2 0x2F4 JUMPI DUP8 DUP6 ADD MLOAD DUP3 SSTORE PUSH1 0x20 SWAP5 DUP6 ADD SWAP5 PUSH1 0x1 SWAP1 SWAP3 ADD SWAP2 ADD PUSH2 0x2D4 JUMP JUMPDEST POP DUP5 DUP3 LT ISZERO PUSH2 0x311 JUMPI DUP7 DUP5 ADD MLOAD PUSH0 NOT PUSH1 0x3 DUP8 SWAP1 SHL PUSH1 0xF8 AND SHR NOT AND DUP2 SSTORE JUMPDEST POP POP POP POP PUSH1 0x1 SWAP1 DUP2 SHL ADD SWAP1 SSTORE POP JUMP JUMPDEST PUSH4 0x4E487B71 PUSH1 0xE0 SHL PUSH0 MSTORE PUSH1 0x11 PUSH1 0x4 MSTORE PUSH1 0x24 PUSH0 REVERT JUMPDEST PUSH1 0x1 DUP2 JUMPDEST PUSH1 0x1 DUP5 GT ISZERO PUSH2 0x36F JUMPI DUP1 DUP6 DIV DUP2 GT ISZERO PUSH2 0x353 JUMPI PUSH2 0x353 PUSH2 0x320 JUMP JUMPDEST PUSH1 0x1 DUP5 AND ISZERO PUSH2 0x361 JUMPI SWAP1 DUP2 MUL SWAP1 JUMPDEST PUSH1 0x1 SWAP4 SWAP1 SWAP4 SHR SWAP3 DUP1 MUL PUSH2 0x338 JUMP JUMPDEST SWAP4 POP SWAP4 SWAP2 POP POP JUMP JUMPDEST PUSH0 DUP3 PUSH2 0x385 JUMPI POP PUSH1 0x1 PUSH2 0x413 JUMP JUMPDEST DUP2 PUSH2 0x391 JUMPI POP PUSH0 PUSH2 0x413 JUMP JUMPDEST DUP2 PUSH1 0x1 DUP2 EQ PUSH2 0x3A7 JUMPI PUSH1 0x2 DUP2 EQ PUSH2 0x3B1 JUMPI PUSH2 0x3CD JUMP JUMPDEST PUSH1 0x1 SWAP2 POP POP PUSH2 0x413 JUMP JUMPDEST PUSH1 0xFF DUP5 GT ISZERO PUSH2 0x3C2 JUMPI PUSH2 0x3C2 PUSH2 0x320 JUMP JUMPDEST POP POP PUSH1 0x1 DUP3 SHL PUSH2 0x413 JUMP JUMPDEST POP PUSH1 0x20 DUP4 LT PUSH2 0x133 DUP4 LT AND PUSH1 0x4E DUP5 LT PUSH1 0xB DUP5 LT AND OR ISZERO PUSH2 0x3F0 JUMPI POP DUP2 DUP2 EXP PUSH2 0x413 JUMP JUMPDEST PUSH2 0x3FC PUSH0 NOT DUP5 DUP5 PUSH2 0x334 JUMP JUMPDEST DUP1 PUSH0 NOT DIV DUP3 GT ISZERO PUSH2 0x40F JUMPI PUSH2 0x40F PUSH2 0x320 JUMP JUMPDEST MUL SWAP1 POP JUMPDEST SWAP3 SWAP2 POP POP JUMP JUMPDEST PUSH0 PUSH2 0x427 PUSH1 0xFF DUP5 AND DUP4 PUSH2 0x377 JUMP JUMPDEST SWAP4 SWAP3 POP POP POP JUMP JUMPDEST DUP1 DUP3 MUL DUP2 ISZERO DUP3 DUP3 DIV DUP5 EQ OR PUSH2 0x413 JUMPI PUSH2 0x413 PUSH2 0x320 JUMP JUMPDEST DUP1 DUP3 ADD DUP1 DUP3 GT ISZERO PUSH2 0x413 JUMPI PUSH2 0x413 PUSH2 0x320 JUMP JUMPDEST PUSH2 0x628 DUP1 PUSH2 0x465 PUSH0 CODECOPY PUSH0 RETURN INVALID PUSH1 0x80 PUSH1 0x40 MSTORE CALLVALUE DUP1 ISZERO PUSH2 0xF JUMPI PUSH0 DUP1 REVERT JUMPDEST POP PUSH1 0x4 CALLDATASIZE LT PUSH2 0x90 JUMPI PUSH0 CALLDATALOAD PUSH1 0xE0 SHR DUP1 PUSH4 0x4F3FC2DF GT PUSH2 0x63 JUMPI DUP1 PUSH4 0x4F3FC2DF EQ PUSH2 0xE8 JUMPI DUP1 PUSH4 0x70A08231 EQ PUSH2 0xF1 JUMPI DUP1 PUSH4 0x8DA5CB5B EQ PUSH2 0x119 JUMPI DUP1 PUSH4 0x95D89B41 EQ PUSH2 0x134 JUMPI DUP1 PUSH4 0xA694FC3A EQ PUSH2 0x13C JUMPI PUSH0 DUP1 REVERT JUMPDEST DUP1 PUSH4 0x6FDDE03 EQ PUSH2 0x94 JUMPI DUP1 PUSH4 0x18160DDD EQ PUSH2 0xB2 JUMPI DUP1 PUSH4 0x313CE567 EQ PUSH2 0xC4 JUMPI DUP1 PUSH4 0x42966C68 EQ PUSH2 0xD3 JUMPI JUMPDEST PUSH0 DUP1 REVERT JUMPDEST PUSH2 0x9C PUSH2 0x14F JUMP JUMPDEST PUSH1 0x40 MLOAD PUSH2 0xA9 SWAP2 SWAP1 PUSH2 0x501 JUMP JUMPDEST PUSH1 0x40 MLOAD DUP1 SWAP2 SUB SWAP1 RETURN JUMPDEST PUSH1 0x2 SLOAD JUMPDEST PUSH1 0x40 MLOAD SWAP1 DUP2 MSTORE PUSH1 0x20 ADD PUSH2 0xA9 JUMP JUMPDEST PUSH1 0x40 MLOAD PUSH1 0x12 DUP2 MSTORE PUSH1 0x20 ADD PUSH2 0xA9 JUMP JUMPDEST PUSH2 0xE6 PUSH2 0xE1 CALLDATASIZE PUSH1 0x4 PUSH2 0x536 JUMP JUMPDEST PUSH2 0x1DF JUMP JUMPDEST STOP JUMPDEST PUSH2 0xB6 PUSH1 0x8 SLOAD DUP2 JUMP JUMPDEST PUSH2 0xB6 PUSH2 0xFF CALLDATASIZE PUSH1 0x4 PUSH2 0x54D JUMP JUMPDEST PUSH1 0x1 PUSH1 0x1 PUSH1 0xA0 SHL SUB AND PUSH0 SWAP1 DUP2 MSTORE PUSH1 0x20 DUP2 SWAP1 MSTORE PUSH1 0x40 SWAP1 KECCAK256 SLOAD SWAP1 JUMP JUMPDEST PUSH1 0x5 SLOAD PUSH1 0x40 MLOAD PUSH1 0x1 PUSH1 0x1 PUSH1 0xA0 SHL SUB SWAP1 SWAP2 AND DUP2 MSTORE PUSH1 0x20 ADD PUSH2 0xA9 JUMP JUMPDEST PUSH2 0x9C PUSH2 0x285 JUMP JUMPDEST PUSH2 0xE6 PUSH2 0x14A CALLDATASIZE PUSH1 0x4 PUSH2 0x536 JUMP JUMPDEST PUSH2 0x294 JUMP JUMPDEST PUSH1 0x60 PUSH1 0x3 DUP1 SLOAD PUSH2 0x15E SWAP1 PUSH2 0x57A JUMP JUMPDEST DUP1 PUSH1 0x1F ADD PUSH1 0x20 DUP1 SWAP2 DIV MUL PUSH1 0x20 ADD PUSH1 0x40 MLOAD SWAP1 DUP2 ADD PUSH1 0x40 MSTORE DUP1 SWAP3 SWAP2 SWAP1 DUP2 DUP2 MSTORE PUSH1 0x20 ADD DUP3 DUP1 SLOAD PUSH2 0x18A SWAP1 PUSH2 0x57A JUMP JUMPDEST DUP1 ISZERO PUSH2 0x1D5 JUMPI DUP1 PUSH1 0x1F LT PUSH2 0x1AC JUMPI PUSH2 0x100 DUP1 DUP4 SLOAD DIV MUL DUP4 MSTORE SWAP2 PUSH1 0x20 ADD SWAP2 PUSH2 0x1D5 JUMP JUMPDEST DUP3 ADD SWAP2 SWAP1 PUSH0 MSTORE PUSH1 0x20 PUSH0 KECCAK256 SWAP1 JUMPDEST DUP2 SLOAD DUP2 MSTORE SWAP1 PUSH1 0x1 ADD SWAP1 PUSH1 0x20 ADD DUP1 DUP4 GT PUSH2 0x1B8 JUMPI DUP3 SWAP1 SUB PUSH1 0x1F AND DUP3 ADD SWAP2 JUMPDEST POP POP POP POP POP SWAP1 POP SWAP1 JUMP JUMPDEST CALLER PUSH0 SWAP1 DUP2 MSTORE PUSH1 0x20 DUP2 SWAP1 MSTORE PUSH1 0x40 SWAP1 KECCAK256 SLOAD DUP2 GT ISZERO PUSH2 0x242 JUMPI PUSH1 0x40 MLOAD PUSH3 0x461BCD PUSH1 0xE5 SHL DUP2 MSTORE PUSH1 0x20 PUSH1 0x4 DUP3 ADD MSTORE PUSH1 0x19 PUSH1 0x24 DUP3 ADD MSTORE PUSH32 0x4E6F7420656E6F75676820746F6B656E7320746F206275726E00000000000000 PUSH1 0x44 DUP3 ADD MSTORE PUSH1 0x64 ADD JUMPDEST PUSH1 0x40 MLOAD DUP1 SWAP2 SUB SWAP1 REVERT JUMPDEST PUSH2 0x24C CALLER DUP3 PUSH2 0x3A7 JUMP JUMPDEST PUSH1 0x40 MLOAD DUP2 DUP2 MSTORE CALLER SWAP1 PUSH32 0x696DE425F79F4A40BC6D2122CA50507F0EFBEABBFF86A84871B7196AB8EA8DF7 SWAP1 PUSH1 0x20 ADD JUMPDEST PUSH1 0x40 MLOAD DUP1 SWAP2 SUB SWAP1 LOG2 POP JUMP JUMPDEST PUSH1 0x60 PUSH1 0x4 DUP1 SLOAD PUSH2 0x15E SWAP1 PUSH2 0x57A JUMP JUMPDEST PUSH0 DUP2 GT PUSH2 0x2E3 JUMPI PUSH1 0x40 MLOAD PUSH3 0x461BCD PUSH1 0xE5 SHL DUP2 MSTORE PUSH1 0x20 PUSH1 0x4 DUP3 ADD MSTORE PUSH1 0x1D PUSH1 0x24 DUP3 ADD MSTORE PUSH32 0x416D6F756E74206D7573742062652067726561746572207468616E2030000000 PUSH1 0x44 DUP3 ADD MSTORE PUSH1 0x64 ADD PUSH2 0x239 JUMP JUMPDEST CALLER PUSH0 SWAP1 DUP2 MSTORE PUSH1 0x20 DUP2 SWAP1 MSTORE PUSH1 0x40 SWAP1 KECCAK256 SLOAD DUP2 GT ISZERO PUSH2 0x341 JUMPI PUSH1 0x40 MLOAD PUSH3 0x461BCD PUSH1 0xE5 SHL DUP2 MSTORE PUSH1 0x20 PUSH1 0x4 DUP3 ADD MSTORE PUSH1 0x1D PUSH1 0x24 DUP3 ADD MSTORE PUSH32 0x496E73756666696369656E742062616C616E636520746F207374616B65000000 PUSH1 0x44 DUP3 ADD MSTORE PUSH1 0x64 ADD PUSH2 0x239 JUMP JUMPDEST CALLER PUSH0 SWAP1 DUP2 MSTORE PUSH1 0x6 PUSH1 0x20 MSTORE PUSH1 0x40 DUP2 KECCAK256 DUP1 SLOAD DUP4 SWAP3 SWAP1 PUSH2 0x35F SWAP1 DUP5 SWAP1 PUSH2 0x5C6 JUMP JUMPDEST SWAP1 SWAP2 SSTORE POP POP CALLER PUSH0 DUP2 DUP2 MSTORE PUSH1 0x7 PUSH1 0x20 MSTORE PUSH1 0x40 SWAP1 DUP2 SWAP1 KECCAK256 TIMESTAMP SWAP1 SSTORE MLOAD PUSH32 0x9E71BC8EEA02A63969F509818F2DAFB9254532904319F9DBDA79B67BD34A5F3D SWAP1 PUSH2 0x27A SWAP1 DUP5 DUP2 MSTORE PUSH1 0x20 ADD SWAP1 JUMP JUMPDEST PUSH1 0x1 PUSH1 0x1 PUSH1 0xA0 SHL SUB DUP3 AND PUSH2 0x407 JUMPI PUSH1 0x40 MLOAD PUSH3 0x461BCD PUSH1 0xE5 SHL DUP2 MSTORE PUSH1 0x20 PUSH1 0x4 DUP3 ADD MSTORE PUSH1 0x21 PUSH1 0x24 DUP3 ADD MSTORE PUSH32 0x45524332303A206275726E2066726F6D20746865207A65726F20616464726573 PUSH1 0x44 DUP3 ADD MSTORE PUSH1 0x73 PUSH1 0xF8 SHL PUSH1 0x64 DUP3 ADD MSTORE PUSH1 0x84 ADD PUSH2 0x239 JUMP JUMPDEST PUSH1 0x1 PUSH1 0x1 PUSH1 0xA0 SHL SUB DUP3 AND PUSH0 SWAP1 DUP2 MSTORE PUSH1 0x20 DUP2 SWAP1 MSTORE PUSH1 0x40 SWAP1 KECCAK256 SLOAD DUP2 GT ISZERO PUSH2 0x479 JUMPI PUSH1 0x40 MLOAD PUSH3 0x461BCD PUSH1 0xE5 SHL DUP2 MSTORE PUSH1 0x20 PUSH1 0x4 DUP3 ADD MSTORE PUSH1 0x22 PUSH1 0x24 DUP3 ADD MSTORE PUSH32 0x45524332303A206275726E20616D6F756E7420657863656564732062616C616E PUSH1 0x44 DUP3 ADD MSTORE PUSH2 0x6365 PUSH1 0xF0 SHL PUSH1 0x64 DUP3 ADD MSTORE PUSH1 0x84 ADD PUSH2 0x239 JUMP JUMPDEST PUSH1 0x1 PUSH1 0x1 PUSH1 0xA0 SHL SUB DUP3 AND PUSH0 SWAP1 DUP2 MSTORE PUSH1 0x20 DUP2 SWAP1 MSTORE PUSH1 0x40 DUP2 KECCAK256 DUP1 SLOAD DUP4 SWAP3 SWAP1 PUSH2 0x4A0 SWAP1 DUP5 SWAP1 PUSH2 0x5DF JUMP JUMPDEST SWAP3 POP POP DUP2 SWAP1 SSTORE POP DUP1 PUSH1 0x2 PUSH0 DUP3 DUP3 SLOAD PUSH2 0x4B8 SWAP2 SWAP1 PUSH2 0x5DF JUMP JUMPDEST SWAP1 SWAP2 SSTORE POP POP PUSH1 0x40 MLOAD DUP2 DUP2 MSTORE PUSH0 SWAP1 PUSH1 0x1 PUSH1 0x1 PUSH1 0xA0 SHL SUB DUP5 AND SWAP1 PUSH32 0xDDF252AD1BE2C89B69C2B068FC378DAA952BA7F163C4A11628F55A4DF523B3EF SWAP1 PUSH1 0x20 ADD PUSH1 0x40 MLOAD DUP1 SWAP2 SUB SWAP1 LOG3 POP POP JUMP JUMPDEST PUSH1 0x20 DUP2 MSTORE PUSH0 DUP3 MLOAD DUP1 PUSH1 0x20 DUP5 ADD MSTORE DUP1 PUSH1 0x20 DUP6 ADD PUSH1 0x40 DUP6 ADD MCOPY PUSH0 PUSH1 0x40 DUP3 DUP6 ADD ADD MSTORE PUSH1 0x40 PUSH1 0x1F NOT PUSH1 0x1F DUP4 ADD AND DUP5 ADD ADD SWAP2 POP POP SWAP3 SWAP2 POP POP JUMP JUMPDEST PUSH0 PUSH1 0x20 DUP3 DUP5 SUB SLT ISZERO PUSH2 0x546 JUMPI PUSH0 DUP1 REVERT JUMPDEST POP CALLDATALOAD SWAP2 SWAP1 POP JUMP JUMPDEST PUSH0 PUSH1 0x20 DUP3 DUP5 SUB SLT ISZERO PUSH2 0x55D JUMPI PUSH0 DUP1 REVERT JUMPDEST DUP2 CALLDATALOAD PUSH1 0x1 PUSH1 0x1 PUSH1 0xA0 SHL SUB DUP2 AND DUP2 EQ PUSH2 0x573 JUMPI PUSH0 DUP1 REVERT JUMPDEST SWAP4 SWAP3 POP POP POP JUMP JUMPDEST PUSH1 0x1 DUP2 DUP2 SHR SWAP1 DUP3 AND DUP1 PUSH2 0x58E JUMPI PUSH1 0x7F DUP3 AND SWAP2 POP JUMPDEST PUSH1 0x20 DUP3 LT DUP2 SUB PUSH2 0x5AC JUMPI PUSH4 0x4E487B71 PUSH1 0xE0 SHL PUSH0 MSTORE PUSH1 0x22 PUSH1 0x4 MSTORE PUSH1 0x24 PUSH0 REVERT JUMPDEST POP SWAP2 SWAP1 POP JUMP JUMPDEST PUSH4 0x4E487B71 PUSH1 0xE0 SHL PUSH0 MSTORE PUSH1 0x11 PUSH1 0x4 MSTORE PUSH1 0x24 PUSH0 REVERT JUMPDEST DUP1 DUP3 ADD DUP1 DUP3 GT ISZERO PUSH2 0x5D9 JUMPI PUSH2 0x5D9 PUSH2 0x5B2 JUMP JUMPDEST SWAP3 SWAP2 POP POP JUMP JUMPDEST DUP2 DUP2 SUB DUP2 DUP2 GT ISZERO PUSH2 0x5D9 JUMPI PUSH2 0x5D9 PUSH2 0x5B2 JUMP INVALID LOG2 PUSH5 0x6970667358 0x22 SLT KECCAK256 PUSH31 0x16F772ECFCCEE192DC7227A2D0C480CAF482FA28F749749927F551899592B7 PUSH5 0x736F6C6343 STOP ADDMOD BYTE STOP CALLER "
				},
				"gasEstimates": {
					"creation": {
						"codeDepositCost": "315200",
						"executionCost": "infinite",
						"totalCost": "infinite"
					},
					"external": {
						"balanceOf(address)": "2524",
						"burn(uint256)": "infinite",
						"decimals()": "221",
						"name()": "infinite",
						"owner()": "2344",
						"stake(uint256)": "50525",
						"stakingRewardRate()": "2294",
						"symbol()": "infinite",
						"totalSupply()": "2303"
					}
				},
				"methodIdentifiers": {
					"balanceOf(address)": "70a08231",
					"burn(uint256)": "42966c68",
					"decimals()": "313ce567",
					"name()": "06fdde03",
					"owner()": "8da5cb5b",
					"stake(uint256)": "a694fc3a",
					"stakingRewardRate()": "4f3fc2df",
					"symbol()": "95d89b41",
					"totalSupply()": "18160ddd"
				}
			},
			"storageLayout": {
				"storage": [
					{
						"astId": 5,
						"contract": "contracts/GovernanceToken.sol:GovernanceToken",
						"label": "_balances",
						"offset": 0,
						"slot": "0",
						"type": "t_mapping(t_address,t_uint256)"
					},
					{
						"astId": 11,
						"contract": "contracts/GovernanceToken.sol:GovernanceToken",
						"label": "_allowances",
						"offset": 0,
						"slot": "1",
						"type": "t_mapping(t_address,t_mapping(t_address,t_uint256))"
					},
					{
						"astId": 13,
						"contract": "contracts/GovernanceToken.sol:GovernanceToken",
						"label": "_totalSupply",
						"offset": 0,
						"slot": "2",
						"type": "t_uint256"
					},
					{
						"astId": 15,
						"contract": "contracts/GovernanceToken.sol:GovernanceToken",
						"label": "_name",
						"offset": 0,
						"slot": "3",
						"type": "t_string_storage"
					},
					{
						"astId": 17,
						"contract": "contracts/GovernanceToken.sol:GovernanceToken",
						"label": "_symbol",
						"offset": 0,
						"slot": "4",
						"type": "t_string_storage"
					},
					{
						"astId": 179,
						"contract": "contracts/GovernanceToken.sol:GovernanceToken",
						"label": "_owner",
						"offset": 0,
						"slot": "5",
						"type": "t_address"
					},
					{
						"astId": 231,
						"contract": "contracts/GovernanceToken.sol:GovernanceToken",
						"label": "_stakedBalance",
						"offset": 0,
						"slot": "6",
						"type": "t_mapping(t_address,t_uint256)"
					},
					{
						"astId": 235,
						"contract": "contracts/GovernanceToken.sol:GovernanceToken",
						"label": "_lastStakedTime",
						"offset": 0,
						"slot": "7",
						"type": "t_mapping(t_address,t_uint256)"
					},
					{
						"astId": 238,
						"contract": "contracts/GovernanceToken.sol:GovernanceToken",
						"label": "stakingRewardRate",
						"offset": 0,
						"slot": "8",
						"type": "t_uint256"
					}
				],
				"types": {
					"t_address": {
						"encoding": "inplace",
						"label": "address",
						"numberOfBytes": "20"
					},
					"t_mapping(t_address,t_mapping(t_address,t_uint256))": {
						"encoding": "mapping",
						"key": "t_address",
						"label": "mapping(address => mapping(address => uint256))",
						"numberOfBytes": "32",
						"value": "t_mapping(t_address,t_uint256)"
					},
					"t_mapping(t_address,t_uint256)": {
						"encoding": "mapping",
						"key": "t_address",
						"label": "mapping(address => uint256)",
						"numberOfBytes": "32",
						"value": "t_uint256"
					},
					"t_string_storage": {
						"encoding": "bytes",
						"label": "string",
						"numberOfBytes": "32"
					},
					"t_uint256": {
						"encoding": "inplace",
						"label": "uint256",
						"numberOfBytes": "32"
					}
				}
			},
			"userdoc": {
				"kind": "user",
				"methods": {},
				"version": 1
			}
		}
	}
}