{
	"contracts/TreasuryDAO.sol": {
		"TreasuryDAO": {
			"abi": [
				{
					"inputs": [
						{
							"internalType": "address",
							"name": "tokenAddress",
							"type": "address"
						},
						{
							"internalType": "address",
							"name": "oracle",
							"type": "address"
						},
						{
							"internalType": "address",
							"name": "aavePool",
							"type": "address"
						},
						{
							"internalType": "address",
							"name": "initialOwner",
							"type": "address"
						}
					],
					"stateMutability": "nonpayable",
					"type": "constructor"
				},
				{
					"inputs": [
						{
							"internalType": "address",
							"name": "owner",
							"type": "address"
						}
					],
					"name": "OwnableInvalidOwner",
					"type": "error"
				},
				{
					"inputs": [
						{
							"internalType": "address",
							"name": "account",
							"type": "address"
						}
					],
					"name": "OwnableUnauthorizedAccount",
					"type": "error"
				},
				{
					"anonymous": false,
					"inputs": [
						{
							"indexed": true,
							"internalType": "address",
							"name": "previousOwner",
							"type": "address"
						},
						{
							"indexed": true,
							"internalType": "address",
							"name": "newOwner",
							"type": "address"
						}
					],
					"name": "OwnershipTransferred",
					"type": "event"
				},
				{
					"anonymous": false,
					"inputs": [
						{
							"indexed": false,
							"internalType": "uint256",
							"name": "proposalId",
							"type": "uint256"
						},
						{
							"indexed": false,
							"internalType": "address",
							"name": "recipient",
							"type": "address"
						},
						{
							"indexed": false,
							"internalType": "uint256",
							"name": "amount",
							"type": "uint256"
						}
					],
					"name": "ProposalCreated",
					"type": "event"
				},
				{
					"anonymous": false,
					"inputs": [
						{
							"indexed": false,
							"internalType": "uint256",
							"name": "proposalId",
							"type": "uint256"
						}
					],
					"name": "ProposalExecuted",
					"type": "event"
				},
				{
					"anonymous": false,
					"inputs": [
						{
							"indexed": false,
							"internalType": "uint256",
							"name": "proposalId",
							"type": "uint256"
						},
						{
							"indexed": false,
							"internalType": "address",
							"name": "voter",
							"type": "address"
						},
						{
							"indexed": false,
							"internalType": "uint256",
							"name": "weight",
							"type": "uint256"
						}
					],
					"name": "Voted",
					"type": "event"
				},
				{
					"inputs": [
						{
							"internalType": "address",
							"name": "member",
							"type": "address"
						}
					],
					"name": "addMember",
					"outputs": [],
					"stateMutability": "nonpayable",
					"type": "function"
				},
				{
					"inputs": [
						{
							"internalType": "bytes",
							"name": "",
							"type": "bytes"
						}
					],
					"name": "checkUpkeep",
					"outputs": [
						{
							"internalType": "bool",
							"name": "upkeepNeeded",
							"type": "bool"
						},
						{
							"internalType": "bytes",
							"name": "",
							"type": "bytes"
						}
					],
					"stateMutability": "view",
					"type": "function"
				},
				{
					"inputs": [],
					"name": "deposit",
					"outputs": [],
					"stateMutability": "payable",
					"type": "function"
				},
				{
					"inputs": [
						{
							"internalType": "uint256",
							"name": "amount",
							"type": "uint256"
						}
					],
					"name": "depositToAave",
					"outputs": [],
					"stateMutability": "nonpayable",
					"type": "function"
				},
				{
					"inputs": [
						{
							"internalType": "uint256",
							"name": "proposalId",
							"type": "uint256"
						}
					],
					"name": "executeProposal",
					"outputs": [],
					"stateMutability": "nonpayable",
					"type": "function"
				},
				{
					"inputs": [],
					"name": "getBalance",
					"outputs": [
						{
							"internalType": "uint256",
							"name": "",
							"type": "uint256"
						}
					],
					"stateMutability": "view",
					"type": "function"
				},
				{
					"inputs": [],
					"name": "getETHPrice",
					"outputs": [
						{
							"internalType": "uint256",
							"name": "",
							"type": "uint256"
						}
					],
					"stateMutability": "view",
					"type": "function"
				},
				{
					"inputs": [],
					"name": "governanceToken",
					"outputs": [
						{
							"internalType": "contract IERC20",
							"name": "",
							"type": "address"
						}
					],
					"stateMutability": "view",
					"type": "function"
				},
				{
					"inputs": [],
					"name": "lendingPool",
					"outputs": [
						{
							"internalType": "contract IPool",
							"name": "",
							"type": "address"
						}
					],
					"stateMutability": "view",
					"type": "function"
				},
				{
					"inputs": [
						{
							"internalType": "address",
							"name": "",
							"type": "address"
						}
					],
					"name": "members",
					"outputs": [
						{
							"internalType": "bool",
							"name": "",
							"type": "bool"
						}
					],
					"stateMutability": "view",
					"type": "function"
				},
				{
					"inputs": [],
					"name": "minVoteDuration",
					"outputs": [
						{
							"internalType": "uint256",
							"name": "",
							"type": "uint256"
						}
					],
					"stateMutability": "view",
					"type": "function"
				},
				{
					"inputs": [],
					"name": "owner",
					"outputs": [
						{
							"internalType": "address",
							"name": "",
							"type": "address"
						}
					],
					"stateMutability": "view",
					"type": "function"
				},
				{
					"inputs": [
						{
							"internalType": "bytes",
							"name": "performData",
							"type": "bytes"
						}
					],
					"name": "performUpkeep",
					"outputs": [],
					"stateMutability": "nonpayable",
					"type": "function"
				},
				{
					"inputs": [
						{
							"internalType": "uint256",
							"name": "",
							"type": "uint256"
						}
					],
					"name": "proposals",
					"outputs": [
						{
							"internalType": "address payable",
							"name": "recipient",
							"type": "address"
						},
						{
							"internalType": "uint256",
							"name": "amount",
							"type": "uint256"
						},
						{
							"internalType": "uint256",
							"name": "votes",
							"type": "uint256"
						},
						{
							"internalType": "uint256",
							"name": "endTime",
							"type": "uint256"
						},
						{
							"internalType": "uint256",
							"name": "unlockTime",
							"type": "uint256"
						},
						{
							"internalType": "bool",
							"name": "executed",
							"type": "bool"
						}
					],
					"stateMutability": "view",
					"type": "function"
				},
				{
					"inputs": [
						{
							"internalType": "address payable",
							"name": "recipient",
							"type": "address"
						},
						{
							"internalType": "uint256",
							"name": "amount",
							"type": "uint256"
						}
					],
					"name": "proposeFunding",
					"outputs": [],
					"stateMutability": "nonpayable",
					"type": "function"
				},
				{
					"inputs": [],
					"name": "renounceOwnership",
					"outputs": [],
					"stateMutability": "nonpayable",
					"type": "function"
				},
				{
					"inputs": [
						{
							"internalType": "address",
							"name": "newOwner",
							"type": "address"
						}
					],
					"name": "transferOwnership",
					"outputs": [],
					"stateMutability": "nonpayable",
					"type": "function"
				},
				{
					"inputs": [
						{
							"internalType": "uint256",
							"name": "proposalId",
							"type": "uint256"
						}
					],
					"name": "vote",
					"outputs": [],
					"stateMutability": "nonpayable",
					"type": "function"
				},
				{
					"inputs": [
						{
							"internalType": "uint256",
							"name": "amount",
							"type": "uint256"
						}
					],
					"name": "withdrawFromAave",
					"outputs": [],
					"stateMutability": "nonpayable",
					"type": "function"
				}
			],
			"devdoc": {
				"errors": {
					"OwnableInvalidOwner(address)": [
						{
							"details": "The owner is not a valid owner account. (eg. `address(0)`)"
						}
					],
					"OwnableUnauthorizedAccount(address)": [
						{
							"details": "The caller account is not authorized to perform an operation."
						}
					]
				},
				"kind": "dev",
				"methods": {
					"owner()": {
						"details": "Returns the address of the current owner."
					},
					"performUpkeep(bytes)": {
						"details": "The input to this method should not be trusted, and the caller of the method should not even be restricted to any single registry. Anyone should be able call it, and the input should be validated, there is no guarantee that the data passed in is the performData returned from checkUpkeep. This could happen due to malicious keepers, racing keepers, or simply a state change while the performUpkeep transaction is waiting for confirmation. Always validate the data passed in.",
						"params": {
							"performData": "is the data which was passed back from the checkData simulation. If it is encoded, it can easily be decoded into other types by calling `abi.decode`. This data should not be trusted, and should be validated against the contract's current state."
						}
					},
					"renounceOwnership()": {
						"details": "Leaves the contract without owner. It will not be possible to call `onlyOwner` functions. Can only be called by the current owner. NOTE: Renouncing ownership will leave the contract without an owner, thereby disabling any functionality that is only available to the owner."
					},
					"transferOwnership(address)": {
						"details": "Transfers ownership of the contract to a new account (`newOwner`). Can only be called by the current owner."
					}
				},
				"version": 1
			},
			"evm": {
				"assembly": "    /* \"contracts/TreasuryDAO.sol\":381:4599  contract TreasuryDAO is Ownable, KeeperCompatibleInterface {... */\n  mstore(0x40, 0x80)\n    /* \"contracts/TreasuryDAO.sol\":929:935  1 days */\n  0x015180\n    /* \"contracts/TreasuryDAO.sol\":896:935  uint256 public minVoteDuration = 1 days */\n  0x06\n  sstore\n    /* \"contracts/TreasuryDAO.sol\":1132:1459  constructor(address tokenAddress, address oracle, address aavePool, address initialOwner) Ownable(initialOwner) {... */\n  callvalue\n  dup1\n  iszero\n  tag_1\n  jumpi\n  0x00\n  dup1\n  revert\ntag_1:\n  pop\n  mload(0x40)\n  sub(codesize, bytecodeSize)\n  dup1\n  bytecodeSize\n  dup4\n  codecopy\n  dup2\n  add\n  0x40\n  dup2\n  swap1\n  mstore\n  tag_2\n  swap2\n  tag_3\n  jump\t// in\ntag_2:\n    /* \"contracts/TreasuryDAO.sol\":1230:1242  initialOwner */\n  dup1\n  sub(shl(0xa0, 0x01), 0x01)\n    /* \"@openzeppelin/contracts/access/Ownable.sol\":1273:1299  initialOwner == address(0) */\n  dup2\n  and\n    /* \"@openzeppelin/contracts/access/Ownable.sol\":1269:1364  if (initialOwner == address(0)) {... */\n  tag_7\n  jumpi\n    /* \"@openzeppelin/contracts/access/Ownable.sol\":1322:1353  OwnableInvalidOwner(address(0)) */\n  mload(0x40)\n  shl(0xe0, 0x1e4fbdf7)\n  dup2\n  mstore\n    /* \"@openzeppelin/contracts/access/Ownable.sol\":1350:1351  0 */\n  0x00\n    /* \"@openzeppelin/contracts/access/Ownable.sol\":1322:1353  OwnableInvalidOwner(address(0)) */\n  0x04\n  dup3\n  add\n    /* \"#utility.yul\":811:862   */\n  mstore\n    /* \"#utility.yul\":784:802   */\n  0x24\n  add\n    /* \"@openzeppelin/contracts/access/Ownable.sol\":1322:1353  OwnableInvalidOwner(address(0)) */\n  mload(0x40)\n  dup1\n  swap2\n  sub\n  swap1\n  revert\n    /* \"@openzeppelin/contracts/access/Ownable.sol\":1269:1364  if (initialOwner == address(0)) {... */\ntag_7:\n    /* \"@openzeppelin/contracts/access/Ownable.sol\":1373:1405  _transferOwnership(initialOwner) */\n  tag_10\n    /* \"@openzeppelin/contracts/access/Ownable.sol\":1392:1404  initialOwner */\n  dup2\n    /* \"@openzeppelin/contracts/access/Ownable.sol\":1373:1391  _transferOwnership */\n  tag_11\n    /* \"@openzeppelin/contracts/access/Ownable.sol\":1373:1405  _transferOwnership(initialOwner) */\n  jump\t// in\ntag_10:\n  pop\n    /* \"contracts/TreasuryDAO.sol\":1254:1269  governanceToken */\n  0x03\n    /* \"contracts/TreasuryDAO.sol\":1254:1292  governanceToken = IERC20(tokenAddress) */\n  dup1\n  sload\n  not(sub(shl(0xa0, 0x01), 0x01))\n  swap1\n  dup2\n  and\n  sub(shl(0xa0, 0x01), 0x01)\n  swap7\n  dup8\n  and\n  or\n  swap1\n  swap2\n  sstore\n    /* \"contracts/TreasuryDAO.sol\":1302:1311  priceFeed */\n  0x04\n    /* \"contracts/TreasuryDAO.sol\":1302:1343  priceFeed = AggregatorV3Interface(oracle) */\n  dup1\n  sload\n  dup3\n  and\n  swap5\n  dup7\n  and\n  swap5\n  swap1\n  swap5\n  or\n  swap1\n  swap4\n  sstore\n    /* \"contracts/TreasuryDAO.sol\":1385:1396  lendingPool */\n  0x05\n    /* \"contracts/TreasuryDAO.sol\":1385:1414  lendingPool = IPool(aavePool) */\n  dup1\n  sload\n  swap1\n  swap4\n  and\n  swap2\n  dup5\n  and\n  swap2\n  swap1\n  swap2\n  or\n  swap1\n  swap2\n  sstore\n    /* \"contracts/TreasuryDAO.sol\":1424:1445  members[initialOwner] */\n  and\n  0x00\n  swap1\n  dup2\n  mstore\n  0x01\n  0x20\n  dup2\n  swap1\n  mstore\n  0x40\n  swap1\n  swap2\n  keccak256\n    /* \"contracts/TreasuryDAO.sol\":1424:1452  members[initialOwner] = true */\n  dup1\n  sload\n  not(0xff)\n  and\n  swap1\n  swap2\n  or\n  swap1\n  sstore\n    /* \"contracts/TreasuryDAO.sol\":381:4599  contract TreasuryDAO is Ownable, KeeperCompatibleInterface {... */\n  jump(tag_16)\n    /* \"@openzeppelin/contracts/access/Ownable.sol\":2912:3099  function _transferOwnership(address newOwner) internal virtual {... */\ntag_11:\n    /* \"@openzeppelin/contracts/access/Ownable.sol\":2985:3001  address oldOwner */\n  0x00\n    /* \"@openzeppelin/contracts/access/Ownable.sol\":3004:3010  _owner */\n  dup1\n  sload\n  sub(shl(0xa0, 0x01), 0x01)\n    /* \"@openzeppelin/contracts/access/Ownable.sol\":3020:3037  _owner = newOwner */\n  dup4\n  dup2\n  and\n  not(sub(shl(0xa0, 0x01), 0x01))\n  dup4\n  and\n  dup2\n  or\n  dup5\n  sstore\n    /* \"@openzeppelin/contracts/access/Ownable.sol\":3052:3092  OwnershipTransferred(oldOwner, newOwner) */\n  mload(0x40)\n    /* \"@openzeppelin/contracts/access/Ownable.sol\":3004:3010  _owner */\n  swap2\n  swap1\n  swap3\n  and\n  swap3\n  dup4\n  swap2\n    /* \"@openzeppelin/contracts/access/Ownable.sol\":3052:3092  OwnershipTransferred(oldOwner, newOwner) */\n  0x8be0079c531659141344cd1fd0a4f28419497f9722a3daafe3b4186f6b6457e0\n  swap2\n    /* \"@openzeppelin/contracts/access/Ownable.sol\":2985:3001  address oldOwner */\n  swap1\n    /* \"@openzeppelin/contracts/access/Ownable.sol\":3052:3092  OwnershipTransferred(oldOwner, newOwner) */\n  log3\n    /* \"@openzeppelin/contracts/access/Ownable.sol\":2975:3099  {... */\n  pop\n    /* \"@openzeppelin/contracts/access/Ownable.sol\":2912:3099  function _transferOwnership(address newOwner) internal virtual {... */\n  pop\n  jump\t// out\n    /* \"#utility.yul\":14:191   */\ntag_15:\n    /* \"#utility.yul\":93:106   */\n  dup1\n  mload\n  sub(shl(0xa0, 0x01), 0x01)\n    /* \"#utility.yul\":135:166   */\n  dup2\n  and\n    /* \"#utility.yul\":125:167   */\n  dup2\n  eq\n    /* \"#utility.yul\":115:185   */\n  tag_18\n  jumpi\n    /* \"#utility.yul\":181:182   */\n  0x00\n    /* \"#utility.yul\":178:179   */\n  dup1\n    /* \"#utility.yul\":171:183   */\n  revert\n    /* \"#utility.yul\":115:185   */\ntag_18:\n    /* \"#utility.yul\":14:191   */\n  swap2\n  swap1\n  pop\n  jump\t// out\n    /* \"#utility.yul\":196:660   */\ntag_3:\n    /* \"#utility.yul\":293:299   */\n  0x00\n    /* \"#utility.yul\":301:307   */\n  dup1\n    /* \"#utility.yul\":309:315   */\n  0x00\n    /* \"#utility.yul\":317:323   */\n  dup1\n    /* \"#utility.yul\":370:373   */\n  0x80\n    /* \"#utility.yul\":358:367   */\n  dup6\n    /* \"#utility.yul\":349:356   */\n  dup8\n    /* \"#utility.yul\":345:368   */\n  sub\n    /* \"#utility.yul\":341:374   */\n  slt\n    /* \"#utility.yul\":338:391   */\n  iszero\n  tag_20\n  jumpi\n    /* \"#utility.yul\":387:388   */\n  0x00\n    /* \"#utility.yul\":384:385   */\n  dup1\n    /* \"#utility.yul\":377:389   */\n  revert\n    /* \"#utility.yul\":338:391   */\ntag_20:\n    /* \"#utility.yul\":410:450   */\n  tag_21\n    /* \"#utility.yul\":440:449   */\n  dup6\n    /* \"#utility.yul\":410:450   */\n  tag_15\n  jump\t// in\ntag_21:\n    /* \"#utility.yul\":400:450   */\n  swap4\n  pop\n    /* \"#utility.yul\":469:518   */\n  tag_22\n    /* \"#utility.yul\":514:516   */\n  0x20\n    /* \"#utility.yul\":503:512   */\n  dup7\n    /* \"#utility.yul\":499:517   */\n  add\n    /* \"#utility.yul\":469:518   */\n  tag_15\n  jump\t// in\ntag_22:\n    /* \"#utility.yul\":459:518   */\n  swap3\n  pop\n    /* \"#utility.yul\":537:586   */\n  tag_23\n    /* \"#utility.yul\":582:584   */\n  0x40\n    /* \"#utility.yul\":571:580   */\n  dup7\n    /* \"#utility.yul\":567:585   */\n  add\n    /* \"#utility.yul\":537:586   */\n  tag_15\n  jump\t// in\ntag_23:\n    /* \"#utility.yul\":527:586   */\n  swap2\n  pop\n    /* \"#utility.yul\":605:654   */\n  tag_24\n    /* \"#utility.yul\":650:652   */\n  0x60\n    /* \"#utility.yul\":639:648   */\n  dup7\n    /* \"#utility.yul\":635:653   */\n  add\n    /* \"#utility.yul\":605:654   */\n  tag_15\n  jump\t// in\ntag_24:\n    /* \"#utility.yul\":595:654   */\n  swap1\n  pop\n    /* \"#utility.yul\":196:660   */\n  swap3\n  swap6\n  swap2\n  swap5\n  pop\n  swap3\n  pop\n  jump\t// out\n    /* \"#utility.yul\":665:868   */\ntag_16:\n    /* \"contracts/TreasuryDAO.sol\":381:4599  contract TreasuryDAO is Ownable, KeeperCompatibleInterface {... */\n  dataSize(sub_0)\n  dup1\n  dataOffset(sub_0)\n  0x00\n  codecopy\n  0x00\n  return\nstop\n\nsub_0: assembly {\n        /* \"contracts/TreasuryDAO.sol\":381:4599  contract TreasuryDAO is Ownable, KeeperCompatibleInterface {... */\n      mstore(0x40, 0x80)\n      jumpi(tag_1, lt(calldatasize, 0x04))\n      shr(0xe0, calldataload(0x00))\n      dup1\n      0x6e04ff0d\n      gt\n      tag_21\n      jumpi\n      dup1\n      0xc00d2a8c\n      gt\n      tag_22\n      jumpi\n      dup1\n      0xc00d2a8c\n      eq\n      tag_16\n      jumpi\n      dup1\n      0xca6d56dc\n      eq\n      tag_17\n      jumpi\n      dup1\n      0xd0e30db0\n      eq\n      tag_25\n      jumpi\n      dup1\n      0xf2fde38b\n      eq\n      tag_19\n      jumpi\n      dup1\n      0xf96dae0a\n      eq\n      tag_20\n      jumpi\n      0x00\n      dup1\n      revert\n    tag_22:\n      dup1\n      0x6e04ff0d\n      eq\n      tag_11\n      jumpi\n      dup1\n      0x715018a6\n      eq\n      tag_12\n      jumpi\n      dup1\n      0x8da5cb5b\n      eq\n      tag_13\n      jumpi\n      dup1\n      0xa59a9973\n      eq\n      tag_14\n      jumpi\n      dup1\n      0xa607a8d9\n      eq\n      tag_15\n      jumpi\n      0x00\n      dup1\n      revert\n    tag_21:\n      dup1\n      0x12065fe0\n      gt\n      tag_23\n      jumpi\n      dup1\n      0x12065fe0\n      eq\n      tag_6\n      jumpi\n      dup1\n      0x237af348\n      eq\n      tag_7\n      jumpi\n      dup1\n      0x4585e33b\n      eq\n      tag_8\n      jumpi\n      dup1\n      0x688f237b\n      eq\n      tag_9\n      jumpi\n      dup1\n      0x68fd2d80\n      eq\n      tag_10\n      jumpi\n      0x00\n      dup1\n      revert\n    tag_23:\n      dup1\n      0x0121b93f\n      eq\n      tag_2\n      jumpi\n      dup1\n      0x013cf08b\n      eq\n      tag_3\n      jumpi\n      dup1\n      0x08ae4b0c\n      eq\n      tag_4\n      jumpi\n      dup1\n      0x0d61b519\n      eq\n      tag_5\n      jumpi\n    tag_1:\n      0x00\n      dup1\n      revert\n        /* \"contracts/TreasuryDAO.sol\":2382:2924  function vote(uint proposalId) public onlyMember {... */\n    tag_2:\n      callvalue\n      dup1\n      iszero\n      tag_24\n      jumpi\n      0x00\n      dup1\n      revert\n    tag_24:\n      pop\n      tag_25\n      tag_26\n      calldatasize\n      0x04\n      tag_27\n      jump\t// in\n    tag_26:\n      tag_28\n      jump\t// in\n    tag_25:\n      stop\n        /* \"contracts/TreasuryDAO.sol\":752:779  Proposal[] public proposals */\n    tag_3:\n      callvalue\n      dup1\n      iszero\n      tag_29\n      jumpi\n      0x00\n      dup1\n      revert\n    tag_29:\n      pop\n      tag_30\n      tag_31\n      calldatasize\n      0x04\n      tag_27\n      jump\t// in\n    tag_31:\n      tag_32\n      jump\t// in\n    tag_30:\n      0x40\n      dup1\n      mload\n      sub(shl(0xa0, 0x01), 0x01)\n        /* \"#utility.yul\":560:592   */\n      swap1\n      swap8\n      and\n        /* \"#utility.yul\":542:593   */\n      dup8\n      mstore\n        /* \"#utility.yul\":624:626   */\n      0x20\n        /* \"#utility.yul\":609:627   */\n      dup8\n      add\n        /* \"#utility.yul\":602:636   */\n      swap6\n      swap1\n      swap6\n      mstore\n        /* \"#utility.yul\":652:670   */\n      swap4\n      dup6\n      add\n        /* \"#utility.yul\":645:679   */\n      swap3\n      swap1\n      swap3\n      mstore\n        /* \"#utility.yul\":710:712   */\n      0x60\n        /* \"#utility.yul\":695:713   */\n      dup5\n      add\n        /* \"#utility.yul\":688:722   */\n      mstore\n        /* \"#utility.yul\":753:756   */\n      0x80\n        /* \"#utility.yul\":738:757   */\n      dup4\n      add\n        /* \"#utility.yul\":731:766   */\n      mstore\n        /* \"#utility.yul\":810:824   */\n      iszero\n        /* \"#utility.yul\":803:825   */\n      iszero\n        /* \"#utility.yul\":580:583   */\n      0xa0\n        /* \"#utility.yul\":782:801   */\n      dup3\n      add\n        /* \"#utility.yul\":775:826   */\n      mstore\n        /* \"#utility.yul\":529:532   */\n      0xc0\n        /* \"#utility.yul\":514:533   */\n      add\n        /* \"contracts/TreasuryDAO.sol\":752:779  Proposal[] public proposals */\n    tag_33:\n      mload(0x40)\n      dup1\n      swap2\n      sub\n      swap1\n      return\n        /* \"contracts/TreasuryDAO.sol\":707:746  mapping(address => bool) public members */\n    tag_4:\n      callvalue\n      dup1\n      iszero\n      tag_35\n      jumpi\n      0x00\n      dup1\n      revert\n    tag_35:\n      pop\n      tag_36\n      tag_37\n      calldatasize\n      0x04\n      tag_38\n      jump\t// in\n    tag_37:\n      mstore(0x20, 0x01)\n      0x00\n      swap1\n      dup2\n      mstore\n      0x40\n      swap1\n      keccak256\n      sload\n      0xff\n      and\n      dup2\n      jump\n    tag_36:\n      mload(0x40)\n        /* \"#utility.yul\":1390:1404   */\n      swap1\n      iszero\n        /* \"#utility.yul\":1383:1405   */\n      iszero\n        /* \"#utility.yul\":1365:1406   */\n      dup2\n      mstore\n        /* \"#utility.yul\":1353:1355   */\n      0x20\n        /* \"#utility.yul\":1338:1356   */\n      add\n        /* \"contracts/TreasuryDAO.sol\":707:746  mapping(address => bool) public members */\n      tag_33\n        /* \"#utility.yul\":1225:1412   */\n      jump\n        /* \"contracts/TreasuryDAO.sol\":2930:3405  function executeProposal(uint proposalId) public {... */\n    tag_5:\n      callvalue\n      dup1\n      iszero\n      tag_42\n      jumpi\n      0x00\n      dup1\n      revert\n    tag_42:\n      pop\n      tag_25\n      tag_44\n      calldatasize\n      0x04\n      tag_27\n      jump\t// in\n    tag_44:\n      tag_45\n      jump\t// in\n        /* \"contracts/TreasuryDAO.sol\":4500:4597  function getBalance() public view returns (uint256) {... */\n    tag_6:\n      callvalue\n      dup1\n      iszero\n      tag_46\n      jumpi\n      0x00\n      dup1\n      revert\n    tag_46:\n      pop\n        /* \"contracts/TreasuryDAO.sol\":4569:4590  address(this).balance */\n      selfbalance\n        /* \"contracts/TreasuryDAO.sol\":4500:4597  function getBalance() public view returns (uint256) {... */\n    tag_47:\n      mload(0x40)\n        /* \"#utility.yul\":1563:1588   */\n      swap1\n      dup2\n      mstore\n        /* \"#utility.yul\":1551:1553   */\n      0x20\n        /* \"#utility.yul\":1536:1554   */\n      add\n        /* \"contracts/TreasuryDAO.sol\":4500:4597  function getBalance() public view returns (uint256) {... */\n      tag_33\n        /* \"#utility.yul\":1417:1594   */\n      jump\n        /* \"contracts/TreasuryDAO.sol\":1666:2376  function proposeFunding(address payable recipient, uint256 amount) public onlyMember {... */\n    tag_7:\n      callvalue\n      dup1\n      iszero\n      tag_51\n      jumpi\n      0x00\n      dup1\n      revert\n    tag_51:\n      pop\n      tag_25\n      tag_53\n      calldatasize\n      0x04\n      tag_54\n      jump\t// in\n    tag_53:\n      tag_55\n      jump\t// in\n        /* \"contracts/TreasuryDAO.sol\":3997:4169  function performUpkeep(bytes calldata performData) external override {... */\n    tag_8:\n      callvalue\n      dup1\n      iszero\n      tag_56\n      jumpi\n      0x00\n      dup1\n      revert\n    tag_56:\n      pop\n      tag_25\n      tag_58\n      calldatasize\n      0x04\n      tag_59\n      jump\t// in\n    tag_58:\n      tag_60\n      jump\t// in\n        /* \"contracts/TreasuryDAO.sol\":4316:4452  function withdrawFromAave(uint256 amount) external onlyOwner {... */\n    tag_9:\n      callvalue\n      dup1\n      iszero\n      tag_61\n      jumpi\n      0x00\n      dup1\n      revert\n    tag_61:\n      pop\n      tag_25\n      tag_63\n      calldatasize\n      0x04\n      tag_27\n      jump\t// in\n    tag_63:\n      tag_64\n      jump\t// in\n        /* \"contracts/TreasuryDAO.sol\":4175:4310  function depositToAave(uint256 amount) external onlyOwner {... */\n    tag_10:\n      callvalue\n      dup1\n      iszero\n      tag_65\n      jumpi\n      0x00\n      dup1\n      revert\n    tag_65:\n      pop\n      tag_25\n      tag_67\n      calldatasize\n      0x04\n      tag_27\n      jump\t// in\n    tag_67:\n      tag_68\n      jump\t// in\n        /* \"contracts/TreasuryDAO.sol\":3570:3991  function checkUpkeep(bytes calldata /* checkData */) external view override returns (bool upkeepNeeded, bytes memory /* performData */) {... */\n    tag_11:\n      callvalue\n      dup1\n      iszero\n      tag_69\n      jumpi\n      0x00\n      dup1\n      revert\n    tag_69:\n      pop\n      tag_70\n      tag_71\n      calldatasize\n      0x04\n      tag_59\n      jump\t// in\n    tag_71:\n      tag_72\n      jump\t// in\n    tag_70:\n      mload(0x40)\n      tag_33\n      swap3\n      swap2\n      swap1\n      tag_74\n      jump\t// in\n        /* \"@openzeppelin/contracts/access/Ownable.sol\":2293:2394  function renounceOwnership() public virtual onlyOwner {... */\n    tag_12:\n      callvalue\n      dup1\n      iszero\n      tag_75\n      jumpi\n      0x00\n      dup1\n      revert\n    tag_75:\n      pop\n      tag_25\n      tag_77\n      jump\t// in\n        /* \"@openzeppelin/contracts/access/Ownable.sol\":1638:1723  function owner() public view virtual returns (address) {... */\n    tag_13:\n      callvalue\n      dup1\n      iszero\n      tag_78\n      jumpi\n      0x00\n      dup1\n      revert\n    tag_78:\n      pop\n        /* \"@openzeppelin/contracts/access/Ownable.sol\":1684:1691  address */\n      0x00\n        /* \"@openzeppelin/contracts/access/Ownable.sol\":1710:1716  _owner */\n      sload\n      sub(shl(0xa0, 0x01), 0x01)\n      and\n        /* \"@openzeppelin/contracts/access/Ownable.sol\":1638:1723  function owner() public view virtual returns (address) {... */\n    tag_79:\n      mload(0x40)\n      sub(shl(0xa0, 0x01), 0x01)\n        /* \"#utility.yul\":3236:3268   */\n      swap1\n      swap2\n      and\n        /* \"#utility.yul\":3218:3269   */\n      dup2\n      mstore\n        /* \"#utility.yul\":3206:3208   */\n      0x20\n        /* \"#utility.yul\":3191:3209   */\n      add\n        /* \"@openzeppelin/contracts/access/Ownable.sol\":1638:1723  function owner() public view virtual returns (address) {... */\n      tag_33\n        /* \"#utility.yul\":3072:3275   */\n      jump\n        /* \"contracts/TreasuryDAO.sol\":866:890  IPool public lendingPool */\n    tag_14:\n      callvalue\n      dup1\n      iszero\n      tag_83\n      jumpi\n      0x00\n      dup1\n      revert\n    tag_83:\n      pop\n      sload(0x05)\n      tag_79\n      swap1\n      sub(shl(0xa0, 0x01), 0x01)\n      and\n      dup2\n      jump\n        /* \"contracts/TreasuryDAO.sol\":3411:3564  function getETHPrice() public view returns (uint256) {... */\n    tag_15:\n      callvalue\n      dup1\n      iszero\n      tag_88\n      jumpi\n      0x00\n      dup1\n      revert\n    tag_88:\n      pop\n      tag_47\n      tag_90\n      jump\t// in\n        /* \"contracts/TreasuryDAO.sol\":896:935  uint256 public minVoteDuration = 1 days */\n    tag_16:\n      callvalue\n      dup1\n      iszero\n      tag_92\n      jumpi\n      0x00\n      dup1\n      revert\n    tag_92:\n      pop\n      tag_47\n      sload(0x06)\n      dup2\n      jump\n        /* \"contracts/TreasuryDAO.sol\":1569:1660  function addMember(address member) public onlyOwner {... */\n    tag_17:\n      callvalue\n      dup1\n      iszero\n      tag_96\n      jumpi\n      0x00\n      dup1\n      revert\n    tag_96:\n      pop\n      tag_25\n      tag_98\n      calldatasize\n      0x04\n      tag_38\n      jump\t// in\n    tag_98:\n      tag_99\n      jump\t// in\n        /* \"@openzeppelin/contracts/access/Ownable.sol\":2543:2758  function transferOwnership(address newOwner) public virtual onlyOwner {... */\n    tag_19:\n      callvalue\n      dup1\n      iszero\n      tag_102\n      jumpi\n      0x00\n      dup1\n      revert\n    tag_102:\n      pop\n      tag_25\n      tag_104\n      calldatasize\n      0x04\n      tag_38\n      jump\t// in\n    tag_104:\n      tag_105\n      jump\t// in\n        /* \"contracts/TreasuryDAO.sol\":785:814  IERC20 public governanceToken */\n    tag_20:\n      callvalue\n      dup1\n      iszero\n      tag_106\n      jumpi\n      0x00\n      dup1\n      revert\n    tag_106:\n      pop\n      sload(0x03)\n      tag_79\n      swap1\n      sub(shl(0xa0, 0x01), 0x01)\n      and\n      dup2\n      jump\n        /* \"contracts/TreasuryDAO.sol\":2382:2924  function vote(uint proposalId) public onlyMember {... */\n    tag_28:\n        /* \"contracts/TreasuryDAO.sol\":1513:1523  msg.sender */\n      caller\n        /* \"contracts/TreasuryDAO.sol\":1505:1524  members[msg.sender] */\n      0x00\n      swap1\n      dup2\n      mstore\n        /* \"contracts/TreasuryDAO.sol\":1505:1512  members */\n      0x01\n        /* \"contracts/TreasuryDAO.sol\":1505:1524  members[msg.sender] */\n      0x20\n      mstore\n      0x40\n      swap1\n      keccak256\n      sload\n      0xff\n      and\n        /* \"contracts/TreasuryDAO.sol\":1497:1545  require(members[msg.sender], \"Not a DAO member\") */\n      tag_112\n      jumpi\n      mload(0x40)\n      shl(0xe5, 0x461bcd)\n      dup2\n      mstore\n        /* \"#utility.yul\":3926:3928   */\n      0x20\n        /* \"contracts/TreasuryDAO.sol\":1497:1545  require(members[msg.sender], \"Not a DAO member\") */\n      0x04\n      dup3\n      add\n        /* \"#utility.yul\":3908:3929   */\n      mstore\n        /* \"#utility.yul\":3965:3967   */\n      0x10\n        /* \"#utility.yul\":3945:3963   */\n      0x24\n      dup3\n      add\n        /* \"#utility.yul\":3938:3968   */\n      mstore\n      shl(0x81, 0x2737ba1030902220a79036b2b6b132b9)\n        /* \"#utility.yul\":3984:4002   */\n      0x44\n      dup3\n      add\n        /* \"#utility.yul\":3977:4023   */\n      mstore\n        /* \"#utility.yul\":4040:4058   */\n      0x64\n      add\n        /* \"contracts/TreasuryDAO.sol\":1497:1545  require(members[msg.sender], \"Not a DAO member\") */\n    tag_113:\n      mload(0x40)\n      dup1\n      swap2\n      sub\n      swap1\n      revert\n    tag_112:\n        /* \"contracts/TreasuryDAO.sol\":2441:2466  Proposal storage proposal */\n      0x00\n        /* \"contracts/TreasuryDAO.sol\":2469:2478  proposals */\n      0x02\n        /* \"contracts/TreasuryDAO.sol\":2479:2489  proposalId */\n      dup3\n        /* \"contracts/TreasuryDAO.sol\":2469:2490  proposals[proposalId] */\n      dup2\n      sload\n      dup2\n      lt\n      tag_117\n      jumpi\n      tag_117\n      tag_118\n      jump\t// in\n    tag_117:\n      0x00\n      swap2\n      dup3\n      mstore\n      0x20\n      dup1\n      dup4\n      keccak256\n        /* \"contracts/TreasuryDAO.sol\":2524:2534  msg.sender */\n      caller\n        /* \"contracts/TreasuryDAO.sol\":2509:2535  proposal.voted[msg.sender] */\n      dup5\n      mstore\n        /* \"contracts/TreasuryDAO.sol\":2509:2523  proposal.voted */\n      0x06\n        /* \"contracts/TreasuryDAO.sol\":2469:2490  proposals[proposalId] */\n      0x07\n      swap1\n      swap4\n      mul\n      add\n        /* \"contracts/TreasuryDAO.sol\":2509:2523  proposal.voted */\n      swap2\n      dup3\n      add\n        /* \"contracts/TreasuryDAO.sol\":2509:2535  proposal.voted[msg.sender] */\n      swap1\n      mstore\n      0x40\n      swap1\n      swap2\n      keccak256\n      sload\n        /* \"contracts/TreasuryDAO.sol\":2469:2490  proposals[proposalId] */\n      swap1\n      swap2\n      pop\n        /* \"contracts/TreasuryDAO.sol\":2509:2535  proposal.voted[msg.sender] */\n      0xff\n      and\n        /* \"contracts/TreasuryDAO.sol\":2508:2535  !proposal.voted[msg.sender] */\n      iszero\n        /* \"contracts/TreasuryDAO.sol\":2500:2553  require(!proposal.voted[msg.sender], \"Already voted\") */\n      tag_120\n      jumpi\n      mload(0x40)\n      shl(0xe5, 0x461bcd)\n      dup2\n      mstore\n        /* \"#utility.yul\":4403:4405   */\n      0x20\n        /* \"contracts/TreasuryDAO.sol\":2500:2553  require(!proposal.voted[msg.sender], \"Already voted\") */\n      0x04\n      dup3\n      add\n        /* \"#utility.yul\":4385:4406   */\n      mstore\n        /* \"#utility.yul\":4442:4444   */\n      0x0d\n        /* \"#utility.yul\":4422:4440   */\n      0x24\n      dup3\n      add\n        /* \"#utility.yul\":4415:4445   */\n      mstore\n      shl(0x9a, 0x105b1c9958591e481d9bdd1959)\n        /* \"#utility.yul\":4461:4479   */\n      0x44\n      dup3\n      add\n        /* \"#utility.yul\":4454:4497   */\n      mstore\n        /* \"#utility.yul\":4514:4532   */\n      0x64\n      add\n        /* \"contracts/TreasuryDAO.sol\":2500:2553  require(!proposal.voted[msg.sender], \"Already voted\") */\n      tag_113\n        /* \"#utility.yul\":4201:4538   */\n      jump\n        /* \"contracts/TreasuryDAO.sol\":2500:2553  require(!proposal.voted[msg.sender], \"Already voted\") */\n    tag_120:\n        /* \"contracts/TreasuryDAO.sol\":2589:2597  proposal */\n      dup1\n        /* \"contracts/TreasuryDAO.sol\":2589:2605  proposal.endTime */\n      0x03\n      add\n      sload\n        /* \"contracts/TreasuryDAO.sol\":2571:2586  block.timestamp */\n      timestamp\n        /* \"contracts/TreasuryDAO.sol\":2571:2605  block.timestamp < proposal.endTime */\n      lt\n        /* \"contracts/TreasuryDAO.sol\":2563:2629  require(block.timestamp < proposal.endTime, \"Voting period ended\") */\n      tag_123\n      jumpi\n      mload(0x40)\n      shl(0xe5, 0x461bcd)\n      dup2\n      mstore\n        /* \"#utility.yul\":4745:4747   */\n      0x20\n        /* \"contracts/TreasuryDAO.sol\":2563:2629  require(block.timestamp < proposal.endTime, \"Voting period ended\") */\n      0x04\n      dup3\n      add\n        /* \"#utility.yul\":4727:4748   */\n      mstore\n        /* \"#utility.yul\":4784:4786   */\n      0x13\n        /* \"#utility.yul\":4764:4782   */\n      0x24\n      dup3\n      add\n        /* \"#utility.yul\":4757:4787   */\n      mstore\n      shl(0x6a, 0x159bdd1a5b99c81c195c9a5bd908195b991959)\n        /* \"#utility.yul\":4803:4821   */\n      0x44\n      dup3\n      add\n        /* \"#utility.yul\":4796:4845   */\n      mstore\n        /* \"#utility.yul\":4862:4880   */\n      0x64\n      add\n        /* \"contracts/TreasuryDAO.sol\":2563:2629  require(block.timestamp < proposal.endTime, \"Voting period ended\") */\n      tag_113\n        /* \"#utility.yul\":4543:4886   */\n      jump\n        /* \"contracts/TreasuryDAO.sol\":2563:2629  require(block.timestamp < proposal.endTime, \"Voting period ended\") */\n    tag_123:\n        /* \"contracts/TreasuryDAO.sol\":2663:2678  governanceToken */\n      sload(0x03)\n        /* \"contracts/TreasuryDAO.sol\":2663:2700  governanceToken.balanceOf(msg.sender) */\n      mload(0x40)\n      shl(0xe0, 0x70a08231)\n      dup2\n      mstore\n        /* \"contracts/TreasuryDAO.sol\":2689:2699  msg.sender */\n      caller\n        /* \"contracts/TreasuryDAO.sol\":2663:2700  governanceToken.balanceOf(msg.sender) */\n      0x04\n      dup3\n      add\n        /* \"#utility.yul\":3218:3269   */\n      mstore\n        /* \"contracts/TreasuryDAO.sol\":2640:2660  uint256 voterBalance */\n      0x00\n      swap2\n      sub(shl(0xa0, 0x01), 0x01)\n        /* \"contracts/TreasuryDAO.sol\":2663:2678  governanceToken */\n      and\n      swap1\n        /* \"contracts/TreasuryDAO.sol\":2663:2688  governanceToken.balanceOf */\n      0x70a08231\n      swap1\n        /* \"#utility.yul\":3191:3209   */\n      0x24\n      add\n        /* \"contracts/TreasuryDAO.sol\":2663:2700  governanceToken.balanceOf(msg.sender) */\n      0x20\n      mload(0x40)\n      dup1\n      dup4\n      sub\n      dup2\n      dup7\n      gas\n      staticcall\n      iszero\n      dup1\n      iszero\n      tag_128\n      jumpi\n      returndatasize\n      0x00\n      dup1\n      returndatacopy\n      revert(0x00, returndatasize)\n    tag_128:\n      pop\n      pop\n      pop\n      pop\n      mload(0x40)\n      returndatasize\n      not(0x1f)\n      0x1f\n      dup3\n      add\n      and\n      dup3\n      add\n      dup1\n      0x40\n      mstore\n      pop\n      dup2\n      add\n      swap1\n      tag_129\n      swap2\n      swap1\n      tag_130\n      jump\t// in\n    tag_129:\n        /* \"contracts/TreasuryDAO.sol\":2640:2700  uint256 voterBalance = governanceToken.balanceOf(msg.sender) */\n      swap1\n      pop\n        /* \"contracts/TreasuryDAO.sol\":2733:2734  0 */\n      0x00\n        /* \"contracts/TreasuryDAO.sol\":2718:2730  voterBalance */\n      dup2\n        /* \"contracts/TreasuryDAO.sol\":2718:2734  voterBalance > 0 */\n      gt\n        /* \"contracts/TreasuryDAO.sol\":2710:2774  require(voterBalance > 0, \"Must hold governance tokens to vote\") */\n      tag_131\n      jumpi\n      mload(0x40)\n      shl(0xe5, 0x461bcd)\n      dup2\n      mstore\n        /* \"#utility.yul\":5328:5330   */\n      0x20\n        /* \"contracts/TreasuryDAO.sol\":2710:2774  require(voterBalance > 0, \"Must hold governance tokens to vote\") */\n      0x04\n      dup3\n      add\n        /* \"#utility.yul\":5310:5331   */\n      mstore\n        /* \"#utility.yul\":5367:5369   */\n      0x23\n        /* \"#utility.yul\":5347:5365   */\n      0x24\n      dup3\n      add\n        /* \"#utility.yul\":5340:5370   */\n      mstore\n        /* \"#utility.yul\":5406:5440   */\n      0x4d75737420686f6c6420676f7665726e616e636520746f6b656e7320746f2076\n        /* \"#utility.yul\":5386:5404   */\n      0x44\n      dup3\n      add\n        /* \"#utility.yul\":5379:5441   */\n      mstore\n      shl(0xe8, 0x6f7465)\n        /* \"#utility.yul\":5457:5475   */\n      0x64\n      dup3\n      add\n        /* \"#utility.yul\":5450:5483   */\n      mstore\n        /* \"#utility.yul\":5500:5519   */\n      0x84\n      add\n        /* \"contracts/TreasuryDAO.sol\":2710:2774  require(voterBalance > 0, \"Must hold governance tokens to vote\") */\n      tag_113\n        /* \"#utility.yul\":5126:5525   */\n      jump\n        /* \"contracts/TreasuryDAO.sol\":2710:2774  require(voterBalance > 0, \"Must hold governance tokens to vote\") */\n    tag_131:\n        /* \"contracts/TreasuryDAO.sol\":2803:2815  voterBalance */\n      dup1\n        /* \"contracts/TreasuryDAO.sol\":2785:2793  proposal */\n      dup3\n        /* \"contracts/TreasuryDAO.sol\":2785:2799  proposal.votes */\n      0x02\n      add\n      0x00\n        /* \"contracts/TreasuryDAO.sol\":2785:2815  proposal.votes += voterBalance */\n      dup3\n      dup3\n      sload\n      tag_134\n      swap2\n      swap1\n      tag_135\n      jump\t// in\n    tag_134:\n      swap1\n      swap2\n      sstore\n      pop\n      pop\n        /* \"contracts/TreasuryDAO.sol\":2840:2850  msg.sender */\n      caller\n        /* \"contracts/TreasuryDAO.sol\":2825:2851  proposal.voted[msg.sender] */\n      0x00\n      dup2\n      dup2\n      mstore\n        /* \"contracts/TreasuryDAO.sol\":2825:2839  proposal.voted */\n      0x06\n      dup5\n      add\n        /* \"contracts/TreasuryDAO.sol\":2825:2851  proposal.voted[msg.sender] */\n      0x20\n      swap1\n      dup2\n      mstore\n      0x40\n      swap2\n      dup3\n      swap1\n      keccak256\n        /* \"contracts/TreasuryDAO.sol\":2825:2858  proposal.voted[msg.sender] = true */\n      dup1\n      sload\n      not(0xff)\n      and\n        /* \"contracts/TreasuryDAO.sol\":2854:2858  true */\n      0x01\n        /* \"contracts/TreasuryDAO.sol\":2825:2858  proposal.voted[msg.sender] = true */\n      or\n      swap1\n      sstore\n        /* \"contracts/TreasuryDAO.sol\":2874:2917  Voted(proposalId, msg.sender, voterBalance) */\n      dup2\n      mload\n        /* \"#utility.yul\":5994:6019   */\n      dup7\n      dup2\n      mstore\n        /* \"#utility.yul\":6035:6053   */\n      swap1\n      dup2\n      add\n        /* \"#utility.yul\":6028:6088   */\n      swap3\n      swap1\n      swap3\n      mstore\n        /* \"#utility.yul\":6104:6122   */\n      dup2\n      add\n        /* \"#utility.yul\":6097:6131   */\n      dup3\n      swap1\n      mstore\n        /* \"contracts/TreasuryDAO.sol\":2874:2917  Voted(proposalId, msg.sender, voterBalance) */\n      0x1abe610cf2bf87e57dcc1181fcf5ac0934e843d8344ab9eed6e86c799f62585e\n      swap1\n        /* \"#utility.yul\":5982:5984   */\n      0x60\n        /* \"#utility.yul\":5967:5985   */\n      add\n        /* \"contracts/TreasuryDAO.sol\":2874:2917  Voted(proposalId, msg.sender, voterBalance) */\n    tag_136:\n      mload(0x40)\n      dup1\n      swap2\n      sub\n      swap1\n      log1\n        /* \"contracts/TreasuryDAO.sol\":2431:2924  {... */\n      pop\n      pop\n        /* \"contracts/TreasuryDAO.sol\":2382:2924  function vote(uint proposalId) public onlyMember {... */\n      pop\n      jump\t// out\n        /* \"contracts/TreasuryDAO.sol\":752:779  Proposal[] public proposals */\n    tag_32:\n      0x02\n      dup2\n      dup2\n      sload\n      dup2\n      lt\n      tag_138\n      jumpi\n      0x00\n      dup1\n      revert\n    tag_138:\n      0x00\n      swap2\n      dup3\n      mstore\n      0x20\n      swap1\n      swap2\n      keccak256\n      0x07\n      swap1\n      swap2\n      mul\n      add\n      dup1\n      sload\n      0x01\n      dup3\n      add\n      sload\n      0x02\n      dup4\n      add\n      sload\n      0x03\n      dup5\n      add\n      sload\n      0x04\n      dup6\n      add\n      sload\n      0x05\n      swap1\n      swap6\n      add\n      sload\n      sub(shl(0xa0, 0x01), 0x01)\n      swap1\n      swap5\n      and\n      swap6\n      pop\n      swap2\n      swap4\n      swap1\n      swap3\n      0xff\n      and\n      dup7\n      jump\t// out\n        /* \"contracts/TreasuryDAO.sol\":2930:3405  function executeProposal(uint proposalId) public {... */\n    tag_45:\n        /* \"contracts/TreasuryDAO.sol\":2989:3014  Proposal storage proposal */\n      0x00\n        /* \"contracts/TreasuryDAO.sol\":3017:3026  proposals */\n      0x02\n        /* \"contracts/TreasuryDAO.sol\":3027:3037  proposalId */\n      dup3\n        /* \"contracts/TreasuryDAO.sol\":3017:3038  proposals[proposalId] */\n      dup2\n      sload\n      dup2\n      lt\n      tag_142\n      jumpi\n      tag_142\n      tag_118\n      jump\t// in\n    tag_142:\n      swap1\n      0x00\n      mstore\n      keccak256(0x00, 0x20)\n      swap1\n      0x07\n      mul\n      add\n        /* \"contracts/TreasuryDAO.sol\":2989:3038  Proposal storage proposal = proposals[proposalId] */\n      swap1\n      pop\n        /* \"contracts/TreasuryDAO.sol\":3074:3086  500 * 10**18 */\n      0x1b1ae4d6e2ef500000\n        /* \"contracts/TreasuryDAO.sol\":3056:3064  proposal */\n      dup2\n        /* \"contracts/TreasuryDAO.sol\":3056:3070  proposal.votes */\n      0x02\n      add\n      sload\n        /* \"contracts/TreasuryDAO.sol\":3056:3086  proposal.votes >= 500 * 10**18 */\n      lt\n      iszero\n        /* \"contracts/TreasuryDAO.sol\":3048:3129  require(proposal.votes >= 500 * 10**18, \"Not enough votes (500 tokens required)\") */\n      tag_144\n      jumpi\n      mload(0x40)\n      shl(0xe5, 0x461bcd)\n      dup2\n      mstore\n        /* \"#utility.yul\":6344:6346   */\n      0x20\n        /* \"contracts/TreasuryDAO.sol\":3048:3129  require(proposal.votes >= 500 * 10**18, \"Not enough votes (500 tokens required)\") */\n      0x04\n      dup3\n      add\n        /* \"#utility.yul\":6326:6347   */\n      mstore\n        /* \"#utility.yul\":6383:6385   */\n      0x26\n        /* \"#utility.yul\":6363:6381   */\n      0x24\n      dup3\n      add\n        /* \"#utility.yul\":6356:6386   */\n      mstore\n        /* \"#utility.yul\":6422:6456   */\n      0x4e6f7420656e6f75676820766f746573202835303020746f6b656e7320726571\n        /* \"#utility.yul\":6402:6420   */\n      0x44\n      dup3\n      add\n        /* \"#utility.yul\":6395:6457   */\n      mstore\n      shl(0xd0, 0x756972656429)\n        /* \"#utility.yul\":6473:6491   */\n      0x64\n      dup3\n      add\n        /* \"#utility.yul\":6466:6502   */\n      mstore\n        /* \"#utility.yul\":6519:6538   */\n      0x84\n      add\n        /* \"contracts/TreasuryDAO.sol\":3048:3129  require(proposal.votes >= 500 * 10**18, \"Not enough votes (500 tokens required)\") */\n      tag_113\n        /* \"#utility.yul\":6142:6544   */\n      jump\n        /* \"contracts/TreasuryDAO.sol\":3048:3129  require(proposal.votes >= 500 * 10**18, \"Not enough votes (500 tokens required)\") */\n    tag_144:\n        /* \"contracts/TreasuryDAO.sol\":3148:3165  proposal.executed */\n      0x05\n      dup2\n      add\n      sload\n      0xff\n      and\n        /* \"contracts/TreasuryDAO.sol\":3147:3165  !proposal.executed */\n      iszero\n        /* \"contracts/TreasuryDAO.sol\":3139:3186  require(!proposal.executed, \"Already executed\") */\n      tag_147\n      jumpi\n      mload(0x40)\n      shl(0xe5, 0x461bcd)\n      dup2\n      mstore\n        /* \"#utility.yul\":6751:6753   */\n      0x20\n        /* \"contracts/TreasuryDAO.sol\":3139:3186  require(!proposal.executed, \"Already executed\") */\n      0x04\n      dup3\n      add\n        /* \"#utility.yul\":6733:6754   */\n      mstore\n        /* \"#utility.yul\":6790:6792   */\n      0x10\n        /* \"#utility.yul\":6770:6788   */\n      0x24\n      dup3\n      add\n        /* \"#utility.yul\":6763:6793   */\n      mstore\n      shl(0x82, 0x105b1c9958591e48195e1958dd5d1959)\n        /* \"#utility.yul\":6809:6827   */\n      0x44\n      dup3\n      add\n        /* \"#utility.yul\":6802:6848   */\n      mstore\n        /* \"#utility.yul\":6865:6883   */\n      0x64\n      add\n        /* \"contracts/TreasuryDAO.sol\":3139:3186  require(!proposal.executed, \"Already executed\") */\n      tag_113\n        /* \"#utility.yul\":6549:6889   */\n      jump\n        /* \"contracts/TreasuryDAO.sol\":3139:3186  require(!proposal.executed, \"Already executed\") */\n    tag_147:\n        /* \"contracts/TreasuryDAO.sol\":3223:3231  proposal */\n      dup1\n        /* \"contracts/TreasuryDAO.sol\":3223:3242  proposal.unlockTime */\n      0x04\n      add\n      sload\n        /* \"contracts/TreasuryDAO.sol\":3204:3219  block.timestamp */\n      timestamp\n        /* \"contracts/TreasuryDAO.sol\":3204:3242  block.timestamp >= proposal.unlockTime */\n      lt\n      iszero\n        /* \"contracts/TreasuryDAO.sol\":3196:3265  require(block.timestamp >= proposal.unlockTime, \"Funds still locked\") */\n      tag_150\n      jumpi\n      mload(0x40)\n      shl(0xe5, 0x461bcd)\n      dup2\n      mstore\n        /* \"#utility.yul\":7096:7098   */\n      0x20\n        /* \"contracts/TreasuryDAO.sol\":3196:3265  require(block.timestamp >= proposal.unlockTime, \"Funds still locked\") */\n      0x04\n      dup3\n      add\n        /* \"#utility.yul\":7078:7099   */\n      mstore\n        /* \"#utility.yul\":7135:7137   */\n      0x12\n        /* \"#utility.yul\":7115:7133   */\n      0x24\n      dup3\n      add\n        /* \"#utility.yul\":7108:7138   */\n      mstore\n      shl(0x72, 0x119d5b991cc81cdd1a5b1b081b1bd8dad959)\n        /* \"#utility.yul\":7154:7172   */\n      0x44\n      dup3\n      add\n        /* \"#utility.yul\":7147:7195   */\n      mstore\n        /* \"#utility.yul\":7212:7230   */\n      0x64\n      add\n        /* \"contracts/TreasuryDAO.sol\":3196:3265  require(block.timestamp >= proposal.unlockTime, \"Funds still locked\") */\n      tag_113\n        /* \"#utility.yul\":6894:7236   */\n      jump\n        /* \"contracts/TreasuryDAO.sol\":3196:3265  require(block.timestamp >= proposal.unlockTime, \"Funds still locked\") */\n    tag_150:\n        /* \"contracts/TreasuryDAO.sol\":3276:3293  proposal.executed */\n      0x05\n      dup2\n      add\n        /* \"contracts/TreasuryDAO.sol\":3276:3300  proposal.executed = true */\n      dup1\n      sload\n      not(0xff)\n      and\n        /* \"contracts/TreasuryDAO.sol\":3296:3300  true */\n      0x01\n        /* \"contracts/TreasuryDAO.sol\":3276:3300  proposal.executed = true */\n      swap1\n      dup2\n      or\n      swap1\n      swap2\n      sstore\n        /* \"contracts/TreasuryDAO.sol\":3310:3328  proposal.recipient */\n      dup2\n      sload\n        /* \"contracts/TreasuryDAO.sol\":3338:3353  proposal.amount */\n      swap1\n      dup3\n      add\n      sload\n        /* \"contracts/TreasuryDAO.sol\":3310:3354  proposal.recipient.transfer(proposal.amount) */\n      mload(0x40)\n      sub(shl(0xa0, 0x01), 0x01)\n        /* \"contracts/TreasuryDAO.sol\":3310:3328  proposal.recipient */\n      swap1\n      swap3\n      and\n      swap2\n        /* \"contracts/TreasuryDAO.sol\":3310:3354  proposal.recipient.transfer(proposal.amount) */\n      dup2\n      iszero\n      0x08fc\n      mul\n      swap2\n        /* \"contracts/TreasuryDAO.sol\":3338:3353  proposal.amount */\n      swap1\n        /* \"contracts/TreasuryDAO.sol\":3276:3293  proposal.executed */\n      0x00\n        /* \"contracts/TreasuryDAO.sol\":3310:3354  proposal.recipient.transfer(proposal.amount) */\n      dup2\n        /* \"contracts/TreasuryDAO.sol\":3276:3293  proposal.executed */\n      dup2\n        /* \"contracts/TreasuryDAO.sol\":3310:3354  proposal.recipient.transfer(proposal.amount) */\n      dup2\n        /* \"contracts/TreasuryDAO.sol\":3338:3353  proposal.amount */\n      dup6\n        /* \"contracts/TreasuryDAO.sol\":3310:3328  proposal.recipient */\n      dup9\n        /* \"contracts/TreasuryDAO.sol\":3310:3354  proposal.recipient.transfer(proposal.amount) */\n      dup9\n      call\n      swap4\n      pop\n      pop\n      pop\n      pop\n      iszero\n      dup1\n      iszero\n      tag_154\n      jumpi\n      returndatasize\n      0x00\n      dup1\n      returndatacopy\n      revert(0x00, returndatasize)\n    tag_154:\n      pop\n        /* \"contracts/TreasuryDAO.sol\":3370:3398  ProposalExecuted(proposalId) */\n      mload(0x40)\n        /* \"#utility.yul\":1563:1588   */\n      dup3\n      dup2\n      mstore\n        /* \"contracts/TreasuryDAO.sol\":3370:3398  ProposalExecuted(proposalId) */\n      0x712ae1383f79ac853f8d882153778e0260ef8f03b504e2866e0593e04d2b291f\n      swap1\n        /* \"#utility.yul\":1551:1553   */\n      0x20\n        /* \"#utility.yul\":1536:1554   */\n      add\n        /* \"contracts/TreasuryDAO.sol\":3370:3398  ProposalExecuted(proposalId) */\n      mload(0x40)\n      dup1\n      swap2\n      sub\n      swap1\n      log1\n        /* \"contracts/TreasuryDAO.sol\":2979:3405  {... */\n      pop\n        /* \"contracts/TreasuryDAO.sol\":2930:3405  function executeProposal(uint proposalId) public {... */\n      pop\n      jump\t// out\n        /* \"contracts/TreasuryDAO.sol\":1666:2376  function proposeFunding(address payable recipient, uint256 amount) public onlyMember {... */\n    tag_55:\n        /* \"contracts/TreasuryDAO.sol\":1513:1523  msg.sender */\n      caller\n        /* \"contracts/TreasuryDAO.sol\":1505:1524  members[msg.sender] */\n      0x00\n      swap1\n      dup2\n      mstore\n        /* \"contracts/TreasuryDAO.sol\":1505:1512  members */\n      0x01\n        /* \"contracts/TreasuryDAO.sol\":1505:1524  members[msg.sender] */\n      0x20\n      mstore\n      0x40\n      swap1\n      keccak256\n      sload\n      0xff\n      and\n        /* \"contracts/TreasuryDAO.sol\":1497:1545  require(members[msg.sender], \"Not a DAO member\") */\n      tag_158\n      jumpi\n      mload(0x40)\n      shl(0xe5, 0x461bcd)\n      dup2\n      mstore\n        /* \"#utility.yul\":3926:3928   */\n      0x20\n        /* \"contracts/TreasuryDAO.sol\":1497:1545  require(members[msg.sender], \"Not a DAO member\") */\n      0x04\n      dup3\n      add\n        /* \"#utility.yul\":3908:3929   */\n      mstore\n        /* \"#utility.yul\":3965:3967   */\n      0x10\n        /* \"#utility.yul\":3945:3963   */\n      0x24\n      dup3\n      add\n        /* \"#utility.yul\":3938:3968   */\n      mstore\n      shl(0x81, 0x2737ba1030902220a79036b2b6b132b9)\n        /* \"#utility.yul\":3984:4002   */\n      0x44\n      dup3\n      add\n        /* \"#utility.yul\":3977:4023   */\n      mstore\n        /* \"#utility.yul\":4040:4058   */\n      0x64\n      add\n        /* \"contracts/TreasuryDAO.sol\":1497:1545  require(members[msg.sender], \"Not a DAO member\") */\n      tag_113\n        /* \"#utility.yul\":3724:4064   */\n      jump\n        /* \"contracts/TreasuryDAO.sol\":1497:1545  require(members[msg.sender], \"Not a DAO member\") */\n    tag_158:\n        /* \"contracts/TreasuryDAO.sol\":1794:1800  amount */\n      dup1\n        /* \"contracts/TreasuryDAO.sol\":1769:1790  address(this).balance */\n      selfbalance\n        /* \"contracts/TreasuryDAO.sol\":1769:1800  address(this).balance >= amount */\n      lt\n      iszero\n        /* \"contracts/TreasuryDAO.sol\":1761:1834  require(address(this).balance >= amount, \"Insufficient treasury balance\") */\n      tag_161\n      jumpi\n      mload(0x40)\n      shl(0xe5, 0x461bcd)\n      dup2\n      mstore\n        /* \"#utility.yul\":7443:7445   */\n      0x20\n        /* \"contracts/TreasuryDAO.sol\":1761:1834  require(address(this).balance >= amount, \"Insufficient treasury balance\") */\n      0x04\n      dup3\n      add\n        /* \"#utility.yul\":7425:7446   */\n      mstore\n        /* \"#utility.yul\":7482:7484   */\n      0x1d\n        /* \"#utility.yul\":7462:7480   */\n      0x24\n      dup3\n      add\n        /* \"#utility.yul\":7455:7485   */\n      mstore\n        /* \"#utility.yul\":7521:7552   */\n      0x496e73756666696369656e742074726561737572792062616c616e6365000000\n        /* \"#utility.yul\":7501:7519   */\n      0x44\n      dup3\n      add\n        /* \"#utility.yul\":7494:7553   */\n      mstore\n        /* \"#utility.yul\":7570:7588   */\n      0x64\n      add\n        /* \"contracts/TreasuryDAO.sol\":1761:1834  require(address(this).balance >= amount, \"Insufficient treasury balance\") */\n      tag_113\n        /* \"#utility.yul\":7241:7594   */\n      jump\n        /* \"contracts/TreasuryDAO.sol\":1761:1834  require(address(this).balance >= amount, \"Insufficient treasury balance\") */\n    tag_161:\n        /* \"contracts/TreasuryDAO.sol\":1868:1872  1500 */\n      0x05dc\n        /* \"contracts/TreasuryDAO.sol\":1852:1865  getETHPrice() */\n      tag_164\n        /* \"contracts/TreasuryDAO.sol\":1852:1863  getETHPrice */\n      tag_90\n        /* \"contracts/TreasuryDAO.sol\":1852:1865  getETHPrice() */\n      jump\t// in\n    tag_164:\n        /* \"contracts/TreasuryDAO.sol\":1852:1872  getETHPrice() > 1500 */\n      gt\n        /* \"contracts/TreasuryDAO.sol\":1844:1894  require(getETHPrice() > 1500, \"ETH price too low\") */\n      tag_165\n      jumpi\n      mload(0x40)\n      shl(0xe5, 0x461bcd)\n      dup2\n      mstore\n        /* \"#utility.yul\":7801:7803   */\n      0x20\n        /* \"contracts/TreasuryDAO.sol\":1844:1894  require(getETHPrice() > 1500, \"ETH price too low\") */\n      0x04\n      dup3\n      add\n        /* \"#utility.yul\":7783:7804   */\n      mstore\n        /* \"#utility.yul\":7840:7842   */\n      0x11\n        /* \"#utility.yul\":7820:7838   */\n      0x24\n      dup3\n      add\n        /* \"#utility.yul\":7813:7843   */\n      mstore\n      shl(0x78, 0x45544820707269636520746f6f206c6f77)\n        /* \"#utility.yul\":7859:7877   */\n      0x44\n      dup3\n      add\n        /* \"#utility.yul\":7852:7899   */\n      mstore\n        /* \"#utility.yul\":7916:7934   */\n      0x64\n      add\n        /* \"contracts/TreasuryDAO.sol\":1844:1894  require(getETHPrice() > 1500, \"ETH price too low\") */\n      tag_113\n        /* \"#utility.yul\":7599:7940   */\n      jump\n        /* \"contracts/TreasuryDAO.sol\":1844:1894  require(getETHPrice() > 1500, \"ETH price too low\") */\n    tag_165:\n        /* \"contracts/TreasuryDAO.sol\":1905:1914  proposals */\n      0x02\n        /* \"contracts/TreasuryDAO.sol\":1905:1921  proposals.push() */\n      dup1\n      sload\n      0x01\n      swap1\n      dup2\n      add\n      dup1\n      dup4\n      sstore\n      0x00\n      dup4\n      dup2\n      mstore\n      swap3\n        /* \"contracts/TreasuryDAO.sol\":1905:1914  proposals */\n      swap2\n        /* \"contracts/TreasuryDAO.sol\":1972:1992  proposals.length - 1 */\n      tag_169\n      swap2\n      tag_170\n      jump\t// in\n    tag_169:\n        /* \"contracts/TreasuryDAO.sol\":1962:1993  proposals[proposals.length - 1] */\n      dup2\n      sload\n      dup2\n      lt\n      tag_172\n      jumpi\n      tag_172\n      tag_118\n      jump\t// in\n    tag_172:\n      0x00\n      swap2\n      dup3\n      mstore\n      0x20\n      dup3\n      keccak256\n      0x07\n      swap2\n      swap1\n      swap2\n      mul\n      add\n        /* \"contracts/TreasuryDAO.sol\":2003:2036  newProposal.recipient = recipient */\n      dup1\n      sload\n      not(sub(shl(0xa0, 0x01), 0x01))\n      and\n      sub(shl(0xa0, 0x01), 0x01)\n      dup7\n      and\n      or\n      dup2\n      sstore\n      0x01\n        /* \"contracts/TreasuryDAO.sol\":2046:2064  newProposal.amount */\n      dup2\n      add\n        /* \"contracts/TreasuryDAO.sol\":2046:2073  newProposal.amount = amount */\n      dup5\n      swap1\n      sstore\n        /* \"contracts/TreasuryDAO.sol\":2083:2100  newProposal.votes */\n      0x02\n      dup2\n      add\n        /* \"contracts/TreasuryDAO.sol\":2083:2104  newProposal.votes = 0 */\n      swap2\n      swap1\n      swap2\n      sstore\n        /* \"contracts/TreasuryDAO.sol\":2154:2169  minVoteDuration */\n      sload(0x06)\n        /* \"contracts/TreasuryDAO.sol\":1962:1993  proposals[proposals.length - 1] */\n      swap1\n      swap2\n      pop\n        /* \"contracts/TreasuryDAO.sol\":2136:2169  block.timestamp + minVoteDuration */\n      tag_174\n      swap1\n        /* \"contracts/TreasuryDAO.sol\":2136:2151  block.timestamp */\n      timestamp\n        /* \"contracts/TreasuryDAO.sol\":2136:2169  block.timestamp + minVoteDuration */\n      tag_135\n      jump\t// in\n    tag_174:\n        /* \"contracts/TreasuryDAO.sol\":2114:2133  newProposal.endTime */\n      0x03\n      dup3\n      add\n        /* \"contracts/TreasuryDAO.sol\":2114:2169  newProposal.endTime = block.timestamp + minVoteDuration */\n      sstore\n        /* \"contracts/TreasuryDAO.sol\":2204:2230  block.timestamp + 48 hours */\n      tag_175\n        /* \"contracts/TreasuryDAO.sol\":2204:2219  block.timestamp */\n      timestamp\n        /* \"contracts/TreasuryDAO.sol\":2222:2230  48 hours */\n      0x02a300\n        /* \"contracts/TreasuryDAO.sol\":2204:2230  block.timestamp + 48 hours */\n      tag_135\n      jump\t// in\n    tag_175:\n        /* \"contracts/TreasuryDAO.sol\":2179:2201  newProposal.unlockTime */\n      0x04\n      dup3\n      add\n        /* \"contracts/TreasuryDAO.sol\":2179:2230  newProposal.unlockTime = block.timestamp + 48 hours */\n      sstore\n        /* \"contracts/TreasuryDAO.sol\":2269:2289  newProposal.executed */\n      0x05\n      dup2\n      add\n        /* \"contracts/TreasuryDAO.sol\":2269:2297  newProposal.executed = false */\n      dup1\n      sload\n      not(0xff)\n      and\n      swap1\n      sstore\n        /* \"contracts/TreasuryDAO.sol\":2329:2338  proposals */\n      0x02\n        /* \"contracts/TreasuryDAO.sol\":2329:2345  proposals.length */\n      sload\n        /* \"contracts/TreasuryDAO.sol\":2313:2369  ProposalCreated(proposals.length - 1, recipient, amount) */\n      0x3417b456fad6209c73445d5efd446d686e75e4560f0f50c13b5a5cde976447b4\n      swap1\n        /* \"contracts/TreasuryDAO.sol\":2329:2349  proposals.length - 1 */\n      tag_176\n      swap1\n        /* \"contracts/TreasuryDAO.sol\":2269:2297  newProposal.executed = false */\n      0x01\n      swap1\n        /* \"contracts/TreasuryDAO.sol\":2329:2349  proposals.length - 1 */\n      tag_170\n      jump\t// in\n    tag_176:\n        /* \"contracts/TreasuryDAO.sol\":2313:2369  ProposalCreated(proposals.length - 1, recipient, amount) */\n      0x40\n      dup1\n      mload\n        /* \"#utility.yul\":5994:6019   */\n      swap2\n      dup3\n      mstore\n      sub(shl(0xa0, 0x01), 0x01)\n        /* \"#utility.yul\":6055:6087   */\n      dup7\n      and\n        /* \"#utility.yul\":6050:6052   */\n      0x20\n        /* \"#utility.yul\":6035:6053   */\n      dup4\n      add\n        /* \"#utility.yul\":6028:6088   */\n      mstore\n        /* \"#utility.yul\":6104:6122   */\n      dup2\n      add\n        /* \"#utility.yul\":6097:6131   */\n      dup5\n      swap1\n      mstore\n        /* \"#utility.yul\":5982:5984   */\n      0x60\n        /* \"#utility.yul\":5967:5985   */\n      add\n        /* \"contracts/TreasuryDAO.sol\":2313:2369  ProposalCreated(proposals.length - 1, recipient, amount) */\n      tag_136\n        /* \"#utility.yul\":5792:6137   */\n      jump\n        /* \"contracts/TreasuryDAO.sol\":3997:4169  function performUpkeep(bytes calldata performData) external override {... */\n    tag_60:\n        /* \"contracts/TreasuryDAO.sol\":4076:4091  uint proposalId */\n      0x00\n        /* \"contracts/TreasuryDAO.sol\":4094:4125  abi.decode(performData, (uint)) */\n      tag_180\n      dup3\n      dup5\n      add\n        /* \"contracts/TreasuryDAO.sol\":4105:4116  performData */\n      dup5\n        /* \"contracts/TreasuryDAO.sol\":4094:4125  abi.decode(performData, (uint)) */\n      tag_27\n      jump\t// in\n    tag_180:\n        /* \"contracts/TreasuryDAO.sol\":4076:4125  uint proposalId = abi.decode(performData, (uint)) */\n      swap1\n      pop\n        /* \"contracts/TreasuryDAO.sol\":4135:4162  executeProposal(proposalId) */\n      tag_181\n        /* \"contracts/TreasuryDAO.sol\":4151:4161  proposalId */\n      dup2\n        /* \"contracts/TreasuryDAO.sol\":4135:4150  executeProposal */\n      tag_45\n        /* \"contracts/TreasuryDAO.sol\":4135:4162  executeProposal(proposalId) */\n      jump\t// in\n    tag_181:\n        /* \"contracts/TreasuryDAO.sol\":4066:4169  {... */\n      pop\n        /* \"contracts/TreasuryDAO.sol\":3997:4169  function performUpkeep(bytes calldata performData) external override {... */\n      pop\n      pop\n      jump\t// out\n        /* \"contracts/TreasuryDAO.sol\":4316:4452  function withdrawFromAave(uint256 amount) external onlyOwner {... */\n    tag_64:\n        /* \"@openzeppelin/contracts/access/Ownable.sol\":1531:1544  _checkOwner() */\n      tag_183\n        /* \"@openzeppelin/contracts/access/Ownable.sol\":1531:1542  _checkOwner */\n      tag_184\n        /* \"@openzeppelin/contracts/access/Ownable.sol\":1531:1544  _checkOwner() */\n      jump\t// in\n    tag_183:\n        /* \"contracts/TreasuryDAO.sol\":4387:4398  lendingPool */\n      sload(0x05)\n        /* \"contracts/TreasuryDAO.sol\":4387:4445  lendingPool.withdraw(address(this), amount, address(this)) */\n      mload(0x40)\n      shl(0xe2, 0x1a4ca37b)\n      dup2\n      mstore\n        /* \"contracts/TreasuryDAO.sol\":4416:4420  this */\n      address\n        /* \"contracts/TreasuryDAO.sol\":4387:4445  lendingPool.withdraw(address(this), amount, address(this)) */\n      0x04\n      dup3\n      add\n        /* \"#utility.yul\":8638:8689   */\n      dup2\n      swap1\n      mstore\n        /* \"#utility.yul\":8705:8723   */\n      0x24\n      dup3\n      add\n        /* \"#utility.yul\":8698:8732   */\n      dup5\n      swap1\n      mstore\n        /* \"#utility.yul\":8748:8766   */\n      0x44\n      dup3\n      add\n        /* \"#utility.yul\":8741:8801   */\n      mstore\n      sub(shl(0xa0, 0x01), 0x01)\n        /* \"contracts/TreasuryDAO.sol\":4387:4398  lendingPool */\n      swap1\n      swap2\n      and\n      swap1\n        /* \"contracts/TreasuryDAO.sol\":4387:4407  lendingPool.withdraw */\n      0x69328dec\n      swap1\n        /* \"#utility.yul\":8611:8629   */\n      0x64\n      add\n        /* \"contracts/TreasuryDAO.sol\":4387:4445  lendingPool.withdraw(address(this), amount, address(this)) */\n      0x20\n      mload(0x40)\n      dup1\n      dup4\n      sub\n      dup2\n      0x00\n      dup8\n      gas\n      call\n      iszero\n      dup1\n      iszero\n      tag_189\n      jumpi\n      returndatasize\n      0x00\n      dup1\n      returndatacopy\n      revert(0x00, returndatasize)\n    tag_189:\n      pop\n      pop\n      pop\n      pop\n      mload(0x40)\n      returndatasize\n      not(0x1f)\n      0x1f\n      dup3\n      add\n      and\n      dup3\n      add\n      dup1\n      0x40\n      mstore\n      pop\n      dup2\n      add\n      swap1\n      tag_190\n      swap2\n      swap1\n      tag_130\n      jump\t// in\n    tag_190:\n      pop\n        /* \"contracts/TreasuryDAO.sol\":4316:4452  function withdrawFromAave(uint256 amount) external onlyOwner {... */\n      pop\n      jump\t// out\n        /* \"contracts/TreasuryDAO.sol\":4175:4310  function depositToAave(uint256 amount) external onlyOwner {... */\n    tag_68:\n        /* \"@openzeppelin/contracts/access/Ownable.sol\":1531:1544  _checkOwner() */\n      tag_192\n        /* \"@openzeppelin/contracts/access/Ownable.sol\":1531:1542  _checkOwner */\n      tag_184\n        /* \"@openzeppelin/contracts/access/Ownable.sol\":1531:1544  _checkOwner() */\n      jump\t// in\n    tag_192:\n        /* \"contracts/TreasuryDAO.sol\":4243:4254  lendingPool */\n      sload(0x05)\n        /* \"contracts/TreasuryDAO.sol\":4243:4303  lendingPool.deposit(address(this), amount, address(this), 0) */\n      mload(0x40)\n      shl(0xe0, 0xe8eda9df)\n      dup2\n      mstore\n        /* \"contracts/TreasuryDAO.sol\":4271:4275  this */\n      address\n        /* \"contracts/TreasuryDAO.sol\":4243:4303  lendingPool.deposit(address(this), amount, address(this), 0) */\n      0x04\n      dup3\n      add\n        /* \"#utility.yul\":9050:9101   */\n      dup2\n      swap1\n      mstore\n        /* \"#utility.yul\":9117:9135   */\n      0x24\n      dup3\n      add\n        /* \"#utility.yul\":9110:9144   */\n      dup5\n      swap1\n      mstore\n        /* \"#utility.yul\":9160:9178   */\n      0x44\n      dup3\n      add\n        /* \"#utility.yul\":9153:9213   */\n      mstore\n        /* \"contracts/TreasuryDAO.sol\":4243:4254  lendingPool */\n      0x00\n        /* \"#utility.yul\":9229:9247   */\n      0x64\n      dup3\n      add\n        /* \"#utility.yul\":9222:9269   */\n      mstore\n      sub(shl(0xa0, 0x01), 0x01)\n        /* \"contracts/TreasuryDAO.sol\":4243:4254  lendingPool */\n      swap1\n      swap2\n      and\n      swap1\n        /* \"contracts/TreasuryDAO.sol\":4243:4262  lendingPool.deposit */\n      0xe8eda9df\n      swap1\n        /* \"#utility.yul\":9022:9041   */\n      0x84\n      add\n        /* \"contracts/TreasuryDAO.sol\":4243:4303  lendingPool.deposit(address(this), amount, address(this), 0) */\n      0x00\n      mload(0x40)\n      dup1\n      dup4\n      sub\n      dup2\n      0x00\n      dup8\n      dup1\n      extcodesize\n      iszero\n      dup1\n      iszero\n      tag_196\n      jumpi\n      0x00\n      dup1\n      revert\n    tag_196:\n      pop\n      gas\n      call\n      iszero\n      dup1\n      iszero\n      tag_198\n      jumpi\n      returndatasize\n      0x00\n      dup1\n      returndatacopy\n      revert(0x00, returndatasize)\n    tag_198:\n      pop\n      pop\n      pop\n      pop\n        /* \"contracts/TreasuryDAO.sol\":4175:4310  function depositToAave(uint256 amount) external onlyOwner {... */\n      pop\n      jump\t// out\n        /* \"contracts/TreasuryDAO.sol\":3570:3991  function checkUpkeep(bytes calldata /* checkData */) external view override returns (bool upkeepNeeded, bytes memory /* performData */) {... */\n    tag_72:\n        /* \"contracts/TreasuryDAO.sol\":3655:3672  bool upkeepNeeded */\n      0x00\n        /* \"contracts/TreasuryDAO.sol\":3674:3686  bytes memory */\n      0x60\n        /* \"contracts/TreasuryDAO.sol\":3721:3727  uint i */\n      0x00\n        /* \"contracts/TreasuryDAO.sol\":3716:3957  for (uint i = 0; i < proposals.length; i++) {... */\n    tag_200:\n        /* \"contracts/TreasuryDAO.sol\":3737:3746  proposals */\n      0x02\n        /* \"contracts/TreasuryDAO.sol\":3737:3753  proposals.length */\n      sload\n        /* \"contracts/TreasuryDAO.sol\":3733:3753  i < proposals.length */\n      dup2\n      lt\n        /* \"contracts/TreasuryDAO.sol\":3716:3957  for (uint i = 0; i < proposals.length; i++) {... */\n      iszero\n      tag_201\n      jumpi\n        /* \"contracts/TreasuryDAO.sol\":3779:3788  proposals */\n      0x02\n        /* \"contracts/TreasuryDAO.sol\":3789:3790  i */\n      dup2\n        /* \"contracts/TreasuryDAO.sol\":3779:3791  proposals[i] */\n      dup2\n      sload\n      dup2\n      lt\n      tag_204\n      jumpi\n      tag_204\n      tag_118\n      jump\t// in\n    tag_204:\n      0x00\n      swap2\n      dup3\n      mstore\n      0x20\n      swap1\n      swap2\n      keccak256\n        /* \"contracts/TreasuryDAO.sol\":3779:3800  proposals[i].executed */\n      0x05\n        /* \"contracts/TreasuryDAO.sol\":3779:3791  proposals[i] */\n      0x07\n      swap1\n      swap3\n      mul\n      add\n        /* \"contracts/TreasuryDAO.sol\":3779:3800  proposals[i].executed */\n      add\n      sload\n      0xff\n      and\n        /* \"contracts/TreasuryDAO.sol\":3778:3800  !proposals[i].executed */\n      iszero\n        /* \"contracts/TreasuryDAO.sol\":3778:3838  !proposals[i].executed && proposals[i].votes >= 500 * 10**18 */\n      dup1\n      iszero\n      tag_206\n      jumpi\n      pop\n        /* \"contracts/TreasuryDAO.sol\":3826:3838  500 * 10**18 */\n      0x1b1ae4d6e2ef500000\n        /* \"contracts/TreasuryDAO.sol\":3804:3813  proposals */\n      0x02\n        /* \"contracts/TreasuryDAO.sol\":3814:3815  i */\n      dup3\n        /* \"contracts/TreasuryDAO.sol\":3804:3816  proposals[i] */\n      dup2\n      sload\n      dup2\n      lt\n      tag_208\n      jumpi\n      tag_208\n      tag_118\n      jump\t// in\n    tag_208:\n      swap1\n      0x00\n      mstore\n      keccak256(0x00, 0x20)\n      swap1\n      0x07\n      mul\n      add\n        /* \"contracts/TreasuryDAO.sol\":3804:3822  proposals[i].votes */\n      0x02\n      add\n      sload\n        /* \"contracts/TreasuryDAO.sol\":3804:3838  proposals[i].votes >= 500 * 10**18 */\n      lt\n      iszero\n        /* \"contracts/TreasuryDAO.sol\":3778:3838  !proposals[i].executed && proposals[i].votes >= 500 * 10**18 */\n    tag_206:\n        /* \"contracts/TreasuryDAO.sol\":3778:3884  !proposals[i].executed && proposals[i].votes >= 500 * 10**18 && block.timestamp >= proposals[i].unlockTime */\n      dup1\n      iszero\n      tag_210\n      jumpi\n      pop\n        /* \"contracts/TreasuryDAO.sol\":3861:3870  proposals */\n      0x02\n        /* \"contracts/TreasuryDAO.sol\":3871:3872  i */\n      dup2\n        /* \"contracts/TreasuryDAO.sol\":3861:3873  proposals[i] */\n      dup2\n      sload\n      dup2\n      lt\n      tag_212\n      jumpi\n      tag_212\n      tag_118\n      jump\t// in\n    tag_212:\n      swap1\n      0x00\n      mstore\n      keccak256(0x00, 0x20)\n      swap1\n      0x07\n      mul\n      add\n        /* \"contracts/TreasuryDAO.sol\":3861:3884  proposals[i].unlockTime */\n      0x04\n      add\n      sload\n        /* \"contracts/TreasuryDAO.sol\":3842:3857  block.timestamp */\n      timestamp\n        /* \"contracts/TreasuryDAO.sol\":3842:3884  block.timestamp >= proposals[i].unlockTime */\n      lt\n      iszero\n        /* \"contracts/TreasuryDAO.sol\":3778:3884  !proposals[i].executed && proposals[i].votes >= 500 * 10**18 && block.timestamp >= proposals[i].unlockTime */\n    tag_210:\n        /* \"contracts/TreasuryDAO.sol\":3774:3947  if (!proposals[i].executed && proposals[i].votes >= 500 * 10**18 && block.timestamp >= proposals[i].unlockTime) {... */\n      iszero\n      tag_214\n      jumpi\n        /* \"contracts/TreasuryDAO.sol\":3912:3916  true */\n      0x01\n        /* \"contracts/TreasuryDAO.sol\":3929:3930  i */\n      dup2\n        /* \"contracts/TreasuryDAO.sol\":3918:3931  abi.encode(i) */\n      add(0x20, mload(0x40))\n      tag_215\n      swap2\n        /* \"#utility.yul\":1563:1588   */\n      dup2\n      mstore\n        /* \"#utility.yul\":1551:1553   */\n      0x20\n        /* \"#utility.yul\":1536:1554   */\n      add\n      swap1\n        /* \"#utility.yul\":1417:1594   */\n      jump\n        /* \"contracts/TreasuryDAO.sol\":3918:3931  abi.encode(i) */\n    tag_215:\n      mload(0x40)\n      0x20\n      dup2\n      dup4\n      sub\n      sub\n      dup2\n      mstore\n      swap1\n      0x40\n      mstore\n        /* \"contracts/TreasuryDAO.sol\":3904:3932  return (true, abi.encode(i)) */\n      swap3\n      pop\n      swap3\n      pop\n      pop\n      jump(tag_199)\n        /* \"contracts/TreasuryDAO.sol\":3774:3947  if (!proposals[i].executed && proposals[i].votes >= 500 * 10**18 && block.timestamp >= proposals[i].unlockTime) {... */\n    tag_214:\n        /* \"contracts/TreasuryDAO.sol\":3755:3758  i++ */\n      0x01\n      add\n        /* \"contracts/TreasuryDAO.sol\":3716:3957  for (uint i = 0; i < proposals.length; i++) {... */\n      jump(tag_200)\n    tag_201:\n      pop\n      pop\n        /* \"contracts/TreasuryDAO.sol\":3966:3984  return (false, \"\") */\n      0x40\n      dup1\n      mload\n      0x20\n      dup2\n      add\n      swap1\n      swap2\n      mstore\n        /* \"contracts/TreasuryDAO.sol\":3974:3979  false */\n      0x00\n        /* \"contracts/TreasuryDAO.sol\":3966:3984  return (false, \"\") */\n      dup1\n      dup3\n      mstore\n        /* \"contracts/TreasuryDAO.sol\":3974:3979  false */\n      swap2\n      pop\n        /* \"contracts/TreasuryDAO.sol\":3570:3991  function checkUpkeep(bytes calldata /* checkData */) external view override returns (bool upkeepNeeded, bytes memory /* performData */) {... */\n    tag_199:\n      swap3\n      pop\n      swap3\n      swap1\n      pop\n      jump\t// out\n        /* \"@openzeppelin/contracts/access/Ownable.sol\":2293:2394  function renounceOwnership() public virtual onlyOwner {... */\n    tag_77:\n        /* \"@openzeppelin/contracts/access/Ownable.sol\":1531:1544  _checkOwner() */\n      tag_217\n        /* \"@openzeppelin/contracts/access/Ownable.sol\":1531:1542  _checkOwner */\n      tag_184\n        /* \"@openzeppelin/contracts/access/Ownable.sol\":1531:1544  _checkOwner() */\n      jump\t// in\n    tag_217:\n        /* \"@openzeppelin/contracts/access/Ownable.sol\":2357:2387  _transferOwnership(address(0)) */\n      tag_219\n        /* \"@openzeppelin/contracts/access/Ownable.sol\":2384:2385  0 */\n      0x00\n        /* \"@openzeppelin/contracts/access/Ownable.sol\":2357:2375  _transferOwnership */\n      tag_220\n        /* \"@openzeppelin/contracts/access/Ownable.sol\":2357:2387  _transferOwnership(address(0)) */\n      jump\t// in\n    tag_219:\n        /* \"@openzeppelin/contracts/access/Ownable.sol\":2293:2394  function renounceOwnership() public virtual onlyOwner {... */\n      jump\t// out\n        /* \"contracts/TreasuryDAO.sol\":3411:3564  function getETHPrice() public view returns (uint256) {... */\n    tag_90:\n        /* \"contracts/TreasuryDAO.sol\":3496:3505  priceFeed */\n      0x04\n      dup1\n      sload\n        /* \"contracts/TreasuryDAO.sol\":3496:3523  priceFeed.latestRoundData() */\n      0x40\n      dup1\n      mload\n      shl(0xe2, 0x3fabe5a3)\n      dup2\n      mstore\n      swap1\n      mload\n        /* \"contracts/TreasuryDAO.sol\":3455:3462  uint256 */\n      0x00\n      swap4\n      dup5\n      swap4\n      sub(shl(0xa0, 0x01), 0x01)\n        /* \"contracts/TreasuryDAO.sol\":3496:3505  priceFeed */\n      and\n      swap3\n        /* \"contracts/TreasuryDAO.sol\":3496:3521  priceFeed.latestRoundData */\n      0xfeaf968c\n      swap3\n        /* \"contracts/TreasuryDAO.sol\":3496:3523  priceFeed.latestRoundData() */\n      dup2\n      dup4\n      add\n      swap3\n      0xa0\n      swap3\n      dup3\n      swap1\n      sub\n      add\n      dup2\n        /* \"contracts/TreasuryDAO.sol\":3496:3505  priceFeed */\n      dup7\n        /* \"contracts/TreasuryDAO.sol\":3496:3523  priceFeed.latestRoundData() */\n      gas\n      staticcall\n      iszero\n      dup1\n      iszero\n      tag_224\n      jumpi\n      returndatasize\n      0x00\n      dup1\n      returndatacopy\n      revert(0x00, returndatasize)\n    tag_224:\n      pop\n      pop\n      pop\n      pop\n      mload(0x40)\n      returndatasize\n      not(0x1f)\n      0x1f\n      dup3\n      add\n      and\n      dup3\n      add\n      dup1\n      0x40\n      mstore\n      pop\n      dup2\n      add\n      swap1\n      tag_225\n      swap2\n      swap1\n      tag_226\n      jump\t// in\n    tag_225:\n        /* \"contracts/TreasuryDAO.sol\":3474:3523  (, int price, , , ) = priceFeed.latestRoundData() */\n      pop\n      pop\n      pop\n      swap2\n      pop\n      pop\n        /* \"contracts/TreasuryDAO.sol\":3554:3557  1e8 */\n      0x05f5e100\n        /* \"contracts/TreasuryDAO.sol\":3545:3550  price */\n      dup2\n        /* \"contracts/TreasuryDAO.sol\":3540:3557  uint(price) / 1e8 */\n      tag_227\n      swap2\n      swap1\n      tag_228\n      jump\t// in\n    tag_227:\n        /* \"contracts/TreasuryDAO.sol\":3533:3557  return uint(price) / 1e8 */\n      swap2\n      pop\n      pop\n        /* \"contracts/TreasuryDAO.sol\":3411:3564  function getETHPrice() public view returns (uint256) {... */\n      swap1\n      jump\t// out\n        /* \"contracts/TreasuryDAO.sol\":1569:1660  function addMember(address member) public onlyOwner {... */\n    tag_99:\n        /* \"@openzeppelin/contracts/access/Ownable.sol\":1531:1544  _checkOwner() */\n      tag_230\n        /* \"@openzeppelin/contracts/access/Ownable.sol\":1531:1542  _checkOwner */\n      tag_184\n        /* \"@openzeppelin/contracts/access/Ownable.sol\":1531:1544  _checkOwner() */\n      jump\t// in\n    tag_230:\n      sub(shl(0xa0, 0x01), 0x01)\n        /* \"contracts/TreasuryDAO.sol\":1631:1646  members[member] */\n      and\n      0x00\n      swap1\n      dup2\n      mstore\n        /* \"contracts/TreasuryDAO.sol\":1649:1653  true */\n      0x01\n        /* \"contracts/TreasuryDAO.sol\":1631:1646  members[member] */\n      0x20\n      dup2\n      swap1\n      mstore\n      0x40\n      swap1\n      swap2\n      keccak256\n        /* \"contracts/TreasuryDAO.sol\":1631:1653  members[member] = true */\n      dup1\n      sload\n      not(0xff)\n      and\n      swap1\n      swap2\n      or\n      swap1\n      sstore\n        /* \"contracts/TreasuryDAO.sol\":1569:1660  function addMember(address member) public onlyOwner {... */\n      jump\t// out\n        /* \"@openzeppelin/contracts/access/Ownable.sol\":2543:2758  function transferOwnership(address newOwner) public virtual onlyOwner {... */\n    tag_105:\n        /* \"@openzeppelin/contracts/access/Ownable.sol\":1531:1544  _checkOwner() */\n      tag_234\n        /* \"@openzeppelin/contracts/access/Ownable.sol\":1531:1542  _checkOwner */\n      tag_184\n        /* \"@openzeppelin/contracts/access/Ownable.sol\":1531:1544  _checkOwner() */\n      jump\t// in\n    tag_234:\n      sub(shl(0xa0, 0x01), 0x01)\n        /* \"@openzeppelin/contracts/access/Ownable.sol\":2627:2649  newOwner == address(0) */\n      dup2\n      and\n        /* \"@openzeppelin/contracts/access/Ownable.sol\":2623:2714  if (newOwner == address(0)) {... */\n      tag_236\n      jumpi\n        /* \"@openzeppelin/contracts/access/Ownable.sol\":2672:2703  OwnableInvalidOwner(address(0)) */\n      mload(0x40)\n      shl(0xe0, 0x1e4fbdf7)\n      dup2\n      mstore\n        /* \"@openzeppelin/contracts/access/Ownable.sol\":2700:2701  0 */\n      0x00\n        /* \"@openzeppelin/contracts/access/Ownable.sol\":2672:2703  OwnableInvalidOwner(address(0)) */\n      0x04\n      dup3\n      add\n        /* \"#utility.yul\":3218:3269   */\n      mstore\n        /* \"#utility.yul\":3191:3209   */\n      0x24\n      add\n        /* \"@openzeppelin/contracts/access/Ownable.sol\":2672:2703  OwnableInvalidOwner(address(0)) */\n      tag_113\n        /* \"#utility.yul\":3072:3275   */\n      jump\n        /* \"@openzeppelin/contracts/access/Ownable.sol\":2623:2714  if (newOwner == address(0)) {... */\n    tag_236:\n        /* \"@openzeppelin/contracts/access/Ownable.sol\":2723:2751  _transferOwnership(newOwner) */\n      tag_238\n        /* \"@openzeppelin/contracts/access/Ownable.sol\":2742:2750  newOwner */\n      dup2\n        /* \"@openzeppelin/contracts/access/Ownable.sol\":2723:2741  _transferOwnership */\n      tag_220\n        /* \"@openzeppelin/contracts/access/Ownable.sol\":2723:2751  _transferOwnership(newOwner) */\n      jump\t// in\n    tag_238:\n        /* \"@openzeppelin/contracts/access/Ownable.sol\":2543:2758  function transferOwnership(address newOwner) public virtual onlyOwner {... */\n      pop\n      jump\t// out\n        /* \"@openzeppelin/contracts/access/Ownable.sol\":1796:1958  function _checkOwner() internal view virtual {... */\n    tag_184:\n        /* \"@openzeppelin/contracts/access/Ownable.sol\":1684:1691  address */\n      0x00\n        /* \"@openzeppelin/contracts/access/Ownable.sol\":1710:1716  _owner */\n      sload\n      sub(shl(0xa0, 0x01), 0x01)\n      and\n        /* \"@openzeppelin/contracts/utils/Context.sol\":735:745  msg.sender */\n      caller\n        /* \"@openzeppelin/contracts/access/Ownable.sol\":1855:1878  owner() != _msgSender() */\n      eq\n        /* \"@openzeppelin/contracts/access/Ownable.sol\":1851:1952  if (owner() != _msgSender()) {... */\n      tag_219\n      jumpi\n        /* \"@openzeppelin/contracts/access/Ownable.sol\":1901:1941  OwnableUnauthorizedAccount(_msgSender()) */\n      mload(0x40)\n      shl(0xe0, 0x118cdaa7)\n      dup2\n      mstore\n        /* \"@openzeppelin/contracts/utils/Context.sol\":735:745  msg.sender */\n      caller\n        /* \"@openzeppelin/contracts/access/Ownable.sol\":1901:1941  OwnableUnauthorizedAccount(_msgSender()) */\n      0x04\n      dup3\n      add\n        /* \"#utility.yul\":3218:3269   */\n      mstore\n        /* \"#utility.yul\":3191:3209   */\n      0x24\n      add\n        /* \"@openzeppelin/contracts/access/Ownable.sol\":1901:1941  OwnableUnauthorizedAccount(_msgSender()) */\n      tag_113\n        /* \"#utility.yul\":3072:3275   */\n      jump\n        /* \"@openzeppelin/contracts/access/Ownable.sol\":2912:3099  function _transferOwnership(address newOwner) internal virtual {... */\n    tag_220:\n        /* \"@openzeppelin/contracts/access/Ownable.sol\":2985:3001  address oldOwner */\n      0x00\n        /* \"@openzeppelin/contracts/access/Ownable.sol\":3004:3010  _owner */\n      dup1\n      sload\n      sub(shl(0xa0, 0x01), 0x01)\n        /* \"@openzeppelin/contracts/access/Ownable.sol\":3020:3037  _owner = newOwner */\n      dup4\n      dup2\n      and\n      not(sub(shl(0xa0, 0x01), 0x01))\n      dup4\n      and\n      dup2\n      or\n      dup5\n      sstore\n        /* \"@openzeppelin/contracts/access/Ownable.sol\":3052:3092  OwnershipTransferred(oldOwner, newOwner) */\n      mload(0x40)\n        /* \"@openzeppelin/contracts/access/Ownable.sol\":3004:3010  _owner */\n      swap2\n      swap1\n      swap3\n      and\n      swap3\n      dup4\n      swap2\n        /* \"@openzeppelin/contracts/access/Ownable.sol\":3052:3092  OwnershipTransferred(oldOwner, newOwner) */\n      0x8be0079c531659141344cd1fd0a4f28419497f9722a3daafe3b4186f6b6457e0\n      swap2\n        /* \"@openzeppelin/contracts/access/Ownable.sol\":2985:3001  address oldOwner */\n      swap1\n        /* \"@openzeppelin/contracts/access/Ownable.sol\":3052:3092  OwnershipTransferred(oldOwner, newOwner) */\n      log3\n        /* \"@openzeppelin/contracts/access/Ownable.sol\":2975:3099  {... */\n      pop\n        /* \"@openzeppelin/contracts/access/Ownable.sol\":2912:3099  function _transferOwnership(address newOwner) internal virtual {... */\n      pop\n      jump\t// out\n        /* \"#utility.yul\":14:240   */\n    tag_27:\n        /* \"#utility.yul\":73:79   */\n      0x00\n        /* \"#utility.yul\":126:128   */\n      0x20\n        /* \"#utility.yul\":114:123   */\n      dup3\n        /* \"#utility.yul\":105:112   */\n      dup5\n        /* \"#utility.yul\":101:124   */\n      sub\n        /* \"#utility.yul\":97:129   */\n      slt\n        /* \"#utility.yul\":94:146   */\n      iszero\n      tag_253\n      jumpi\n        /* \"#utility.yul\":142:143   */\n      0x00\n        /* \"#utility.yul\":139:140   */\n      dup1\n        /* \"#utility.yul\":132:144   */\n      revert\n        /* \"#utility.yul\":94:146   */\n    tag_253:\n      pop\n        /* \"#utility.yul\":187:210   */\n      calldataload\n      swap2\n        /* \"#utility.yul\":14:240   */\n      swap1\n      pop\n      jump\t// out\n        /* \"#utility.yul\":837:968   */\n    tag_248:\n      sub(shl(0xa0, 0x01), 0x01)\n        /* \"#utility.yul\":912:943   */\n      dup2\n      and\n        /* \"#utility.yul\":902:944   */\n      dup2\n      eq\n        /* \"#utility.yul\":892:962   */\n      tag_238\n      jumpi\n        /* \"#utility.yul\":958:959   */\n      0x00\n        /* \"#utility.yul\":955:956   */\n      dup1\n        /* \"#utility.yul\":948:960   */\n      revert\n        /* \"#utility.yul\":973:1220   */\n    tag_38:\n        /* \"#utility.yul\":1032:1038   */\n      0x00\n        /* \"#utility.yul\":1085:1087   */\n      0x20\n        /* \"#utility.yul\":1073:1082   */\n      dup3\n        /* \"#utility.yul\":1064:1071   */\n      dup5\n        /* \"#utility.yul\":1060:1083   */\n      sub\n        /* \"#utility.yul\":1056:1088   */\n      slt\n        /* \"#utility.yul\":1053:1105   */\n      iszero\n      tag_258\n      jumpi\n        /* \"#utility.yul\":1101:1102   */\n      0x00\n        /* \"#utility.yul\":1098:1099   */\n      dup1\n        /* \"#utility.yul\":1091:1103   */\n      revert\n        /* \"#utility.yul\":1053:1105   */\n    tag_258:\n        /* \"#utility.yul\":1140:1149   */\n      dup2\n        /* \"#utility.yul\":1127:1150   */\n      calldataload\n        /* \"#utility.yul\":1159:1190   */\n      tag_259\n        /* \"#utility.yul\":1184:1189   */\n      dup2\n        /* \"#utility.yul\":1159:1190   */\n      tag_248\n      jump\t// in\n    tag_259:\n        /* \"#utility.yul\":1209:1214   */\n      swap4\n        /* \"#utility.yul\":973:1220   */\n      swap3\n      pop\n      pop\n      pop\n      jump\t// out\n        /* \"#utility.yul\":1599:1974   */\n    tag_54:\n        /* \"#utility.yul\":1675:1681   */\n      0x00\n        /* \"#utility.yul\":1683:1689   */\n      dup1\n        /* \"#utility.yul\":1736:1738   */\n      0x40\n        /* \"#utility.yul\":1724:1733   */\n      dup4\n        /* \"#utility.yul\":1715:1722   */\n      dup6\n        /* \"#utility.yul\":1711:1734   */\n      sub\n        /* \"#utility.yul\":1707:1739   */\n      slt\n        /* \"#utility.yul\":1704:1756   */\n      iszero\n      tag_263\n      jumpi\n        /* \"#utility.yul\":1752:1753   */\n      0x00\n        /* \"#utility.yul\":1749:1750   */\n      dup1\n        /* \"#utility.yul\":1742:1754   */\n      revert\n        /* \"#utility.yul\":1704:1756   */\n    tag_263:\n        /* \"#utility.yul\":1791:1800   */\n      dup3\n        /* \"#utility.yul\":1778:1801   */\n      calldataload\n        /* \"#utility.yul\":1810:1841   */\n      tag_264\n        /* \"#utility.yul\":1835:1840   */\n      dup2\n        /* \"#utility.yul\":1810:1841   */\n      tag_248\n      jump\t// in\n    tag_264:\n        /* \"#utility.yul\":1860:1865   */\n      swap5\n        /* \"#utility.yul\":1938:1940   */\n      0x20\n        /* \"#utility.yul\":1923:1941   */\n      swap4\n      swap1\n      swap4\n      add\n        /* \"#utility.yul\":1910:1942   */\n      calldataload\n      swap4\n      pop\n      pop\n      pop\n        /* \"#utility.yul\":1599:1974   */\n      jump\t// out\n        /* \"#utility.yul\":1979:2565   */\n    tag_59:\n        /* \"#utility.yul\":2049:2055   */\n      0x00\n        /* \"#utility.yul\":2057:2063   */\n      dup1\n        /* \"#utility.yul\":2110:2112   */\n      0x20\n        /* \"#utility.yul\":2098:2107   */\n      dup4\n        /* \"#utility.yul\":2089:2096   */\n      dup6\n        /* \"#utility.yul\":2085:2108   */\n      sub\n        /* \"#utility.yul\":2081:2113   */\n      slt\n        /* \"#utility.yul\":2078:2130   */\n      iszero\n      tag_266\n      jumpi\n        /* \"#utility.yul\":2126:2127   */\n      0x00\n        /* \"#utility.yul\":2123:2124   */\n      dup1\n        /* \"#utility.yul\":2116:2128   */\n      revert\n        /* \"#utility.yul\":2078:2130   */\n    tag_266:\n        /* \"#utility.yul\":2166:2175   */\n      dup3\n        /* \"#utility.yul\":2153:2176   */\n      calldataload\n        /* \"#utility.yul\":2199:2217   */\n      0xffffffffffffffff\n        /* \"#utility.yul\":2191:2197   */\n      dup2\n        /* \"#utility.yul\":2188:2218   */\n      gt\n        /* \"#utility.yul\":2185:2235   */\n      iszero\n      tag_267\n      jumpi\n        /* \"#utility.yul\":2231:2232   */\n      0x00\n        /* \"#utility.yul\":2228:2229   */\n      dup1\n        /* \"#utility.yul\":2221:2233   */\n      revert\n        /* \"#utility.yul\":2185:2235   */\n    tag_267:\n        /* \"#utility.yul\":2254:2276   */\n      dup4\n      add\n        /* \"#utility.yul\":2307:2311   */\n      0x1f\n        /* \"#utility.yul\":2299:2312   */\n      dup2\n      add\n        /* \"#utility.yul\":2295:2322   */\n      dup6\n      sgt\n        /* \"#utility.yul\":2285:2340   */\n      tag_268\n      jumpi\n        /* \"#utility.yul\":2336:2337   */\n      0x00\n        /* \"#utility.yul\":2333:2334   */\n      dup1\n        /* \"#utility.yul\":2326:2338   */\n      revert\n        /* \"#utility.yul\":2285:2340   */\n    tag_268:\n        /* \"#utility.yul\":2376:2378   */\n      dup1\n        /* \"#utility.yul\":2363:2379   */\n      calldataload\n        /* \"#utility.yul\":2402:2420   */\n      0xffffffffffffffff\n        /* \"#utility.yul\":2394:2400   */\n      dup2\n        /* \"#utility.yul\":2391:2421   */\n      gt\n        /* \"#utility.yul\":2388:2438   */\n      iszero\n      tag_269\n      jumpi\n        /* \"#utility.yul\":2434:2435   */\n      0x00\n        /* \"#utility.yul\":2431:2432   */\n      dup1\n        /* \"#utility.yul\":2424:2436   */\n      revert\n        /* \"#utility.yul\":2388:2438   */\n    tag_269:\n        /* \"#utility.yul\":2479:2486   */\n      dup6\n        /* \"#utility.yul\":2474:2476   */\n      0x20\n        /* \"#utility.yul\":2465:2471   */\n      dup3\n        /* \"#utility.yul\":2461:2463   */\n      dup5\n        /* \"#utility.yul\":2457:2472   */\n      add\n        /* \"#utility.yul\":2453:2477   */\n      add\n        /* \"#utility.yul\":2450:2487   */\n      gt\n        /* \"#utility.yul\":2447:2504   */\n      iszero\n      tag_270\n      jumpi\n        /* \"#utility.yul\":2500:2501   */\n      0x00\n        /* \"#utility.yul\":2497:2498   */\n      dup1\n        /* \"#utility.yul\":2490:2502   */\n      revert\n        /* \"#utility.yul\":2447:2504   */\n    tag_270:\n        /* \"#utility.yul\":2531:2533   */\n      0x20\n        /* \"#utility.yul\":2523:2534   */\n      swap2\n      swap1\n      swap2\n      add\n      swap6\n        /* \"#utility.yul\":2553:2559   */\n      swap1\n      swap5\n      pop\n        /* \"#utility.yul\":1979:2565   */\n      swap3\n      pop\n      pop\n      pop\n      jump\t// out\n        /* \"#utility.yul\":2570:3067   */\n    tag_74:\n        /* \"#utility.yul\":2753:2759   */\n      dup3\n        /* \"#utility.yul\":2746:2760   */\n      iszero\n        /* \"#utility.yul\":2739:2761   */\n      iszero\n        /* \"#utility.yul\":2728:2737   */\n      dup2\n        /* \"#utility.yul\":2721:2762   */\n      mstore\n        /* \"#utility.yul\":2798:2800   */\n      0x40\n        /* \"#utility.yul\":2793:2795   */\n      0x20\n        /* \"#utility.yul\":2782:2791   */\n      dup3\n        /* \"#utility.yul\":2778:2796   */\n      add\n        /* \"#utility.yul\":2771:2801   */\n      mstore\n        /* \"#utility.yul\":2702:2706   */\n      0x00\n        /* \"#utility.yul\":2830:2836   */\n      dup3\n        /* \"#utility.yul\":2824:2837   */\n      mload\n        /* \"#utility.yul\":2873:2879   */\n      dup1\n        /* \"#utility.yul\":2868:2870   */\n      0x40\n        /* \"#utility.yul\":2857:2866   */\n      dup5\n        /* \"#utility.yul\":2853:2871   */\n      add\n        /* \"#utility.yul\":2846:2880   */\n      mstore\n        /* \"#utility.yul\":2932:2938   */\n      dup1\n        /* \"#utility.yul\":2927:2929   */\n      0x20\n        /* \"#utility.yul\":2919:2925   */\n      dup6\n        /* \"#utility.yul\":2915:2930   */\n      add\n        /* \"#utility.yul\":2910:2912   */\n      0x60\n        /* \"#utility.yul\":2899:2908   */\n      dup6\n        /* \"#utility.yul\":2895:2913   */\n      add\n        /* \"#utility.yul\":2889:2939   */\n      mcopy\n        /* \"#utility.yul\":2988:2989   */\n      0x00\n        /* \"#utility.yul\":2983:2985   */\n      0x60\n        /* \"#utility.yul\":2974:2980   */\n      dup3\n        /* \"#utility.yul\":2963:2972   */\n      dup6\n        /* \"#utility.yul\":2959:2981   */\n      add\n        /* \"#utility.yul\":2955:2986   */\n      add\n        /* \"#utility.yul\":2948:2990   */\n      mstore\n        /* \"#utility.yul\":3058:3060   */\n      0x60\n        /* \"#utility.yul\":3051:3053   */\n      0x1f\n        /* \"#utility.yul\":3047:3054   */\n      not\n        /* \"#utility.yul\":3042:3044   */\n      0x1f\n        /* \"#utility.yul\":3034:3040   */\n      dup4\n        /* \"#utility.yul\":3030:3045   */\n      add\n        /* \"#utility.yul\":3026:3055   */\n      and\n        /* \"#utility.yul\":3015:3024   */\n      dup5\n        /* \"#utility.yul\":3011:3056   */\n      add\n        /* \"#utility.yul\":3007:3061   */\n      add\n        /* \"#utility.yul\":2999:3061   */\n      swap2\n      pop\n      pop\n        /* \"#utility.yul\":2570:3067   */\n      swap4\n      swap3\n      pop\n      pop\n      pop\n      jump\t// out\n        /* \"#utility.yul\":4069:4196   */\n    tag_118:\n        /* \"#utility.yul\":4130:4140   */\n      0x4e487b71\n        /* \"#utility.yul\":4125:4128   */\n      0xe0\n        /* \"#utility.yul\":4121:4141   */\n      shl\n        /* \"#utility.yul\":4118:4119   */\n      0x00\n        /* \"#utility.yul\":4111:4142   */\n      mstore\n        /* \"#utility.yul\":4161:4165   */\n      0x32\n        /* \"#utility.yul\":4158:4159   */\n      0x04\n        /* \"#utility.yul\":4151:4166   */\n      mstore\n        /* \"#utility.yul\":4185:4189   */\n      0x24\n        /* \"#utility.yul\":4182:4183   */\n      0x00\n        /* \"#utility.yul\":4175:4190   */\n      revert\n        /* \"#utility.yul\":4891:5121   */\n    tag_130:\n        /* \"#utility.yul\":4961:4967   */\n      0x00\n        /* \"#utility.yul\":5014:5016   */\n      0x20\n        /* \"#utility.yul\":5002:5011   */\n      dup3\n        /* \"#utility.yul\":4993:5000   */\n      dup5\n        /* \"#utility.yul\":4989:5012   */\n      sub\n        /* \"#utility.yul\":4985:5017   */\n      slt\n        /* \"#utility.yul\":4982:5034   */\n      iszero\n      tag_280\n      jumpi\n        /* \"#utility.yul\":5030:5031   */\n      0x00\n        /* \"#utility.yul\":5027:5028   */\n      dup1\n        /* \"#utility.yul\":5020:5032   */\n      revert\n        /* \"#utility.yul\":4982:5034   */\n    tag_280:\n      pop\n        /* \"#utility.yul\":5075:5091   */\n      mload\n      swap2\n        /* \"#utility.yul\":4891:5121   */\n      swap1\n      pop\n      jump\t// out\n        /* \"#utility.yul\":5530:5657   */\n    tag_249:\n        /* \"#utility.yul\":5591:5601   */\n      0x4e487b71\n        /* \"#utility.yul\":5586:5589   */\n      0xe0\n        /* \"#utility.yul\":5582:5602   */\n      shl\n        /* \"#utility.yul\":5579:5580   */\n      0x00\n        /* \"#utility.yul\":5572:5603   */\n      mstore\n        /* \"#utility.yul\":5622:5626   */\n      0x11\n        /* \"#utility.yul\":5619:5620   */\n      0x04\n        /* \"#utility.yul\":5612:5627   */\n      mstore\n        /* \"#utility.yul\":5646:5650   */\n      0x24\n        /* \"#utility.yul\":5643:5644   */\n      0x00\n        /* \"#utility.yul\":5636:5651   */\n      revert\n        /* \"#utility.yul\":5662:5787   */\n    tag_135:\n        /* \"#utility.yul\":5727:5736   */\n      dup1\n      dup3\n      add\n        /* \"#utility.yul\":5748:5758   */\n      dup1\n      dup3\n      gt\n        /* \"#utility.yul\":5745:5781   */\n      iszero\n      tag_285\n      jumpi\n        /* \"#utility.yul\":5761:5779   */\n      tag_285\n      tag_249\n      jump\t// in\n    tag_285:\n        /* \"#utility.yul\":5662:5787   */\n      swap3\n      swap2\n      pop\n      pop\n      jump\t// out\n        /* \"#utility.yul\":7945:8073   */\n    tag_170:\n        /* \"#utility.yul\":8012:8021   */\n      dup2\n      dup2\n      sub\n        /* \"#utility.yul\":8033:8044   */\n      dup2\n      dup2\n      gt\n        /* \"#utility.yul\":8030:8067   */\n      iszero\n      tag_285\n      jumpi\n        /* \"#utility.yul\":8047:8065   */\n      tag_285\n      tag_249\n      jump\t// in\n        /* \"#utility.yul\":9280:9459   */\n    tag_250:\n        /* \"#utility.yul\":9358:9371   */\n      dup1\n      mload\n        /* \"#utility.yul\":9411:9433   */\n      0xffffffffffffffffffff\n        /* \"#utility.yul\":9400:9434   */\n      dup2\n      and\n        /* \"#utility.yul\":9390:9435   */\n      dup2\n      eq\n        /* \"#utility.yul\":9380:9453   */\n      tag_299\n      jumpi\n        /* \"#utility.yul\":9449:9450   */\n      0x00\n        /* \"#utility.yul\":9446:9447   */\n      dup1\n        /* \"#utility.yul\":9439:9451   */\n      revert\n        /* \"#utility.yul\":9380:9453   */\n    tag_299:\n        /* \"#utility.yul\":9280:9459   */\n      swap2\n      swap1\n      pop\n      jump\t// out\n        /* \"#utility.yul\":9464:10035   */\n    tag_226:\n        /* \"#utility.yul\":9567:9573   */\n      0x00\n        /* \"#utility.yul\":9575:9581   */\n      dup1\n        /* \"#utility.yul\":9583:9589   */\n      0x00\n        /* \"#utility.yul\":9591:9597   */\n      dup1\n        /* \"#utility.yul\":9599:9605   */\n      0x00\n        /* \"#utility.yul\":9652:9655   */\n      0xa0\n        /* \"#utility.yul\":9640:9649   */\n      dup7\n        /* \"#utility.yul\":9631:9638   */\n      dup9\n        /* \"#utility.yul\":9627:9650   */\n      sub\n        /* \"#utility.yul\":9623:9656   */\n      slt\n        /* \"#utility.yul\":9620:9673   */\n      iszero\n      tag_301\n      jumpi\n        /* \"#utility.yul\":9669:9670   */\n      0x00\n        /* \"#utility.yul\":9666:9667   */\n      dup1\n        /* \"#utility.yul\":9659:9671   */\n      revert\n        /* \"#utility.yul\":9620:9673   */\n    tag_301:\n        /* \"#utility.yul\":9692:9731   */\n      tag_302\n        /* \"#utility.yul\":9721:9730   */\n      dup7\n        /* \"#utility.yul\":9692:9731   */\n      tag_250\n      jump\t// in\n    tag_302:\n        /* \"#utility.yul\":9771:9773   */\n      0x20\n        /* \"#utility.yul\":9756:9774   */\n      dup8\n      add\n        /* \"#utility.yul\":9750:9775   */\n      mload\n        /* \"#utility.yul\":9837:9839   */\n      0x40\n        /* \"#utility.yul\":9822:9840   */\n      dup9\n      add\n        /* \"#utility.yul\":9816:9841   */\n      mload\n        /* \"#utility.yul\":9931:9933   */\n      0x60\n        /* \"#utility.yul\":9916:9934   */\n      dup10\n      add\n        /* \"#utility.yul\":9910:9935   */\n      mload\n        /* \"#utility.yul\":9682:9731   */\n      swap3\n      swap8\n      pop\n        /* \"#utility.yul\":9750:9775   */\n      swap1\n      swap6\n      pop\n        /* \"#utility.yul\":9816:9841   */\n      swap4\n      pop\n        /* \"#utility.yul\":9910:9935   */\n      swap2\n      pop\n        /* \"#utility.yul\":9980:10029   */\n      tag_303\n        /* \"#utility.yul\":10024:10027   */\n      0x80\n        /* \"#utility.yul\":10009:10028   */\n      dup8\n      add\n        /* \"#utility.yul\":9980:10029   */\n      tag_250\n      jump\t// in\n    tag_303:\n        /* \"#utility.yul\":9970:10029   */\n      swap1\n      pop\n        /* \"#utility.yul\":9464:10035   */\n      swap3\n      swap6\n      pop\n      swap3\n      swap6\n      swap1\n      swap4\n      pop\n      jump\t// out\n        /* \"#utility.yul\":10040:10257   */\n    tag_228:\n        /* \"#utility.yul\":10080:10081   */\n      0x00\n        /* \"#utility.yul\":10106:10107   */\n      dup3\n        /* \"#utility.yul\":10096:10228   */\n      tag_305\n      jumpi\n        /* \"#utility.yul\":10150:10160   */\n      0x4e487b71\n        /* \"#utility.yul\":10145:10148   */\n      0xe0\n        /* \"#utility.yul\":10141:10161   */\n      shl\n        /* \"#utility.yul\":10138:10139   */\n      0x00\n        /* \"#utility.yul\":10131:10162   */\n      mstore\n        /* \"#utility.yul\":10185:10189   */\n      0x12\n        /* \"#utility.yul\":10182:10183   */\n      0x04\n        /* \"#utility.yul\":10175:10190   */\n      mstore\n        /* \"#utility.yul\":10213:10217   */\n      0x24\n        /* \"#utility.yul\":10210:10211   */\n      0x00\n        /* \"#utility.yul\":10203:10218   */\n      revert\n        /* \"#utility.yul\":10096:10228   */\n    tag_305:\n      pop\n        /* \"#utility.yul\":10242:10251   */\n      div\n      swap1\n        /* \"#utility.yul\":10040:10257   */\n      jump\t// out\n\n    auxdata: 0xa26469706673582212208a441baef47d9d791131caa698271e20b7d36d467354e63ec0bee1e2716dd86164736f6c634300081a0033\n}\n",
				"bytecode": {
					"linkReferences": {},
					"object": "608060405262015180600655348015610016575f80fd5b5060405161112e38038061112e83398101604081905261003591610138565b806001600160a01b03811661006357604051631e4fbdf760e01b81525f600482015260240160405180910390fd5b61006c816100ce565b50600380546001600160a01b03199081166001600160a01b0396871617909155600480548216948616949094179093556005805490931691841691909117909155165f908152600160208190526040909120805460ff19169091179055610189565b5f80546001600160a01b038381166001600160a01b0319831681178455604051919092169283917f8be0079c531659141344cd1fd0a4f28419497f9722a3daafe3b4186f6b6457e09190a35050565b80516001600160a01b0381168114610133575f80fd5b919050565b5f805f806080858703121561014b575f80fd5b6101548561011d565b93506101626020860161011d565b92506101706040860161011d565b915061017e6060860161011d565b905092959194509250565b610f98806101965f395ff3fe608060405260043610610110575f3560e01c80636e04ff0d1161009d578063c00d2a8c11610062578063c00d2a8c1461032b578063ca6d56dc14610340578063d0e30db014610133578063f2fde38b1461035f578063f96dae0a1461037e575f80fd5b80636e04ff0d14610287578063715018a6146102b45780638da5cb5b146102c8578063a59a9973146102f8578063a607a8d914610317575f80fd5b806312065fe0116100e357806312065fe0146101ef578063237af3481461020b5780634585e33b1461022a578063688f237b1461024957806368fd2d8014610268575f80fd5b80630121b93f14610114578063013cf08b1461013557806308ae4b0c146101925780630d61b519146101d0575b5f80fd5b34801561011f575f80fd5b5061013361012e366004610d49565b61039d565b005b348015610140575f80fd5b5061015461014f366004610d49565b6105f4565b604080516001600160a01b03909716875260208701959095529385019290925260608401526080830152151560a082015260c0015b60405180910390f35b34801561019d575f80fd5b506101c06101ac366004610d74565b60016020525f908152604090205460ff1681565b6040519015158152602001610189565b3480156101db575f80fd5b506101336101ea366004610d49565b610645565b3480156101fa575f80fd5b50475b604051908152602001610189565b348015610216575f80fd5b50610133610225366004610d96565b6107e7565b348015610235575f80fd5b50610133610244366004610dc0565b6109bd565b348015610254575f80fd5b50610133610263366004610d49565b6109da565b348015610273575f80fd5b50610133610282366004610d49565b610a5f565b348015610292575f80fd5b506102a66102a1366004610dc0565b610ad6565b604051610189929190610e2e565b3480156102bf575f80fd5b50610133610bca565b3480156102d3575f80fd5b505f546001600160a01b03165b6040516001600160a01b039091168152602001610189565b348015610303575f80fd5b506005546102e0906001600160a01b031681565b348015610322575f80fd5b506101fd610bdd565b348015610336575f80fd5b506101fd60065481565b34801561034b575f80fd5b5061013361035a366004610d74565b610c63565b34801561036a575f80fd5b50610133610379366004610d74565b610c91565b348015610389575f80fd5b506003546102e0906001600160a01b031681565b335f9081526001602052604090205460ff166103f35760405162461bcd60e51b815260206004820152601060248201526f2737ba1030902220a79036b2b6b132b960811b60448201526064015b60405180910390fd5b5f6002828154811061040757610407610e6c565b5f91825260208083203384526006600790930201918201905260409091205490915060ff16156104695760405162461bcd60e51b815260206004820152600d60248201526c105b1c9958591e481d9bdd1959609a1b60448201526064016103ea565b806003015442106104b25760405162461bcd60e51b8152602060048201526013602482015272159bdd1a5b99c81c195c9a5bd908195b991959606a1b60448201526064016103ea565b6003546040516370a0823160e01b81523360048201525f916001600160a01b0316906370a0823190602401602060405180830381865afa1580156104f8573d5f803e3d5ffd5b505050506040513d601f19601f8201168201806040525081019061051c9190610e80565b90505f81116105795760405162461bcd60e51b815260206004820152602360248201527f4d75737420686f6c6420676f7665726e616e636520746f6b656e7320746f20766044820152626f746560e81b60648201526084016103ea565b80826002015f82825461058c9190610eab565b9091555050335f818152600684016020908152604091829020805460ff1916600117905581518681529081019290925281018290527f1abe610cf2bf87e57dcc1181fcf5ac0934e843d8344ab9eed6e86c799f62585e906060015b60405180910390a1505050565b60028181548110610603575f80fd5b5f9182526020909120600790910201805460018201546002830154600384015460048501546005909501546001600160a01b0390941695509193909260ff1686565b5f6002828154811061065957610659610e6c565b905f5260205f2090600702019050681b1ae4d6e2ef500000816002015410156106d35760405162461bcd60e51b815260206004820152602660248201527f4e6f7420656e6f75676820766f746573202835303020746f6b656e732072657160448201526575697265642960d01b60648201526084016103ea565b600581015460ff161561071b5760405162461bcd60e51b815260206004820152601060248201526f105b1c9958591e48195e1958dd5d195960821b60448201526064016103ea565b80600401544210156107645760405162461bcd60e51b8152602060048201526012602482015271119d5b991cc81cdd1a5b1b081b1bd8dad95960721b60448201526064016103ea565b60058101805460ff191660019081179091558154908201546040516001600160a01b039092169181156108fc0291905f818181858888f193505050501580156107af573d5f803e3d5ffd5b506040518281527f712ae1383f79ac853f8d882153778e0260ef8f03b504e2866e0593e04d2b291f9060200160405180910390a15050565b335f9081526001602052604090205460ff166108385760405162461bcd60e51b815260206004820152601060248201526f2737ba1030902220a79036b2b6b132b960811b60448201526064016103ea565b804710156108885760405162461bcd60e51b815260206004820152601d60248201527f496e73756666696369656e742074726561737572792062616c616e636500000060448201526064016103ea565b6105dc610893610bdd565b116108d45760405162461bcd60e51b815260206004820152601160248201527045544820707269636520746f6f206c6f7760781b60448201526064016103ea565b6002805460019081018083555f83815292916108ef91610ec4565b815481106108ff576108ff610e6c565b5f918252602082206007919091020180546001600160a01b0319166001600160a01b0386161781556001810184905560028101919091556006549091506109469042610eab565b6003820155610958426202a300610eab565b600482015560058101805460ff191690556002547f3417b456fad6209c73445d5efd446d686e75e4560f0f50c13b5a5cde976447b49061099a90600190610ec4565b604080519182526001600160a01b038616602083015281018490526060016105e7565b5f6109ca82840184610d49565b90506109d581610645565b505050565b6109e2610cce565b600554604051631a4ca37b60e21b815230600482018190526024820184905260448201526001600160a01b03909116906369328dec906064016020604051808303815f875af1158015610a37573d5f803e3d5ffd5b505050506040513d601f19601f82011682018060405250810190610a5b9190610e80565b5050565b610a67610cce565b60055460405163e8eda9df60e01b815230600482018190526024820184905260448201525f60648201526001600160a01b039091169063e8eda9df906084015f604051808303815f87803b158015610abd575f80fd5b505af1158015610acf573d5f803e3d5ffd5b5050505050565b5f60605f5b600254811015610baf5760028181548110610af857610af8610e6c565b5f91825260209091206005600790920201015460ff16158015610b465750681b1ae4d6e2ef50000060028281548110610b3357610b33610e6c565b905f5260205f2090600702016002015410155b8015610b74575060028181548110610b6057610b60610e6c565b905f5260205f209060070201600401544210155b15610ba757600181604051602001610b8e91815260200190565b6040516020818303038152906040529250925050610bc3565b600101610adb565b505060408051602081019091525f80825291505b9250929050565b610bd2610cce565b610bdb5f610cfa565b565b6004805460408051633fabe5a360e21b815290515f9384936001600160a01b03169263feaf968c928183019260a0928290030181865afa158015610c23573d5f803e3d5ffd5b505050506040513d601f19601f82011682018060405250810190610c479190610ef5565b5050509150506305f5e10081610c5d9190610f43565b91505090565b610c6b610cce565b6001600160a01b03165f908152600160208190526040909120805460ff19169091179055565b610c99610cce565b6001600160a01b038116610cc257604051631e4fbdf760e01b81525f60048201526024016103ea565b610ccb81610cfa565b50565b5f546001600160a01b03163314610bdb5760405163118cdaa760e01b81523360048201526024016103ea565b5f80546001600160a01b038381166001600160a01b0319831681178455604051919092169283917f8be0079c531659141344cd1fd0a4f28419497f9722a3daafe3b4186f6b6457e09190a35050565b5f60208284031215610d59575f80fd5b5035919050565b6001600160a01b0381168114610ccb575f80fd5b5f60208284031215610d84575f80fd5b8135610d8f81610d60565b9392505050565b5f8060408385031215610da7575f80fd5b8235610db281610d60565b946020939093013593505050565b5f8060208385031215610dd1575f80fd5b823567ffffffffffffffff811115610de7575f80fd5b8301601f81018513610df7575f80fd5b803567ffffffffffffffff811115610e0d575f80fd5b856020828401011115610e1e575f80fd5b6020919091019590945092505050565b8215158152604060208201525f82518060408401528060208501606085015e5f606082850101526060601f19601f8301168401019150509392505050565b634e487b7160e01b5f52603260045260245ffd5b5f60208284031215610e90575f80fd5b5051919050565b634e487b7160e01b5f52601160045260245ffd5b80820180821115610ebe57610ebe610e97565b92915050565b81810381811115610ebe57610ebe610e97565b805169ffffffffffffffffffff81168114610ef0575f80fd5b919050565b5f805f805f60a08688031215610f09575f80fd5b610f1286610ed7565b60208701516040880151606089015192975090955093509150610f3760808701610ed7565b90509295509295909350565b5f82610f5d57634e487b7160e01b5f52601260045260245ffd5b50049056fea26469706673582212208a441baef47d9d791131caa698271e20b7d36d467354e63ec0bee1e2716dd86164736f6c634300081a0033",
					"opcodes": "PUSH1 0x80 PUSH1 0x40 MSTORE PUSH3 0x15180 PUSH1 0x6 SSTORE CALLVALUE DUP1 ISZERO PUSH2 0x16 JUMPI PUSH0 DUP1 REVERT JUMPDEST POP PUSH1 0x40 MLOAD PUSH2 0x112E CODESIZE SUB DUP1 PUSH2 0x112E DUP4 CODECOPY DUP2 ADD PUSH1 0x40 DUP2 SWAP1 MSTORE PUSH2 0x35 SWAP2 PUSH2 0x138 JUMP JUMPDEST DUP1 PUSH1 0x1 PUSH1 0x1 PUSH1 0xA0 SHL SUB DUP2 AND PUSH2 0x63 JUMPI PUSH1 0x40 MLOAD PUSH4 0x1E4FBDF7 PUSH1 0xE0 SHL DUP2 MSTORE PUSH0 PUSH1 0x4 DUP3 ADD MSTORE PUSH1 0x24 ADD PUSH1 0x40 MLOAD DUP1 SWAP2 SUB SWAP1 REVERT JUMPDEST PUSH2 0x6C DUP2 PUSH2 0xCE JUMP JUMPDEST POP PUSH1 0x3 DUP1 SLOAD PUSH1 0x1 PUSH1 0x1 PUSH1 0xA0 SHL SUB NOT SWAP1 DUP2 AND PUSH1 0x1 PUSH1 0x1 PUSH1 0xA0 SHL SUB SWAP7 DUP8 AND OR SWAP1 SWAP2 SSTORE PUSH1 0x4 DUP1 SLOAD DUP3 AND SWAP5 DUP7 AND SWAP5 SWAP1 SWAP5 OR SWAP1 SWAP4 SSTORE PUSH1 0x5 DUP1 SLOAD SWAP1 SWAP4 AND SWAP2 DUP5 AND SWAP2 SWAP1 SWAP2 OR SWAP1 SWAP2 SSTORE AND PUSH0 SWAP1 DUP2 MSTORE PUSH1 0x1 PUSH1 0x20 DUP2 SWAP1 MSTORE PUSH1 0x40 SWAP1 SWAP2 KECCAK256 DUP1 SLOAD PUSH1 0xFF NOT AND SWAP1 SWAP2 OR SWAP1 SSTORE PUSH2 0x189 JUMP JUMPDEST PUSH0 DUP1 SLOAD PUSH1 0x1 PUSH1 0x1 PUSH1 0xA0 SHL SUB DUP4 DUP2 AND PUSH1 0x1 PUSH1 0x1 PUSH1 0xA0 SHL SUB NOT DUP4 AND DUP2 OR DUP5 SSTORE PUSH1 0x40 MLOAD SWAP2 SWAP1 SWAP3 AND SWAP3 DUP4 SWAP2 PUSH32 0x8BE0079C531659141344CD1FD0A4F28419497F9722A3DAAFE3B4186F6B6457E0 SWAP2 SWAP1 LOG3 POP POP JUMP JUMPDEST DUP1 MLOAD PUSH1 0x1 PUSH1 0x1 PUSH1 0xA0 SHL SUB DUP2 AND DUP2 EQ PUSH2 0x133 JUMPI PUSH0 DUP1 REVERT JUMPDEST SWAP2 SWAP1 POP JUMP JUMPDEST PUSH0 DUP1 PUSH0 DUP1 PUSH1 0x80 DUP6 DUP8 SUB SLT ISZERO PUSH2 0x14B JUMPI PUSH0 DUP1 REVERT JUMPDEST PUSH2 0x154 DUP6 PUSH2 0x11D JUMP JUMPDEST SWAP4 POP PUSH2 0x162 PUSH1 0x20 DUP7 ADD PUSH2 0x11D JUMP JUMPDEST SWAP3 POP PUSH2 0x170 PUSH1 0x40 DUP7 ADD PUSH2 0x11D JUMP JUMPDEST SWAP2 POP PUSH2 0x17E PUSH1 0x60 DUP7 ADD PUSH2 0x11D JUMP JUMPDEST SWAP1 POP SWAP3 SWAP6 SWAP2 SWAP5 POP SWAP3 POP JUMP JUMPDEST PUSH2 0xF98 DUP1 PUSH2 0x196 PUSH0 CODECOPY PUSH0 RETURN INVALID PUSH1 0x80 PUSH1 0x40 MSTORE PUSH1 0x4 CALLDATASIZE LT PUSH2 0x110 JUMPI PUSH0 CALLDATALOAD PUSH1 0xE0 SHR DUP1 PUSH4 0x6E04FF0D GT PUSH2 0x9D JUMPI DUP1 PUSH4 0xC00D2A8C GT PUSH2 0x62 JUMPI DUP1 PUSH4 0xC00D2A8C EQ PUSH2 0x32B JUMPI DUP1 PUSH4 0xCA6D56DC EQ PUSH2 0x340 JUMPI DUP1 PUSH4 0xD0E30DB0 EQ PUSH2 0x133 JUMPI DUP1 PUSH4 0xF2FDE38B EQ PUSH2 0x35F JUMPI DUP1 PUSH4 0xF96DAE0A EQ PUSH2 0x37E JUMPI PUSH0 DUP1 REVERT JUMPDEST DUP1 PUSH4 0x6E04FF0D EQ PUSH2 0x287 JUMPI DUP1 PUSH4 0x715018A6 EQ PUSH2 0x2B4 JUMPI DUP1 PUSH4 0x8DA5CB5B EQ PUSH2 0x2C8 JUMPI DUP1 PUSH4 0xA59A9973 EQ PUSH2 0x2F8 JUMPI DUP1 PUSH4 0xA607A8D9 EQ PUSH2 0x317 JUMPI PUSH0 DUP1 REVERT JUMPDEST DUP1 PUSH4 0x12065FE0 GT PUSH2 0xE3 JUMPI DUP1 PUSH4 0x12065FE0 EQ PUSH2 0x1EF JUMPI DUP1 PUSH4 0x237AF348 EQ PUSH2 0x20B JUMPI DUP1 PUSH4 0x4585E33B EQ PUSH2 0x22A JUMPI DUP1 PUSH4 0x688F237B EQ PUSH2 0x249 JUMPI DUP1 PUSH4 0x68FD2D80 EQ PUSH2 0x268 JUMPI PUSH0 DUP1 REVERT JUMPDEST DUP1 PUSH4 0x121B93F EQ PUSH2 0x114 JUMPI DUP1 PUSH4 0x13CF08B EQ PUSH2 0x135 JUMPI DUP1 PUSH4 0x8AE4B0C EQ PUSH2 0x192 JUMPI DUP1 PUSH4 0xD61B519 EQ PUSH2 0x1D0 JUMPI JUMPDEST PUSH0 DUP1 REVERT JUMPDEST CALLVALUE DUP1 ISZERO PUSH2 0x11F JUMPI PUSH0 DUP1 REVERT JUMPDEST POP PUSH2 0x133 PUSH2 0x12E CALLDATASIZE PUSH1 0x4 PUSH2 0xD49 JUMP JUMPDEST PUSH2 0x39D JUMP JUMPDEST STOP JUMPDEST CALLVALUE DUP1 ISZERO PUSH2 0x140 JUMPI PUSH0 DUP1 REVERT JUMPDEST POP PUSH2 0x154 PUSH2 0x14F CALLDATASIZE PUSH1 0x4 PUSH2 0xD49 JUMP JUMPDEST PUSH2 0x5F4 JUMP JUMPDEST PUSH1 0x40 DUP1 MLOAD PUSH1 0x1 PUSH1 0x1 PUSH1 0xA0 SHL SUB SWAP1 SWAP8 AND DUP8 MSTORE PUSH1 0x20 DUP8 ADD SWAP6 SWAP1 SWAP6 MSTORE SWAP4 DUP6 ADD SWAP3 SWAP1 SWAP3 MSTORE PUSH1 0x60 DUP5 ADD MSTORE PUSH1 0x80 DUP4 ADD MSTORE ISZERO ISZERO PUSH1 0xA0 DUP3 ADD MSTORE PUSH1 0xC0 ADD JUMPDEST PUSH1 0x40 MLOAD DUP1 SWAP2 SUB SWAP1 RETURN JUMPDEST CALLVALUE DUP1 ISZERO PUSH2 0x19D JUMPI PUSH0 DUP1 REVERT JUMPDEST POP PUSH2 0x1C0 PUSH2 0x1AC CALLDATASIZE PUSH1 0x4 PUSH2 0xD74 JUMP JUMPDEST PUSH1 0x1 PUSH1 0x20 MSTORE PUSH0 SWAP1 DUP2 MSTORE PUSH1 0x40 SWAP1 KECCAK256 SLOAD PUSH1 0xFF AND DUP2 JUMP JUMPDEST PUSH1 0x40 MLOAD SWAP1 ISZERO ISZERO DUP2 MSTORE PUSH1 0x20 ADD PUSH2 0x189 JUMP JUMPDEST CALLVALUE DUP1 ISZERO PUSH2 0x1DB JUMPI PUSH0 DUP1 REVERT JUMPDEST POP PUSH2 0x133 PUSH2 0x1EA CALLDATASIZE PUSH1 0x4 PUSH2 0xD49 JUMP JUMPDEST PUSH2 0x645 JUMP JUMPDEST CALLVALUE DUP1 ISZERO PUSH2 0x1FA JUMPI PUSH0 DUP1 REVERT JUMPDEST POP SELFBALANCE JUMPDEST PUSH1 0x40 MLOAD SWAP1 DUP2 MSTORE PUSH1 0x20 ADD PUSH2 0x189 JUMP JUMPDEST CALLVALUE DUP1 ISZERO PUSH2 0x216 JUMPI PUSH0 DUP1 REVERT JUMPDEST POP PUSH2 0x133 PUSH2 0x225 CALLDATASIZE PUSH1 0x4 PUSH2 0xD96 JUMP JUMPDEST PUSH2 0x7E7 JUMP JUMPDEST CALLVALUE DUP1 ISZERO PUSH2 0x235 JUMPI PUSH0 DUP1 REVERT JUMPDEST POP PUSH2 0x133 PUSH2 0x244 CALLDATASIZE PUSH1 0x4 PUSH2 0xDC0 JUMP JUMPDEST PUSH2 0x9BD JUMP JUMPDEST CALLVALUE DUP1 ISZERO PUSH2 0x254 JUMPI PUSH0 DUP1 REVERT JUMPDEST POP PUSH2 0x133 PUSH2 0x263 CALLDATASIZE PUSH1 0x4 PUSH2 0xD49 JUMP JUMPDEST PUSH2 0x9DA JUMP JUMPDEST CALLVALUE DUP1 ISZERO PUSH2 0x273 JUMPI PUSH0 DUP1 REVERT JUMPDEST POP PUSH2 0x133 PUSH2 0x282 CALLDATASIZE PUSH1 0x4 PUSH2 0xD49 JUMP JUMPDEST PUSH2 0xA5F JUMP JUMPDEST CALLVALUE DUP1 ISZERO PUSH2 0x292 JUMPI PUSH0 DUP1 REVERT JUMPDEST POP PUSH2 0x2A6 PUSH2 0x2A1 CALLDATASIZE PUSH1 0x4 PUSH2 0xDC0 JUMP JUMPDEST PUSH2 0xAD6 JUMP JUMPDEST PUSH1 0x40 MLOAD PUSH2 0x189 SWAP3 SWAP2 SWAP1 PUSH2 0xE2E JUMP JUMPDEST CALLVALUE DUP1 ISZERO PUSH2 0x2BF JUMPI PUSH0 DUP1 REVERT JUMPDEST POP PUSH2 0x133 PUSH2 0xBCA JUMP JUMPDEST CALLVALUE DUP1 ISZERO PUSH2 0x2D3 JUMPI PUSH0 DUP1 REVERT JUMPDEST POP PUSH0 SLOAD PUSH1 0x1 PUSH1 0x1 PUSH1 0xA0 SHL SUB AND JUMPDEST PUSH1 0x40 MLOAD PUSH1 0x1 PUSH1 0x1 PUSH1 0xA0 SHL SUB SWAP1 SWAP2 AND DUP2 MSTORE PUSH1 0x20 ADD PUSH2 0x189 JUMP JUMPDEST CALLVALUE DUP1 ISZERO PUSH2 0x303 JUMPI PUSH0 DUP1 REVERT JUMPDEST POP PUSH1 0x5 SLOAD PUSH2 0x2E0 SWAP1 PUSH1 0x1 PUSH1 0x1 PUSH1 0xA0 SHL SUB AND DUP2 JUMP JUMPDEST CALLVALUE DUP1 ISZERO PUSH2 0x322 JUMPI PUSH0 DUP1 REVERT JUMPDEST POP PUSH2 0x1FD PUSH2 0xBDD JUMP JUMPDEST CALLVALUE DUP1 ISZERO PUSH2 0x336 JUMPI PUSH0 DUP1 REVERT JUMPDEST POP PUSH2 0x1FD PUSH1 0x6 SLOAD DUP2 JUMP JUMPDEST CALLVALUE DUP1 ISZERO PUSH2 0x34B JUMPI PUSH0 DUP1 REVERT JUMPDEST POP PUSH2 0x133 PUSH2 0x35A CALLDATASIZE PUSH1 0x4 PUSH2 0xD74 JUMP JUMPDEST PUSH2 0xC63 JUMP JUMPDEST CALLVALUE DUP1 ISZERO PUSH2 0x36A JUMPI PUSH0 DUP1 REVERT JUMPDEST POP PUSH2 0x133 PUSH2 0x379 CALLDATASIZE PUSH1 0x4 PUSH2 0xD74 JUMP JUMPDEST PUSH2 0xC91 JUMP JUMPDEST CALLVALUE DUP1 ISZERO PUSH2 0x389 JUMPI PUSH0 DUP1 REVERT JUMPDEST POP PUSH1 0x3 SLOAD PUSH2 0x2E0 SWAP1 PUSH1 0x1 PUSH1 0x1 PUSH1 0xA0 SHL SUB AND DUP2 JUMP JUMPDEST CALLER PUSH0 SWAP1 DUP2 MSTORE PUSH1 0x1 PUSH1 0x20 MSTORE PUSH1 0x40 SWAP1 KECCAK256 SLOAD PUSH1 0xFF AND PUSH2 0x3F3 JUMPI PUSH1 0x40 MLOAD PUSH3 0x461BCD PUSH1 0xE5 SHL DUP2 MSTORE PUSH1 0x20 PUSH1 0x4 DUP3 ADD MSTORE PUSH1 0x10 PUSH1 0x24 DUP3 ADD MSTORE PUSH16 0x2737BA1030902220A79036B2B6B132B9 PUSH1 0x81 SHL PUSH1 0x44 DUP3 ADD MSTORE PUSH1 0x64 ADD JUMPDEST PUSH1 0x40 MLOAD DUP1 SWAP2 SUB SWAP1 REVERT JUMPDEST PUSH0 PUSH1 0x2 DUP3 DUP2 SLOAD DUP2 LT PUSH2 0x407 JUMPI PUSH2 0x407 PUSH2 0xE6C JUMP JUMPDEST PUSH0 SWAP2 DUP3 MSTORE PUSH1 0x20 DUP1 DUP4 KECCAK256 CALLER DUP5 MSTORE PUSH1 0x6 PUSH1 0x7 SWAP1 SWAP4 MUL ADD SWAP2 DUP3 ADD SWAP1 MSTORE PUSH1 0x40 SWAP1 SWAP2 KECCAK256 SLOAD SWAP1 SWAP2 POP PUSH1 0xFF AND ISZERO PUSH2 0x469 JUMPI PUSH1 0x40 MLOAD PUSH3 0x461BCD PUSH1 0xE5 SHL DUP2 MSTORE PUSH1 0x20 PUSH1 0x4 DUP3 ADD MSTORE PUSH1 0xD PUSH1 0x24 DUP3 ADD MSTORE PUSH13 0x105B1C9958591E481D9BDD1959 PUSH1 0x9A SHL PUSH1 0x44 DUP3 ADD MSTORE PUSH1 0x64 ADD PUSH2 0x3EA JUMP JUMPDEST DUP1 PUSH1 0x3 ADD SLOAD TIMESTAMP LT PUSH2 0x4B2 JUMPI PUSH1 0x40 MLOAD PUSH3 0x461BCD PUSH1 0xE5 SHL DUP2 MSTORE PUSH1 0x20 PUSH1 0x4 DUP3 ADD MSTORE PUSH1 0x13 PUSH1 0x24 DUP3 ADD MSTORE PUSH19 0x159BDD1A5B99C81C195C9A5BD908195B991959 PUSH1 0x6A SHL PUSH1 0x44 DUP3 ADD MSTORE PUSH1 0x64 ADD PUSH2 0x3EA JUMP JUMPDEST PUSH1 0x3 SLOAD PUSH1 0x40 MLOAD PUSH4 0x70A08231 PUSH1 0xE0 SHL DUP2 MSTORE CALLER PUSH1 0x4 DUP3 ADD MSTORE PUSH0 SWAP2 PUSH1 0x1 PUSH1 0x1 PUSH1 0xA0 SHL SUB AND SWAP1 PUSH4 0x70A08231 SWAP1 PUSH1 0x24 ADD PUSH1 0x20 PUSH1 0x40 MLOAD DUP1 DUP4 SUB DUP2 DUP7 GAS STATICCALL ISZERO DUP1 ISZERO PUSH2 0x4F8 JUMPI RETURNDATASIZE PUSH0 DUP1 RETURNDATACOPY RETURNDATASIZE PUSH0 REVERT JUMPDEST POP POP POP POP PUSH1 0x40 MLOAD RETURNDATASIZE PUSH1 0x1F NOT PUSH1 0x1F DUP3 ADD AND DUP3 ADD DUP1 PUSH1 0x40 MSTORE POP DUP2 ADD SWAP1 PUSH2 0x51C SWAP2 SWAP1 PUSH2 0xE80 JUMP JUMPDEST SWAP1 POP PUSH0 DUP2 GT PUSH2 0x579 JUMPI PUSH1 0x40 MLOAD PUSH3 0x461BCD PUSH1 0xE5 SHL DUP2 MSTORE PUSH1 0x20 PUSH1 0x4 DUP3 ADD MSTORE PUSH1 0x23 PUSH1 0x24 DUP3 ADD MSTORE PUSH32 0x4D75737420686F6C6420676F7665726E616E636520746F6B656E7320746F2076 PUSH1 0x44 DUP3 ADD MSTORE PUSH3 0x6F7465 PUSH1 0xE8 SHL PUSH1 0x64 DUP3 ADD MSTORE PUSH1 0x84 ADD PUSH2 0x3EA JUMP JUMPDEST DUP1 DUP3 PUSH1 0x2 ADD PUSH0 DUP3 DUP3 SLOAD PUSH2 0x58C SWAP2 SWAP1 PUSH2 0xEAB JUMP JUMPDEST SWAP1 SWAP2 SSTORE POP POP CALLER PUSH0 DUP2 DUP2 MSTORE PUSH1 0x6 DUP5 ADD PUSH1 0x20 SWAP1 DUP2 MSTORE PUSH1 0x40 SWAP2 DUP3 SWAP1 KECCAK256 DUP1 SLOAD PUSH1 0xFF NOT AND PUSH1 0x1 OR SWAP1 SSTORE DUP2 MLOAD DUP7 DUP2 MSTORE SWAP1 DUP2 ADD SWAP3 SWAP1 SWAP3 MSTORE DUP2 ADD DUP3 SWAP1 MSTORE PUSH32 0x1ABE610CF2BF87E57DCC1181FCF5AC0934E843D8344AB9EED6E86C799F62585E SWAP1 PUSH1 0x60 ADD JUMPDEST PUSH1 0x40 MLOAD DUP1 SWAP2 SUB SWAP1 LOG1 POP POP POP JUMP JUMPDEST PUSH1 0x2 DUP2 DUP2 SLOAD DUP2 LT PUSH2 0x603 JUMPI PUSH0 DUP1 REVERT JUMPDEST PUSH0 SWAP2 DUP3 MSTORE PUSH1 0x20 SWAP1 SWAP2 KECCAK256 PUSH1 0x7 SWAP1 SWAP2 MUL ADD DUP1 SLOAD PUSH1 0x1 DUP3 ADD SLOAD PUSH1 0x2 DUP4 ADD SLOAD PUSH1 0x3 DUP5 ADD SLOAD PUSH1 0x4 DUP6 ADD SLOAD PUSH1 0x5 SWAP1 SWAP6 ADD SLOAD PUSH1 0x1 PUSH1 0x1 PUSH1 0xA0 SHL SUB SWAP1 SWAP5 AND SWAP6 POP SWAP2 SWAP4 SWAP1 SWAP3 PUSH1 0xFF AND DUP7 JUMP JUMPDEST PUSH0 PUSH1 0x2 DUP3 DUP2 SLOAD DUP2 LT PUSH2 0x659 JUMPI PUSH2 0x659 PUSH2 0xE6C JUMP JUMPDEST SWAP1 PUSH0 MSTORE PUSH1 0x20 PUSH0 KECCAK256 SWAP1 PUSH1 0x7 MUL ADD SWAP1 POP PUSH9 0x1B1AE4D6E2EF500000 DUP2 PUSH1 0x2 ADD SLOAD LT ISZERO PUSH2 0x6D3 JUMPI PUSH1 0x40 MLOAD PUSH3 0x461BCD PUSH1 0xE5 SHL DUP2 MSTORE PUSH1 0x20 PUSH1 0x4 DUP3 ADD MSTORE PUSH1 0x26 PUSH1 0x24 DUP3 ADD MSTORE PUSH32 0x4E6F7420656E6F75676820766F746573202835303020746F6B656E7320726571 PUSH1 0x44 DUP3 ADD MSTORE PUSH6 0x756972656429 PUSH1 0xD0 SHL PUSH1 0x64 DUP3 ADD MSTORE PUSH1 0x84 ADD PUSH2 0x3EA JUMP JUMPDEST PUSH1 0x5 DUP2 ADD SLOAD PUSH1 0xFF AND ISZERO PUSH2 0x71B JUMPI PUSH1 0x40 MLOAD PUSH3 0x461BCD PUSH1 0xE5 SHL DUP2 MSTORE PUSH1 0x20 PUSH1 0x4 DUP3 ADD MSTORE PUSH1 0x10 PUSH1 0x24 DUP3 ADD MSTORE PUSH16 0x105B1C9958591E48195E1958DD5D1959 PUSH1 0x82 SHL PUSH1 0x44 DUP3 ADD MSTORE PUSH1 0x64 ADD PUSH2 0x3EA JUMP JUMPDEST DUP1 PUSH1 0x4 ADD SLOAD TIMESTAMP LT ISZERO PUSH2 0x764 JUMPI PUSH1 0x40 MLOAD PUSH3 0x461BCD PUSH1 0xE5 SHL DUP2 MSTORE PUSH1 0x20 PUSH1 0x4 DUP3 ADD MSTORE PUSH1 0x12 PUSH1 0x24 DUP3 ADD MSTORE PUSH18 0x119D5B991CC81CDD1A5B1B081B1BD8DAD959 PUSH1 0x72 SHL PUSH1 0x44 DUP3 ADD MSTORE PUSH1 0x64 ADD PUSH2 0x3EA JUMP JUMPDEST PUSH1 0x5 DUP2 ADD DUP1 SLOAD PUSH1 0xFF NOT AND PUSH1 0x1 SWAP1 DUP2 OR SWAP1 SWAP2 SSTORE DUP2 SLOAD SWAP1 DUP3 ADD SLOAD PUSH1 0x40 MLOAD PUSH1 0x1 PUSH1 0x1 PUSH1 0xA0 SHL SUB SWAP1 SWAP3 AND SWAP2 DUP2 ISZERO PUSH2 0x8FC MUL SWAP2 SWAP1 PUSH0 DUP2 DUP2 DUP2 DUP6 DUP9 DUP9 CALL SWAP4 POP POP POP POP ISZERO DUP1 ISZERO PUSH2 0x7AF JUMPI RETURNDATASIZE PUSH0 DUP1 RETURNDATACOPY RETURNDATASIZE PUSH0 REVERT JUMPDEST POP PUSH1 0x40 MLOAD DUP3 DUP2 MSTORE PUSH32 0x712AE1383F79AC853F8D882153778E0260EF8F03B504E2866E0593E04D2B291F SWAP1 PUSH1 0x20 ADD PUSH1 0x40 MLOAD DUP1 SWAP2 SUB SWAP1 LOG1 POP POP JUMP JUMPDEST CALLER PUSH0 SWAP1 DUP2 MSTORE PUSH1 0x1 PUSH1 0x20 MSTORE PUSH1 0x40 SWAP1 KECCAK256 SLOAD PUSH1 0xFF AND PUSH2 0x838 JUMPI PUSH1 0x40 MLOAD PUSH3 0x461BCD PUSH1 0xE5 SHL DUP2 MSTORE PUSH1 0x20 PUSH1 0x4 DUP3 ADD MSTORE PUSH1 0x10 PUSH1 0x24 DUP3 ADD MSTORE PUSH16 0x2737BA1030902220A79036B2B6B132B9 PUSH1 0x81 SHL PUSH1 0x44 DUP3 ADD MSTORE PUSH1 0x64 ADD PUSH2 0x3EA JUMP JUMPDEST DUP1 SELFBALANCE LT ISZERO PUSH2 0x888 JUMPI PUSH1 0x40 MLOAD PUSH3 0x461BCD PUSH1 0xE5 SHL DUP2 MSTORE PUSH1 0x20 PUSH1 0x4 DUP3 ADD MSTORE PUSH1 0x1D PUSH1 0x24 DUP3 ADD MSTORE PUSH32 0x496E73756666696369656E742074726561737572792062616C616E6365000000 PUSH1 0x44 DUP3 ADD MSTORE PUSH1 0x64 ADD PUSH2 0x3EA JUMP JUMPDEST PUSH2 0x5DC PUSH2 0x893 PUSH2 0xBDD JUMP JUMPDEST GT PUSH2 0x8D4 JUMPI PUSH1 0x40 MLOAD PUSH3 0x461BCD PUSH1 0xE5 SHL DUP2 MSTORE PUSH1 0x20 PUSH1 0x4 DUP3 ADD MSTORE PUSH1 0x11 PUSH1 0x24 DUP3 ADD MSTORE PUSH17 0x45544820707269636520746F6F206C6F77 PUSH1 0x78 SHL PUSH1 0x44 DUP3 ADD MSTORE PUSH1 0x64 ADD PUSH2 0x3EA JUMP JUMPDEST PUSH1 0x2 DUP1 SLOAD PUSH1 0x1 SWAP1 DUP2 ADD DUP1 DUP4 SSTORE PUSH0 DUP4 DUP2 MSTORE SWAP3 SWAP2 PUSH2 0x8EF SWAP2 PUSH2 0xEC4 JUMP JUMPDEST DUP2 SLOAD DUP2 LT PUSH2 0x8FF JUMPI PUSH2 0x8FF PUSH2 0xE6C JUMP JUMPDEST PUSH0 SWAP2 DUP3 MSTORE PUSH1 0x20 DUP3 KECCAK256 PUSH1 0x7 SWAP2 SWAP1 SWAP2 MUL ADD DUP1 SLOAD PUSH1 0x1 PUSH1 0x1 PUSH1 0xA0 SHL SUB NOT AND PUSH1 0x1 PUSH1 0x1 PUSH1 0xA0 SHL SUB DUP7 AND OR DUP2 SSTORE PUSH1 0x1 DUP2 ADD DUP5 SWAP1 SSTORE PUSH1 0x2 DUP2 ADD SWAP2 SWAP1 SWAP2 SSTORE PUSH1 0x6 SLOAD SWAP1 SWAP2 POP PUSH2 0x946 SWAP1 TIMESTAMP PUSH2 0xEAB JUMP JUMPDEST PUSH1 0x3 DUP3 ADD SSTORE PUSH2 0x958 TIMESTAMP PUSH3 0x2A300 PUSH2 0xEAB JUMP JUMPDEST PUSH1 0x4 DUP3 ADD SSTORE PUSH1 0x5 DUP2 ADD DUP1 SLOAD PUSH1 0xFF NOT AND SWAP1 SSTORE PUSH1 0x2 SLOAD PUSH32 0x3417B456FAD6209C73445D5EFD446D686E75E4560F0F50C13B5A5CDE976447B4 SWAP1 PUSH2 0x99A SWAP1 PUSH1 0x1 SWAP1 PUSH2 0xEC4 JUMP JUMPDEST PUSH1 0x40 DUP1 MLOAD SWAP2 DUP3 MSTORE PUSH1 0x1 PUSH1 0x1 PUSH1 0xA0 SHL SUB DUP7 AND PUSH1 0x20 DUP4 ADD MSTORE DUP2 ADD DUP5 SWAP1 MSTORE PUSH1 0x60 ADD PUSH2 0x5E7 JUMP JUMPDEST PUSH0 PUSH2 0x9CA DUP3 DUP5 ADD DUP5 PUSH2 0xD49 JUMP JUMPDEST SWAP1 POP PUSH2 0x9D5 DUP2 PUSH2 0x645 JUMP JUMPDEST POP POP POP JUMP JUMPDEST PUSH2 0x9E2 PUSH2 0xCCE JUMP JUMPDEST PUSH1 0x5 SLOAD PUSH1 0x40 MLOAD PUSH4 0x1A4CA37B PUSH1 0xE2 SHL DUP2 MSTORE ADDRESS PUSH1 0x4 DUP3 ADD DUP2 SWAP1 MSTORE PUSH1 0x24 DUP3 ADD DUP5 SWAP1 MSTORE PUSH1 0x44 DUP3 ADD MSTORE PUSH1 0x1 PUSH1 0x1 PUSH1 0xA0 SHL SUB SWAP1 SWAP2 AND SWAP1 PUSH4 0x69328DEC SWAP1 PUSH1 0x64 ADD PUSH1 0x20 PUSH1 0x40 MLOAD DUP1 DUP4 SUB DUP2 PUSH0 DUP8 GAS CALL ISZERO DUP1 ISZERO PUSH2 0xA37 JUMPI RETURNDATASIZE PUSH0 DUP1 RETURNDATACOPY RETURNDATASIZE PUSH0 REVERT JUMPDEST POP POP POP POP PUSH1 0x40 MLOAD RETURNDATASIZE PUSH1 0x1F NOT PUSH1 0x1F DUP3 ADD AND DUP3 ADD DUP1 PUSH1 0x40 MSTORE POP DUP2 ADD SWAP1 PUSH2 0xA5B SWAP2 SWAP1 PUSH2 0xE80 JUMP JUMPDEST POP POP JUMP JUMPDEST PUSH2 0xA67 PUSH2 0xCCE JUMP JUMPDEST PUSH1 0x5 SLOAD PUSH1 0x40 MLOAD PUSH4 0xE8EDA9DF PUSH1 0xE0 SHL DUP2 MSTORE ADDRESS PUSH1 0x4 DUP3 ADD DUP2 SWAP1 MSTORE PUSH1 0x24 DUP3 ADD DUP5 SWAP1 MSTORE PUSH1 0x44 DUP3 ADD MSTORE PUSH0 PUSH1 0x64 DUP3 ADD MSTORE PUSH1 0x1 PUSH1 0x1 PUSH1 0xA0 SHL SUB SWAP1 SWAP2 AND SWAP1 PUSH4 0xE8EDA9DF SWAP1 PUSH1 0x84 ADD PUSH0 PUSH1 0x40 MLOAD DUP1 DUP4 SUB DUP2 PUSH0 DUP8 DUP1 EXTCODESIZE ISZERO DUP1 ISZERO PUSH2 0xABD JUMPI PUSH0 DUP1 REVERT JUMPDEST POP GAS CALL ISZERO DUP1 ISZERO PUSH2 0xACF JUMPI RETURNDATASIZE PUSH0 DUP1 RETURNDATACOPY RETURNDATASIZE PUSH0 REVERT JUMPDEST POP POP POP POP POP JUMP JUMPDEST PUSH0 PUSH1 0x60 PUSH0 JUMPDEST PUSH1 0x2 SLOAD DUP2 LT ISZERO PUSH2 0xBAF JUMPI PUSH1 0x2 DUP2 DUP2 SLOAD DUP2 LT PUSH2 0xAF8 JUMPI PUSH2 0xAF8 PUSH2 0xE6C JUMP JUMPDEST PUSH0 SWAP2 DUP3 MSTORE PUSH1 0x20 SWAP1 SWAP2 KECCAK256 PUSH1 0x5 PUSH1 0x7 SWAP1 SWAP3 MUL ADD ADD SLOAD PUSH1 0xFF AND ISZERO DUP1 ISZERO PUSH2 0xB46 JUMPI POP PUSH9 0x1B1AE4D6E2EF500000 PUSH1 0x2 DUP3 DUP2 SLOAD DUP2 LT PUSH2 0xB33 JUMPI PUSH2 0xB33 PUSH2 0xE6C JUMP JUMPDEST SWAP1 PUSH0 MSTORE PUSH1 0x20 PUSH0 KECCAK256 SWAP1 PUSH1 0x7 MUL ADD PUSH1 0x2 ADD SLOAD LT ISZERO JUMPDEST DUP1 ISZERO PUSH2 0xB74 JUMPI POP PUSH1 0x2 DUP2 DUP2 SLOAD DUP2 LT PUSH2 0xB60 JUMPI PUSH2 0xB60 PUSH2 0xE6C JUMP JUMPDEST SWAP1 PUSH0 MSTORE PUSH1 0x20 PUSH0 KECCAK256 SWAP1 PUSH1 0x7 MUL ADD PUSH1 0x4 ADD SLOAD TIMESTAMP LT ISZERO JUMPDEST ISZERO PUSH2 0xBA7 JUMPI PUSH1 0x1 DUP2 PUSH1 0x40 MLOAD PUSH1 0x20 ADD PUSH2 0xB8E SWAP2 DUP2 MSTORE PUSH1 0x20 ADD SWAP1 JUMP JUMPDEST PUSH1 0x40 MLOAD PUSH1 0x20 DUP2 DUP4 SUB SUB DUP2 MSTORE SWAP1 PUSH1 0x40 MSTORE SWAP3 POP SWAP3 POP POP PUSH2 0xBC3 JUMP JUMPDEST PUSH1 0x1 ADD PUSH2 0xADB JUMP JUMPDEST POP POP PUSH1 0x40 DUP1 MLOAD PUSH1 0x20 DUP2 ADD SWAP1 SWAP2 MSTORE PUSH0 DUP1 DUP3 MSTORE SWAP2 POP JUMPDEST SWAP3 POP SWAP3 SWAP1 POP JUMP JUMPDEST PUSH2 0xBD2 PUSH2 0xCCE JUMP JUMPDEST PUSH2 0xBDB PUSH0 PUSH2 0xCFA JUMP JUMPDEST JUMP JUMPDEST PUSH1 0x4 DUP1 SLOAD PUSH1 0x40 DUP1 MLOAD PUSH4 0x3FABE5A3 PUSH1 0xE2 SHL DUP2 MSTORE SWAP1 MLOAD PUSH0 SWAP4 DUP5 SWAP4 PUSH1 0x1 PUSH1 0x1 PUSH1 0xA0 SHL SUB AND SWAP3 PUSH4 0xFEAF968C SWAP3 DUP2 DUP4 ADD SWAP3 PUSH1 0xA0 SWAP3 DUP3 SWAP1 SUB ADD DUP2 DUP7 GAS STATICCALL ISZERO DUP1 ISZERO PUSH2 0xC23 JUMPI RETURNDATASIZE PUSH0 DUP1 RETURNDATACOPY RETURNDATASIZE PUSH0 REVERT JUMPDEST POP POP POP POP PUSH1 0x40 MLOAD RETURNDATASIZE PUSH1 0x1F NOT PUSH1 0x1F DUP3 ADD AND DUP3 ADD DUP1 PUSH1 0x40 MSTORE POP DUP2 ADD SWAP1 PUSH2 0xC47 SWAP2 SWAP1 PUSH2 0xEF5 JUMP JUMPDEST POP POP POP SWAP2 POP POP PUSH4 0x5F5E100 DUP2 PUSH2 0xC5D SWAP2 SWAP1 PUSH2 0xF43 JUMP JUMPDEST SWAP2 POP POP SWAP1 JUMP JUMPDEST PUSH2 0xC6B PUSH2 0xCCE JUMP JUMPDEST PUSH1 0x1 PUSH1 0x1 PUSH1 0xA0 SHL SUB AND PUSH0 SWAP1 DUP2 MSTORE PUSH1 0x1 PUSH1 0x20 DUP2 SWAP1 MSTORE PUSH1 0x40 SWAP1 SWAP2 KECCAK256 DUP1 SLOAD PUSH1 0xFF NOT AND SWAP1 SWAP2 OR SWAP1 SSTORE JUMP JUMPDEST PUSH2 0xC99 PUSH2 0xCCE JUMP JUMPDEST PUSH1 0x1 PUSH1 0x1 PUSH1 0xA0 SHL SUB DUP2 AND PUSH2 0xCC2 JUMPI PUSH1 0x40 MLOAD PUSH4 0x1E4FBDF7 PUSH1 0xE0 SHL DUP2 MSTORE PUSH0 PUSH1 0x4 DUP3 ADD MSTORE PUSH1 0x24 ADD PUSH2 0x3EA JUMP JUMPDEST PUSH2 0xCCB DUP2 PUSH2 0xCFA JUMP JUMPDEST POP JUMP JUMPDEST PUSH0 SLOAD PUSH1 0x1 PUSH1 0x1 PUSH1 0xA0 SHL SUB AND CALLER EQ PUSH2 0xBDB JUMPI PUSH1 0x40 MLOAD PUSH4 0x118CDAA7 PUSH1 0xE0 SHL DUP2 MSTORE CALLER PUSH1 0x4 DUP3 ADD MSTORE PUSH1 0x24 ADD PUSH2 0x3EA JUMP JUMPDEST PUSH0 DUP1 SLOAD PUSH1 0x1 PUSH1 0x1 PUSH1 0xA0 SHL SUB DUP4 DUP2 AND PUSH1 0x1 PUSH1 0x1 PUSH1 0xA0 SHL SUB NOT DUP4 AND DUP2 OR DUP5 SSTORE PUSH1 0x40 MLOAD SWAP2 SWAP1 SWAP3 AND SWAP3 DUP4 SWAP2 PUSH32 0x8BE0079C531659141344CD1FD0A4F28419497F9722A3DAAFE3B4186F6B6457E0 SWAP2 SWAP1 LOG3 POP POP JUMP JUMPDEST PUSH0 PUSH1 0x20 DUP3 DUP5 SUB SLT ISZERO PUSH2 0xD59 JUMPI PUSH0 DUP1 REVERT JUMPDEST POP CALLDATALOAD SWAP2 SWAP1 POP JUMP JUMPDEST PUSH1 0x1 PUSH1 0x1 PUSH1 0xA0 SHL SUB DUP2 AND DUP2 EQ PUSH2 0xCCB JUMPI PUSH0 DUP1 REVERT JUMPDEST PUSH0 PUSH1 0x20 DUP3 DUP5 SUB SLT ISZERO PUSH2 0xD84 JUMPI PUSH0 DUP1 REVERT JUMPDEST DUP2 CALLDATALOAD PUSH2 0xD8F DUP2 PUSH2 0xD60 JUMP JUMPDEST SWAP4 SWAP3 POP POP POP JUMP JUMPDEST PUSH0 DUP1 PUSH1 0x40 DUP4 DUP6 SUB SLT ISZERO PUSH2 0xDA7 JUMPI PUSH0 DUP1 REVERT JUMPDEST DUP3 CALLDATALOAD PUSH2 0xDB2 DUP2 PUSH2 0xD60 JUMP JUMPDEST SWAP5 PUSH1 0x20 SWAP4 SWAP1 SWAP4 ADD CALLDATALOAD SWAP4 POP POP POP JUMP JUMPDEST PUSH0 DUP1 PUSH1 0x20 DUP4 DUP6 SUB SLT ISZERO PUSH2 0xDD1 JUMPI PUSH0 DUP1 REVERT JUMPDEST DUP3 CALLDATALOAD PUSH8 0xFFFFFFFFFFFFFFFF DUP2 GT ISZERO PUSH2 0xDE7 JUMPI PUSH0 DUP1 REVERT JUMPDEST DUP4 ADD PUSH1 0x1F DUP2 ADD DUP6 SGT PUSH2 0xDF7 JUMPI PUSH0 DUP1 REVERT JUMPDEST DUP1 CALLDATALOAD PUSH8 0xFFFFFFFFFFFFFFFF DUP2 GT ISZERO PUSH2 0xE0D JUMPI PUSH0 DUP1 REVERT JUMPDEST DUP6 PUSH1 0x20 DUP3 DUP5 ADD ADD GT ISZERO PUSH2 0xE1E JUMPI PUSH0 DUP1 REVERT JUMPDEST PUSH1 0x20 SWAP2 SWAP1 SWAP2 ADD SWAP6 SWAP1 SWAP5 POP SWAP3 POP POP POP JUMP JUMPDEST DUP3 ISZERO ISZERO DUP2 MSTORE PUSH1 0x40 PUSH1 0x20 DUP3 ADD MSTORE PUSH0 DUP3 MLOAD DUP1 PUSH1 0x40 DUP5 ADD MSTORE DUP1 PUSH1 0x20 DUP6 ADD PUSH1 0x60 DUP6 ADD MCOPY PUSH0 PUSH1 0x60 DUP3 DUP6 ADD ADD MSTORE PUSH1 0x60 PUSH1 0x1F NOT PUSH1 0x1F DUP4 ADD AND DUP5 ADD ADD SWAP2 POP POP SWAP4 SWAP3 POP POP POP JUMP JUMPDEST PUSH4 0x4E487B71 PUSH1 0xE0 SHL PUSH0 MSTORE PUSH1 0x32 PUSH1 0x4 MSTORE PUSH1 0x24 PUSH0 REVERT JUMPDEST PUSH0 PUSH1 0x20 DUP3 DUP5 SUB SLT ISZERO PUSH2 0xE90 JUMPI PUSH0 DUP1 REVERT JUMPDEST POP MLOAD SWAP2 SWAP1 POP JUMP JUMPDEST PUSH4 0x4E487B71 PUSH1 0xE0 SHL PUSH0 MSTORE PUSH1 0x11 PUSH1 0x4 MSTORE PUSH1 0x24 PUSH0 REVERT JUMPDEST DUP1 DUP3 ADD DUP1 DUP3 GT ISZERO PUSH2 0xEBE JUMPI PUSH2 0xEBE PUSH2 0xE97 JUMP JUMPDEST SWAP3 SWAP2 POP POP JUMP JUMPDEST DUP2 DUP2 SUB DUP2 DUP2 GT ISZERO PUSH2 0xEBE JUMPI PUSH2 0xEBE PUSH2 0xE97 JUMP JUMPDEST DUP1 MLOAD PUSH10 0xFFFFFFFFFFFFFFFFFFFF DUP2 AND DUP2 EQ PUSH2 0xEF0 JUMPI PUSH0 DUP1 REVERT JUMPDEST SWAP2 SWAP1 POP JUMP JUMPDEST PUSH0 DUP1 PUSH0 DUP1 PUSH0 PUSH1 0xA0 DUP7 DUP9 SUB SLT ISZERO PUSH2 0xF09 JUMPI PUSH0 DUP1 REVERT JUMPDEST PUSH2 0xF12 DUP7 PUSH2 0xED7 JUMP JUMPDEST PUSH1 0x20 DUP8 ADD MLOAD PUSH1 0x40 DUP9 ADD MLOAD PUSH1 0x60 DUP10 ADD MLOAD SWAP3 SWAP8 POP SWAP1 SWAP6 POP SWAP4 POP SWAP2 POP PUSH2 0xF37 PUSH1 0x80 DUP8 ADD PUSH2 0xED7 JUMP JUMPDEST SWAP1 POP SWAP3 SWAP6 POP SWAP3 SWAP6 SWAP1 SWAP4 POP JUMP JUMPDEST PUSH0 DUP3 PUSH2 0xF5D JUMPI PUSH4 0x4E487B71 PUSH1 0xE0 SHL PUSH0 MSTORE PUSH1 0x12 PUSH1 0x4 MSTORE PUSH1 0x24 PUSH0 REVERT JUMPDEST POP DIV SWAP1 JUMP INVALID LOG2 PUSH5 0x6970667358 0x22 SLT KECCAK256 DUP11 PREVRANDAO SHL 0xAE DELEGATECALL PUSH30 0x9D791131CAA698271E20B7D36D467354E63EC0BEE1E2716DD86164736F6C PUSH4 0x4300081A STOP CALLER "
				},
				"gasEstimates": {
					"creation": {
						"codeDepositCost": "798400",
						"executionCost": "infinite",
						"totalCost": "infinite"
					},
					"external": {
						"addMember(address)": "26820",
						"checkUpkeep(bytes)": "infinite",
						"deposit()": "161",
						"depositToAave(uint256)": "infinite",
						"executeProposal(uint256)": "infinite",
						"getBalance()": "205",
						"getETHPrice()": "infinite",
						"governanceToken()": "2446",
						"lendingPool()": "2425",
						"members(address)": "2590",
						"minVoteDuration()": "2316",
						"owner()": "2385",
						"performUpkeep(bytes)": "infinite",
						"proposals(uint256)": "15337",
						"proposeFunding(address,uint256)": "infinite",
						"renounceOwnership()": "infinite",
						"transferOwnership(address)": "infinite",
						"vote(uint256)": "infinite",
						"withdrawFromAave(uint256)": "infinite"
					}
				},
				"methodIdentifiers": {
					"addMember(address)": "ca6d56dc",
					"checkUpkeep(bytes)": "6e04ff0d",
					"deposit()": "d0e30db0",
					"depositToAave(uint256)": "68fd2d80",
					"executeProposal(uint256)": "0d61b519",
					"getBalance()": "12065fe0",
					"getETHPrice()": "a607a8d9",
					"governanceToken()": "f96dae0a",
					"lendingPool()": "a59a9973",
					"members(address)": "08ae4b0c",
					"minVoteDuration()": "c00d2a8c",
					"owner()": "8da5cb5b",
					"performUpkeep(bytes)": "4585e33b",
					"proposals(uint256)": "013cf08b",
					"proposeFunding(address,uint256)": "237af348",
					"renounceOwnership()": "715018a6",
					"transferOwnership(address)": "f2fde38b",
					"vote(uint256)": "0121b93f",
					"withdrawFromAave(uint256)": "688f237b"
				}
			},
			"storageLayout": {
				"storage": [
					{
						"astId": 1277,
						"contract": "contracts/TreasuryDAO.sol:TreasuryDAO",
						"label": "_owner",
						"offset": 0,
						"slot": "0",
						"type": "t_address"
					},
					{
						"astId": 1556,
						"contract": "contracts/TreasuryDAO.sol:TreasuryDAO",
						"label": "members",
						"offset": 0,
						"slot": "1",
						"type": "t_mapping(t_address,t_bool)"
					},
					{
						"astId": 1560,
						"contract": "contracts/TreasuryDAO.sol:TreasuryDAO",
						"label": "proposals",
						"offset": 0,
						"slot": "2",
						"type": "t_array(t_struct(Proposal)1552_storage)dyn_storage"
					},
					{
						"astId": 1563,
						"contract": "contracts/TreasuryDAO.sol:TreasuryDAO",
						"label": "governanceToken",
						"offset": 0,
						"slot": "3",
						"type": "t_contract(IERC20)1494"
					},
					{
						"astId": 1566,
						"contract": "contracts/TreasuryDAO.sol:TreasuryDAO",
						"label": "priceFeed",
						"offset": 0,
						"slot": "4",
						"type": "t_contract(AggregatorV3Interface)1245"
					},
					{
						"astId": 1569,
						"contract": "contracts/TreasuryDAO.sol:TreasuryDAO",
						"label": "lendingPool",
						"offset": 0,
						"slot": "5",
						"type": "t_contract(IPool)638"
					},
					{
						"astId": 1572,
						"contract": "contracts/TreasuryDAO.sol:TreasuryDAO",
						"label": "minVoteDuration",
						"offset": 0,
						"slot": "6",
						"type": "t_uint256"
					}
				],
				"types": {
					"t_address": {
						"encoding": "inplace",
						"label": "address",
						"numberOfBytes": "20"
					},
					"t_address_payable": {
						"encoding": "inplace",
						"label": "address payable",
						"numberOfBytes": "20"
					},
					"t_array(t_struct(Proposal)1552_storage)dyn_storage": {
						"base": "t_struct(Proposal)1552_storage",
						"encoding": "dynamic_array",
						"label": "struct TreasuryDAO.Proposal[]",
						"numberOfBytes": "32"
					},
					"t_bool": {
						"encoding": "inplace",
						"label": "bool",
						"numberOfBytes": "1"
					},
					"t_contract(AggregatorV3Interface)1245": {
						"encoding": "inplace",
						"label": "contract AggregatorV3Interface",
						"numberOfBytes": "20"
					},
					"t_contract(IERC20)1494": {
						"encoding": "inplace",
						"label": "contract IERC20",
						"numberOfBytes": "20"
					},
					"t_contract(IPool)638": {
						"encoding": "inplace",
						"label": "contract IPool",
						"numberOfBytes": "20"
					},
					"t_mapping(t_address,t_bool)": {
						"encoding": "mapping",
						"key": "t_address",
						"label": "mapping(address => bool)",
						"numberOfBytes": "32",
						"value": "t_bool"
					},
					"t_struct(Proposal)1552_storage": {
						"encoding": "inplace",
						"label": "struct TreasuryDAO.Proposal",
						"members": [
							{
								"astId": 1537,
								"contract": "contracts/TreasuryDAO.sol:TreasuryDAO",
								"label": "recipient",
								"offset": 0,
								"slot": "0",
								"type": "t_address_payable"
							},
							{
								"astId": 1539,
								"contract": "contracts/TreasuryDAO.sol:TreasuryDAO",
								"label": "amount",
								"offset": 0,
								"slot": "1",
								"type": "t_uint256"
							},
							{
								"astId": 1541,
								"contract": "contracts/TreasuryDAO.sol:TreasuryDAO",
								"label": "votes",
								"offset": 0,
								"slot": "2",
								"type": "t_uint256"
							},
							{
								"astId": 1543,
								"contract": "contracts/TreasuryDAO.sol:TreasuryDAO",
								"label": "endTime",
								"offset": 0,
								"slot": "3",
								"type": "t_uint256"
							},
							{
								"astId": 1545,
								"contract": "contracts/TreasuryDAO.sol:TreasuryDAO",
								"label": "unlockTime",
								"offset": 0,
								"slot": "4",
								"type": "t_uint256"
							},
							{
								"astId": 1547,
								"contract": "contracts/TreasuryDAO.sol:TreasuryDAO",
								"label": "executed",
								"offset": 0,
								"slot": "5",
								"type": "t_bool"
							},
							{
								"astId": 1551,
								"contract": "contracts/TreasuryDAO.sol:TreasuryDAO",
								"label": "voted",
								"offset": 0,
								"slot": "6",
								"type": "t_mapping(t_address,t_bool)"
							}
						],
						"numberOfBytes": "224"
					},
					"t_uint256": {
						"encoding": "inplace",
						"label": "uint256",
						"numberOfBytes": "32"
					}
				}
			},
			"userdoc": {
				"kind": "user",
				"methods": {
					"performUpkeep(bytes)": {
						"notice": "method that is actually executed by the keepers, via the registry. The data returned by the checkUpkeep simulation will be passed into this method to actually be executed."
					}
				},
				"version": 1
			}
		}
	}
}