{
	"contracts/TreasuryDAO.sol": {
		"TreasuryDAO": {
			"abi": [
				{
					"inputs": [
						{
							"internalType": "address",
							"name": "tokenAddress",
							"type": "address"
						},
						{
							"internalType": "address",
							"name": "initialOwner",
							"type": "address"
						}
					],
					"stateMutability": "nonpayable",
					"type": "constructor"
				},
				{
					"inputs": [
						{
							"internalType": "address",
							"name": "owner",
							"type": "address"
						}
					],
					"name": "OwnableInvalidOwner",
					"type": "error"
				},
				{
					"inputs": [
						{
							"internalType": "address",
							"name": "account",
							"type": "address"
						}
					],
					"name": "OwnableUnauthorizedAccount",
					"type": "error"
				},
				{
					"anonymous": false,
					"inputs": [
						{
							"indexed": true,
							"internalType": "address",
							"name": "previousOwner",
							"type": "address"
						},
						{
							"indexed": true,
							"internalType": "address",
							"name": "newOwner",
							"type": "address"
						}
					],
					"name": "OwnershipTransferred",
					"type": "event"
				},
				{
					"anonymous": false,
					"inputs": [
						{
							"indexed": false,
							"internalType": "uint256",
							"name": "proposalId",
							"type": "uint256"
						},
						{
							"indexed": false,
							"internalType": "address",
							"name": "recipient",
							"type": "address"
						},
						{
							"indexed": false,
							"internalType": "uint256",
							"name": "amount",
							"type": "uint256"
						}
					],
					"name": "ProposalCreated",
					"type": "event"
				},
				{
					"anonymous": false,
					"inputs": [
						{
							"indexed": false,
							"internalType": "uint256",
							"name": "proposalId",
							"type": "uint256"
						}
					],
					"name": "ProposalExecuted",
					"type": "event"
				},
				{
					"anonymous": false,
					"inputs": [
						{
							"indexed": false,
							"internalType": "uint256",
							"name": "proposalId",
							"type": "uint256"
						},
						{
							"indexed": false,
							"internalType": "address",
							"name": "voter",
							"type": "address"
						},
						{
							"indexed": false,
							"internalType": "uint256",
							"name": "weight",
							"type": "uint256"
						}
					],
					"name": "Voted",
					"type": "event"
				},
				{
					"inputs": [
						{
							"internalType": "address",
							"name": "member",
							"type": "address"
						}
					],
					"name": "addMember",
					"outputs": [],
					"stateMutability": "nonpayable",
					"type": "function"
				},
				{
					"inputs": [],
					"name": "deposit",
					"outputs": [],
					"stateMutability": "payable",
					"type": "function"
				},
				{
					"inputs": [
						{
							"internalType": "uint256",
							"name": "proposalId",
							"type": "uint256"
						}
					],
					"name": "executeProposal",
					"outputs": [],
					"stateMutability": "nonpayable",
					"type": "function"
				},
				{
					"inputs": [],
					"name": "getBalance",
					"outputs": [
						{
							"internalType": "uint256",
							"name": "",
							"type": "uint256"
						}
					],
					"stateMutability": "view",
					"type": "function"
				},
				{
					"inputs": [],
					"name": "governanceToken",
					"outputs": [
						{
							"internalType": "contract IERC20",
							"name": "",
							"type": "address"
						}
					],
					"stateMutability": "view",
					"type": "function"
				},
				{
					"inputs": [
						{
							"internalType": "address",
							"name": "",
							"type": "address"
						}
					],
					"name": "members",
					"outputs": [
						{
							"internalType": "bool",
							"name": "",
							"type": "bool"
						}
					],
					"stateMutability": "view",
					"type": "function"
				},
				{
					"inputs": [],
					"name": "minVoteDuration",
					"outputs": [
						{
							"internalType": "uint256",
							"name": "",
							"type": "uint256"
						}
					],
					"stateMutability": "view",
					"type": "function"
				},
				{
					"inputs": [],
					"name": "owner",
					"outputs": [
						{
							"internalType": "address",
							"name": "",
							"type": "address"
						}
					],
					"stateMutability": "view",
					"type": "function"
				},
				{
					"inputs": [
						{
							"internalType": "uint256",
							"name": "",
							"type": "uint256"
						}
					],
					"name": "proposals",
					"outputs": [
						{
							"internalType": "address payable",
							"name": "recipient",
							"type": "address"
						},
						{
							"internalType": "uint256",
							"name": "amount",
							"type": "uint256"
						},
						{
							"internalType": "uint256",
							"name": "votes",
							"type": "uint256"
						},
						{
							"internalType": "uint256",
							"name": "endTime",
							"type": "uint256"
						},
						{
							"internalType": "bool",
							"name": "executed",
							"type": "bool"
						}
					],
					"stateMutability": "view",
					"type": "function"
				},
				{
					"inputs": [
						{
							"internalType": "address payable",
							"name": "recipient",
							"type": "address"
						},
						{
							"internalType": "uint256",
							"name": "amount",
							"type": "uint256"
						}
					],
					"name": "proposeFunding",
					"outputs": [],
					"stateMutability": "nonpayable",
					"type": "function"
				},
				{
					"inputs": [],
					"name": "renounceOwnership",
					"outputs": [],
					"stateMutability": "nonpayable",
					"type": "function"
				},
				{
					"inputs": [
						{
							"internalType": "address",
							"name": "newOwner",
							"type": "address"
						}
					],
					"name": "transferOwnership",
					"outputs": [],
					"stateMutability": "nonpayable",
					"type": "function"
				},
				{
					"inputs": [
						{
							"internalType": "uint256",
							"name": "proposalId",
							"type": "uint256"
						}
					],
					"name": "vote",
					"outputs": [],
					"stateMutability": "nonpayable",
					"type": "function"
				}
			],
			"devdoc": {
				"errors": {
					"OwnableInvalidOwner(address)": [
						{
							"details": "The owner is not a valid owner account. (eg. `address(0)`)"
						}
					],
					"OwnableUnauthorizedAccount(address)": [
						{
							"details": "The caller account is not authorized to perform an operation."
						}
					]
				},
				"kind": "dev",
				"methods": {
					"owner()": {
						"details": "Returns the address of the current owner."
					},
					"renounceOwnership()": {
						"details": "Leaves the contract without owner. It will not be possible to call `onlyOwner` functions. Can only be called by the current owner. NOTE: Renouncing ownership will leave the contract without an owner, thereby disabling any functionality that is only available to the owner."
					},
					"transferOwnership(address)": {
						"details": "Transfers ownership of the contract to a new account (`newOwner`). Can only be called by the current owner."
					}
				},
				"version": 1
			},
			"evm": {
				"assembly": "    /* \"contracts/TreasuryDAO.sol\":171:2828  contract TreasuryDAO is Ownable {... */\n  mstore(0x40, 0x80)\n    /* \"contracts/TreasuryDAO.sol\":543:549  1 days */\n  0x015180\n    /* \"contracts/TreasuryDAO.sol\":510:549  uint256 public minVoteDuration = 1 days */\n  0x04\n  sstore\n    /* \"contracts/TreasuryDAO.sol\":744:912  constructor(address tokenAddress, address initialOwner) Ownable(initialOwner) {... */\n  callvalue\n  dup1\n  iszero\n  tag_1\n  jumpi\n  0x00\n  dup1\n  revert\ntag_1:\n  pop\n  mload(0x40)\n  sub(codesize, bytecodeSize)\n  dup1\n  bytecodeSize\n  dup4\n  codecopy\n  dup2\n  add\n  0x40\n  dup2\n  swap1\n  mstore\n  tag_2\n  swap2\n  tag_3\n  jump\t// in\ntag_2:\n    /* \"contracts/TreasuryDAO.sol\":808:820  initialOwner */\n  dup1\n  sub(shl(0xa0, 0x01), 0x01)\n    /* \"@openzeppelin/contracts/access/Ownable.sol\":1273:1299  initialOwner == address(0) */\n  dup2\n  and\n    /* \"@openzeppelin/contracts/access/Ownable.sol\":1269:1364  if (initialOwner == address(0)) {... */\n  tag_7\n  jumpi\n    /* \"@openzeppelin/contracts/access/Ownable.sol\":1322:1353  OwnableInvalidOwner(address(0)) */\n  mload(0x40)\n  shl(0xe0, 0x1e4fbdf7)\n  dup2\n  mstore\n    /* \"@openzeppelin/contracts/access/Ownable.sol\":1350:1351  0 */\n  0x00\n    /* \"@openzeppelin/contracts/access/Ownable.sol\":1322:1353  OwnableInvalidOwner(address(0)) */\n  0x04\n  dup3\n  add\n    /* \"#utility.yul\":640:691   */\n  mstore\n    /* \"#utility.yul\":613:631   */\n  0x24\n  add\n    /* \"@openzeppelin/contracts/access/Ownable.sol\":1322:1353  OwnableInvalidOwner(address(0)) */\n  mload(0x40)\n  dup1\n  swap2\n  sub\n  swap1\n  revert\n    /* \"@openzeppelin/contracts/access/Ownable.sol\":1269:1364  if (initialOwner == address(0)) {... */\ntag_7:\n    /* \"@openzeppelin/contracts/access/Ownable.sol\":1373:1405  _transferOwnership(initialOwner) */\n  tag_10\n    /* \"@openzeppelin/contracts/access/Ownable.sol\":1392:1404  initialOwner */\n  dup2\n    /* \"@openzeppelin/contracts/access/Ownable.sol\":1373:1391  _transferOwnership */\n  tag_11\n    /* \"@openzeppelin/contracts/access/Ownable.sol\":1373:1405  _transferOwnership(initialOwner) */\n  jump\t// in\ntag_10:\n  pop\n    /* \"contracts/TreasuryDAO.sol\":831:846  governanceToken */\n  0x03\n    /* \"contracts/TreasuryDAO.sol\":831:869  governanceToken = IERC20(tokenAddress) */\n  dup1\n  sload\n  not(sub(shl(0xa0, 0x01), 0x01))\n  and\n  sub(shl(0xa0, 0x01), 0x01)\n  swap4\n  dup5\n  and\n  or\n  swap1\n  sstore\n    /* \"contracts/TreasuryDAO.sol\":878:899  members[initialOwner] */\n  and\n  0x00\n  swap1\n  dup2\n  mstore\n  0x01\n  0x20\n  dup2\n  swap1\n  mstore\n  0x40\n  swap1\n  swap2\n  keccak256\n    /* \"contracts/TreasuryDAO.sol\":878:906  members[initialOwner] = true */\n  dup1\n  sload\n  not(0xff)\n  and\n  swap1\n  swap2\n  or\n  swap1\n  sstore\n    /* \"contracts/TreasuryDAO.sol\":171:2828  contract TreasuryDAO is Ownable {... */\n  jump(tag_16)\n    /* \"@openzeppelin/contracts/access/Ownable.sol\":2912:3099  function _transferOwnership(address newOwner) internal virtual {... */\ntag_11:\n    /* \"@openzeppelin/contracts/access/Ownable.sol\":2985:3001  address oldOwner */\n  0x00\n    /* \"@openzeppelin/contracts/access/Ownable.sol\":3004:3010  _owner */\n  dup1\n  sload\n  sub(shl(0xa0, 0x01), 0x01)\n    /* \"@openzeppelin/contracts/access/Ownable.sol\":3020:3037  _owner = newOwner */\n  dup4\n  dup2\n  and\n  not(sub(shl(0xa0, 0x01), 0x01))\n  dup4\n  and\n  dup2\n  or\n  dup5\n  sstore\n    /* \"@openzeppelin/contracts/access/Ownable.sol\":3052:3092  OwnershipTransferred(oldOwner, newOwner) */\n  mload(0x40)\n    /* \"@openzeppelin/contracts/access/Ownable.sol\":3004:3010  _owner */\n  swap2\n  swap1\n  swap3\n  and\n  swap3\n  dup4\n  swap2\n    /* \"@openzeppelin/contracts/access/Ownable.sol\":3052:3092  OwnershipTransferred(oldOwner, newOwner) */\n  0x8be0079c531659141344cd1fd0a4f28419497f9722a3daafe3b4186f6b6457e0\n  swap2\n    /* \"@openzeppelin/contracts/access/Ownable.sol\":2985:3001  address oldOwner */\n  swap1\n    /* \"@openzeppelin/contracts/access/Ownable.sol\":3052:3092  OwnershipTransferred(oldOwner, newOwner) */\n  log3\n    /* \"@openzeppelin/contracts/access/Ownable.sol\":2975:3099  {... */\n  pop\n    /* \"@openzeppelin/contracts/access/Ownable.sol\":2912:3099  function _transferOwnership(address newOwner) internal virtual {... */\n  pop\n  jump\t// out\n    /* \"#utility.yul\":14:191   */\ntag_15:\n    /* \"#utility.yul\":93:106   */\n  dup1\n  mload\n  sub(shl(0xa0, 0x01), 0x01)\n    /* \"#utility.yul\":135:166   */\n  dup2\n  and\n    /* \"#utility.yul\":125:167   */\n  dup2\n  eq\n    /* \"#utility.yul\":115:185   */\n  tag_18\n  jumpi\n    /* \"#utility.yul\":181:182   */\n  0x00\n    /* \"#utility.yul\":178:179   */\n  dup1\n    /* \"#utility.yul\":171:183   */\n  revert\n    /* \"#utility.yul\":115:185   */\ntag_18:\n    /* \"#utility.yul\":14:191   */\n  swap2\n  swap1\n  pop\n  jump\t// out\n    /* \"#utility.yul\":196:489   */\ntag_3:\n    /* \"#utility.yul\":275:281   */\n  0x00\n    /* \"#utility.yul\":283:289   */\n  dup1\n    /* \"#utility.yul\":336:338   */\n  0x40\n    /* \"#utility.yul\":324:333   */\n  dup4\n    /* \"#utility.yul\":315:322   */\n  dup6\n    /* \"#utility.yul\":311:334   */\n  sub\n    /* \"#utility.yul\":307:339   */\n  slt\n    /* \"#utility.yul\":304:356   */\n  iszero\n  tag_20\n  jumpi\n    /* \"#utility.yul\":352:353   */\n  0x00\n    /* \"#utility.yul\":349:350   */\n  dup1\n    /* \"#utility.yul\":342:354   */\n  revert\n    /* \"#utility.yul\":304:356   */\ntag_20:\n    /* \"#utility.yul\":375:415   */\n  tag_21\n    /* \"#utility.yul\":405:414   */\n  dup4\n    /* \"#utility.yul\":375:415   */\n  tag_15\n  jump\t// in\ntag_21:\n    /* \"#utility.yul\":365:415   */\n  swap2\n  pop\n    /* \"#utility.yul\":434:483   */\n  tag_22\n    /* \"#utility.yul\":479:481   */\n  0x20\n    /* \"#utility.yul\":468:477   */\n  dup5\n    /* \"#utility.yul\":464:482   */\n  add\n    /* \"#utility.yul\":434:483   */\n  tag_15\n  jump\t// in\ntag_22:\n    /* \"#utility.yul\":424:483   */\n  swap1\n  pop\n    /* \"#utility.yul\":196:489   */\n  swap3\n  pop\n  swap3\n  swap1\n  pop\n  jump\t// out\n    /* \"#utility.yul\":494:697   */\ntag_16:\n    /* \"contracts/TreasuryDAO.sol\":171:2828  contract TreasuryDAO is Ownable {... */\n  dataSize(sub_0)\n  dup1\n  dataOffset(sub_0)\n  0x00\n  codecopy\n  0x00\n  return\nstop\n\nsub_0: assembly {\n        /* \"contracts/TreasuryDAO.sol\":171:2828  contract TreasuryDAO is Ownable {... */\n      mstore(0x40, 0x80)\n      jumpi(tag_1, lt(calldatasize, 0x04))\n      shr(0xe0, calldataload(0x00))\n      dup1\n      0x715018a6\n      gt\n      tag_15\n      jumpi\n      dup1\n      0xca6d56dc\n      gt\n      tag_16\n      jumpi\n      dup1\n      0xca6d56dc\n      eq\n      tag_11\n      jumpi\n      dup1\n      0xd0e30db0\n      eq\n      tag_18\n      jumpi\n      dup1\n      0xf2fde38b\n      eq\n      tag_13\n      jumpi\n      dup1\n      0xf96dae0a\n      eq\n      tag_14\n      jumpi\n      0x00\n      dup1\n      revert\n    tag_16:\n      dup1\n      0x715018a6\n      eq\n      tag_8\n      jumpi\n      dup1\n      0x8da5cb5b\n      eq\n      tag_9\n      jumpi\n      dup1\n      0xc00d2a8c\n      eq\n      tag_10\n      jumpi\n      0x00\n      dup1\n      revert\n    tag_15:\n      dup1\n      0x0121b93f\n      eq\n      tag_2\n      jumpi\n      dup1\n      0x013cf08b\n      eq\n      tag_3\n      jumpi\n      dup1\n      0x08ae4b0c\n      eq\n      tag_4\n      jumpi\n      dup1\n      0x0d61b519\n      eq\n      tag_5\n      jumpi\n      dup1\n      0x12065fe0\n      eq\n      tag_6\n      jumpi\n      dup1\n      0x237af348\n      eq\n      tag_7\n      jumpi\n    tag_1:\n      0x00\n      dup1\n      revert\n        /* \"contracts/TreasuryDAO.sol\":1670:2206  function vote(uint proposalId) public onlyMember {... */\n    tag_2:\n      callvalue\n      dup1\n      iszero\n      tag_17\n      jumpi\n      0x00\n      dup1\n      revert\n    tag_17:\n      pop\n      tag_18\n      tag_19\n      calldatasize\n      0x04\n      tag_20\n      jump\t// in\n    tag_19:\n      tag_21\n      jump\t// in\n    tag_18:\n      stop\n        /* \"contracts/TreasuryDAO.sol\":444:471  Proposal[] public proposals */\n    tag_3:\n      callvalue\n      dup1\n      iszero\n      tag_22\n      jumpi\n      0x00\n      dup1\n      revert\n    tag_22:\n      pop\n      tag_23\n      tag_24\n      calldatasize\n      0x04\n      tag_20\n      jump\t// in\n    tag_24:\n      tag_25\n      jump\t// in\n    tag_23:\n      0x40\n      dup1\n      mload\n      sub(shl(0xa0, 0x01), 0x01)\n        /* \"#utility.yul\":532:564   */\n      swap1\n      swap7\n      and\n        /* \"#utility.yul\":514:565   */\n      dup7\n      mstore\n        /* \"#utility.yul\":596:598   */\n      0x20\n        /* \"#utility.yul\":581:599   */\n      dup7\n      add\n        /* \"#utility.yul\":574:608   */\n      swap5\n      swap1\n      swap5\n      mstore\n        /* \"#utility.yul\":624:642   */\n      swap3\n      dup5\n      add\n        /* \"#utility.yul\":617:651   */\n      swap2\n      swap1\n      swap2\n      mstore\n        /* \"#utility.yul\":682:684   */\n      0x60\n        /* \"#utility.yul\":667:685   */\n      dup4\n      add\n        /* \"#utility.yul\":660:694   */\n      mstore\n        /* \"#utility.yul\":738:752   */\n      iszero\n        /* \"#utility.yul\":731:753   */\n      iszero\n        /* \"#utility.yul\":725:728   */\n      0x80\n        /* \"#utility.yul\":710:729   */\n      dup3\n      add\n        /* \"#utility.yul\":703:754   */\n      mstore\n        /* \"#utility.yul\":501:504   */\n      0xa0\n        /* \"#utility.yul\":486:505   */\n      add\n        /* \"contracts/TreasuryDAO.sol\":444:471  Proposal[] public proposals */\n    tag_26:\n      mload(0x40)\n      dup1\n      swap2\n      sub\n      swap1\n      return\n        /* \"contracts/TreasuryDAO.sol\":400:439  mapping(address => bool) public members */\n    tag_4:\n      callvalue\n      dup1\n      iszero\n      tag_28\n      jumpi\n      0x00\n      dup1\n      revert\n    tag_28:\n      pop\n      tag_29\n      tag_30\n      calldatasize\n      0x04\n      tag_31\n      jump\t// in\n    tag_30:\n      mstore(0x20, 0x01)\n      0x00\n      swap1\n      dup2\n      mstore\n      0x40\n      swap1\n      keccak256\n      sload\n      0xff\n      and\n      dup2\n      jump\n    tag_29:\n      mload(0x40)\n        /* \"#utility.yul\":1318:1332   */\n      swap1\n      iszero\n        /* \"#utility.yul\":1311:1333   */\n      iszero\n        /* \"#utility.yul\":1293:1334   */\n      dup2\n      mstore\n        /* \"#utility.yul\":1281:1283   */\n      0x20\n        /* \"#utility.yul\":1266:1284   */\n      add\n        /* \"contracts/TreasuryDAO.sol\":400:439  mapping(address => bool) public members */\n      tag_26\n        /* \"#utility.yul\":1153:1340   */\n      jump\n        /* \"contracts/TreasuryDAO.sol\":2212:2683  function executeProposal(uint proposalId) public {... */\n    tag_5:\n      callvalue\n      dup1\n      iszero\n      tag_35\n      jumpi\n      0x00\n      dup1\n      revert\n    tag_35:\n      pop\n      tag_18\n      tag_37\n      calldatasize\n      0x04\n      tag_20\n      jump\t// in\n    tag_37:\n      tag_38\n      jump\t// in\n        /* \"contracts/TreasuryDAO.sol\":2731:2826  function getBalance() public view returns (uint256) {... */\n    tag_6:\n      callvalue\n      dup1\n      iszero\n      tag_39\n      jumpi\n      0x00\n      dup1\n      revert\n    tag_39:\n      pop\n        /* \"contracts/TreasuryDAO.sol\":2799:2820  address(this).balance */\n      selfbalance\n        /* \"contracts/TreasuryDAO.sol\":2731:2826  function getBalance() public view returns (uint256) {... */\n    tag_40:\n      mload(0x40)\n        /* \"#utility.yul\":1491:1516   */\n      swap1\n      dup2\n      mstore\n        /* \"#utility.yul\":1479:1481   */\n      0x20\n        /* \"#utility.yul\":1464:1482   */\n      add\n        /* \"contracts/TreasuryDAO.sol\":2731:2826  function getBalance() public view returns (uint256) {... */\n      tag_26\n        /* \"#utility.yul\":1345:1522   */\n      jump\n        /* \"contracts/TreasuryDAO.sol\":1114:1664  function proposeFunding(address payable recipient, uint256 amount) public onlyMember {... */\n    tag_7:\n      callvalue\n      dup1\n      iszero\n      tag_44\n      jumpi\n      0x00\n      dup1\n      revert\n    tag_44:\n      pop\n      tag_18\n      tag_46\n      calldatasize\n      0x04\n      tag_47\n      jump\t// in\n    tag_46:\n      tag_48\n      jump\t// in\n        /* \"@openzeppelin/contracts/access/Ownable.sol\":2293:2394  function renounceOwnership() public virtual onlyOwner {... */\n    tag_8:\n      callvalue\n      dup1\n      iszero\n      tag_49\n      jumpi\n      0x00\n      dup1\n      revert\n    tag_49:\n      pop\n      tag_18\n      tag_51\n      jump\t// in\n        /* \"@openzeppelin/contracts/access/Ownable.sol\":1638:1723  function owner() public view virtual returns (address) {... */\n    tag_9:\n      callvalue\n      dup1\n      iszero\n      tag_52\n      jumpi\n      0x00\n      dup1\n      revert\n    tag_52:\n      pop\n        /* \"@openzeppelin/contracts/access/Ownable.sol\":1684:1691  address */\n      0x00\n        /* \"@openzeppelin/contracts/access/Ownable.sol\":1710:1716  _owner */\n      sload\n      sub(shl(0xa0, 0x01), 0x01)\n      and\n        /* \"@openzeppelin/contracts/access/Ownable.sol\":1638:1723  function owner() public view virtual returns (address) {... */\n    tag_53:\n      mload(0x40)\n      sub(shl(0xa0, 0x01), 0x01)\n        /* \"#utility.yul\":2071:2103   */\n      swap1\n      swap2\n      and\n        /* \"#utility.yul\":2053:2104   */\n      dup2\n      mstore\n        /* \"#utility.yul\":2041:2043   */\n      0x20\n        /* \"#utility.yul\":2026:2044   */\n      add\n        /* \"@openzeppelin/contracts/access/Ownable.sol\":1638:1723  function owner() public view virtual returns (address) {... */\n      tag_26\n        /* \"#utility.yul\":1907:2110   */\n      jump\n        /* \"contracts/TreasuryDAO.sol\":510:549  uint256 public minVoteDuration = 1 days */\n    tag_10:\n      callvalue\n      dup1\n      iszero\n      tag_57\n      jumpi\n      0x00\n      dup1\n      revert\n    tag_57:\n      pop\n      tag_40\n      sload(0x04)\n      dup2\n      jump\n        /* \"contracts/TreasuryDAO.sol\":1019:1108  function addMember(address member) public onlyOwner {... */\n    tag_11:\n      callvalue\n      dup1\n      iszero\n      tag_61\n      jumpi\n      0x00\n      dup1\n      revert\n    tag_61:\n      pop\n      tag_18\n      tag_63\n      calldatasize\n      0x04\n      tag_31\n      jump\t// in\n    tag_63:\n      tag_64\n      jump\t// in\n        /* \"@openzeppelin/contracts/access/Ownable.sol\":2543:2758  function transferOwnership(address newOwner) public virtual onlyOwner {... */\n    tag_13:\n      callvalue\n      dup1\n      iszero\n      tag_67\n      jumpi\n      0x00\n      dup1\n      revert\n    tag_67:\n      pop\n      tag_18\n      tag_69\n      calldatasize\n      0x04\n      tag_31\n      jump\t// in\n    tag_69:\n      tag_70\n      jump\t// in\n        /* \"contracts/TreasuryDAO.sol\":476:505  IERC20 public governanceToken */\n    tag_14:\n      callvalue\n      dup1\n      iszero\n      tag_71\n      jumpi\n      0x00\n      dup1\n      revert\n    tag_71:\n      pop\n      sload(0x03)\n      tag_53\n      swap1\n      sub(shl(0xa0, 0x01), 0x01)\n      and\n      dup2\n      jump\n        /* \"contracts/TreasuryDAO.sol\":1670:2206  function vote(uint proposalId) public onlyMember {... */\n    tag_21:\n        /* \"contracts/TreasuryDAO.sol\":965:975  msg.sender */\n      caller\n        /* \"contracts/TreasuryDAO.sol\":957:976  members[msg.sender] */\n      0x00\n      swap1\n      dup2\n      mstore\n        /* \"contracts/TreasuryDAO.sol\":957:964  members */\n      0x01\n        /* \"contracts/TreasuryDAO.sol\":957:976  members[msg.sender] */\n      0x20\n      mstore\n      0x40\n      swap1\n      keccak256\n      sload\n      0xff\n      and\n        /* \"contracts/TreasuryDAO.sol\":949:997  require(members[msg.sender], \"Not a DAO member\") */\n      tag_77\n      jumpi\n      mload(0x40)\n      shl(0xe5, 0x461bcd)\n      dup2\n      mstore\n        /* \"#utility.yul\":2539:2541   */\n      0x20\n        /* \"contracts/TreasuryDAO.sol\":949:997  require(members[msg.sender], \"Not a DAO member\") */\n      0x04\n      dup3\n      add\n        /* \"#utility.yul\":2521:2542   */\n      mstore\n        /* \"#utility.yul\":2578:2580   */\n      0x10\n        /* \"#utility.yul\":2558:2576   */\n      0x24\n      dup3\n      add\n        /* \"#utility.yul\":2551:2581   */\n      mstore\n      shl(0x81, 0x2737ba1030902220a79036b2b6b132b9)\n        /* \"#utility.yul\":2597:2615   */\n      0x44\n      dup3\n      add\n        /* \"#utility.yul\":2590:2636   */\n      mstore\n        /* \"#utility.yul\":2653:2671   */\n      0x64\n      add\n        /* \"contracts/TreasuryDAO.sol\":949:997  require(members[msg.sender], \"Not a DAO member\") */\n    tag_78:\n      mload(0x40)\n      dup1\n      swap2\n      sub\n      swap1\n      revert\n    tag_77:\n        /* \"contracts/TreasuryDAO.sol\":1728:1753  Proposal storage proposal */\n      0x00\n        /* \"contracts/TreasuryDAO.sol\":1756:1765  proposals */\n      0x02\n        /* \"contracts/TreasuryDAO.sol\":1766:1776  proposalId */\n      dup3\n        /* \"contracts/TreasuryDAO.sol\":1756:1777  proposals[proposalId] */\n      dup2\n      sload\n      dup2\n      lt\n      tag_82\n      jumpi\n      tag_82\n      tag_83\n      jump\t// in\n    tag_82:\n      0x00\n      swap2\n      dup3\n      mstore\n      0x20\n      dup1\n      dup4\n      keccak256\n        /* \"contracts/TreasuryDAO.sol\":1810:1820  msg.sender */\n      caller\n        /* \"contracts/TreasuryDAO.sol\":1795:1821  proposal.voted[msg.sender] */\n      dup5\n      mstore\n        /* \"contracts/TreasuryDAO.sol\":1795:1809  proposal.voted */\n      0x05\n        /* \"contracts/TreasuryDAO.sol\":1756:1777  proposals[proposalId] */\n      0x06\n      swap1\n      swap4\n      mul\n      add\n        /* \"contracts/TreasuryDAO.sol\":1795:1809  proposal.voted */\n      swap2\n      dup3\n      add\n        /* \"contracts/TreasuryDAO.sol\":1795:1821  proposal.voted[msg.sender] */\n      swap1\n      mstore\n      0x40\n      swap1\n      swap2\n      keccak256\n      sload\n        /* \"contracts/TreasuryDAO.sol\":1756:1777  proposals[proposalId] */\n      swap1\n      swap2\n      pop\n        /* \"contracts/TreasuryDAO.sol\":1795:1821  proposal.voted[msg.sender] */\n      0xff\n      and\n        /* \"contracts/TreasuryDAO.sol\":1794:1821  !proposal.voted[msg.sender] */\n      iszero\n        /* \"contracts/TreasuryDAO.sol\":1786:1839  require(!proposal.voted[msg.sender], \"Already voted\") */\n      tag_85\n      jumpi\n      mload(0x40)\n      shl(0xe5, 0x461bcd)\n      dup2\n      mstore\n        /* \"#utility.yul\":3016:3018   */\n      0x20\n        /* \"contracts/TreasuryDAO.sol\":1786:1839  require(!proposal.voted[msg.sender], \"Already voted\") */\n      0x04\n      dup3\n      add\n        /* \"#utility.yul\":2998:3019   */\n      mstore\n        /* \"#utility.yul\":3055:3057   */\n      0x0d\n        /* \"#utility.yul\":3035:3053   */\n      0x24\n      dup3\n      add\n        /* \"#utility.yul\":3028:3058   */\n      mstore\n      shl(0x9a, 0x105b1c9958591e481d9bdd1959)\n        /* \"#utility.yul\":3074:3092   */\n      0x44\n      dup3\n      add\n        /* \"#utility.yul\":3067:3110   */\n      mstore\n        /* \"#utility.yul\":3127:3145   */\n      0x64\n      add\n        /* \"contracts/TreasuryDAO.sol\":1786:1839  require(!proposal.voted[msg.sender], \"Already voted\") */\n      tag_78\n        /* \"#utility.yul\":2814:3151   */\n      jump\n        /* \"contracts/TreasuryDAO.sol\":1786:1839  require(!proposal.voted[msg.sender], \"Already voted\") */\n    tag_85:\n        /* \"contracts/TreasuryDAO.sol\":1874:1882  proposal */\n      dup1\n        /* \"contracts/TreasuryDAO.sol\":1874:1890  proposal.endTime */\n      0x03\n      add\n      sload\n        /* \"contracts/TreasuryDAO.sol\":1856:1871  block.timestamp */\n      timestamp\n        /* \"contracts/TreasuryDAO.sol\":1856:1890  block.timestamp < proposal.endTime */\n      lt\n        /* \"contracts/TreasuryDAO.sol\":1848:1914  require(block.timestamp < proposal.endTime, \"Voting period ended\") */\n      tag_88\n      jumpi\n      mload(0x40)\n      shl(0xe5, 0x461bcd)\n      dup2\n      mstore\n        /* \"#utility.yul\":3358:3360   */\n      0x20\n        /* \"contracts/TreasuryDAO.sol\":1848:1914  require(block.timestamp < proposal.endTime, \"Voting period ended\") */\n      0x04\n      dup3\n      add\n        /* \"#utility.yul\":3340:3361   */\n      mstore\n        /* \"#utility.yul\":3397:3399   */\n      0x13\n        /* \"#utility.yul\":3377:3395   */\n      0x24\n      dup3\n      add\n        /* \"#utility.yul\":3370:3400   */\n      mstore\n      shl(0x6a, 0x159bdd1a5b99c81c195c9a5bd908195b991959)\n        /* \"#utility.yul\":3416:3434   */\n      0x44\n      dup3\n      add\n        /* \"#utility.yul\":3409:3458   */\n      mstore\n        /* \"#utility.yul\":3475:3493   */\n      0x64\n      add\n        /* \"contracts/TreasuryDAO.sol\":1848:1914  require(block.timestamp < proposal.endTime, \"Voting period ended\") */\n      tag_78\n        /* \"#utility.yul\":3156:3499   */\n      jump\n        /* \"contracts/TreasuryDAO.sol\":1848:1914  require(block.timestamp < proposal.endTime, \"Voting period ended\") */\n    tag_88:\n        /* \"contracts/TreasuryDAO.sol\":1948:1963  governanceToken */\n      sload(0x03)\n        /* \"contracts/TreasuryDAO.sol\":1948:1985  governanceToken.balanceOf(msg.sender) */\n      mload(0x40)\n      shl(0xe0, 0x70a08231)\n      dup2\n      mstore\n        /* \"contracts/TreasuryDAO.sol\":1974:1984  msg.sender */\n      caller\n        /* \"contracts/TreasuryDAO.sol\":1948:1985  governanceToken.balanceOf(msg.sender) */\n      0x04\n      dup3\n      add\n        /* \"#utility.yul\":2053:2104   */\n      mstore\n        /* \"contracts/TreasuryDAO.sol\":1925:1945  uint256 voterBalance */\n      0x00\n      swap2\n      sub(shl(0xa0, 0x01), 0x01)\n        /* \"contracts/TreasuryDAO.sol\":1948:1963  governanceToken */\n      and\n      swap1\n        /* \"contracts/TreasuryDAO.sol\":1948:1973  governanceToken.balanceOf */\n      0x70a08231\n      swap1\n        /* \"#utility.yul\":2026:2044   */\n      0x24\n      add\n        /* \"contracts/TreasuryDAO.sol\":1948:1985  governanceToken.balanceOf(msg.sender) */\n      0x20\n      mload(0x40)\n      dup1\n      dup4\n      sub\n      dup2\n      dup7\n      gas\n      staticcall\n      iszero\n      dup1\n      iszero\n      tag_93\n      jumpi\n      returndatasize\n      0x00\n      dup1\n      returndatacopy\n      revert(0x00, returndatasize)\n    tag_93:\n      pop\n      pop\n      pop\n      pop\n      mload(0x40)\n      returndatasize\n      not(0x1f)\n      0x1f\n      dup3\n      add\n      and\n      dup3\n      add\n      dup1\n      0x40\n      mstore\n      pop\n      dup2\n      add\n      swap1\n      tag_94\n      swap2\n      swap1\n      tag_95\n      jump\t// in\n    tag_94:\n        /* \"contracts/TreasuryDAO.sol\":1925:1985  uint256 voterBalance = governanceToken.balanceOf(msg.sender) */\n      swap1\n      pop\n        /* \"contracts/TreasuryDAO.sol\":2017:2018  0 */\n      0x00\n        /* \"contracts/TreasuryDAO.sol\":2002:2014  voterBalance */\n      dup2\n        /* \"contracts/TreasuryDAO.sol\":2002:2018  voterBalance > 0 */\n      gt\n        /* \"contracts/TreasuryDAO.sol\":1994:2058  require(voterBalance > 0, \"Must hold governance tokens to vote\") */\n      tag_96\n      jumpi\n      mload(0x40)\n      shl(0xe5, 0x461bcd)\n      dup2\n      mstore\n        /* \"#utility.yul\":3895:3897   */\n      0x20\n        /* \"contracts/TreasuryDAO.sol\":1994:2058  require(voterBalance > 0, \"Must hold governance tokens to vote\") */\n      0x04\n      dup3\n      add\n        /* \"#utility.yul\":3877:3898   */\n      mstore\n        /* \"#utility.yul\":3934:3936   */\n      0x23\n        /* \"#utility.yul\":3914:3932   */\n      0x24\n      dup3\n      add\n        /* \"#utility.yul\":3907:3937   */\n      mstore\n        /* \"#utility.yul\":3973:4007   */\n      0x4d75737420686f6c6420676f7665726e616e636520746f6b656e7320746f2076\n        /* \"#utility.yul\":3953:3971   */\n      0x44\n      dup3\n      add\n        /* \"#utility.yul\":3946:4008   */\n      mstore\n      shl(0xe8, 0x6f7465)\n        /* \"#utility.yul\":4024:4042   */\n      0x64\n      dup3\n      add\n        /* \"#utility.yul\":4017:4050   */\n      mstore\n        /* \"#utility.yul\":4067:4086   */\n      0x84\n      add\n        /* \"contracts/TreasuryDAO.sol\":1994:2058  require(voterBalance > 0, \"Must hold governance tokens to vote\") */\n      tag_78\n        /* \"#utility.yul\":3693:4092   */\n      jump\n        /* \"contracts/TreasuryDAO.sol\":1994:2058  require(voterBalance > 0, \"Must hold governance tokens to vote\") */\n    tag_96:\n        /* \"contracts/TreasuryDAO.sol\":2087:2099  voterBalance */\n      dup1\n        /* \"contracts/TreasuryDAO.sol\":2069:2077  proposal */\n      dup3\n        /* \"contracts/TreasuryDAO.sol\":2069:2083  proposal.votes */\n      0x02\n      add\n      0x00\n        /* \"contracts/TreasuryDAO.sol\":2069:2099  proposal.votes += voterBalance */\n      dup3\n      dup3\n      sload\n      tag_99\n      swap2\n      swap1\n      tag_100\n      jump\t// in\n    tag_99:\n      swap1\n      swap2\n      sstore\n      pop\n      pop\n        /* \"contracts/TreasuryDAO.sol\":2123:2133  msg.sender */\n      caller\n        /* \"contracts/TreasuryDAO.sol\":2108:2134  proposal.voted[msg.sender] */\n      0x00\n      dup2\n      dup2\n      mstore\n        /* \"contracts/TreasuryDAO.sol\":2108:2122  proposal.voted */\n      0x05\n      dup5\n      add\n        /* \"contracts/TreasuryDAO.sol\":2108:2134  proposal.voted[msg.sender] */\n      0x20\n      swap1\n      dup2\n      mstore\n      0x40\n      swap2\n      dup3\n      swap1\n      keccak256\n        /* \"contracts/TreasuryDAO.sol\":2108:2141  proposal.voted[msg.sender] = true */\n      dup1\n      sload\n      not(0xff)\n      and\n        /* \"contracts/TreasuryDAO.sol\":2137:2141  true */\n      0x01\n        /* \"contracts/TreasuryDAO.sol\":2108:2141  proposal.voted[msg.sender] = true */\n      or\n      swap1\n      sstore\n        /* \"contracts/TreasuryDAO.sol\":2157:2200  Voted(proposalId, msg.sender, voterBalance) */\n      dup2\n      mload\n        /* \"#utility.yul\":4561:4586   */\n      dup7\n      dup2\n      mstore\n        /* \"#utility.yul\":4602:4620   */\n      swap1\n      dup2\n      add\n        /* \"#utility.yul\":4595:4655   */\n      swap3\n      swap1\n      swap3\n      mstore\n        /* \"#utility.yul\":4671:4689   */\n      dup2\n      add\n        /* \"#utility.yul\":4664:4698   */\n      dup3\n      swap1\n      mstore\n        /* \"contracts/TreasuryDAO.sol\":2157:2200  Voted(proposalId, msg.sender, voterBalance) */\n      0x1abe610cf2bf87e57dcc1181fcf5ac0934e843d8344ab9eed6e86c799f62585e\n      swap1\n        /* \"#utility.yul\":4549:4551   */\n      0x60\n        /* \"#utility.yul\":4534:4552   */\n      add\n        /* \"contracts/TreasuryDAO.sol\":2157:2200  Voted(proposalId, msg.sender, voterBalance) */\n    tag_101:\n      mload(0x40)\n      dup1\n      swap2\n      sub\n      swap1\n      log1\n        /* \"contracts/TreasuryDAO.sol\":1719:2206  {... */\n      pop\n      pop\n        /* \"contracts/TreasuryDAO.sol\":1670:2206  function vote(uint proposalId) public onlyMember {... */\n      pop\n      jump\t// out\n        /* \"contracts/TreasuryDAO.sol\":444:471  Proposal[] public proposals */\n    tag_25:\n      0x02\n      dup2\n      dup2\n      sload\n      dup2\n      lt\n      tag_103\n      jumpi\n      0x00\n      dup1\n      revert\n    tag_103:\n      0x00\n      swap2\n      dup3\n      mstore\n      0x20\n      swap1\n      swap2\n      keccak256\n      0x06\n      swap1\n      swap2\n      mul\n      add\n      dup1\n      sload\n      0x01\n      dup3\n      add\n      sload\n      0x02\n      dup4\n      add\n      sload\n      0x03\n      dup5\n      add\n      sload\n      0x04\n      swap1\n      swap5\n      add\n      sload\n      sub(shl(0xa0, 0x01), 0x01)\n      swap1\n      swap4\n      and\n      swap5\n      pop\n      swap1\n      swap3\n      swap1\n      swap2\n      0xff\n      and\n      dup6\n      jump\t// out\n        /* \"contracts/TreasuryDAO.sol\":2212:2683  function executeProposal(uint proposalId) public {... */\n    tag_38:\n        /* \"contracts/TreasuryDAO.sol\":2270:2295  Proposal storage proposal */\n      0x00\n        /* \"contracts/TreasuryDAO.sol\":2298:2307  proposals */\n      0x02\n        /* \"contracts/TreasuryDAO.sol\":2308:2318  proposalId */\n      dup3\n        /* \"contracts/TreasuryDAO.sol\":2298:2319  proposals[proposalId] */\n      dup2\n      sload\n      dup2\n      lt\n      tag_107\n      jumpi\n      tag_107\n      tag_83\n      jump\t// in\n    tag_107:\n      swap1\n      0x00\n      mstore\n      keccak256(0x00, 0x20)\n      swap1\n      0x06\n      mul\n      add\n        /* \"contracts/TreasuryDAO.sol\":2270:2319  Proposal storage proposal = proposals[proposalId] */\n      swap1\n      pop\n        /* \"contracts/TreasuryDAO.sol\":2354:2366  500 * 10**18 */\n      0x1b1ae4d6e2ef500000\n        /* \"contracts/TreasuryDAO.sol\":2336:2344  proposal */\n      dup2\n        /* \"contracts/TreasuryDAO.sol\":2336:2350  proposal.votes */\n      0x02\n      add\n      sload\n        /* \"contracts/TreasuryDAO.sol\":2336:2366  proposal.votes >= 500 * 10**18 */\n      lt\n      iszero\n        /* \"contracts/TreasuryDAO.sol\":2328:2409  require(proposal.votes >= 500 * 10**18, \"Not enough votes (500 tokens required)\") */\n      tag_109\n      jumpi\n      mload(0x40)\n      shl(0xe5, 0x461bcd)\n      dup2\n      mstore\n        /* \"#utility.yul\":4911:4913   */\n      0x20\n        /* \"contracts/TreasuryDAO.sol\":2328:2409  require(proposal.votes >= 500 * 10**18, \"Not enough votes (500 tokens required)\") */\n      0x04\n      dup3\n      add\n        /* \"#utility.yul\":4893:4914   */\n      mstore\n        /* \"#utility.yul\":4950:4952   */\n      0x26\n        /* \"#utility.yul\":4930:4948   */\n      0x24\n      dup3\n      add\n        /* \"#utility.yul\":4923:4953   */\n      mstore\n        /* \"#utility.yul\":4989:5023   */\n      0x4e6f7420656e6f75676820766f746573202835303020746f6b656e7320726571\n        /* \"#utility.yul\":4969:4987   */\n      0x44\n      dup3\n      add\n        /* \"#utility.yul\":4962:5024   */\n      mstore\n      shl(0xd0, 0x756972656429)\n        /* \"#utility.yul\":5040:5058   */\n      0x64\n      dup3\n      add\n        /* \"#utility.yul\":5033:5069   */\n      mstore\n        /* \"#utility.yul\":5086:5105   */\n      0x84\n      add\n        /* \"contracts/TreasuryDAO.sol\":2328:2409  require(proposal.votes >= 500 * 10**18, \"Not enough votes (500 tokens required)\") */\n      tag_78\n        /* \"#utility.yul\":4709:5111   */\n      jump\n        /* \"contracts/TreasuryDAO.sol\":2328:2409  require(proposal.votes >= 500 * 10**18, \"Not enough votes (500 tokens required)\") */\n    tag_109:\n        /* \"contracts/TreasuryDAO.sol\":2427:2444  proposal.executed */\n      0x04\n      dup2\n      add\n      sload\n      0xff\n      and\n        /* \"contracts/TreasuryDAO.sol\":2426:2444  !proposal.executed */\n      iszero\n        /* \"contracts/TreasuryDAO.sol\":2418:2465  require(!proposal.executed, \"Already executed\") */\n      tag_112\n      jumpi\n      mload(0x40)\n      shl(0xe5, 0x461bcd)\n      dup2\n      mstore\n        /* \"#utility.yul\":5318:5320   */\n      0x20\n        /* \"contracts/TreasuryDAO.sol\":2418:2465  require(!proposal.executed, \"Already executed\") */\n      0x04\n      dup3\n      add\n        /* \"#utility.yul\":5300:5321   */\n      mstore\n        /* \"#utility.yul\":5357:5359   */\n      0x10\n        /* \"#utility.yul\":5337:5355   */\n      0x24\n      dup3\n      add\n        /* \"#utility.yul\":5330:5360   */\n      mstore\n      shl(0x82, 0x105b1c9958591e48195e1958dd5d1959)\n        /* \"#utility.yul\":5376:5394   */\n      0x44\n      dup3\n      add\n        /* \"#utility.yul\":5369:5415   */\n      mstore\n        /* \"#utility.yul\":5432:5450   */\n      0x64\n      add\n        /* \"contracts/TreasuryDAO.sol\":2418:2465  require(!proposal.executed, \"Already executed\") */\n      tag_78\n        /* \"#utility.yul\":5116:5456   */\n      jump\n        /* \"contracts/TreasuryDAO.sol\":2418:2465  require(!proposal.executed, \"Already executed\") */\n    tag_112:\n        /* \"contracts/TreasuryDAO.sol\":2501:2509  proposal */\n      dup1\n        /* \"contracts/TreasuryDAO.sol\":2501:2517  proposal.endTime */\n      0x03\n      add\n      sload\n        /* \"contracts/TreasuryDAO.sol\":2482:2497  block.timestamp */\n      timestamp\n        /* \"contracts/TreasuryDAO.sol\":2482:2517  block.timestamp >= proposal.endTime */\n      lt\n      iszero\n        /* \"contracts/TreasuryDAO.sol\":2474:2545  require(block.timestamp >= proposal.endTime, \"Voting period not ended\") */\n      tag_115\n      jumpi\n      mload(0x40)\n      shl(0xe5, 0x461bcd)\n      dup2\n      mstore\n        /* \"#utility.yul\":5663:5665   */\n      0x20\n        /* \"contracts/TreasuryDAO.sol\":2474:2545  require(block.timestamp >= proposal.endTime, \"Voting period not ended\") */\n      0x04\n      dup3\n      add\n        /* \"#utility.yul\":5645:5666   */\n      mstore\n        /* \"#utility.yul\":5702:5704   */\n      0x17\n        /* \"#utility.yul\":5682:5700   */\n      0x24\n      dup3\n      add\n        /* \"#utility.yul\":5675:5705   */\n      mstore\n        /* \"#utility.yul\":5741:5766   */\n      0x566f74696e6720706572696f64206e6f7420656e646564000000000000000000\n        /* \"#utility.yul\":5721:5739   */\n      0x44\n      dup3\n      add\n        /* \"#utility.yul\":5714:5767   */\n      mstore\n        /* \"#utility.yul\":5784:5802   */\n      0x64\n      add\n        /* \"contracts/TreasuryDAO.sol\":2474:2545  require(block.timestamp >= proposal.endTime, \"Voting period not ended\") */\n      tag_78\n        /* \"#utility.yul\":5461:5808   */\n      jump\n        /* \"contracts/TreasuryDAO.sol\":2474:2545  require(block.timestamp >= proposal.endTime, \"Voting period not ended\") */\n    tag_115:\n        /* \"contracts/TreasuryDAO.sol\":2556:2573  proposal.executed */\n      0x04\n      dup2\n      add\n        /* \"contracts/TreasuryDAO.sol\":2556:2580  proposal.executed = true */\n      dup1\n      sload\n      not(0xff)\n      and\n        /* \"contracts/TreasuryDAO.sol\":2576:2580  true */\n      0x01\n        /* \"contracts/TreasuryDAO.sol\":2556:2580  proposal.executed = true */\n      swap1\n      dup2\n      or\n      swap1\n      swap2\n      sstore\n        /* \"contracts/TreasuryDAO.sol\":2589:2607  proposal.recipient */\n      dup2\n      sload\n        /* \"contracts/TreasuryDAO.sol\":2617:2632  proposal.amount */\n      swap1\n      dup3\n      add\n      sload\n        /* \"contracts/TreasuryDAO.sol\":2589:2633  proposal.recipient.transfer(proposal.amount) */\n      mload(0x40)\n      sub(shl(0xa0, 0x01), 0x01)\n        /* \"contracts/TreasuryDAO.sol\":2589:2607  proposal.recipient */\n      swap1\n      swap3\n      and\n      swap2\n        /* \"contracts/TreasuryDAO.sol\":2589:2633  proposal.recipient.transfer(proposal.amount) */\n      dup2\n      iszero\n      0x08fc\n      mul\n      swap2\n        /* \"contracts/TreasuryDAO.sol\":2617:2632  proposal.amount */\n      swap1\n        /* \"contracts/TreasuryDAO.sol\":2556:2573  proposal.executed */\n      0x00\n        /* \"contracts/TreasuryDAO.sol\":2589:2633  proposal.recipient.transfer(proposal.amount) */\n      dup2\n        /* \"contracts/TreasuryDAO.sol\":2556:2573  proposal.executed */\n      dup2\n        /* \"contracts/TreasuryDAO.sol\":2589:2633  proposal.recipient.transfer(proposal.amount) */\n      dup2\n        /* \"contracts/TreasuryDAO.sol\":2617:2632  proposal.amount */\n      dup6\n        /* \"contracts/TreasuryDAO.sol\":2589:2607  proposal.recipient */\n      dup9\n        /* \"contracts/TreasuryDAO.sol\":2589:2633  proposal.recipient.transfer(proposal.amount) */\n      dup9\n      call\n      swap4\n      pop\n      pop\n      pop\n      pop\n      iszero\n      dup1\n      iszero\n      tag_119\n      jumpi\n      returndatasize\n      0x00\n      dup1\n      returndatacopy\n      revert(0x00, returndatasize)\n    tag_119:\n      pop\n        /* \"contracts/TreasuryDAO.sol\":2649:2677  ProposalExecuted(proposalId) */\n      mload(0x40)\n        /* \"#utility.yul\":1491:1516   */\n      dup3\n      dup2\n      mstore\n        /* \"contracts/TreasuryDAO.sol\":2649:2677  ProposalExecuted(proposalId) */\n      0x712ae1383f79ac853f8d882153778e0260ef8f03b504e2866e0593e04d2b291f\n      swap1\n        /* \"#utility.yul\":1479:1481   */\n      0x20\n        /* \"#utility.yul\":1464:1482   */\n      add\n        /* \"contracts/TreasuryDAO.sol\":2649:2677  ProposalExecuted(proposalId) */\n      mload(0x40)\n      dup1\n      swap2\n      sub\n      swap1\n      log1\n        /* \"contracts/TreasuryDAO.sol\":2261:2683  {... */\n      pop\n        /* \"contracts/TreasuryDAO.sol\":2212:2683  function executeProposal(uint proposalId) public {... */\n      pop\n      jump\t// out\n        /* \"contracts/TreasuryDAO.sol\":1114:1664  function proposeFunding(address payable recipient, uint256 amount) public onlyMember {... */\n    tag_48:\n        /* \"contracts/TreasuryDAO.sol\":965:975  msg.sender */\n      caller\n        /* \"contracts/TreasuryDAO.sol\":957:976  members[msg.sender] */\n      0x00\n      swap1\n      dup2\n      mstore\n        /* \"contracts/TreasuryDAO.sol\":957:964  members */\n      0x01\n        /* \"contracts/TreasuryDAO.sol\":957:976  members[msg.sender] */\n      0x20\n      mstore\n      0x40\n      swap1\n      keccak256\n      sload\n      0xff\n      and\n        /* \"contracts/TreasuryDAO.sol\":949:997  require(members[msg.sender], \"Not a DAO member\") */\n      tag_123\n      jumpi\n      mload(0x40)\n      shl(0xe5, 0x461bcd)\n      dup2\n      mstore\n        /* \"#utility.yul\":2539:2541   */\n      0x20\n        /* \"contracts/TreasuryDAO.sol\":949:997  require(members[msg.sender], \"Not a DAO member\") */\n      0x04\n      dup3\n      add\n        /* \"#utility.yul\":2521:2542   */\n      mstore\n        /* \"#utility.yul\":2578:2580   */\n      0x10\n        /* \"#utility.yul\":2558:2576   */\n      0x24\n      dup3\n      add\n        /* \"#utility.yul\":2551:2581   */\n      mstore\n      shl(0x81, 0x2737ba1030902220a79036b2b6b132b9)\n        /* \"#utility.yul\":2597:2615   */\n      0x44\n      dup3\n      add\n        /* \"#utility.yul\":2590:2636   */\n      mstore\n        /* \"#utility.yul\":2653:2671   */\n      0x64\n      add\n        /* \"contracts/TreasuryDAO.sol\":949:997  require(members[msg.sender], \"Not a DAO member\") */\n      tag_78\n        /* \"#utility.yul\":2337:2677   */\n      jump\n        /* \"contracts/TreasuryDAO.sol\":949:997  require(members[msg.sender], \"Not a DAO member\") */\n    tag_123:\n        /* \"contracts/TreasuryDAO.sol\":1241:1247  amount */\n      dup1\n        /* \"contracts/TreasuryDAO.sol\":1216:1237  address(this).balance */\n      selfbalance\n        /* \"contracts/TreasuryDAO.sol\":1216:1247  address(this).balance >= amount */\n      lt\n      iszero\n        /* \"contracts/TreasuryDAO.sol\":1208:1281  require(address(this).balance >= amount, \"Insufficient treasury balance\") */\n      tag_126\n      jumpi\n      mload(0x40)\n      shl(0xe5, 0x461bcd)\n      dup2\n      mstore\n        /* \"#utility.yul\":6015:6017   */\n      0x20\n        /* \"contracts/TreasuryDAO.sol\":1208:1281  require(address(this).balance >= amount, \"Insufficient treasury balance\") */\n      0x04\n      dup3\n      add\n        /* \"#utility.yul\":5997:6018   */\n      mstore\n        /* \"#utility.yul\":6054:6056   */\n      0x1d\n        /* \"#utility.yul\":6034:6052   */\n      0x24\n      dup3\n      add\n        /* \"#utility.yul\":6027:6057   */\n      mstore\n        /* \"#utility.yul\":6093:6124   */\n      0x496e73756666696369656e742074726561737572792062616c616e6365000000\n        /* \"#utility.yul\":6073:6091   */\n      0x44\n      dup3\n      add\n        /* \"#utility.yul\":6066:6125   */\n      mstore\n        /* \"#utility.yul\":6142:6160   */\n      0x64\n      add\n        /* \"contracts/TreasuryDAO.sol\":1208:1281  require(address(this).balance >= amount, \"Insufficient treasury balance\") */\n      tag_78\n        /* \"#utility.yul\":5813:6166   */\n      jump\n        /* \"contracts/TreasuryDAO.sol\":1208:1281  require(address(this).balance >= amount, \"Insufficient treasury balance\") */\n    tag_126:\n        /* \"contracts/TreasuryDAO.sol\":1290:1299  proposals */\n      0x02\n        /* \"contracts/TreasuryDAO.sol\":1290:1306  proposals.push() */\n      dup1\n      sload\n      0x01\n      swap1\n      dup2\n      add\n      dup1\n      dup4\n      sstore\n      0x00\n      dup4\n      dup2\n      mstore\n      swap3\n        /* \"contracts/TreasuryDAO.sol\":1290:1299  proposals */\n      swap2\n        /* \"contracts/TreasuryDAO.sol\":1356:1376  proposals.length - 1 */\n      tag_130\n      swap2\n      tag_131\n      jump\t// in\n    tag_130:\n        /* \"contracts/TreasuryDAO.sol\":1346:1377  proposals[proposals.length - 1] */\n      dup2\n      sload\n      dup2\n      lt\n      tag_133\n      jumpi\n      tag_133\n      tag_83\n      jump\t// in\n    tag_133:\n      0x00\n      swap2\n      dup3\n      mstore\n      0x20\n      dup3\n      keccak256\n      0x06\n      swap2\n      swap1\n      swap2\n      mul\n      add\n        /* \"contracts/TreasuryDAO.sol\":1386:1419  newProposal.recipient = recipient */\n      dup1\n      sload\n      not(sub(shl(0xa0, 0x01), 0x01))\n      and\n      sub(shl(0xa0, 0x01), 0x01)\n      dup7\n      and\n      or\n      dup2\n      sstore\n      0x01\n        /* \"contracts/TreasuryDAO.sol\":1428:1446  newProposal.amount */\n      dup2\n      add\n        /* \"contracts/TreasuryDAO.sol\":1428:1455  newProposal.amount = amount */\n      dup5\n      swap1\n      sstore\n        /* \"contracts/TreasuryDAO.sol\":1464:1481  newProposal.votes */\n      0x02\n      dup2\n      add\n        /* \"contracts/TreasuryDAO.sol\":1464:1485  newProposal.votes = 0 */\n      swap2\n      swap1\n      swap2\n      sstore\n        /* \"contracts/TreasuryDAO.sol\":1534:1549  minVoteDuration */\n      sload(0x04)\n        /* \"contracts/TreasuryDAO.sol\":1346:1377  proposals[proposals.length - 1] */\n      swap1\n      swap2\n      pop\n        /* \"contracts/TreasuryDAO.sol\":1516:1549  block.timestamp + minVoteDuration */\n      tag_135\n      swap1\n        /* \"contracts/TreasuryDAO.sol\":1516:1531  block.timestamp */\n      timestamp\n        /* \"contracts/TreasuryDAO.sol\":1516:1549  block.timestamp + minVoteDuration */\n      tag_100\n      jump\t// in\n    tag_135:\n        /* \"contracts/TreasuryDAO.sol\":1494:1513  newProposal.endTime */\n      0x03\n      dup3\n      add\n        /* \"contracts/TreasuryDAO.sol\":1494:1549  newProposal.endTime = block.timestamp + minVoteDuration */\n      sstore\n        /* \"contracts/TreasuryDAO.sol\":1558:1578  newProposal.executed */\n      0x04\n      dup2\n      add\n        /* \"contracts/TreasuryDAO.sol\":1558:1586  newProposal.executed = false */\n      dup1\n      sload\n      not(0xff)\n      and\n      swap1\n      sstore\n        /* \"contracts/TreasuryDAO.sol\":1618:1627  proposals */\n      0x02\n        /* \"contracts/TreasuryDAO.sol\":1618:1634  proposals.length */\n      sload\n        /* \"contracts/TreasuryDAO.sol\":1602:1658  ProposalCreated(proposals.length - 1, recipient, amount) */\n      0x3417b456fad6209c73445d5efd446d686e75e4560f0f50c13b5a5cde976447b4\n      swap1\n        /* \"contracts/TreasuryDAO.sol\":1618:1638  proposals.length - 1 */\n      tag_136\n      swap1\n        /* \"contracts/TreasuryDAO.sol\":1558:1586  newProposal.executed = false */\n      0x01\n      swap1\n        /* \"contracts/TreasuryDAO.sol\":1618:1638  proposals.length - 1 */\n      tag_131\n      jump\t// in\n    tag_136:\n        /* \"contracts/TreasuryDAO.sol\":1602:1658  ProposalCreated(proposals.length - 1, recipient, amount) */\n      0x40\n      dup1\n      mload\n        /* \"#utility.yul\":4561:4586   */\n      swap2\n      dup3\n      mstore\n      sub(shl(0xa0, 0x01), 0x01)\n        /* \"#utility.yul\":4622:4654   */\n      dup7\n      and\n        /* \"#utility.yul\":4617:4619   */\n      0x20\n        /* \"#utility.yul\":4602:4620   */\n      dup4\n      add\n        /* \"#utility.yul\":4595:4655   */\n      mstore\n        /* \"#utility.yul\":4671:4689   */\n      dup2\n      add\n        /* \"#utility.yul\":4664:4698   */\n      dup5\n      swap1\n      mstore\n        /* \"#utility.yul\":4549:4551   */\n      0x60\n        /* \"#utility.yul\":4534:4552   */\n      add\n        /* \"contracts/TreasuryDAO.sol\":1602:1658  ProposalCreated(proposals.length - 1, recipient, amount) */\n      tag_101\n        /* \"#utility.yul\":4359:4704   */\n      jump\n        /* \"@openzeppelin/contracts/access/Ownable.sol\":2293:2394  function renounceOwnership() public virtual onlyOwner {... */\n    tag_51:\n        /* \"@openzeppelin/contracts/access/Ownable.sol\":1531:1544  _checkOwner() */\n      tag_140\n        /* \"@openzeppelin/contracts/access/Ownable.sol\":1531:1542  _checkOwner */\n      tag_141\n        /* \"@openzeppelin/contracts/access/Ownable.sol\":1531:1544  _checkOwner() */\n      jump\t// in\n    tag_140:\n        /* \"@openzeppelin/contracts/access/Ownable.sol\":2357:2387  _transferOwnership(address(0)) */\n      tag_143\n        /* \"@openzeppelin/contracts/access/Ownable.sol\":2384:2385  0 */\n      0x00\n        /* \"@openzeppelin/contracts/access/Ownable.sol\":2357:2375  _transferOwnership */\n      tag_144\n        /* \"@openzeppelin/contracts/access/Ownable.sol\":2357:2387  _transferOwnership(address(0)) */\n      jump\t// in\n    tag_143:\n        /* \"@openzeppelin/contracts/access/Ownable.sol\":2293:2394  function renounceOwnership() public virtual onlyOwner {... */\n      jump\t// out\n        /* \"contracts/TreasuryDAO.sol\":1019:1108  function addMember(address member) public onlyOwner {... */\n    tag_64:\n        /* \"@openzeppelin/contracts/access/Ownable.sol\":1531:1544  _checkOwner() */\n      tag_147\n        /* \"@openzeppelin/contracts/access/Ownable.sol\":1531:1542  _checkOwner */\n      tag_141\n        /* \"@openzeppelin/contracts/access/Ownable.sol\":1531:1544  _checkOwner() */\n      jump\t// in\n    tag_147:\n      sub(shl(0xa0, 0x01), 0x01)\n        /* \"contracts/TreasuryDAO.sol\":1080:1095  members[member] */\n      and\n      0x00\n      swap1\n      dup2\n      mstore\n        /* \"contracts/TreasuryDAO.sol\":1098:1102  true */\n      0x01\n        /* \"contracts/TreasuryDAO.sol\":1080:1095  members[member] */\n      0x20\n      dup2\n      swap1\n      mstore\n      0x40\n      swap1\n      swap2\n      keccak256\n        /* \"contracts/TreasuryDAO.sol\":1080:1102  members[member] = true */\n      dup1\n      sload\n      not(0xff)\n      and\n      swap1\n      swap2\n      or\n      swap1\n      sstore\n        /* \"contracts/TreasuryDAO.sol\":1019:1108  function addMember(address member) public onlyOwner {... */\n      jump\t// out\n        /* \"@openzeppelin/contracts/access/Ownable.sol\":2543:2758  function transferOwnership(address newOwner) public virtual onlyOwner {... */\n    tag_70:\n        /* \"@openzeppelin/contracts/access/Ownable.sol\":1531:1544  _checkOwner() */\n      tag_151\n        /* \"@openzeppelin/contracts/access/Ownable.sol\":1531:1542  _checkOwner */\n      tag_141\n        /* \"@openzeppelin/contracts/access/Ownable.sol\":1531:1544  _checkOwner() */\n      jump\t// in\n    tag_151:\n      sub(shl(0xa0, 0x01), 0x01)\n        /* \"@openzeppelin/contracts/access/Ownable.sol\":2627:2649  newOwner == address(0) */\n      dup2\n      and\n        /* \"@openzeppelin/contracts/access/Ownable.sol\":2623:2714  if (newOwner == address(0)) {... */\n      tag_153\n      jumpi\n        /* \"@openzeppelin/contracts/access/Ownable.sol\":2672:2703  OwnableInvalidOwner(address(0)) */\n      mload(0x40)\n      shl(0xe0, 0x1e4fbdf7)\n      dup2\n      mstore\n        /* \"@openzeppelin/contracts/access/Ownable.sol\":2700:2701  0 */\n      0x00\n        /* \"@openzeppelin/contracts/access/Ownable.sol\":2672:2703  OwnableInvalidOwner(address(0)) */\n      0x04\n      dup3\n      add\n        /* \"#utility.yul\":2053:2104   */\n      mstore\n        /* \"#utility.yul\":2026:2044   */\n      0x24\n      add\n        /* \"@openzeppelin/contracts/access/Ownable.sol\":2672:2703  OwnableInvalidOwner(address(0)) */\n      tag_78\n        /* \"#utility.yul\":1907:2110   */\n      jump\n        /* \"@openzeppelin/contracts/access/Ownable.sol\":2623:2714  if (newOwner == address(0)) {... */\n    tag_153:\n        /* \"@openzeppelin/contracts/access/Ownable.sol\":2723:2751  _transferOwnership(newOwner) */\n      tag_155\n        /* \"@openzeppelin/contracts/access/Ownable.sol\":2742:2750  newOwner */\n      dup2\n        /* \"@openzeppelin/contracts/access/Ownable.sol\":2723:2741  _transferOwnership */\n      tag_144\n        /* \"@openzeppelin/contracts/access/Ownable.sol\":2723:2751  _transferOwnership(newOwner) */\n      jump\t// in\n    tag_155:\n        /* \"@openzeppelin/contracts/access/Ownable.sol\":2543:2758  function transferOwnership(address newOwner) public virtual onlyOwner {... */\n      pop\n      jump\t// out\n        /* \"@openzeppelin/contracts/access/Ownable.sol\":1796:1958  function _checkOwner() internal view virtual {... */\n    tag_141:\n        /* \"@openzeppelin/contracts/access/Ownable.sol\":1684:1691  address */\n      0x00\n        /* \"@openzeppelin/contracts/access/Ownable.sol\":1710:1716  _owner */\n      sload\n      sub(shl(0xa0, 0x01), 0x01)\n      and\n        /* \"@openzeppelin/contracts/utils/Context.sol\":735:745  msg.sender */\n      caller\n        /* \"@openzeppelin/contracts/access/Ownable.sol\":1855:1878  owner() != _msgSender() */\n      eq\n        /* \"@openzeppelin/contracts/access/Ownable.sol\":1851:1952  if (owner() != _msgSender()) {... */\n      tag_143\n      jumpi\n        /* \"@openzeppelin/contracts/access/Ownable.sol\":1901:1941  OwnableUnauthorizedAccount(_msgSender()) */\n      mload(0x40)\n      shl(0xe0, 0x118cdaa7)\n      dup2\n      mstore\n        /* \"@openzeppelin/contracts/utils/Context.sol\":735:745  msg.sender */\n      caller\n        /* \"@openzeppelin/contracts/access/Ownable.sol\":1901:1941  OwnableUnauthorizedAccount(_msgSender()) */\n      0x04\n      dup3\n      add\n        /* \"#utility.yul\":2053:2104   */\n      mstore\n        /* \"#utility.yul\":2026:2044   */\n      0x24\n      add\n        /* \"@openzeppelin/contracts/access/Ownable.sol\":1901:1941  OwnableUnauthorizedAccount(_msgSender()) */\n      tag_78\n        /* \"#utility.yul\":1907:2110   */\n      jump\n        /* \"@openzeppelin/contracts/access/Ownable.sol\":2912:3099  function _transferOwnership(address newOwner) internal virtual {... */\n    tag_144:\n        /* \"@openzeppelin/contracts/access/Ownable.sol\":2985:3001  address oldOwner */\n      0x00\n        /* \"@openzeppelin/contracts/access/Ownable.sol\":3004:3010  _owner */\n      dup1\n      sload\n      sub(shl(0xa0, 0x01), 0x01)\n        /* \"@openzeppelin/contracts/access/Ownable.sol\":3020:3037  _owner = newOwner */\n      dup4\n      dup2\n      and\n      not(sub(shl(0xa0, 0x01), 0x01))\n      dup4\n      and\n      dup2\n      or\n      dup5\n      sstore\n        /* \"@openzeppelin/contracts/access/Ownable.sol\":3052:3092  OwnershipTransferred(oldOwner, newOwner) */\n      mload(0x40)\n        /* \"@openzeppelin/contracts/access/Ownable.sol\":3004:3010  _owner */\n      swap2\n      swap1\n      swap3\n      and\n      swap3\n      dup4\n      swap2\n        /* \"@openzeppelin/contracts/access/Ownable.sol\":3052:3092  OwnershipTransferred(oldOwner, newOwner) */\n      0x8be0079c531659141344cd1fd0a4f28419497f9722a3daafe3b4186f6b6457e0\n      swap2\n        /* \"@openzeppelin/contracts/access/Ownable.sol\":2985:3001  address oldOwner */\n      swap1\n        /* \"@openzeppelin/contracts/access/Ownable.sol\":3052:3092  OwnershipTransferred(oldOwner, newOwner) */\n      log3\n        /* \"@openzeppelin/contracts/access/Ownable.sol\":2975:3099  {... */\n      pop\n        /* \"@openzeppelin/contracts/access/Ownable.sol\":2912:3099  function _transferOwnership(address newOwner) internal virtual {... */\n      pop\n      jump\t// out\n        /* \"#utility.yul\":14:240   */\n    tag_20:\n        /* \"#utility.yul\":73:79   */\n      0x00\n        /* \"#utility.yul\":126:128   */\n      0x20\n        /* \"#utility.yul\":114:123   */\n      dup3\n        /* \"#utility.yul\":105:112   */\n      dup5\n        /* \"#utility.yul\":101:124   */\n      sub\n        /* \"#utility.yul\":97:129   */\n      slt\n        /* \"#utility.yul\":94:146   */\n      iszero\n      tag_169\n      jumpi\n        /* \"#utility.yul\":142:143   */\n      0x00\n        /* \"#utility.yul\":139:140   */\n      dup1\n        /* \"#utility.yul\":132:144   */\n      revert\n        /* \"#utility.yul\":94:146   */\n    tag_169:\n      pop\n        /* \"#utility.yul\":187:210   */\n      calldataload\n      swap2\n        /* \"#utility.yul\":14:240   */\n      swap1\n      pop\n      jump\t// out\n        /* \"#utility.yul\":765:896   */\n    tag_165:\n      sub(shl(0xa0, 0x01), 0x01)\n        /* \"#utility.yul\":840:871   */\n      dup2\n      and\n        /* \"#utility.yul\":830:872   */\n      dup2\n      eq\n        /* \"#utility.yul\":820:890   */\n      tag_155\n      jumpi\n        /* \"#utility.yul\":886:887   */\n      0x00\n        /* \"#utility.yul\":883:884   */\n      dup1\n        /* \"#utility.yul\":876:888   */\n      revert\n        /* \"#utility.yul\":901:1148   */\n    tag_31:\n        /* \"#utility.yul\":960:966   */\n      0x00\n        /* \"#utility.yul\":1013:1015   */\n      0x20\n        /* \"#utility.yul\":1001:1010   */\n      dup3\n        /* \"#utility.yul\":992:999   */\n      dup5\n        /* \"#utility.yul\":988:1011   */\n      sub\n        /* \"#utility.yul\":984:1016   */\n      slt\n        /* \"#utility.yul\":981:1033   */\n      iszero\n      tag_174\n      jumpi\n        /* \"#utility.yul\":1029:1030   */\n      0x00\n        /* \"#utility.yul\":1026:1027   */\n      dup1\n        /* \"#utility.yul\":1019:1031   */\n      revert\n        /* \"#utility.yul\":981:1033   */\n    tag_174:\n        /* \"#utility.yul\":1068:1077   */\n      dup2\n        /* \"#utility.yul\":1055:1078   */\n      calldataload\n        /* \"#utility.yul\":1087:1118   */\n      tag_175\n        /* \"#utility.yul\":1112:1117   */\n      dup2\n        /* \"#utility.yul\":1087:1118   */\n      tag_165\n      jump\t// in\n    tag_175:\n        /* \"#utility.yul\":1137:1142   */\n      swap4\n        /* \"#utility.yul\":901:1148   */\n      swap3\n      pop\n      pop\n      pop\n      jump\t// out\n        /* \"#utility.yul\":1527:1902   */\n    tag_47:\n        /* \"#utility.yul\":1603:1609   */\n      0x00\n        /* \"#utility.yul\":1611:1617   */\n      dup1\n        /* \"#utility.yul\":1664:1666   */\n      0x40\n        /* \"#utility.yul\":1652:1661   */\n      dup4\n        /* \"#utility.yul\":1643:1650   */\n      dup6\n        /* \"#utility.yul\":1639:1662   */\n      sub\n        /* \"#utility.yul\":1635:1667   */\n      slt\n        /* \"#utility.yul\":1632:1684   */\n      iszero\n      tag_179\n      jumpi\n        /* \"#utility.yul\":1680:1681   */\n      0x00\n        /* \"#utility.yul\":1677:1678   */\n      dup1\n        /* \"#utility.yul\":1670:1682   */\n      revert\n        /* \"#utility.yul\":1632:1684   */\n    tag_179:\n        /* \"#utility.yul\":1719:1728   */\n      dup3\n        /* \"#utility.yul\":1706:1729   */\n      calldataload\n        /* \"#utility.yul\":1738:1769   */\n      tag_180\n        /* \"#utility.yul\":1763:1768   */\n      dup2\n        /* \"#utility.yul\":1738:1769   */\n      tag_165\n      jump\t// in\n    tag_180:\n        /* \"#utility.yul\":1788:1793   */\n      swap5\n        /* \"#utility.yul\":1866:1868   */\n      0x20\n        /* \"#utility.yul\":1851:1869   */\n      swap4\n      swap1\n      swap4\n      add\n        /* \"#utility.yul\":1838:1870   */\n      calldataload\n      swap4\n      pop\n      pop\n      pop\n        /* \"#utility.yul\":1527:1902   */\n      jump\t// out\n        /* \"#utility.yul\":2682:2809   */\n    tag_83:\n        /* \"#utility.yul\":2743:2753   */\n      0x4e487b71\n        /* \"#utility.yul\":2738:2741   */\n      0xe0\n        /* \"#utility.yul\":2734:2754   */\n      shl\n        /* \"#utility.yul\":2731:2732   */\n      0x00\n        /* \"#utility.yul\":2724:2755   */\n      mstore\n        /* \"#utility.yul\":2774:2778   */\n      0x32\n        /* \"#utility.yul\":2771:2772   */\n      0x04\n        /* \"#utility.yul\":2764:2779   */\n      mstore\n        /* \"#utility.yul\":2798:2802   */\n      0x24\n        /* \"#utility.yul\":2795:2796   */\n      0x00\n        /* \"#utility.yul\":2788:2803   */\n      revert\n        /* \"#utility.yul\":3504:3688   */\n    tag_95:\n        /* \"#utility.yul\":3574:3580   */\n      0x00\n        /* \"#utility.yul\":3627:3629   */\n      0x20\n        /* \"#utility.yul\":3615:3624   */\n      dup3\n        /* \"#utility.yul\":3606:3613   */\n      dup5\n        /* \"#utility.yul\":3602:3625   */\n      sub\n        /* \"#utility.yul\":3598:3630   */\n      slt\n        /* \"#utility.yul\":3595:3647   */\n      iszero\n      tag_188\n      jumpi\n        /* \"#utility.yul\":3643:3644   */\n      0x00\n        /* \"#utility.yul\":3640:3641   */\n      dup1\n        /* \"#utility.yul\":3633:3645   */\n      revert\n        /* \"#utility.yul\":3595:3647   */\n    tag_188:\n      pop\n        /* \"#utility.yul\":3666:3682   */\n      mload\n      swap2\n        /* \"#utility.yul\":3504:3688   */\n      swap1\n      pop\n      jump\t// out\n        /* \"#utility.yul\":4097:4224   */\n    tag_166:\n        /* \"#utility.yul\":4158:4168   */\n      0x4e487b71\n        /* \"#utility.yul\":4153:4156   */\n      0xe0\n        /* \"#utility.yul\":4149:4169   */\n      shl\n        /* \"#utility.yul\":4146:4147   */\n      0x00\n        /* \"#utility.yul\":4139:4170   */\n      mstore\n        /* \"#utility.yul\":4189:4193   */\n      0x11\n        /* \"#utility.yul\":4186:4187   */\n      0x04\n        /* \"#utility.yul\":4179:4194   */\n      mstore\n        /* \"#utility.yul\":4213:4217   */\n      0x24\n        /* \"#utility.yul\":4210:4211   */\n      0x00\n        /* \"#utility.yul\":4203:4218   */\n      revert\n        /* \"#utility.yul\":4229:4354   */\n    tag_100:\n        /* \"#utility.yul\":4294:4303   */\n      dup1\n      dup3\n      add\n        /* \"#utility.yul\":4315:4325   */\n      dup1\n      dup3\n      gt\n        /* \"#utility.yul\":4312:4348   */\n      iszero\n      tag_193\n      jumpi\n        /* \"#utility.yul\":4328:4346   */\n      tag_193\n      tag_166\n      jump\t// in\n    tag_193:\n        /* \"#utility.yul\":4229:4354   */\n      swap3\n      swap2\n      pop\n      pop\n      jump\t// out\n        /* \"#utility.yul\":6171:6299   */\n    tag_131:\n        /* \"#utility.yul\":6238:6247   */\n      dup2\n      dup2\n      sub\n        /* \"#utility.yul\":6259:6270   */\n      dup2\n      dup2\n      gt\n        /* \"#utility.yul\":6256:6293   */\n      iszero\n      tag_193\n      jumpi\n        /* \"#utility.yul\":6273:6291   */\n      tag_193\n      tag_166\n      jump\t// in\n\n    auxdata: 0xa264697066735822122041772af45ec5f4fbb8be88edabec2eae2e517bd8f8f0eb8b0b4218ddd224f59264736f6c634300081a0033\n}\n",
				"bytecode": {
					"linkReferences": {},
					"object": "608060405262015180600455348015610016575f80fd5b50604051610bb5380380610bb583398101604081905261003591610114565b806001600160a01b03811661006357604051631e4fbdf760e01b81525f600482015260240160405180910390fd5b61006c816100aa565b50600380546001600160a01b0319166001600160a01b03938416179055165f908152600160208190526040909120805460ff19169091179055610145565b5f80546001600160a01b038381166001600160a01b0319831681178455604051919092169283917f8be0079c531659141344cd1fd0a4f28419497f9722a3daafe3b4186f6b6457e09190a35050565b80516001600160a01b038116811461010f575f80fd5b919050565b5f8060408385031215610125575f80fd5b61012e836100f9565b915061013c602084016100f9565b90509250929050565b610a63806101525f395ff3fe6080604052600436106100bf575f3560e01c8063715018a61161007c578063ca6d56dc11610057578063ca6d56dc1461022d578063d0e30db0146100e2578063f2fde38b1461024c578063f96dae0a1461026b575f80fd5b8063715018a6146101d45780638da5cb5b146101e8578063c00d2a8c14610218575f80fd5b80630121b93f146100c3578063013cf08b146100e457806308ae4b0c1461013c5780630d61b5191461017a57806312065fe014610199578063237af348146101b5575b5f80fd5b3480156100ce575f80fd5b506100e26100dd36600461094b565b61028a565b005b3480156100ef575f80fd5b506101036100fe36600461094b565b6104e1565b604080516001600160a01b03909616865260208601949094529284019190915260608301521515608082015260a0015b60405180910390f35b348015610147575f80fd5b5061016a610156366004610976565b60016020525f908152604090205460ff1681565b6040519015158152602001610133565b348015610185575f80fd5b506100e261019436600461094b565b61052d565b3480156101a4575f80fd5b50475b604051908152602001610133565b3480156101c0575f80fd5b506100e26101cf366004610998565b6106da565b3480156101df575f80fd5b506100e2610852565b3480156101f3575f80fd5b505f546001600160a01b03165b6040516001600160a01b039091168152602001610133565b348015610223575f80fd5b506101a760045481565b348015610238575f80fd5b506100e2610247366004610976565b610865565b348015610257575f80fd5b506100e2610266366004610976565b610893565b348015610276575f80fd5b50600354610200906001600160a01b031681565b335f9081526001602052604090205460ff166102e05760405162461bcd60e51b815260206004820152601060248201526f2737ba1030902220a79036b2b6b132b960811b60448201526064015b60405180910390fd5b5f600282815481106102f4576102f46109c2565b5f91825260208083203384526005600690930201918201905260409091205490915060ff16156103565760405162461bcd60e51b815260206004820152600d60248201526c105b1c9958591e481d9bdd1959609a1b60448201526064016102d7565b8060030154421061039f5760405162461bcd60e51b8152602060048201526013602482015272159bdd1a5b99c81c195c9a5bd908195b991959606a1b60448201526064016102d7565b6003546040516370a0823160e01b81523360048201525f916001600160a01b0316906370a0823190602401602060405180830381865afa1580156103e5573d5f803e3d5ffd5b505050506040513d601f19601f8201168201806040525081019061040991906109d6565b90505f81116104665760405162461bcd60e51b815260206004820152602360248201527f4d75737420686f6c6420676f7665726e616e636520746f6b656e7320746f20766044820152626f746560e81b60648201526084016102d7565b80826002015f8282546104799190610a01565b9091555050335f818152600584016020908152604091829020805460ff1916600117905581518681529081019290925281018290527f1abe610cf2bf87e57dcc1181fcf5ac0934e843d8344ab9eed6e86c799f62585e906060015b60405180910390a1505050565b600281815481106104f0575f80fd5b5f918252602090912060069091020180546001820154600283015460038401546004909401546001600160a01b0390931694509092909160ff1685565b5f60028281548110610541576105416109c2565b905f5260205f2090600602019050681b1ae4d6e2ef500000816002015410156105bb5760405162461bcd60e51b815260206004820152602660248201527f4e6f7420656e6f75676820766f746573202835303020746f6b656e732072657160448201526575697265642960d01b60648201526084016102d7565b600481015460ff16156106035760405162461bcd60e51b815260206004820152601060248201526f105b1c9958591e48195e1958dd5d195960821b60448201526064016102d7565b80600301544210156106575760405162461bcd60e51b815260206004820152601760248201527f566f74696e6720706572696f64206e6f7420656e64656400000000000000000060448201526064016102d7565b60048101805460ff191660019081179091558154908201546040516001600160a01b039092169181156108fc0291905f818181858888f193505050501580156106a2573d5f803e3d5ffd5b506040518281527f712ae1383f79ac853f8d882153778e0260ef8f03b504e2866e0593e04d2b291f9060200160405180910390a15050565b335f9081526001602052604090205460ff1661072b5760405162461bcd60e51b815260206004820152601060248201526f2737ba1030902220a79036b2b6b132b960811b60448201526064016102d7565b8047101561077b5760405162461bcd60e51b815260206004820152601d60248201527f496e73756666696369656e742074726561737572792062616c616e636500000060448201526064016102d7565b6002805460019081018083555f838152929161079691610a1a565b815481106107a6576107a66109c2565b5f918252602082206006919091020180546001600160a01b0319166001600160a01b0386161781556001810184905560028101919091556004549091506107ed9042610a01565b600382015560048101805460ff191690556002547f3417b456fad6209c73445d5efd446d686e75e4560f0f50c13b5a5cde976447b49061082f90600190610a1a565b604080519182526001600160a01b038616602083015281018490526060016104d4565b61085a6108d0565b6108635f6108fc565b565b61086d6108d0565b6001600160a01b03165f908152600160208190526040909120805460ff19169091179055565b61089b6108d0565b6001600160a01b0381166108c457604051631e4fbdf760e01b81525f60048201526024016102d7565b6108cd816108fc565b50565b5f546001600160a01b031633146108635760405163118cdaa760e01b81523360048201526024016102d7565b5f80546001600160a01b038381166001600160a01b0319831681178455604051919092169283917f8be0079c531659141344cd1fd0a4f28419497f9722a3daafe3b4186f6b6457e09190a35050565b5f6020828403121561095b575f80fd5b5035919050565b6001600160a01b03811681146108cd575f80fd5b5f60208284031215610986575f80fd5b813561099181610962565b9392505050565b5f80604083850312156109a9575f80fd5b82356109b481610962565b946020939093013593505050565b634e487b7160e01b5f52603260045260245ffd5b5f602082840312156109e6575f80fd5b5051919050565b634e487b7160e01b5f52601160045260245ffd5b80820180821115610a1457610a146109ed565b92915050565b81810381811115610a1457610a146109ed56fea264697066735822122041772af45ec5f4fbb8be88edabec2eae2e517bd8f8f0eb8b0b4218ddd224f59264736f6c634300081a0033",
					"opcodes": "PUSH1 0x80 PUSH1 0x40 MSTORE PUSH3 0x15180 PUSH1 0x4 SSTORE CALLVALUE DUP1 ISZERO PUSH2 0x16 JUMPI PUSH0 DUP1 REVERT JUMPDEST POP PUSH1 0x40 MLOAD PUSH2 0xBB5 CODESIZE SUB DUP1 PUSH2 0xBB5 DUP4 CODECOPY DUP2 ADD PUSH1 0x40 DUP2 SWAP1 MSTORE PUSH2 0x35 SWAP2 PUSH2 0x114 JUMP JUMPDEST DUP1 PUSH1 0x1 PUSH1 0x1 PUSH1 0xA0 SHL SUB DUP2 AND PUSH2 0x63 JUMPI PUSH1 0x40 MLOAD PUSH4 0x1E4FBDF7 PUSH1 0xE0 SHL DUP2 MSTORE PUSH0 PUSH1 0x4 DUP3 ADD MSTORE PUSH1 0x24 ADD PUSH1 0x40 MLOAD DUP1 SWAP2 SUB SWAP1 REVERT JUMPDEST PUSH2 0x6C DUP2 PUSH2 0xAA JUMP JUMPDEST POP PUSH1 0x3 DUP1 SLOAD PUSH1 0x1 PUSH1 0x1 PUSH1 0xA0 SHL SUB NOT AND PUSH1 0x1 PUSH1 0x1 PUSH1 0xA0 SHL SUB SWAP4 DUP5 AND OR SWAP1 SSTORE AND PUSH0 SWAP1 DUP2 MSTORE PUSH1 0x1 PUSH1 0x20 DUP2 SWAP1 MSTORE PUSH1 0x40 SWAP1 SWAP2 KECCAK256 DUP1 SLOAD PUSH1 0xFF NOT AND SWAP1 SWAP2 OR SWAP1 SSTORE PUSH2 0x145 JUMP JUMPDEST PUSH0 DUP1 SLOAD PUSH1 0x1 PUSH1 0x1 PUSH1 0xA0 SHL SUB DUP4 DUP2 AND PUSH1 0x1 PUSH1 0x1 PUSH1 0xA0 SHL SUB NOT DUP4 AND DUP2 OR DUP5 SSTORE PUSH1 0x40 MLOAD SWAP2 SWAP1 SWAP3 AND SWAP3 DUP4 SWAP2 PUSH32 0x8BE0079C531659141344CD1FD0A4F28419497F9722A3DAAFE3B4186F6B6457E0 SWAP2 SWAP1 LOG3 POP POP JUMP JUMPDEST DUP1 MLOAD PUSH1 0x1 PUSH1 0x1 PUSH1 0xA0 SHL SUB DUP2 AND DUP2 EQ PUSH2 0x10F JUMPI PUSH0 DUP1 REVERT JUMPDEST SWAP2 SWAP1 POP JUMP JUMPDEST PUSH0 DUP1 PUSH1 0x40 DUP4 DUP6 SUB SLT ISZERO PUSH2 0x125 JUMPI PUSH0 DUP1 REVERT JUMPDEST PUSH2 0x12E DUP4 PUSH2 0xF9 JUMP JUMPDEST SWAP2 POP PUSH2 0x13C PUSH1 0x20 DUP5 ADD PUSH2 0xF9 JUMP JUMPDEST SWAP1 POP SWAP3 POP SWAP3 SWAP1 POP JUMP JUMPDEST PUSH2 0xA63 DUP1 PUSH2 0x152 PUSH0 CODECOPY PUSH0 RETURN INVALID PUSH1 0x80 PUSH1 0x40 MSTORE PUSH1 0x4 CALLDATASIZE LT PUSH2 0xBF JUMPI PUSH0 CALLDATALOAD PUSH1 0xE0 SHR DUP1 PUSH4 0x715018A6 GT PUSH2 0x7C JUMPI DUP1 PUSH4 0xCA6D56DC GT PUSH2 0x57 JUMPI DUP1 PUSH4 0xCA6D56DC EQ PUSH2 0x22D JUMPI DUP1 PUSH4 0xD0E30DB0 EQ PUSH2 0xE2 JUMPI DUP1 PUSH4 0xF2FDE38B EQ PUSH2 0x24C JUMPI DUP1 PUSH4 0xF96DAE0A EQ PUSH2 0x26B JUMPI PUSH0 DUP1 REVERT JUMPDEST DUP1 PUSH4 0x715018A6 EQ PUSH2 0x1D4 JUMPI DUP1 PUSH4 0x8DA5CB5B EQ PUSH2 0x1E8 JUMPI DUP1 PUSH4 0xC00D2A8C EQ PUSH2 0x218 JUMPI PUSH0 DUP1 REVERT JUMPDEST DUP1 PUSH4 0x121B93F EQ PUSH2 0xC3 JUMPI DUP1 PUSH4 0x13CF08B EQ PUSH2 0xE4 JUMPI DUP1 PUSH4 0x8AE4B0C EQ PUSH2 0x13C JUMPI DUP1 PUSH4 0xD61B519 EQ PUSH2 0x17A JUMPI DUP1 PUSH4 0x12065FE0 EQ PUSH2 0x199 JUMPI DUP1 PUSH4 0x237AF348 EQ PUSH2 0x1B5 JUMPI JUMPDEST PUSH0 DUP1 REVERT JUMPDEST CALLVALUE DUP1 ISZERO PUSH2 0xCE JUMPI PUSH0 DUP1 REVERT JUMPDEST POP PUSH2 0xE2 PUSH2 0xDD CALLDATASIZE PUSH1 0x4 PUSH2 0x94B JUMP JUMPDEST PUSH2 0x28A JUMP JUMPDEST STOP JUMPDEST CALLVALUE DUP1 ISZERO PUSH2 0xEF JUMPI PUSH0 DUP1 REVERT JUMPDEST POP PUSH2 0x103 PUSH2 0xFE CALLDATASIZE PUSH1 0x4 PUSH2 0x94B JUMP JUMPDEST PUSH2 0x4E1 JUMP JUMPDEST PUSH1 0x40 DUP1 MLOAD PUSH1 0x1 PUSH1 0x1 PUSH1 0xA0 SHL SUB SWAP1 SWAP7 AND DUP7 MSTORE PUSH1 0x20 DUP7 ADD SWAP5 SWAP1 SWAP5 MSTORE SWAP3 DUP5 ADD SWAP2 SWAP1 SWAP2 MSTORE PUSH1 0x60 DUP4 ADD MSTORE ISZERO ISZERO PUSH1 0x80 DUP3 ADD MSTORE PUSH1 0xA0 ADD JUMPDEST PUSH1 0x40 MLOAD DUP1 SWAP2 SUB SWAP1 RETURN JUMPDEST CALLVALUE DUP1 ISZERO PUSH2 0x147 JUMPI PUSH0 DUP1 REVERT JUMPDEST POP PUSH2 0x16A PUSH2 0x156 CALLDATASIZE PUSH1 0x4 PUSH2 0x976 JUMP JUMPDEST PUSH1 0x1 PUSH1 0x20 MSTORE PUSH0 SWAP1 DUP2 MSTORE PUSH1 0x40 SWAP1 KECCAK256 SLOAD PUSH1 0xFF AND DUP2 JUMP JUMPDEST PUSH1 0x40 MLOAD SWAP1 ISZERO ISZERO DUP2 MSTORE PUSH1 0x20 ADD PUSH2 0x133 JUMP JUMPDEST CALLVALUE DUP1 ISZERO PUSH2 0x185 JUMPI PUSH0 DUP1 REVERT JUMPDEST POP PUSH2 0xE2 PUSH2 0x194 CALLDATASIZE PUSH1 0x4 PUSH2 0x94B JUMP JUMPDEST PUSH2 0x52D JUMP JUMPDEST CALLVALUE DUP1 ISZERO PUSH2 0x1A4 JUMPI PUSH0 DUP1 REVERT JUMPDEST POP SELFBALANCE JUMPDEST PUSH1 0x40 MLOAD SWAP1 DUP2 MSTORE PUSH1 0x20 ADD PUSH2 0x133 JUMP JUMPDEST CALLVALUE DUP1 ISZERO PUSH2 0x1C0 JUMPI PUSH0 DUP1 REVERT JUMPDEST POP PUSH2 0xE2 PUSH2 0x1CF CALLDATASIZE PUSH1 0x4 PUSH2 0x998 JUMP JUMPDEST PUSH2 0x6DA JUMP JUMPDEST CALLVALUE DUP1 ISZERO PUSH2 0x1DF JUMPI PUSH0 DUP1 REVERT JUMPDEST POP PUSH2 0xE2 PUSH2 0x852 JUMP JUMPDEST CALLVALUE DUP1 ISZERO PUSH2 0x1F3 JUMPI PUSH0 DUP1 REVERT JUMPDEST POP PUSH0 SLOAD PUSH1 0x1 PUSH1 0x1 PUSH1 0xA0 SHL SUB AND JUMPDEST PUSH1 0x40 MLOAD PUSH1 0x1 PUSH1 0x1 PUSH1 0xA0 SHL SUB SWAP1 SWAP2 AND DUP2 MSTORE PUSH1 0x20 ADD PUSH2 0x133 JUMP JUMPDEST CALLVALUE DUP1 ISZERO PUSH2 0x223 JUMPI PUSH0 DUP1 REVERT JUMPDEST POP PUSH2 0x1A7 PUSH1 0x4 SLOAD DUP2 JUMP JUMPDEST CALLVALUE DUP1 ISZERO PUSH2 0x238 JUMPI PUSH0 DUP1 REVERT JUMPDEST POP PUSH2 0xE2 PUSH2 0x247 CALLDATASIZE PUSH1 0x4 PUSH2 0x976 JUMP JUMPDEST PUSH2 0x865 JUMP JUMPDEST CALLVALUE DUP1 ISZERO PUSH2 0x257 JUMPI PUSH0 DUP1 REVERT JUMPDEST POP PUSH2 0xE2 PUSH2 0x266 CALLDATASIZE PUSH1 0x4 PUSH2 0x976 JUMP JUMPDEST PUSH2 0x893 JUMP JUMPDEST CALLVALUE DUP1 ISZERO PUSH2 0x276 JUMPI PUSH0 DUP1 REVERT JUMPDEST POP PUSH1 0x3 SLOAD PUSH2 0x200 SWAP1 PUSH1 0x1 PUSH1 0x1 PUSH1 0xA0 SHL SUB AND DUP2 JUMP JUMPDEST CALLER PUSH0 SWAP1 DUP2 MSTORE PUSH1 0x1 PUSH1 0x20 MSTORE PUSH1 0x40 SWAP1 KECCAK256 SLOAD PUSH1 0xFF AND PUSH2 0x2E0 JUMPI PUSH1 0x40 MLOAD PUSH3 0x461BCD PUSH1 0xE5 SHL DUP2 MSTORE PUSH1 0x20 PUSH1 0x4 DUP3 ADD MSTORE PUSH1 0x10 PUSH1 0x24 DUP3 ADD MSTORE PUSH16 0x2737BA1030902220A79036B2B6B132B9 PUSH1 0x81 SHL PUSH1 0x44 DUP3 ADD MSTORE PUSH1 0x64 ADD JUMPDEST PUSH1 0x40 MLOAD DUP1 SWAP2 SUB SWAP1 REVERT JUMPDEST PUSH0 PUSH1 0x2 DUP3 DUP2 SLOAD DUP2 LT PUSH2 0x2F4 JUMPI PUSH2 0x2F4 PUSH2 0x9C2 JUMP JUMPDEST PUSH0 SWAP2 DUP3 MSTORE PUSH1 0x20 DUP1 DUP4 KECCAK256 CALLER DUP5 MSTORE PUSH1 0x5 PUSH1 0x6 SWAP1 SWAP4 MUL ADD SWAP2 DUP3 ADD SWAP1 MSTORE PUSH1 0x40 SWAP1 SWAP2 KECCAK256 SLOAD SWAP1 SWAP2 POP PUSH1 0xFF AND ISZERO PUSH2 0x356 JUMPI PUSH1 0x40 MLOAD PUSH3 0x461BCD PUSH1 0xE5 SHL DUP2 MSTORE PUSH1 0x20 PUSH1 0x4 DUP3 ADD MSTORE PUSH1 0xD PUSH1 0x24 DUP3 ADD MSTORE PUSH13 0x105B1C9958591E481D9BDD1959 PUSH1 0x9A SHL PUSH1 0x44 DUP3 ADD MSTORE PUSH1 0x64 ADD PUSH2 0x2D7 JUMP JUMPDEST DUP1 PUSH1 0x3 ADD SLOAD TIMESTAMP LT PUSH2 0x39F JUMPI PUSH1 0x40 MLOAD PUSH3 0x461BCD PUSH1 0xE5 SHL DUP2 MSTORE PUSH1 0x20 PUSH1 0x4 DUP3 ADD MSTORE PUSH1 0x13 PUSH1 0x24 DUP3 ADD MSTORE PUSH19 0x159BDD1A5B99C81C195C9A5BD908195B991959 PUSH1 0x6A SHL PUSH1 0x44 DUP3 ADD MSTORE PUSH1 0x64 ADD PUSH2 0x2D7 JUMP JUMPDEST PUSH1 0x3 SLOAD PUSH1 0x40 MLOAD PUSH4 0x70A08231 PUSH1 0xE0 SHL DUP2 MSTORE CALLER PUSH1 0x4 DUP3 ADD MSTORE PUSH0 SWAP2 PUSH1 0x1 PUSH1 0x1 PUSH1 0xA0 SHL SUB AND SWAP1 PUSH4 0x70A08231 SWAP1 PUSH1 0x24 ADD PUSH1 0x20 PUSH1 0x40 MLOAD DUP1 DUP4 SUB DUP2 DUP7 GAS STATICCALL ISZERO DUP1 ISZERO PUSH2 0x3E5 JUMPI RETURNDATASIZE PUSH0 DUP1 RETURNDATACOPY RETURNDATASIZE PUSH0 REVERT JUMPDEST POP POP POP POP PUSH1 0x40 MLOAD RETURNDATASIZE PUSH1 0x1F NOT PUSH1 0x1F DUP3 ADD AND DUP3 ADD DUP1 PUSH1 0x40 MSTORE POP DUP2 ADD SWAP1 PUSH2 0x409 SWAP2 SWAP1 PUSH2 0x9D6 JUMP JUMPDEST SWAP1 POP PUSH0 DUP2 GT PUSH2 0x466 JUMPI PUSH1 0x40 MLOAD PUSH3 0x461BCD PUSH1 0xE5 SHL DUP2 MSTORE PUSH1 0x20 PUSH1 0x4 DUP3 ADD MSTORE PUSH1 0x23 PUSH1 0x24 DUP3 ADD MSTORE PUSH32 0x4D75737420686F6C6420676F7665726E616E636520746F6B656E7320746F2076 PUSH1 0x44 DUP3 ADD MSTORE PUSH3 0x6F7465 PUSH1 0xE8 SHL PUSH1 0x64 DUP3 ADD MSTORE PUSH1 0x84 ADD PUSH2 0x2D7 JUMP JUMPDEST DUP1 DUP3 PUSH1 0x2 ADD PUSH0 DUP3 DUP3 SLOAD PUSH2 0x479 SWAP2 SWAP1 PUSH2 0xA01 JUMP JUMPDEST SWAP1 SWAP2 SSTORE POP POP CALLER PUSH0 DUP2 DUP2 MSTORE PUSH1 0x5 DUP5 ADD PUSH1 0x20 SWAP1 DUP2 MSTORE PUSH1 0x40 SWAP2 DUP3 SWAP1 KECCAK256 DUP1 SLOAD PUSH1 0xFF NOT AND PUSH1 0x1 OR SWAP1 SSTORE DUP2 MLOAD DUP7 DUP2 MSTORE SWAP1 DUP2 ADD SWAP3 SWAP1 SWAP3 MSTORE DUP2 ADD DUP3 SWAP1 MSTORE PUSH32 0x1ABE610CF2BF87E57DCC1181FCF5AC0934E843D8344AB9EED6E86C799F62585E SWAP1 PUSH1 0x60 ADD JUMPDEST PUSH1 0x40 MLOAD DUP1 SWAP2 SUB SWAP1 LOG1 POP POP POP JUMP JUMPDEST PUSH1 0x2 DUP2 DUP2 SLOAD DUP2 LT PUSH2 0x4F0 JUMPI PUSH0 DUP1 REVERT JUMPDEST PUSH0 SWAP2 DUP3 MSTORE PUSH1 0x20 SWAP1 SWAP2 KECCAK256 PUSH1 0x6 SWAP1 SWAP2 MUL ADD DUP1 SLOAD PUSH1 0x1 DUP3 ADD SLOAD PUSH1 0x2 DUP4 ADD SLOAD PUSH1 0x3 DUP5 ADD SLOAD PUSH1 0x4 SWAP1 SWAP5 ADD SLOAD PUSH1 0x1 PUSH1 0x1 PUSH1 0xA0 SHL SUB SWAP1 SWAP4 AND SWAP5 POP SWAP1 SWAP3 SWAP1 SWAP2 PUSH1 0xFF AND DUP6 JUMP JUMPDEST PUSH0 PUSH1 0x2 DUP3 DUP2 SLOAD DUP2 LT PUSH2 0x541 JUMPI PUSH2 0x541 PUSH2 0x9C2 JUMP JUMPDEST SWAP1 PUSH0 MSTORE PUSH1 0x20 PUSH0 KECCAK256 SWAP1 PUSH1 0x6 MUL ADD SWAP1 POP PUSH9 0x1B1AE4D6E2EF500000 DUP2 PUSH1 0x2 ADD SLOAD LT ISZERO PUSH2 0x5BB JUMPI PUSH1 0x40 MLOAD PUSH3 0x461BCD PUSH1 0xE5 SHL DUP2 MSTORE PUSH1 0x20 PUSH1 0x4 DUP3 ADD MSTORE PUSH1 0x26 PUSH1 0x24 DUP3 ADD MSTORE PUSH32 0x4E6F7420656E6F75676820766F746573202835303020746F6B656E7320726571 PUSH1 0x44 DUP3 ADD MSTORE PUSH6 0x756972656429 PUSH1 0xD0 SHL PUSH1 0x64 DUP3 ADD MSTORE PUSH1 0x84 ADD PUSH2 0x2D7 JUMP JUMPDEST PUSH1 0x4 DUP2 ADD SLOAD PUSH1 0xFF AND ISZERO PUSH2 0x603 JUMPI PUSH1 0x40 MLOAD PUSH3 0x461BCD PUSH1 0xE5 SHL DUP2 MSTORE PUSH1 0x20 PUSH1 0x4 DUP3 ADD MSTORE PUSH1 0x10 PUSH1 0x24 DUP3 ADD MSTORE PUSH16 0x105B1C9958591E48195E1958DD5D1959 PUSH1 0x82 SHL PUSH1 0x44 DUP3 ADD MSTORE PUSH1 0x64 ADD PUSH2 0x2D7 JUMP JUMPDEST DUP1 PUSH1 0x3 ADD SLOAD TIMESTAMP LT ISZERO PUSH2 0x657 JUMPI PUSH1 0x40 MLOAD PUSH3 0x461BCD PUSH1 0xE5 SHL DUP2 MSTORE PUSH1 0x20 PUSH1 0x4 DUP3 ADD MSTORE PUSH1 0x17 PUSH1 0x24 DUP3 ADD MSTORE PUSH32 0x566F74696E6720706572696F64206E6F7420656E646564000000000000000000 PUSH1 0x44 DUP3 ADD MSTORE PUSH1 0x64 ADD PUSH2 0x2D7 JUMP JUMPDEST PUSH1 0x4 DUP2 ADD DUP1 SLOAD PUSH1 0xFF NOT AND PUSH1 0x1 SWAP1 DUP2 OR SWAP1 SWAP2 SSTORE DUP2 SLOAD SWAP1 DUP3 ADD SLOAD PUSH1 0x40 MLOAD PUSH1 0x1 PUSH1 0x1 PUSH1 0xA0 SHL SUB SWAP1 SWAP3 AND SWAP2 DUP2 ISZERO PUSH2 0x8FC MUL SWAP2 SWAP1 PUSH0 DUP2 DUP2 DUP2 DUP6 DUP9 DUP9 CALL SWAP4 POP POP POP POP ISZERO DUP1 ISZERO PUSH2 0x6A2 JUMPI RETURNDATASIZE PUSH0 DUP1 RETURNDATACOPY RETURNDATASIZE PUSH0 REVERT JUMPDEST POP PUSH1 0x40 MLOAD DUP3 DUP2 MSTORE PUSH32 0x712AE1383F79AC853F8D882153778E0260EF8F03B504E2866E0593E04D2B291F SWAP1 PUSH1 0x20 ADD PUSH1 0x40 MLOAD DUP1 SWAP2 SUB SWAP1 LOG1 POP POP JUMP JUMPDEST CALLER PUSH0 SWAP1 DUP2 MSTORE PUSH1 0x1 PUSH1 0x20 MSTORE PUSH1 0x40 SWAP1 KECCAK256 SLOAD PUSH1 0xFF AND PUSH2 0x72B JUMPI PUSH1 0x40 MLOAD PUSH3 0x461BCD PUSH1 0xE5 SHL DUP2 MSTORE PUSH1 0x20 PUSH1 0x4 DUP3 ADD MSTORE PUSH1 0x10 PUSH1 0x24 DUP3 ADD MSTORE PUSH16 0x2737BA1030902220A79036B2B6B132B9 PUSH1 0x81 SHL PUSH1 0x44 DUP3 ADD MSTORE PUSH1 0x64 ADD PUSH2 0x2D7 JUMP JUMPDEST DUP1 SELFBALANCE LT ISZERO PUSH2 0x77B JUMPI PUSH1 0x40 MLOAD PUSH3 0x461BCD PUSH1 0xE5 SHL DUP2 MSTORE PUSH1 0x20 PUSH1 0x4 DUP3 ADD MSTORE PUSH1 0x1D PUSH1 0x24 DUP3 ADD MSTORE PUSH32 0x496E73756666696369656E742074726561737572792062616C616E6365000000 PUSH1 0x44 DUP3 ADD MSTORE PUSH1 0x64 ADD PUSH2 0x2D7 JUMP JUMPDEST PUSH1 0x2 DUP1 SLOAD PUSH1 0x1 SWAP1 DUP2 ADD DUP1 DUP4 SSTORE PUSH0 DUP4 DUP2 MSTORE SWAP3 SWAP2 PUSH2 0x796 SWAP2 PUSH2 0xA1A JUMP JUMPDEST DUP2 SLOAD DUP2 LT PUSH2 0x7A6 JUMPI PUSH2 0x7A6 PUSH2 0x9C2 JUMP JUMPDEST PUSH0 SWAP2 DUP3 MSTORE PUSH1 0x20 DUP3 KECCAK256 PUSH1 0x6 SWAP2 SWAP1 SWAP2 MUL ADD DUP1 SLOAD PUSH1 0x1 PUSH1 0x1 PUSH1 0xA0 SHL SUB NOT AND PUSH1 0x1 PUSH1 0x1 PUSH1 0xA0 SHL SUB DUP7 AND OR DUP2 SSTORE PUSH1 0x1 DUP2 ADD DUP5 SWAP1 SSTORE PUSH1 0x2 DUP2 ADD SWAP2 SWAP1 SWAP2 SSTORE PUSH1 0x4 SLOAD SWAP1 SWAP2 POP PUSH2 0x7ED SWAP1 TIMESTAMP PUSH2 0xA01 JUMP JUMPDEST PUSH1 0x3 DUP3 ADD SSTORE PUSH1 0x4 DUP2 ADD DUP1 SLOAD PUSH1 0xFF NOT AND SWAP1 SSTORE PUSH1 0x2 SLOAD PUSH32 0x3417B456FAD6209C73445D5EFD446D686E75E4560F0F50C13B5A5CDE976447B4 SWAP1 PUSH2 0x82F SWAP1 PUSH1 0x1 SWAP1 PUSH2 0xA1A JUMP JUMPDEST PUSH1 0x40 DUP1 MLOAD SWAP2 DUP3 MSTORE PUSH1 0x1 PUSH1 0x1 PUSH1 0xA0 SHL SUB DUP7 AND PUSH1 0x20 DUP4 ADD MSTORE DUP2 ADD DUP5 SWAP1 MSTORE PUSH1 0x60 ADD PUSH2 0x4D4 JUMP JUMPDEST PUSH2 0x85A PUSH2 0x8D0 JUMP JUMPDEST PUSH2 0x863 PUSH0 PUSH2 0x8FC JUMP JUMPDEST JUMP JUMPDEST PUSH2 0x86D PUSH2 0x8D0 JUMP JUMPDEST PUSH1 0x1 PUSH1 0x1 PUSH1 0xA0 SHL SUB AND PUSH0 SWAP1 DUP2 MSTORE PUSH1 0x1 PUSH1 0x20 DUP2 SWAP1 MSTORE PUSH1 0x40 SWAP1 SWAP2 KECCAK256 DUP1 SLOAD PUSH1 0xFF NOT AND SWAP1 SWAP2 OR SWAP1 SSTORE JUMP JUMPDEST PUSH2 0x89B PUSH2 0x8D0 JUMP JUMPDEST PUSH1 0x1 PUSH1 0x1 PUSH1 0xA0 SHL SUB DUP2 AND PUSH2 0x8C4 JUMPI PUSH1 0x40 MLOAD PUSH4 0x1E4FBDF7 PUSH1 0xE0 SHL DUP2 MSTORE PUSH0 PUSH1 0x4 DUP3 ADD MSTORE PUSH1 0x24 ADD PUSH2 0x2D7 JUMP JUMPDEST PUSH2 0x8CD DUP2 PUSH2 0x8FC JUMP JUMPDEST POP JUMP JUMPDEST PUSH0 SLOAD PUSH1 0x1 PUSH1 0x1 PUSH1 0xA0 SHL SUB AND CALLER EQ PUSH2 0x863 JUMPI PUSH1 0x40 MLOAD PUSH4 0x118CDAA7 PUSH1 0xE0 SHL DUP2 MSTORE CALLER PUSH1 0x4 DUP3 ADD MSTORE PUSH1 0x24 ADD PUSH2 0x2D7 JUMP JUMPDEST PUSH0 DUP1 SLOAD PUSH1 0x1 PUSH1 0x1 PUSH1 0xA0 SHL SUB DUP4 DUP2 AND PUSH1 0x1 PUSH1 0x1 PUSH1 0xA0 SHL SUB NOT DUP4 AND DUP2 OR DUP5 SSTORE PUSH1 0x40 MLOAD SWAP2 SWAP1 SWAP3 AND SWAP3 DUP4 SWAP2 PUSH32 0x8BE0079C531659141344CD1FD0A4F28419497F9722A3DAAFE3B4186F6B6457E0 SWAP2 SWAP1 LOG3 POP POP JUMP JUMPDEST PUSH0 PUSH1 0x20 DUP3 DUP5 SUB SLT ISZERO PUSH2 0x95B JUMPI PUSH0 DUP1 REVERT JUMPDEST POP CALLDATALOAD SWAP2 SWAP1 POP JUMP JUMPDEST PUSH1 0x1 PUSH1 0x1 PUSH1 0xA0 SHL SUB DUP2 AND DUP2 EQ PUSH2 0x8CD JUMPI PUSH0 DUP1 REVERT JUMPDEST PUSH0 PUSH1 0x20 DUP3 DUP5 SUB SLT ISZERO PUSH2 0x986 JUMPI PUSH0 DUP1 REVERT JUMPDEST DUP2 CALLDATALOAD PUSH2 0x991 DUP2 PUSH2 0x962 JUMP JUMPDEST SWAP4 SWAP3 POP POP POP JUMP JUMPDEST PUSH0 DUP1 PUSH1 0x40 DUP4 DUP6 SUB SLT ISZERO PUSH2 0x9A9 JUMPI PUSH0 DUP1 REVERT JUMPDEST DUP3 CALLDATALOAD PUSH2 0x9B4 DUP2 PUSH2 0x962 JUMP JUMPDEST SWAP5 PUSH1 0x20 SWAP4 SWAP1 SWAP4 ADD CALLDATALOAD SWAP4 POP POP POP JUMP JUMPDEST PUSH4 0x4E487B71 PUSH1 0xE0 SHL PUSH0 MSTORE PUSH1 0x32 PUSH1 0x4 MSTORE PUSH1 0x24 PUSH0 REVERT JUMPDEST PUSH0 PUSH1 0x20 DUP3 DUP5 SUB SLT ISZERO PUSH2 0x9E6 JUMPI PUSH0 DUP1 REVERT JUMPDEST POP MLOAD SWAP2 SWAP1 POP JUMP JUMPDEST PUSH4 0x4E487B71 PUSH1 0xE0 SHL PUSH0 MSTORE PUSH1 0x11 PUSH1 0x4 MSTORE PUSH1 0x24 PUSH0 REVERT JUMPDEST DUP1 DUP3 ADD DUP1 DUP3 GT ISZERO PUSH2 0xA14 JUMPI PUSH2 0xA14 PUSH2 0x9ED JUMP JUMPDEST SWAP3 SWAP2 POP POP JUMP JUMPDEST DUP2 DUP2 SUB DUP2 DUP2 GT ISZERO PUSH2 0xA14 JUMPI PUSH2 0xA14 PUSH2 0x9ED JUMP INVALID LOG2 PUSH5 0x6970667358 0x22 SLT KECCAK256 COINBASE PUSH24 0x2AF45EC5F4FBB8BE88EDABEC2EAE2E517BD8F8F0EB8B0B42 XOR 0xDD 0xD2 0x24 CREATE2 SWAP3 PUSH5 0x736F6C6343 STOP ADDMOD BYTE STOP CALLER "
				},
				"gasEstimates": {
					"creation": {
						"codeDepositCost": "531800",
						"executionCost": "infinite",
						"totalCost": "infinite"
					},
					"external": {
						"addMember(address)": "26798",
						"deposit()": "139",
						"executeProposal(uint256)": "infinite",
						"getBalance()": "271",
						"governanceToken()": "2424",
						"members(address)": "2567",
						"minVoteDuration()": "2361",
						"owner()": "2363",
						"proposals(uint256)": "13190",
						"proposeFunding(address,uint256)": "infinite",
						"renounceOwnership()": "infinite",
						"transferOwnership(address)": "infinite",
						"vote(uint256)": "infinite"
					}
				},
				"methodIdentifiers": {
					"addMember(address)": "ca6d56dc",
					"deposit()": "d0e30db0",
					"executeProposal(uint256)": "0d61b519",
					"getBalance()": "12065fe0",
					"governanceToken()": "f96dae0a",
					"members(address)": "08ae4b0c",
					"minVoteDuration()": "c00d2a8c",
					"owner()": "8da5cb5b",
					"proposals(uint256)": "013cf08b",
					"proposeFunding(address,uint256)": "237af348",
					"renounceOwnership()": "715018a6",
					"transferOwnership(address)": "f2fde38b",
					"vote(uint256)": "0121b93f"
				}
			},
			"storageLayout": {
				"storage": [
					{
						"astId": 8,
						"contract": "contracts/TreasuryDAO.sol:TreasuryDAO",
						"label": "_owner",
						"offset": 0,
						"slot": "0",
						"type": "t_address"
					},
					{
						"astId": 280,
						"contract": "contracts/TreasuryDAO.sol:TreasuryDAO",
						"label": "members",
						"offset": 0,
						"slot": "1",
						"type": "t_mapping(t_address,t_bool)"
					},
					{
						"astId": 284,
						"contract": "contracts/TreasuryDAO.sol:TreasuryDAO",
						"label": "proposals",
						"offset": 0,
						"slot": "2",
						"type": "t_array(t_struct(Proposal)276_storage)dyn_storage"
					},
					{
						"astId": 287,
						"contract": "contracts/TreasuryDAO.sol:TreasuryDAO",
						"label": "governanceToken",
						"offset": 0,
						"slot": "3",
						"type": "t_contract(IERC20)225"
					},
					{
						"astId": 290,
						"contract": "contracts/TreasuryDAO.sol:TreasuryDAO",
						"label": "minVoteDuration",
						"offset": 0,
						"slot": "4",
						"type": "t_uint256"
					}
				],
				"types": {
					"t_address": {
						"encoding": "inplace",
						"label": "address",
						"numberOfBytes": "20"
					},
					"t_address_payable": {
						"encoding": "inplace",
						"label": "address payable",
						"numberOfBytes": "20"
					},
					"t_array(t_struct(Proposal)276_storage)dyn_storage": {
						"base": "t_struct(Proposal)276_storage",
						"encoding": "dynamic_array",
						"label": "struct TreasuryDAO.Proposal[]",
						"numberOfBytes": "32"
					},
					"t_bool": {
						"encoding": "inplace",
						"label": "bool",
						"numberOfBytes": "1"
					},
					"t_contract(IERC20)225": {
						"encoding": "inplace",
						"label": "contract IERC20",
						"numberOfBytes": "20"
					},
					"t_mapping(t_address,t_bool)": {
						"encoding": "mapping",
						"key": "t_address",
						"label": "mapping(address => bool)",
						"numberOfBytes": "32",
						"value": "t_bool"
					},
					"t_struct(Proposal)276_storage": {
						"encoding": "inplace",
						"label": "struct TreasuryDAO.Proposal",
						"members": [
							{
								"astId": 263,
								"contract": "contracts/TreasuryDAO.sol:TreasuryDAO",
								"label": "recipient",
								"offset": 0,
								"slot": "0",
								"type": "t_address_payable"
							},
							{
								"astId": 265,
								"contract": "contracts/TreasuryDAO.sol:TreasuryDAO",
								"label": "amount",
								"offset": 0,
								"slot": "1",
								"type": "t_uint256"
							},
							{
								"astId": 267,
								"contract": "contracts/TreasuryDAO.sol:TreasuryDAO",
								"label": "votes",
								"offset": 0,
								"slot": "2",
								"type": "t_uint256"
							},
							{
								"astId": 269,
								"contract": "contracts/TreasuryDAO.sol:TreasuryDAO",
								"label": "endTime",
								"offset": 0,
								"slot": "3",
								"type": "t_uint256"
							},
							{
								"astId": 271,
								"contract": "contracts/TreasuryDAO.sol:TreasuryDAO",
								"label": "executed",
								"offset": 0,
								"slot": "4",
								"type": "t_bool"
							},
							{
								"astId": 275,
								"contract": "contracts/TreasuryDAO.sol:TreasuryDAO",
								"label": "voted",
								"offset": 0,
								"slot": "5",
								"type": "t_mapping(t_address,t_bool)"
							}
						],
						"numberOfBytes": "192"
					},
					"t_uint256": {
						"encoding": "inplace",
						"label": "uint256",
						"numberOfBytes": "32"
					}
				}
			},
			"userdoc": {
				"kind": "user",
				"methods": {},
				"version": 1
			}
		}
	}
}