{
	"contracts/TreasuryDAOTest_flattened.sol": {
		"TreasuryDAO": {
			"abi": [
				{
					"inputs": [
						{
							"internalType": "address",
							"name": "tokenAddress",
							"type": "address"
						},
						{
							"internalType": "address",
							"name": "priceFeedAddress",
							"type": "address"
						},
						{
							"internalType": "address",
							"name": "lendingPoolAddress",
							"type": "address"
						},
						{
							"internalType": "address",
							"name": "initialOwner",
							"type": "address"
						}
					],
					"stateMutability": "nonpayable",
					"type": "constructor"
				},
				{
					"inputs": [],
					"name": "OnlySimulatedBackend",
					"type": "error"
				},
				{
					"inputs": [
						{
							"internalType": "address",
							"name": "owner",
							"type": "address"
						}
					],
					"name": "OwnableInvalidOwner",
					"type": "error"
				},
				{
					"inputs": [
						{
							"internalType": "address",
							"name": "account",
							"type": "address"
						}
					],
					"name": "OwnableUnauthorizedAccount",
					"type": "error"
				},
				{
					"anonymous": false,
					"inputs": [
						{
							"indexed": false,
							"internalType": "uint256",
							"name": "proposalId",
							"type": "uint256"
						}
					],
					"name": "FundsReleased",
					"type": "event"
				},
				{
					"anonymous": false,
					"inputs": [
						{
							"indexed": true,
							"internalType": "address",
							"name": "previousOwner",
							"type": "address"
						},
						{
							"indexed": true,
							"internalType": "address",
							"name": "newOwner",
							"type": "address"
						}
					],
					"name": "OwnershipTransferred",
					"type": "event"
				},
				{
					"anonymous": false,
					"inputs": [
						{
							"indexed": false,
							"internalType": "uint256",
							"name": "proposalId",
							"type": "uint256"
						},
						{
							"indexed": false,
							"internalType": "address",
							"name": "recipient",
							"type": "address"
						},
						{
							"indexed": false,
							"internalType": "uint256",
							"name": "amount",
							"type": "uint256"
						}
					],
					"name": "ProposalCreated",
					"type": "event"
				},
				{
					"anonymous": false,
					"inputs": [
						{
							"indexed": false,
							"internalType": "uint256",
							"name": "proposalId",
							"type": "uint256"
						}
					],
					"name": "ProposalExecuted",
					"type": "event"
				},
				{
					"anonymous": false,
					"inputs": [
						{
							"indexed": false,
							"internalType": "uint256",
							"name": "proposalId",
							"type": "uint256"
						},
						{
							"indexed": false,
							"internalType": "address",
							"name": "voter",
							"type": "address"
						},
						{
							"indexed": false,
							"internalType": "uint256",
							"name": "weight",
							"type": "uint256"
						}
					],
					"name": "Voted",
					"type": "event"
				},
				{
					"inputs": [
						{
							"internalType": "address",
							"name": "member",
							"type": "address"
						}
					],
					"name": "addMember",
					"outputs": [],
					"stateMutability": "nonpayable",
					"type": "function"
				},
				{
					"inputs": [
						{
							"internalType": "bytes",
							"name": "",
							"type": "bytes"
						}
					],
					"name": "checkUpkeep",
					"outputs": [
						{
							"internalType": "bool",
							"name": "upkeepNeeded",
							"type": "bool"
						},
						{
							"internalType": "bytes",
							"name": "performData",
							"type": "bytes"
						}
					],
					"stateMutability": "view",
					"type": "function"
				},
				{
					"inputs": [],
					"name": "deposit",
					"outputs": [],
					"stateMutability": "payable",
					"type": "function"
				},
				{
					"inputs": [
						{
							"internalType": "uint256",
							"name": "amount",
							"type": "uint256"
						}
					],
					"name": "depositToAave",
					"outputs": [],
					"stateMutability": "nonpayable",
					"type": "function"
				},
				{
					"inputs": [
						{
							"internalType": "uint256",
							"name": "proposalId",
							"type": "uint256"
						}
					],
					"name": "executeProposal",
					"outputs": [],
					"stateMutability": "nonpayable",
					"type": "function"
				},
				{
					"inputs": [],
					"name": "getBalance",
					"outputs": [
						{
							"internalType": "uint256",
							"name": "",
							"type": "uint256"
						}
					],
					"stateMutability": "view",
					"type": "function"
				},
				{
					"inputs": [],
					"name": "getETHPrice",
					"outputs": [
						{
							"internalType": "uint256",
							"name": "",
							"type": "uint256"
						}
					],
					"stateMutability": "view",
					"type": "function"
				},
				{
					"inputs": [],
					"name": "governanceToken",
					"outputs": [
						{
							"internalType": "contract IERC20",
							"name": "",
							"type": "address"
						}
					],
					"stateMutability": "view",
					"type": "function"
				},
				{
					"inputs": [],
					"name": "lendingPool",
					"outputs": [
						{
							"internalType": "contract IAaveLendingPool",
							"name": "",
							"type": "address"
						}
					],
					"stateMutability": "view",
					"type": "function"
				},
				{
					"inputs": [
						{
							"internalType": "address",
							"name": "",
							"type": "address"
						}
					],
					"name": "members",
					"outputs": [
						{
							"internalType": "bool",
							"name": "",
							"type": "bool"
						}
					],
					"stateMutability": "view",
					"type": "function"
				},
				{
					"inputs": [],
					"name": "minVoteDuration",
					"outputs": [
						{
							"internalType": "uint256",
							"name": "",
							"type": "uint256"
						}
					],
					"stateMutability": "view",
					"type": "function"
				},
				{
					"inputs": [],
					"name": "owner",
					"outputs": [
						{
							"internalType": "address",
							"name": "",
							"type": "address"
						}
					],
					"stateMutability": "view",
					"type": "function"
				},
				{
					"inputs": [
						{
							"internalType": "bytes",
							"name": "performData",
							"type": "bytes"
						}
					],
					"name": "performUpkeep",
					"outputs": [],
					"stateMutability": "nonpayable",
					"type": "function"
				},
				{
					"inputs": [
						{
							"internalType": "uint256",
							"name": "",
							"type": "uint256"
						}
					],
					"name": "proposals",
					"outputs": [
						{
							"internalType": "address payable",
							"name": "recipient",
							"type": "address"
						},
						{
							"internalType": "uint256",
							"name": "amount",
							"type": "uint256"
						},
						{
							"internalType": "uint256",
							"name": "votes",
							"type": "uint256"
						},
						{
							"internalType": "uint256",
							"name": "endTime",
							"type": "uint256"
						},
						{
							"internalType": "bool",
							"name": "executed",
							"type": "bool"
						},
						{
							"internalType": "uint256",
							"name": "unlockTime",
							"type": "uint256"
						}
					],
					"stateMutability": "view",
					"type": "function"
				},
				{
					"inputs": [
						{
							"internalType": "address payable",
							"name": "recipient",
							"type": "address"
						},
						{
							"internalType": "uint256",
							"name": "amount",
							"type": "uint256"
						}
					],
					"name": "proposeFunding",
					"outputs": [],
					"stateMutability": "nonpayable",
					"type": "function"
				},
				{
					"inputs": [
						{
							"internalType": "uint256",
							"name": "proposalId",
							"type": "uint256"
						}
					],
					"name": "releaseFunds",
					"outputs": [],
					"stateMutability": "nonpayable",
					"type": "function"
				},
				{
					"inputs": [],
					"name": "renounceOwnership",
					"outputs": [],
					"stateMutability": "nonpayable",
					"type": "function"
				},
				{
					"inputs": [
						{
							"internalType": "address",
							"name": "newOwner",
							"type": "address"
						}
					],
					"name": "transferOwnership",
					"outputs": [],
					"stateMutability": "nonpayable",
					"type": "function"
				},
				{
					"inputs": [
						{
							"internalType": "uint256",
							"name": "proposalId",
							"type": "uint256"
						}
					],
					"name": "vote",
					"outputs": [],
					"stateMutability": "nonpayable",
					"type": "function"
				},
				{
					"inputs": [
						{
							"internalType": "uint256",
							"name": "amount",
							"type": "uint256"
						}
					],
					"name": "withdrawFromAave",
					"outputs": [],
					"stateMutability": "nonpayable",
					"type": "function"
				}
			],
			"devdoc": {
				"errors": {
					"OwnableInvalidOwner(address)": [
						{
							"details": "The owner is not a valid owner account. (eg. `address(0)`)"
						}
					],
					"OwnableUnauthorizedAccount(address)": [
						{
							"details": "The caller account is not authorized to perform an operation."
						}
					]
				},
				"kind": "dev",
				"methods": {
					"owner()": {
						"details": "Returns the address of the current owner."
					},
					"performUpkeep(bytes)": {
						"details": "The input to this method should not be trusted, and the caller of the method should not even be restricted to any single registry. Anyone should be able call it, and the input should be validated, there is no guarantee that the data passed in is the performData returned from checkUpkeep. This could happen due to malicious keepers, racing keepers, or simply a state change while the performUpkeep transaction is waiting for confirmation. Always validate the data passed in.",
						"params": {
							"performData": "is the data which was passed back from the checkData simulation. If it is encoded, it can easily be decoded into other types by calling `abi.decode`. This data should not be trusted, and should be validated against the contract's current state."
						}
					},
					"renounceOwnership()": {
						"details": "Leaves the contract without owner. It will not be possible to call `onlyOwner` functions. Can only be called by the current owner. NOTE: Renouncing ownership will leave the contract without an owner, thereby disabling any functionality that is only available to the owner."
					},
					"transferOwnership(address)": {
						"details": "Transfers ownership of the contract to a new account (`newOwner`). Can only be called by the current owner."
					}
				},
				"version": 1
			},
			"evm": {
				"assembly": "    /* \"contracts/TreasuryDAOTest_flattened.sol\":10908:16865  contract TreasuryDAO is Ownable, AutomationCompatible {... */\n  mstore(0x40, 0x80)\n    /* \"contracts/TreasuryDAOTest_flattened.sol\":11825:11834  1 minutes */\n  0x3c\n    /* \"contracts/TreasuryDAOTest_flattened.sol\":11792:11834  uint256 public minVoteDuration = 1 minutes */\n  0x06\n  sstore\n    /* \"contracts/TreasuryDAOTest_flattened.sol\":12210:12614  constructor(address tokenAddress, address priceFeedAddress, address lendingPoolAddress, address initialOwner)... */\n  callvalue\n  dup1\n  iszero\n  tag_1\n  jumpi\n  0x00\n  dup1\n  revert\ntag_1:\n  pop\n  mload(0x40)\n  sub(codesize, bytecodeSize)\n  dup1\n  bytecodeSize\n  dup4\n  codecopy\n  dup2\n  add\n  0x40\n  dup2\n  swap1\n  mstore\n  tag_2\n  swap2\n  tag_3\n  jump\t// in\ntag_2:\n    /* \"contracts/TreasuryDAOTest_flattened.sol\":12335:12347  initialOwner */\n  dup1\n  sub(shl(0xa0, 0x01), 0x01)\n    /* \"contracts/TreasuryDAOTest_flattened.sol\":2235:2261  initialOwner == address(0) */\n  dup2\n  and\n    /* \"contracts/TreasuryDAOTest_flattened.sol\":2231:2326  if (initialOwner == address(0)) {... */\n  tag_7\n  jumpi\n    /* \"contracts/TreasuryDAOTest_flattened.sol\":2284:2315  OwnableInvalidOwner(address(0)) */\n  mload(0x40)\n  shl(0xe0, 0x1e4fbdf7)\n  dup2\n  mstore\n    /* \"contracts/TreasuryDAOTest_flattened.sol\":2312:2313  0 */\n  0x00\n    /* \"contracts/TreasuryDAOTest_flattened.sol\":2284:2315  OwnableInvalidOwner(address(0)) */\n  0x04\n  dup3\n  add\n    /* \"#utility.yul\":811:862   */\n  mstore\n    /* \"#utility.yul\":784:802   */\n  0x24\n  add\n    /* \"contracts/TreasuryDAOTest_flattened.sol\":2284:2315  OwnableInvalidOwner(address(0)) */\n  mload(0x40)\n  dup1\n  swap2\n  sub\n  swap1\n  revert\n    /* \"contracts/TreasuryDAOTest_flattened.sol\":2231:2326  if (initialOwner == address(0)) {... */\ntag_7:\n    /* \"contracts/TreasuryDAOTest_flattened.sol\":2335:2367  _transferOwnership(initialOwner) */\n  tag_10\n    /* \"contracts/TreasuryDAOTest_flattened.sol\":2354:2366  initialOwner */\n  dup2\n    /* \"contracts/TreasuryDAOTest_flattened.sol\":2335:2353  _transferOwnership */\n  tag_11\n    /* \"contracts/TreasuryDAOTest_flattened.sol\":2335:2367  _transferOwnership(initialOwner) */\n  jump\t// in\ntag_10:\n  pop\n    /* \"contracts/TreasuryDAOTest_flattened.sol\":12361:12376  governanceToken */\n  0x03\n    /* \"contracts/TreasuryDAOTest_flattened.sol\":12361:12399  governanceToken = IERC20(tokenAddress) */\n  dup1\n  sload\n  not(sub(shl(0xa0, 0x01), 0x01))\n  swap1\n  dup2\n  and\n  sub(shl(0xa0, 0x01), 0x01)\n  swap7\n  dup8\n  and\n  or\n  swap1\n  swap2\n  sstore\n    /* \"contracts/TreasuryDAOTest_flattened.sol\":12408:12417  priceFeed */\n  0x04\n    /* \"contracts/TreasuryDAOTest_flattened.sol\":12408:12459  priceFeed = AggregatorV3Interface(priceFeedAddress) */\n  dup1\n  sload\n  dup3\n  and\n  swap5\n  dup7\n  and\n  swap5\n  swap1\n  swap5\n  or\n  swap1\n  swap4\n  sstore\n    /* \"contracts/TreasuryDAOTest_flattened.sol\":12468:12479  lendingPool */\n  0x05\n    /* \"contracts/TreasuryDAOTest_flattened.sol\":12468:12518  lendingPool = IAaveLendingPool(lendingPoolAddress) */\n  dup1\n  sload\n  swap1\n  swap4\n  and\n  swap2\n  dup5\n  and\n  swap2\n  swap1\n  swap2\n  or\n  swap1\n  swap2\n  sstore\n    /* \"contracts/TreasuryDAOTest_flattened.sol\":12527:12548  members[initialOwner] */\n  and\n  0x00\n  swap1\n  dup2\n  mstore\n  0x01\n  0x20\n  dup2\n  swap1\n  mstore\n  0x40\n  swap1\n  swap2\n  keccak256\n    /* \"contracts/TreasuryDAOTest_flattened.sol\":12527:12555  members[initialOwner] = true */\n  dup1\n  sload\n  not(0xff)\n  and\n  swap1\n  swap2\n  or\n  swap1\n  sstore\n    /* \"contracts/TreasuryDAOTest_flattened.sol\":10908:16865  contract TreasuryDAO is Ownable, AutomationCompatible {... */\n  jump(tag_16)\n    /* \"contracts/TreasuryDAOTest_flattened.sol\":3874:4061  function _transferOwnership(address newOwner) internal virtual {... */\ntag_11:\n    /* \"contracts/TreasuryDAOTest_flattened.sol\":3947:3963  address oldOwner */\n  0x00\n    /* \"contracts/TreasuryDAOTest_flattened.sol\":3966:3972  _owner */\n  dup1\n  sload\n  sub(shl(0xa0, 0x01), 0x01)\n    /* \"contracts/TreasuryDAOTest_flattened.sol\":3982:3999  _owner = newOwner */\n  dup4\n  dup2\n  and\n  not(sub(shl(0xa0, 0x01), 0x01))\n  dup4\n  and\n  dup2\n  or\n  dup5\n  sstore\n    /* \"contracts/TreasuryDAOTest_flattened.sol\":4014:4054  OwnershipTransferred(oldOwner, newOwner) */\n  mload(0x40)\n    /* \"contracts/TreasuryDAOTest_flattened.sol\":3966:3972  _owner */\n  swap2\n  swap1\n  swap3\n  and\n  swap3\n  dup4\n  swap2\n    /* \"contracts/TreasuryDAOTest_flattened.sol\":4014:4054  OwnershipTransferred(oldOwner, newOwner) */\n  0x8be0079c531659141344cd1fd0a4f28419497f9722a3daafe3b4186f6b6457e0\n  swap2\n    /* \"contracts/TreasuryDAOTest_flattened.sol\":3947:3963  address oldOwner */\n  swap1\n    /* \"contracts/TreasuryDAOTest_flattened.sol\":4014:4054  OwnershipTransferred(oldOwner, newOwner) */\n  log3\n    /* \"contracts/TreasuryDAOTest_flattened.sol\":3937:4061  {... */\n  pop\n    /* \"contracts/TreasuryDAOTest_flattened.sol\":3874:4061  function _transferOwnership(address newOwner) internal virtual {... */\n  pop\n  jump\t// out\n    /* \"#utility.yul\":14:191   */\ntag_15:\n    /* \"#utility.yul\":93:106   */\n  dup1\n  mload\n  sub(shl(0xa0, 0x01), 0x01)\n    /* \"#utility.yul\":135:166   */\n  dup2\n  and\n    /* \"#utility.yul\":125:167   */\n  dup2\n  eq\n    /* \"#utility.yul\":115:185   */\n  tag_18\n  jumpi\n    /* \"#utility.yul\":181:182   */\n  0x00\n    /* \"#utility.yul\":178:179   */\n  dup1\n    /* \"#utility.yul\":171:183   */\n  revert\n    /* \"#utility.yul\":115:185   */\ntag_18:\n    /* \"#utility.yul\":14:191   */\n  swap2\n  swap1\n  pop\n  jump\t// out\n    /* \"#utility.yul\":196:660   */\ntag_3:\n    /* \"#utility.yul\":293:299   */\n  0x00\n    /* \"#utility.yul\":301:307   */\n  dup1\n    /* \"#utility.yul\":309:315   */\n  0x00\n    /* \"#utility.yul\":317:323   */\n  dup1\n    /* \"#utility.yul\":370:373   */\n  0x80\n    /* \"#utility.yul\":358:367   */\n  dup6\n    /* \"#utility.yul\":349:356   */\n  dup8\n    /* \"#utility.yul\":345:368   */\n  sub\n    /* \"#utility.yul\":341:374   */\n  slt\n    /* \"#utility.yul\":338:391   */\n  iszero\n  tag_20\n  jumpi\n    /* \"#utility.yul\":387:388   */\n  0x00\n    /* \"#utility.yul\":384:385   */\n  dup1\n    /* \"#utility.yul\":377:389   */\n  revert\n    /* \"#utility.yul\":338:391   */\ntag_20:\n    /* \"#utility.yul\":410:450   */\n  tag_21\n    /* \"#utility.yul\":440:449   */\n  dup6\n    /* \"#utility.yul\":410:450   */\n  tag_15\n  jump\t// in\ntag_21:\n    /* \"#utility.yul\":400:450   */\n  swap4\n  pop\n    /* \"#utility.yul\":469:518   */\n  tag_22\n    /* \"#utility.yul\":514:516   */\n  0x20\n    /* \"#utility.yul\":503:512   */\n  dup7\n    /* \"#utility.yul\":499:517   */\n  add\n    /* \"#utility.yul\":469:518   */\n  tag_15\n  jump\t// in\ntag_22:\n    /* \"#utility.yul\":459:518   */\n  swap3\n  pop\n    /* \"#utility.yul\":537:586   */\n  tag_23\n    /* \"#utility.yul\":582:584   */\n  0x40\n    /* \"#utility.yul\":571:580   */\n  dup7\n    /* \"#utility.yul\":567:585   */\n  add\n    /* \"#utility.yul\":537:586   */\n  tag_15\n  jump\t// in\ntag_23:\n    /* \"#utility.yul\":527:586   */\n  swap2\n  pop\n    /* \"#utility.yul\":605:654   */\n  tag_24\n    /* \"#utility.yul\":650:652   */\n  0x60\n    /* \"#utility.yul\":639:648   */\n  dup7\n    /* \"#utility.yul\":635:653   */\n  add\n    /* \"#utility.yul\":605:654   */\n  tag_15\n  jump\t// in\ntag_24:\n    /* \"#utility.yul\":595:654   */\n  swap1\n  pop\n    /* \"#utility.yul\":196:660   */\n  swap3\n  swap6\n  swap2\n  swap5\n  pop\n  swap3\n  pop\n  jump\t// out\n    /* \"#utility.yul\":665:868   */\ntag_16:\n    /* \"contracts/TreasuryDAOTest_flattened.sol\":10908:16865  contract TreasuryDAO is Ownable, AutomationCompatible {... */\n  dataSize(sub_0)\n  dup1\n  dataOffset(sub_0)\n  0x00\n  codecopy\n  0x00\n  return\nstop\n\nsub_0: assembly {\n        /* \"contracts/TreasuryDAOTest_flattened.sol\":10908:16865  contract TreasuryDAO is Ownable, AutomationCompatible {... */\n      mstore(0x40, 0x80)\n      jumpi(tag_1, lt(calldatasize, 0x04))\n      shr(0xe0, calldataload(0x00))\n      dup1\n      0x6e04ff0d\n      gt\n      tag_22\n      jumpi\n      dup1\n      0xc00d2a8c\n      gt\n      tag_23\n      jumpi\n      dup1\n      0xc00d2a8c\n      eq\n      tag_17\n      jumpi\n      dup1\n      0xca6d56dc\n      eq\n      tag_18\n      jumpi\n      dup1\n      0xd0e30db0\n      eq\n      tag_26\n      jumpi\n      dup1\n      0xf2fde38b\n      eq\n      tag_20\n      jumpi\n      dup1\n      0xf96dae0a\n      eq\n      tag_21\n      jumpi\n      0x00\n      dup1\n      revert\n    tag_23:\n      dup1\n      0x6e04ff0d\n      eq\n      tag_12\n      jumpi\n      dup1\n      0x715018a6\n      eq\n      tag_13\n      jumpi\n      dup1\n      0x8da5cb5b\n      eq\n      tag_14\n      jumpi\n      dup1\n      0xa59a9973\n      eq\n      tag_15\n      jumpi\n      dup1\n      0xa607a8d9\n      eq\n      tag_16\n      jumpi\n      0x00\n      dup1\n      revert\n    tag_22:\n      dup1\n      0x237af348\n      gt\n      tag_24\n      jumpi\n      dup1\n      0x237af348\n      eq\n      tag_7\n      jumpi\n      dup1\n      0x4585e33b\n      eq\n      tag_8\n      jumpi\n      dup1\n      0x4d68282f\n      eq\n      tag_9\n      jumpi\n      dup1\n      0x688f237b\n      eq\n      tag_10\n      jumpi\n      dup1\n      0x68fd2d80\n      eq\n      tag_11\n      jumpi\n      0x00\n      dup1\n      revert\n    tag_24:\n      dup1\n      0x0121b93f\n      eq\n      tag_2\n      jumpi\n      dup1\n      0x013cf08b\n      eq\n      tag_3\n      jumpi\n      dup1\n      0x08ae4b0c\n      eq\n      tag_4\n      jumpi\n      dup1\n      0x0d61b519\n      eq\n      tag_5\n      jumpi\n      dup1\n      0x12065fe0\n      eq\n      tag_6\n      jumpi\n    tag_1:\n      0x00\n      dup1\n      revert\n        /* \"contracts/TreasuryDAOTest_flattened.sol\":13605:14138  function vote(uint proposalId) public onlyMember {... */\n    tag_2:\n      callvalue\n      dup1\n      iszero\n      tag_25\n      jumpi\n      0x00\n      dup1\n      revert\n    tag_25:\n      pop\n      tag_26\n      tag_27\n      calldatasize\n      0x04\n      tag_28\n      jump\t// in\n    tag_27:\n      tag_29\n      jump\t// in\n    tag_26:\n      stop\n        /* \"contracts/TreasuryDAOTest_flattened.sol\":11506:11533  Proposal[] public proposals */\n    tag_3:\n      callvalue\n      dup1\n      iszero\n      tag_30\n      jumpi\n      0x00\n      dup1\n      revert\n    tag_30:\n      pop\n      tag_31\n      tag_32\n      calldatasize\n      0x04\n      tag_28\n      jump\t// in\n    tag_32:\n      tag_33\n      jump\t// in\n    tag_31:\n      0x40\n      dup1\n      mload\n      sub(shl(0xa0, 0x01), 0x01)\n        /* \"#utility.yul\":560:592   */\n      swap1\n      swap8\n      and\n        /* \"#utility.yul\":542:593   */\n      dup8\n      mstore\n        /* \"#utility.yul\":624:626   */\n      0x20\n        /* \"#utility.yul\":609:627   */\n      dup8\n      add\n        /* \"#utility.yul\":602:636   */\n      swap6\n      swap1\n      swap6\n      mstore\n        /* \"#utility.yul\":652:670   */\n      swap4\n      dup6\n      add\n        /* \"#utility.yul\":645:679   */\n      swap3\n      swap1\n      swap3\n      mstore\n        /* \"#utility.yul\":710:712   */\n      0x60\n        /* \"#utility.yul\":695:713   */\n      dup5\n      add\n        /* \"#utility.yul\":688:722   */\n      mstore\n        /* \"#utility.yul\":766:780   */\n      iszero\n        /* \"#utility.yul\":759:781   */\n      iszero\n        /* \"#utility.yul\":753:756   */\n      0x80\n        /* \"#utility.yul\":738:757   */\n      dup4\n      add\n        /* \"#utility.yul\":731:782   */\n      mstore\n        /* \"#utility.yul\":580:583   */\n      0xa0\n        /* \"#utility.yul\":798:817   */\n      dup3\n      add\n        /* \"#utility.yul\":791:826   */\n      mstore\n        /* \"#utility.yul\":529:532   */\n      0xc0\n        /* \"#utility.yul\":514:533   */\n      add\n        /* \"contracts/TreasuryDAOTest_flattened.sol\":11506:11533  Proposal[] public proposals */\n    tag_34:\n      mload(0x40)\n      dup1\n      swap2\n      sub\n      swap1\n      return\n        /* \"contracts/TreasuryDAOTest_flattened.sol\":11440:11479  mapping(address => bool) public members */\n    tag_4:\n      callvalue\n      dup1\n      iszero\n      tag_36\n      jumpi\n      0x00\n      dup1\n      revert\n    tag_36:\n      pop\n      tag_37\n      tag_38\n      calldatasize\n      0x04\n      tag_39\n      jump\t// in\n    tag_38:\n      mstore(0x20, 0x01)\n      0x00\n      swap1\n      dup2\n      mstore\n      0x40\n      swap1\n      keccak256\n      sload\n      0xff\n      and\n      dup2\n      jump\n    tag_37:\n      mload(0x40)\n        /* \"#utility.yul\":1390:1404   */\n      swap1\n      iszero\n        /* \"#utility.yul\":1383:1405   */\n      iszero\n        /* \"#utility.yul\":1365:1406   */\n      dup2\n      mstore\n        /* \"#utility.yul\":1353:1355   */\n      0x20\n        /* \"#utility.yul\":1338:1356   */\n      add\n        /* \"contracts/TreasuryDAOTest_flattened.sol\":11440:11479  mapping(address => bool) public members */\n      tag_34\n        /* \"#utility.yul\":1225:1412   */\n      jump\n        /* \"contracts/TreasuryDAOTest_flattened.sol\":14231:14837  function executeProposal(uint proposalId) public {... */\n    tag_5:\n      callvalue\n      dup1\n      iszero\n      tag_43\n      jumpi\n      0x00\n      dup1\n      revert\n    tag_43:\n      pop\n      tag_26\n      tag_45\n      calldatasize\n      0x04\n      tag_28\n      jump\t// in\n    tag_45:\n      tag_46\n      jump\t// in\n        /* \"contracts/TreasuryDAOTest_flattened.sol\":16768:16863  function getBalance() public view returns (uint256) {... */\n    tag_6:\n      callvalue\n      dup1\n      iszero\n      tag_47\n      jumpi\n      0x00\n      dup1\n      revert\n    tag_47:\n      pop\n        /* \"contracts/TreasuryDAOTest_flattened.sol\":16836:16857  address(this).balance */\n      selfbalance\n        /* \"contracts/TreasuryDAOTest_flattened.sol\":16768:16863  function getBalance() public view returns (uint256) {... */\n    tag_48:\n      mload(0x40)\n        /* \"#utility.yul\":1563:1588   */\n      swap1\n      dup2\n      mstore\n        /* \"#utility.yul\":1551:1553   */\n      0x20\n        /* \"#utility.yul\":1536:1554   */\n      add\n        /* \"contracts/TreasuryDAOTest_flattened.sol\":16768:16863  function getBalance() public view returns (uint256) {... */\n      tag_34\n        /* \"#utility.yul\":1417:1594   */\n      jump\n        /* \"contracts/TreasuryDAOTest_flattened.sol\":12957:13551  function proposeFunding(address payable recipient, uint256 amount) public onlyMember {... */\n    tag_7:\n      callvalue\n      dup1\n      iszero\n      tag_52\n      jumpi\n      0x00\n      dup1\n      revert\n    tag_52:\n      pop\n      tag_26\n      tag_54\n      calldatasize\n      0x04\n      tag_55\n      jump\t// in\n    tag_54:\n      tag_56\n      jump\t// in\n        /* \"contracts/TreasuryDAOTest_flattened.sol\":16039:16208  function performUpkeep(bytes calldata performData) external override {... */\n    tag_8:\n      callvalue\n      dup1\n      iszero\n      tag_57\n      jumpi\n      0x00\n      dup1\n      revert\n    tag_57:\n      pop\n      tag_26\n      tag_59\n      calldatasize\n      0x04\n      tag_60\n      jump\t// in\n    tag_59:\n      tag_61\n      jump\t// in\n        /* \"contracts/TreasuryDAOTest_flattened.sol\":14912:15200  function releaseFunds(uint proposalId) public {... */\n    tag_9:\n      callvalue\n      dup1\n      iszero\n      tag_62\n      jumpi\n      0x00\n      dup1\n      revert\n    tag_62:\n      pop\n      tag_26\n      tag_64\n      calldatasize\n      0x04\n      tag_28\n      jump\t// in\n    tag_64:\n      tag_65\n      jump\t// in\n        /* \"contracts/TreasuryDAOTest_flattened.sol\":16468:16602  function withdrawFromAave(uint256 amount) external onlyOwner {... */\n    tag_10:\n      callvalue\n      dup1\n      iszero\n      tag_66\n      jumpi\n      0x00\n      dup1\n      revert\n    tag_66:\n      pop\n      tag_26\n      tag_68\n      calldatasize\n      0x04\n      tag_28\n      jump\t// in\n    tag_68:\n      tag_69\n      jump\t// in\n        /* \"contracts/TreasuryDAOTest_flattened.sol\":16270:16403  function depositToAave(uint256 amount) external onlyOwner {... */\n    tag_11:\n      callvalue\n      dup1\n      iszero\n      tag_70\n      jumpi\n      0x00\n      dup1\n      revert\n    tag_70:\n      pop\n      tag_26\n      tag_72\n      calldatasize\n      0x04\n      tag_28\n      jump\t// in\n    tag_72:\n      tag_73\n      jump\t// in\n        /* \"contracts/TreasuryDAOTest_flattened.sol\":15549:15954  function checkUpkeep(bytes calldata /* checkData */) external view override returns (bool upkeepNeeded, bytes memory performData) {... */\n    tag_12:\n      callvalue\n      dup1\n      iszero\n      tag_74\n      jumpi\n      0x00\n      dup1\n      revert\n    tag_74:\n      pop\n      tag_75\n      tag_76\n      calldatasize\n      0x04\n      tag_60\n      jump\t// in\n    tag_76:\n      tag_77\n      jump\t// in\n    tag_75:\n      mload(0x40)\n      tag_34\n      swap3\n      swap2\n      swap1\n      tag_79\n      jump\t// in\n        /* \"contracts/TreasuryDAOTest_flattened.sol\":3255:3356  function renounceOwnership() public virtual onlyOwner {... */\n    tag_13:\n      callvalue\n      dup1\n      iszero\n      tag_80\n      jumpi\n      0x00\n      dup1\n      revert\n    tag_80:\n      pop\n      tag_26\n      tag_82\n      jump\t// in\n        /* \"contracts/TreasuryDAOTest_flattened.sol\":2600:2685  function owner() public view virtual returns (address) {... */\n    tag_14:\n      callvalue\n      dup1\n      iszero\n      tag_83\n      jumpi\n      0x00\n      dup1\n      revert\n    tag_83:\n      pop\n        /* \"contracts/TreasuryDAOTest_flattened.sol\":2646:2653  address */\n      0x00\n        /* \"contracts/TreasuryDAOTest_flattened.sol\":2672:2678  _owner */\n      sload\n      sub(shl(0xa0, 0x01), 0x01)\n      and\n        /* \"contracts/TreasuryDAOTest_flattened.sol\":2600:2685  function owner() public view virtual returns (address) {... */\n    tag_84:\n      mload(0x40)\n      sub(shl(0xa0, 0x01), 0x01)\n        /* \"#utility.yul\":3236:3268   */\n      swap1\n      swap2\n      and\n        /* \"#utility.yul\":3218:3269   */\n      dup2\n      mstore\n        /* \"#utility.yul\":3206:3208   */\n      0x20\n        /* \"#utility.yul\":3191:3209   */\n      add\n        /* \"contracts/TreasuryDAOTest_flattened.sol\":2600:2685  function owner() public view virtual returns (address) {... */\n      tag_34\n        /* \"#utility.yul\":3072:3275   */\n      jump\n        /* \"contracts/TreasuryDAOTest_flattened.sol\":11713:11748  IAaveLendingPool public lendingPool */\n    tag_15:\n      callvalue\n      dup1\n      iszero\n      tag_88\n      jumpi\n      0x00\n      dup1\n      revert\n    tag_88:\n      pop\n      sload(0x05)\n      tag_84\n      swap1\n      sub(shl(0xa0, 0x01), 0x01)\n      and\n      dup2\n      jump\n        /* \"contracts/TreasuryDAOTest_flattened.sol\":15267:15466  function getETHPrice() public view returns (uint256) {... */\n    tag_16:\n      callvalue\n      dup1\n      iszero\n      tag_93\n      jumpi\n      0x00\n      dup1\n      revert\n    tag_93:\n      pop\n      tag_48\n      tag_95\n      jump\t// in\n        /* \"contracts/TreasuryDAOTest_flattened.sol\":11792:11834  uint256 public minVoteDuration = 1 minutes */\n    tag_17:\n      callvalue\n      dup1\n      iszero\n      tag_97\n      jumpi\n      0x00\n      dup1\n      revert\n    tag_97:\n      pop\n      tag_48\n      sload(0x06)\n      dup2\n      jump\n        /* \"contracts/TreasuryDAOTest_flattened.sol\":12817:12906  function addMember(address member) public onlyOwner {... */\n    tag_18:\n      callvalue\n      dup1\n      iszero\n      tag_101\n      jumpi\n      0x00\n      dup1\n      revert\n    tag_101:\n      pop\n      tag_26\n      tag_103\n      calldatasize\n      0x04\n      tag_39\n      jump\t// in\n    tag_103:\n      tag_104\n      jump\t// in\n        /* \"contracts/TreasuryDAOTest_flattened.sol\":3505:3720  function transferOwnership(address newOwner) public virtual onlyOwner {... */\n    tag_20:\n      callvalue\n      dup1\n      iszero\n      tag_107\n      jumpi\n      0x00\n      dup1\n      revert\n    tag_107:\n      pop\n      tag_26\n      tag_109\n      calldatasize\n      0x04\n      tag_39\n      jump\t// in\n    tag_109:\n      tag_110\n      jump\t// in\n        /* \"contracts/TreasuryDAOTest_flattened.sol\":11560:11589  IERC20 public governanceToken */\n    tag_21:\n      callvalue\n      dup1\n      iszero\n      tag_111\n      jumpi\n      0x00\n      dup1\n      revert\n    tag_111:\n      pop\n      sload(0x03)\n      tag_84\n      swap1\n      sub(shl(0xa0, 0x01), 0x01)\n      and\n      dup2\n      jump\n        /* \"contracts/TreasuryDAOTest_flattened.sol\":13605:14138  function vote(uint proposalId) public onlyMember {... */\n    tag_29:\n        /* \"contracts/TreasuryDAOTest_flattened.sol\":12728:12738  msg.sender */\n      caller\n        /* \"contracts/TreasuryDAOTest_flattened.sol\":12720:12739  members[msg.sender] */\n      0x00\n      swap1\n      dup2\n      mstore\n        /* \"contracts/TreasuryDAOTest_flattened.sol\":12720:12727  members */\n      0x01\n        /* \"contracts/TreasuryDAOTest_flattened.sol\":12720:12739  members[msg.sender] */\n      0x20\n      mstore\n      0x40\n      swap1\n      keccak256\n      sload\n      0xff\n      and\n        /* \"contracts/TreasuryDAOTest_flattened.sol\":12712:12760  require(members[msg.sender], \"Not a DAO member\") */\n      tag_117\n      jumpi\n      mload(0x40)\n      shl(0xe5, 0x461bcd)\n      dup2\n      mstore\n        /* \"#utility.yul\":3936:3938   */\n      0x20\n        /* \"contracts/TreasuryDAOTest_flattened.sol\":12712:12760  require(members[msg.sender], \"Not a DAO member\") */\n      0x04\n      dup3\n      add\n        /* \"#utility.yul\":3918:3939   */\n      mstore\n        /* \"#utility.yul\":3975:3977   */\n      0x10\n        /* \"#utility.yul\":3955:3973   */\n      0x24\n      dup3\n      add\n        /* \"#utility.yul\":3948:3978   */\n      mstore\n      shl(0x81, 0x2737ba1030902220a79036b2b6b132b9)\n        /* \"#utility.yul\":3994:4012   */\n      0x44\n      dup3\n      add\n        /* \"#utility.yul\":3987:4033   */\n      mstore\n        /* \"#utility.yul\":4050:4068   */\n      0x64\n      add\n        /* \"contracts/TreasuryDAOTest_flattened.sol\":12712:12760  require(members[msg.sender], \"Not a DAO member\") */\n    tag_118:\n      mload(0x40)\n      dup1\n      swap2\n      sub\n      swap1\n      revert\n    tag_117:\n        /* \"contracts/TreasuryDAOTest_flattened.sol\":13663:13688  Proposal storage proposal */\n      0x00\n        /* \"contracts/TreasuryDAOTest_flattened.sol\":13691:13700  proposals */\n      0x02\n        /* \"contracts/TreasuryDAOTest_flattened.sol\":13701:13711  proposalId */\n      dup3\n        /* \"contracts/TreasuryDAOTest_flattened.sol\":13691:13712  proposals[proposalId] */\n      dup2\n      sload\n      dup2\n      lt\n      tag_122\n      jumpi\n      tag_122\n      tag_123\n      jump\t// in\n    tag_122:\n      0x00\n      swap2\n      dup3\n      mstore\n      0x20\n      dup1\n      dup4\n      keccak256\n        /* \"contracts/TreasuryDAOTest_flattened.sol\":13745:13755  msg.sender */\n      caller\n        /* \"contracts/TreasuryDAOTest_flattened.sol\":13730:13756  proposal.voted[msg.sender] */\n      dup5\n      mstore\n        /* \"contracts/TreasuryDAOTest_flattened.sol\":13730:13744  proposal.voted */\n      0x06\n        /* \"contracts/TreasuryDAOTest_flattened.sol\":13691:13712  proposals[proposalId] */\n      0x07\n      swap1\n      swap4\n      mul\n      add\n        /* \"contracts/TreasuryDAOTest_flattened.sol\":13730:13744  proposal.voted */\n      swap2\n      dup3\n      add\n        /* \"contracts/TreasuryDAOTest_flattened.sol\":13730:13756  proposal.voted[msg.sender] */\n      swap1\n      mstore\n      0x40\n      swap1\n      swap2\n      keccak256\n      sload\n        /* \"contracts/TreasuryDAOTest_flattened.sol\":13691:13712  proposals[proposalId] */\n      swap1\n      swap2\n      pop\n        /* \"contracts/TreasuryDAOTest_flattened.sol\":13730:13756  proposal.voted[msg.sender] */\n      0xff\n      and\n        /* \"contracts/TreasuryDAOTest_flattened.sol\":13729:13756  !proposal.voted[msg.sender] */\n      iszero\n        /* \"contracts/TreasuryDAOTest_flattened.sol\":13721:13774  require(!proposal.voted[msg.sender], \"Already voted\") */\n      tag_125\n      jumpi\n      mload(0x40)\n      shl(0xe5, 0x461bcd)\n      dup2\n      mstore\n        /* \"#utility.yul\":4413:4415   */\n      0x20\n        /* \"contracts/TreasuryDAOTest_flattened.sol\":13721:13774  require(!proposal.voted[msg.sender], \"Already voted\") */\n      0x04\n      dup3\n      add\n        /* \"#utility.yul\":4395:4416   */\n      mstore\n        /* \"#utility.yul\":4452:4454   */\n      0x0d\n        /* \"#utility.yul\":4432:4450   */\n      0x24\n      dup3\n      add\n        /* \"#utility.yul\":4425:4455   */\n      mstore\n      shl(0x9a, 0x105b1c9958591e481d9bdd1959)\n        /* \"#utility.yul\":4471:4489   */\n      0x44\n      dup3\n      add\n        /* \"#utility.yul\":4464:4507   */\n      mstore\n        /* \"#utility.yul\":4524:4542   */\n      0x64\n      add\n        /* \"contracts/TreasuryDAOTest_flattened.sol\":13721:13774  require(!proposal.voted[msg.sender], \"Already voted\") */\n      tag_118\n        /* \"#utility.yul\":4211:4548   */\n      jump\n        /* \"contracts/TreasuryDAOTest_flattened.sol\":13721:13774  require(!proposal.voted[msg.sender], \"Already voted\") */\n    tag_125:\n        /* \"contracts/TreasuryDAOTest_flattened.sol\":13809:13817  proposal */\n      dup1\n        /* \"contracts/TreasuryDAOTest_flattened.sol\":13809:13825  proposal.endTime */\n      0x03\n      add\n      sload\n        /* \"contracts/TreasuryDAOTest_flattened.sol\":13791:13806  block.timestamp */\n      timestamp\n        /* \"contracts/TreasuryDAOTest_flattened.sol\":13791:13825  block.timestamp < proposal.endTime */\n      lt\n        /* \"contracts/TreasuryDAOTest_flattened.sol\":13783:13849  require(block.timestamp < proposal.endTime, \"Voting period ended\") */\n      tag_128\n      jumpi\n      mload(0x40)\n      shl(0xe5, 0x461bcd)\n      dup2\n      mstore\n        /* \"#utility.yul\":4755:4757   */\n      0x20\n        /* \"contracts/TreasuryDAOTest_flattened.sol\":13783:13849  require(block.timestamp < proposal.endTime, \"Voting period ended\") */\n      0x04\n      dup3\n      add\n        /* \"#utility.yul\":4737:4758   */\n      mstore\n        /* \"#utility.yul\":4794:4796   */\n      0x13\n        /* \"#utility.yul\":4774:4792   */\n      0x24\n      dup3\n      add\n        /* \"#utility.yul\":4767:4797   */\n      mstore\n      shl(0x6a, 0x159bdd1a5b99c81c195c9a5bd908195b991959)\n        /* \"#utility.yul\":4813:4831   */\n      0x44\n      dup3\n      add\n        /* \"#utility.yul\":4806:4855   */\n      mstore\n        /* \"#utility.yul\":4872:4890   */\n      0x64\n      add\n        /* \"contracts/TreasuryDAOTest_flattened.sol\":13783:13849  require(block.timestamp < proposal.endTime, \"Voting period ended\") */\n      tag_118\n        /* \"#utility.yul\":4553:4896   */\n      jump\n        /* \"contracts/TreasuryDAOTest_flattened.sol\":13783:13849  require(block.timestamp < proposal.endTime, \"Voting period ended\") */\n    tag_128:\n        /* \"contracts/TreasuryDAOTest_flattened.sol\":13882:13897  governanceToken */\n      sload(0x03)\n        /* \"contracts/TreasuryDAOTest_flattened.sol\":13882:13919  governanceToken.balanceOf(msg.sender) */\n      mload(0x40)\n      shl(0xe0, 0x70a08231)\n      dup2\n      mstore\n        /* \"contracts/TreasuryDAOTest_flattened.sol\":13908:13918  msg.sender */\n      caller\n        /* \"contracts/TreasuryDAOTest_flattened.sol\":13882:13919  governanceToken.balanceOf(msg.sender) */\n      0x04\n      dup3\n      add\n        /* \"#utility.yul\":3218:3269   */\n      mstore\n        /* \"contracts/TreasuryDAOTest_flattened.sol\":13859:13879  uint256 voterBalance */\n      0x00\n      swap2\n      sub(shl(0xa0, 0x01), 0x01)\n        /* \"contracts/TreasuryDAOTest_flattened.sol\":13882:13897  governanceToken */\n      and\n      swap1\n        /* \"contracts/TreasuryDAOTest_flattened.sol\":13882:13907  governanceToken.balanceOf */\n      0x70a08231\n      swap1\n        /* \"#utility.yul\":3191:3209   */\n      0x24\n      add\n        /* \"contracts/TreasuryDAOTest_flattened.sol\":13882:13919  governanceToken.balanceOf(msg.sender) */\n      0x20\n      mload(0x40)\n      dup1\n      dup4\n      sub\n      dup2\n      dup7\n      gas\n      staticcall\n      iszero\n      dup1\n      iszero\n      tag_133\n      jumpi\n      returndatasize\n      0x00\n      dup1\n      returndatacopy\n      revert(0x00, returndatasize)\n    tag_133:\n      pop\n      pop\n      pop\n      pop\n      mload(0x40)\n      returndatasize\n      not(0x1f)\n      0x1f\n      dup3\n      add\n      and\n      dup3\n      add\n      dup1\n      0x40\n      mstore\n      pop\n      dup2\n      add\n      swap1\n      tag_134\n      swap2\n      swap1\n      tag_135\n      jump\t// in\n    tag_134:\n        /* \"contracts/TreasuryDAOTest_flattened.sol\":13859:13919  uint256 voterBalance = governanceToken.balanceOf(msg.sender) */\n      swap1\n      pop\n        /* \"contracts/TreasuryDAOTest_flattened.sol\":13951:13952  0 */\n      0x00\n        /* \"contracts/TreasuryDAOTest_flattened.sol\":13936:13948  voterBalance */\n      dup2\n        /* \"contracts/TreasuryDAOTest_flattened.sol\":13936:13952  voterBalance > 0 */\n      gt\n        /* \"contracts/TreasuryDAOTest_flattened.sol\":13928:13992  require(voterBalance > 0, \"Must hold governance tokens to vote\") */\n      tag_136\n      jumpi\n      mload(0x40)\n      shl(0xe5, 0x461bcd)\n      dup2\n      mstore\n        /* \"#utility.yul\":5338:5340   */\n      0x20\n        /* \"contracts/TreasuryDAOTest_flattened.sol\":13928:13992  require(voterBalance > 0, \"Must hold governance tokens to vote\") */\n      0x04\n      dup3\n      add\n        /* \"#utility.yul\":5320:5341   */\n      mstore\n        /* \"#utility.yul\":5377:5379   */\n      0x23\n        /* \"#utility.yul\":5357:5375   */\n      0x24\n      dup3\n      add\n        /* \"#utility.yul\":5350:5380   */\n      mstore\n        /* \"#utility.yul\":5416:5450   */\n      0x4d75737420686f6c6420676f7665726e616e636520746f6b656e7320746f2076\n        /* \"#utility.yul\":5396:5414   */\n      0x44\n      dup3\n      add\n        /* \"#utility.yul\":5389:5451   */\n      mstore\n      shl(0xe8, 0x6f7465)\n        /* \"#utility.yul\":5467:5485   */\n      0x64\n      dup3\n      add\n        /* \"#utility.yul\":5460:5493   */\n      mstore\n        /* \"#utility.yul\":5510:5529   */\n      0x84\n      add\n        /* \"contracts/TreasuryDAOTest_flattened.sol\":13928:13992  require(voterBalance > 0, \"Must hold governance tokens to vote\") */\n      tag_118\n        /* \"#utility.yul\":5136:5535   */\n      jump\n        /* \"contracts/TreasuryDAOTest_flattened.sol\":13928:13992  require(voterBalance > 0, \"Must hold governance tokens to vote\") */\n    tag_136:\n        /* \"contracts/TreasuryDAOTest_flattened.sol\":14020:14032  voterBalance */\n      dup1\n        /* \"contracts/TreasuryDAOTest_flattened.sol\":14002:14010  proposal */\n      dup3\n        /* \"contracts/TreasuryDAOTest_flattened.sol\":14002:14016  proposal.votes */\n      0x02\n      add\n      0x00\n        /* \"contracts/TreasuryDAOTest_flattened.sol\":14002:14032  proposal.votes += voterBalance */\n      dup3\n      dup3\n      sload\n      tag_139\n      swap2\n      swap1\n      tag_140\n      jump\t// in\n    tag_139:\n      swap1\n      swap2\n      sstore\n      pop\n      pop\n        /* \"contracts/TreasuryDAOTest_flattened.sol\":14056:14066  msg.sender */\n      caller\n        /* \"contracts/TreasuryDAOTest_flattened.sol\":14041:14067  proposal.voted[msg.sender] */\n      0x00\n      dup2\n      dup2\n      mstore\n        /* \"contracts/TreasuryDAOTest_flattened.sol\":14041:14055  proposal.voted */\n      0x06\n      dup5\n      add\n        /* \"contracts/TreasuryDAOTest_flattened.sol\":14041:14067  proposal.voted[msg.sender] */\n      0x20\n      swap1\n      dup2\n      mstore\n      0x40\n      swap2\n      dup3\n      swap1\n      keccak256\n        /* \"contracts/TreasuryDAOTest_flattened.sol\":14041:14074  proposal.voted[msg.sender] = true */\n      dup1\n      sload\n      not(0xff)\n      and\n        /* \"contracts/TreasuryDAOTest_flattened.sol\":14070:14074  true */\n      0x01\n        /* \"contracts/TreasuryDAOTest_flattened.sol\":14041:14074  proposal.voted[msg.sender] = true */\n      or\n      swap1\n      sstore\n        /* \"contracts/TreasuryDAOTest_flattened.sol\":14089:14132  Voted(proposalId, msg.sender, voterBalance) */\n      dup2\n      mload\n        /* \"#utility.yul\":6004:6029   */\n      dup7\n      dup2\n      mstore\n        /* \"#utility.yul\":6045:6063   */\n      swap1\n      dup2\n      add\n        /* \"#utility.yul\":6038:6098   */\n      swap3\n      swap1\n      swap3\n      mstore\n        /* \"#utility.yul\":6114:6132   */\n      dup2\n      add\n        /* \"#utility.yul\":6107:6141   */\n      dup3\n      swap1\n      mstore\n        /* \"contracts/TreasuryDAOTest_flattened.sol\":14089:14132  Voted(proposalId, msg.sender, voterBalance) */\n      0x1abe610cf2bf87e57dcc1181fcf5ac0934e843d8344ab9eed6e86c799f62585e\n      swap1\n        /* \"#utility.yul\":5992:5994   */\n      0x60\n        /* \"#utility.yul\":5977:5995   */\n      add\n        /* \"contracts/TreasuryDAOTest_flattened.sol\":14089:14132  Voted(proposalId, msg.sender, voterBalance) */\n    tag_141:\n      mload(0x40)\n      dup1\n      swap2\n      sub\n      swap1\n      log1\n        /* \"contracts/TreasuryDAOTest_flattened.sol\":13654:14138  {... */\n      pop\n      pop\n        /* \"contracts/TreasuryDAOTest_flattened.sol\":13605:14138  function vote(uint proposalId) public onlyMember {... */\n      pop\n      jump\t// out\n        /* \"contracts/TreasuryDAOTest_flattened.sol\":11506:11533  Proposal[] public proposals */\n    tag_33:\n      0x02\n      dup2\n      dup2\n      sload\n      dup2\n      lt\n      tag_143\n      jumpi\n      0x00\n      dup1\n      revert\n    tag_143:\n      0x00\n      swap2\n      dup3\n      mstore\n      0x20\n      swap1\n      swap2\n      keccak256\n      0x07\n      swap1\n      swap2\n      mul\n      add\n      dup1\n      sload\n      0x01\n      dup3\n      add\n      sload\n      0x02\n      dup4\n      add\n      sload\n      0x03\n      dup5\n      add\n      sload\n      0x04\n      dup6\n      add\n      sload\n      0x05\n      swap1\n      swap6\n      add\n      sload\n      sub(shl(0xa0, 0x01), 0x01)\n      swap1\n      swap5\n      and\n      swap6\n      pop\n      swap2\n      swap4\n      swap1\n      swap3\n      0xff\n      swap1\n      swap2\n      and\n      swap1\n      dup7\n      jump\t// out\n        /* \"contracts/TreasuryDAOTest_flattened.sol\":14231:14837  function executeProposal(uint proposalId) public {... */\n    tag_46:\n        /* \"contracts/TreasuryDAOTest_flattened.sol\":14289:14314  Proposal storage proposal */\n      0x00\n        /* \"contracts/TreasuryDAOTest_flattened.sol\":14317:14326  proposals */\n      0x02\n        /* \"contracts/TreasuryDAOTest_flattened.sol\":14327:14337  proposalId */\n      dup3\n        /* \"contracts/TreasuryDAOTest_flattened.sol\":14317:14338  proposals[proposalId] */\n      dup2\n      sload\n      dup2\n      lt\n      tag_147\n      jumpi\n      tag_147\n      tag_123\n      jump\t// in\n    tag_147:\n      swap1\n      0x00\n      mstore\n      keccak256(0x00, 0x20)\n      swap1\n      0x07\n      mul\n      add\n        /* \"contracts/TreasuryDAOTest_flattened.sol\":14289:14338  Proposal storage proposal = proposals[proposalId] */\n      swap1\n      pop\n        /* \"contracts/TreasuryDAOTest_flattened.sol\":14373:14385  500 * 10**18 */\n      0x1b1ae4d6e2ef500000\n        /* \"contracts/TreasuryDAOTest_flattened.sol\":14355:14363  proposal */\n      dup2\n        /* \"contracts/TreasuryDAOTest_flattened.sol\":14355:14369  proposal.votes */\n      0x02\n      add\n      sload\n        /* \"contracts/TreasuryDAOTest_flattened.sol\":14355:14385  proposal.votes >= 500 * 10**18 */\n      lt\n      iszero\n        /* \"contracts/TreasuryDAOTest_flattened.sol\":14347:14428  require(proposal.votes >= 500 * 10**18, \"Not enough votes (500 tokens required)\") */\n      tag_149\n      jumpi\n      mload(0x40)\n      shl(0xe5, 0x461bcd)\n      dup2\n      mstore\n        /* \"#utility.yul\":6354:6356   */\n      0x20\n        /* \"contracts/TreasuryDAOTest_flattened.sol\":14347:14428  require(proposal.votes >= 500 * 10**18, \"Not enough votes (500 tokens required)\") */\n      0x04\n      dup3\n      add\n        /* \"#utility.yul\":6336:6357   */\n      mstore\n        /* \"#utility.yul\":6393:6395   */\n      0x26\n        /* \"#utility.yul\":6373:6391   */\n      0x24\n      dup3\n      add\n        /* \"#utility.yul\":6366:6396   */\n      mstore\n        /* \"#utility.yul\":6432:6466   */\n      0x4e6f7420656e6f75676820766f746573202835303020746f6b656e7320726571\n        /* \"#utility.yul\":6412:6430   */\n      0x44\n      dup3\n      add\n        /* \"#utility.yul\":6405:6467   */\n      mstore\n      shl(0xd0, 0x756972656429)\n        /* \"#utility.yul\":6483:6501   */\n      0x64\n      dup3\n      add\n        /* \"#utility.yul\":6476:6512   */\n      mstore\n        /* \"#utility.yul\":6529:6548   */\n      0x84\n      add\n        /* \"contracts/TreasuryDAOTest_flattened.sol\":14347:14428  require(proposal.votes >= 500 * 10**18, \"Not enough votes (500 tokens required)\") */\n      tag_118\n        /* \"#utility.yul\":6152:6554   */\n      jump\n        /* \"contracts/TreasuryDAOTest_flattened.sol\":14347:14428  require(proposal.votes >= 500 * 10**18, \"Not enough votes (500 tokens required)\") */\n    tag_149:\n        /* \"contracts/TreasuryDAOTest_flattened.sol\":14446:14463  proposal.executed */\n      0x04\n      dup2\n      add\n      sload\n      0xff\n      and\n        /* \"contracts/TreasuryDAOTest_flattened.sol\":14445:14463  !proposal.executed */\n      iszero\n        /* \"contracts/TreasuryDAOTest_flattened.sol\":14437:14484  require(!proposal.executed, \"Already executed\") */\n      tag_152\n      jumpi\n      mload(0x40)\n      shl(0xe5, 0x461bcd)\n      dup2\n      mstore\n        /* \"#utility.yul\":6761:6763   */\n      0x20\n        /* \"contracts/TreasuryDAOTest_flattened.sol\":14437:14484  require(!proposal.executed, \"Already executed\") */\n      0x04\n      dup3\n      add\n        /* \"#utility.yul\":6743:6764   */\n      mstore\n        /* \"#utility.yul\":6800:6802   */\n      0x10\n        /* \"#utility.yul\":6780:6798   */\n      0x24\n      dup3\n      add\n        /* \"#utility.yul\":6773:6803   */\n      mstore\n      shl(0x82, 0x105b1c9958591e48195e1958dd5d1959)\n        /* \"#utility.yul\":6819:6837   */\n      0x44\n      dup3\n      add\n        /* \"#utility.yul\":6812:6858   */\n      mstore\n        /* \"#utility.yul\":6875:6893   */\n      0x64\n      add\n        /* \"contracts/TreasuryDAOTest_flattened.sol\":14437:14484  require(!proposal.executed, \"Already executed\") */\n      tag_118\n        /* \"#utility.yul\":6559:6899   */\n      jump\n        /* \"contracts/TreasuryDAOTest_flattened.sol\":14437:14484  require(!proposal.executed, \"Already executed\") */\n    tag_152:\n        /* \"contracts/TreasuryDAOTest_flattened.sol\":14520:14528  proposal */\n      dup1\n        /* \"contracts/TreasuryDAOTest_flattened.sol\":14520:14536  proposal.endTime */\n      0x03\n      add\n      sload\n        /* \"contracts/TreasuryDAOTest_flattened.sol\":14501:14516  block.timestamp */\n      timestamp\n        /* \"contracts/TreasuryDAOTest_flattened.sol\":14501:14536  block.timestamp >= proposal.endTime */\n      lt\n      iszero\n        /* \"contracts/TreasuryDAOTest_flattened.sol\":14493:14564  require(block.timestamp >= proposal.endTime, \"Voting period not ended\") */\n      tag_155\n      jumpi\n      mload(0x40)\n      shl(0xe5, 0x461bcd)\n      dup2\n      mstore\n        /* \"#utility.yul\":7106:7108   */\n      0x20\n        /* \"contracts/TreasuryDAOTest_flattened.sol\":14493:14564  require(block.timestamp >= proposal.endTime, \"Voting period not ended\") */\n      0x04\n      dup3\n      add\n        /* \"#utility.yul\":7088:7109   */\n      mstore\n        /* \"#utility.yul\":7145:7147   */\n      0x17\n        /* \"#utility.yul\":7125:7143   */\n      0x24\n      dup3\n      add\n        /* \"#utility.yul\":7118:7148   */\n      mstore\n        /* \"#utility.yul\":7184:7209   */\n      0x566f74696e6720706572696f64206e6f7420656e646564000000000000000000\n        /* \"#utility.yul\":7164:7182   */\n      0x44\n      dup3\n      add\n        /* \"#utility.yul\":7157:7210   */\n      mstore\n        /* \"#utility.yul\":7227:7245   */\n      0x64\n      add\n        /* \"contracts/TreasuryDAOTest_flattened.sol\":14493:14564  require(block.timestamp >= proposal.endTime, \"Voting period not ended\") */\n      tag_118\n        /* \"#utility.yul\":6904:7251   */\n      jump\n        /* \"contracts/TreasuryDAOTest_flattened.sol\":14493:14564  require(block.timestamp >= proposal.endTime, \"Voting period not ended\") */\n    tag_155:\n        /* \"contracts/TreasuryDAOTest_flattened.sol\":14597:14601  1500 */\n      0x05dc\n        /* \"contracts/TreasuryDAOTest_flattened.sol\":14581:14594  getETHPrice() */\n      tag_158\n        /* \"contracts/TreasuryDAOTest_flattened.sol\":14581:14592  getETHPrice */\n      tag_95\n        /* \"contracts/TreasuryDAOTest_flattened.sol\":14581:14594  getETHPrice() */\n      jump\t// in\n    tag_158:\n        /* \"contracts/TreasuryDAOTest_flattened.sol\":14581:14601  getETHPrice() > 1500 */\n      gt\n        /* \"contracts/TreasuryDAOTest_flattened.sol\":14573:14623  require(getETHPrice() > 1500, \"ETH price too low\") */\n      tag_159\n      jumpi\n      mload(0x40)\n      shl(0xe5, 0x461bcd)\n      dup2\n      mstore\n        /* \"#utility.yul\":7458:7460   */\n      0x20\n        /* \"contracts/TreasuryDAOTest_flattened.sol\":14573:14623  require(getETHPrice() > 1500, \"ETH price too low\") */\n      0x04\n      dup3\n      add\n        /* \"#utility.yul\":7440:7461   */\n      mstore\n        /* \"#utility.yul\":7497:7499   */\n      0x11\n        /* \"#utility.yul\":7477:7495   */\n      0x24\n      dup3\n      add\n        /* \"#utility.yul\":7470:7500   */\n      mstore\n      shl(0x78, 0x45544820707269636520746f6f206c6f77)\n        /* \"#utility.yul\":7516:7534   */\n      0x44\n      dup3\n      add\n        /* \"#utility.yul\":7509:7556   */\n      mstore\n        /* \"#utility.yul\":7573:7591   */\n      0x64\n      add\n        /* \"contracts/TreasuryDAOTest_flattened.sol\":14573:14623  require(getETHPrice() > 1500, \"ETH price too low\") */\n      tag_118\n        /* \"#utility.yul\":7256:7597   */\n      jump\n        /* \"contracts/TreasuryDAOTest_flattened.sol\":14573:14623  require(getETHPrice() > 1500, \"ETH price too low\") */\n    tag_159:\n        /* \"contracts/TreasuryDAOTest_flattened.sol\":14674:14691  proposal.executed */\n      0x04\n      dup2\n      add\n        /* \"contracts/TreasuryDAOTest_flattened.sol\":14674:14698  proposal.executed = true */\n      dup1\n      sload\n      not(0xff)\n      and\n        /* \"contracts/TreasuryDAOTest_flattened.sol\":14694:14698  true */\n      0x01\n        /* \"contracts/TreasuryDAOTest_flattened.sol\":14674:14698  proposal.executed = true */\n      or\n      swap1\n      sstore\n        /* \"contracts/TreasuryDAOTest_flattened.sol\":14729:14756  block.timestamp + 1 minutes */\n      tag_162\n        /* \"contracts/TreasuryDAOTest_flattened.sol\":14729:14744  block.timestamp */\n      timestamp\n        /* \"contracts/TreasuryDAOTest_flattened.sol\":14747:14756  1 minutes */\n      0x3c\n        /* \"contracts/TreasuryDAOTest_flattened.sol\":14729:14756  block.timestamp + 1 minutes */\n      tag_140\n      jump\t// in\n    tag_162:\n        /* \"contracts/TreasuryDAOTest_flattened.sol\":14707:14726  proposal.unlockTime */\n      0x05\n      dup3\n      add\n        /* \"contracts/TreasuryDAOTest_flattened.sol\":14707:14756  proposal.unlockTime = block.timestamp + 1 minutes */\n      sstore\n        /* \"contracts/TreasuryDAOTest_flattened.sol\":14803:14831  ProposalExecuted(proposalId) */\n      mload(0x40)\n        /* \"#utility.yul\":1563:1588   */\n      dup3\n      dup2\n      mstore\n        /* \"contracts/TreasuryDAOTest_flattened.sol\":14803:14831  ProposalExecuted(proposalId) */\n      0x712ae1383f79ac853f8d882153778e0260ef8f03b504e2866e0593e04d2b291f\n      swap1\n        /* \"#utility.yul\":1551:1553   */\n      0x20\n        /* \"#utility.yul\":1536:1554   */\n      add\n        /* \"contracts/TreasuryDAOTest_flattened.sol\":14803:14831  ProposalExecuted(proposalId) */\n    tag_163:\n      mload(0x40)\n      dup1\n      swap2\n      sub\n      swap1\n      log1\n        /* \"contracts/TreasuryDAOTest_flattened.sol\":14280:14837  {... */\n      pop\n        /* \"contracts/TreasuryDAOTest_flattened.sol\":14231:14837  function executeProposal(uint proposalId) public {... */\n      pop\n      jump\t// out\n        /* \"contracts/TreasuryDAOTest_flattened.sol\":12957:13551  function proposeFunding(address payable recipient, uint256 amount) public onlyMember {... */\n    tag_56:\n        /* \"contracts/TreasuryDAOTest_flattened.sol\":12728:12738  msg.sender */\n      caller\n        /* \"contracts/TreasuryDAOTest_flattened.sol\":12720:12739  members[msg.sender] */\n      0x00\n      swap1\n      dup2\n      mstore\n        /* \"contracts/TreasuryDAOTest_flattened.sol\":12720:12727  members */\n      0x01\n        /* \"contracts/TreasuryDAOTest_flattened.sol\":12720:12739  members[msg.sender] */\n      0x20\n      mstore\n      0x40\n      swap1\n      keccak256\n      sload\n      0xff\n      and\n        /* \"contracts/TreasuryDAOTest_flattened.sol\":12712:12760  require(members[msg.sender], \"Not a DAO member\") */\n      tag_166\n      jumpi\n      mload(0x40)\n      shl(0xe5, 0x461bcd)\n      dup2\n      mstore\n        /* \"#utility.yul\":3936:3938   */\n      0x20\n        /* \"contracts/TreasuryDAOTest_flattened.sol\":12712:12760  require(members[msg.sender], \"Not a DAO member\") */\n      0x04\n      dup3\n      add\n        /* \"#utility.yul\":3918:3939   */\n      mstore\n        /* \"#utility.yul\":3975:3977   */\n      0x10\n        /* \"#utility.yul\":3955:3973   */\n      0x24\n      dup3\n      add\n        /* \"#utility.yul\":3948:3978   */\n      mstore\n      shl(0x81, 0x2737ba1030902220a79036b2b6b132b9)\n        /* \"#utility.yul\":3994:4012   */\n      0x44\n      dup3\n      add\n        /* \"#utility.yul\":3987:4033   */\n      mstore\n        /* \"#utility.yul\":4050:4068   */\n      0x64\n      add\n        /* \"contracts/TreasuryDAOTest_flattened.sol\":12712:12760  require(members[msg.sender], \"Not a DAO member\") */\n      tag_118\n        /* \"#utility.yul\":3734:4074   */\n      jump\n        /* \"contracts/TreasuryDAOTest_flattened.sol\":12712:12760  require(members[msg.sender], \"Not a DAO member\") */\n    tag_166:\n        /* \"contracts/TreasuryDAOTest_flattened.sol\":13084:13090  amount */\n      dup1\n        /* \"contracts/TreasuryDAOTest_flattened.sol\":13059:13080  address(this).balance */\n      selfbalance\n        /* \"contracts/TreasuryDAOTest_flattened.sol\":13059:13090  address(this).balance >= amount */\n      lt\n      iszero\n        /* \"contracts/TreasuryDAOTest_flattened.sol\":13051:13124  require(address(this).balance >= amount, \"Insufficient treasury balance\") */\n      tag_169\n      jumpi\n      mload(0x40)\n      shl(0xe5, 0x461bcd)\n      dup2\n      mstore\n        /* \"#utility.yul\":7804:7806   */\n      0x20\n        /* \"contracts/TreasuryDAOTest_flattened.sol\":13051:13124  require(address(this).balance >= amount, \"Insufficient treasury balance\") */\n      0x04\n      dup3\n      add\n        /* \"#utility.yul\":7786:7807   */\n      mstore\n        /* \"#utility.yul\":7843:7845   */\n      0x1d\n        /* \"#utility.yul\":7823:7841   */\n      0x24\n      dup3\n      add\n        /* \"#utility.yul\":7816:7846   */\n      mstore\n        /* \"#utility.yul\":7882:7913   */\n      0x496e73756666696369656e742074726561737572792062616c616e6365000000\n        /* \"#utility.yul\":7862:7880   */\n      0x44\n      dup3\n      add\n        /* \"#utility.yul\":7855:7914   */\n      mstore\n        /* \"#utility.yul\":7931:7949   */\n      0x64\n      add\n        /* \"contracts/TreasuryDAOTest_flattened.sol\":13051:13124  require(address(this).balance >= amount, \"Insufficient treasury balance\") */\n      tag_118\n        /* \"#utility.yul\":7602:7955   */\n      jump\n        /* \"contracts/TreasuryDAOTest_flattened.sol\":13051:13124  require(address(this).balance >= amount, \"Insufficient treasury balance\") */\n    tag_169:\n        /* \"contracts/TreasuryDAOTest_flattened.sol\":13141:13150  proposals */\n      0x02\n        /* \"contracts/TreasuryDAOTest_flattened.sol\":13141:13157  proposals.push() */\n      dup1\n      sload\n      0x01\n      swap1\n      dup2\n      add\n      dup1\n      dup4\n      sstore\n      0x00\n      dup4\n      dup2\n      mstore\n      swap3\n        /* \"contracts/TreasuryDAOTest_flattened.sol\":13141:13150  proposals */\n      swap2\n        /* \"contracts/TreasuryDAOTest_flattened.sol\":13207:13227  proposals.length - 1 */\n      tag_173\n      swap2\n      tag_174\n      jump\t// in\n    tag_173:\n        /* \"contracts/TreasuryDAOTest_flattened.sol\":13197:13228  proposals[proposals.length - 1] */\n      dup2\n      sload\n      dup2\n      lt\n      tag_176\n      jumpi\n      tag_176\n      tag_123\n      jump\t// in\n    tag_176:\n      0x00\n      swap2\n      dup3\n      mstore\n      0x20\n      dup3\n      keccak256\n      0x07\n      swap2\n      swap1\n      swap2\n      mul\n      add\n        /* \"contracts/TreasuryDAOTest_flattened.sol\":13237:13270  newProposal.recipient = recipient */\n      dup1\n      sload\n      not(sub(shl(0xa0, 0x01), 0x01))\n      and\n      sub(shl(0xa0, 0x01), 0x01)\n      dup7\n      and\n      or\n      dup2\n      sstore\n      0x01\n        /* \"contracts/TreasuryDAOTest_flattened.sol\":13279:13297  newProposal.amount */\n      dup2\n      add\n        /* \"contracts/TreasuryDAOTest_flattened.sol\":13279:13306  newProposal.amount = amount */\n      dup5\n      swap1\n      sstore\n        /* \"contracts/TreasuryDAOTest_flattened.sol\":13315:13332  newProposal.votes */\n      0x02\n      dup2\n      add\n        /* \"contracts/TreasuryDAOTest_flattened.sol\":13315:13336  newProposal.votes = 0 */\n      swap2\n      swap1\n      swap2\n      sstore\n        /* \"contracts/TreasuryDAOTest_flattened.sol\":13385:13400  minVoteDuration */\n      sload(0x06)\n        /* \"contracts/TreasuryDAOTest_flattened.sol\":13197:13228  proposals[proposals.length - 1] */\n      swap1\n      swap2\n      pop\n        /* \"contracts/TreasuryDAOTest_flattened.sol\":13367:13400  block.timestamp + minVoteDuration */\n      tag_178\n      swap1\n        /* \"contracts/TreasuryDAOTest_flattened.sol\":13367:13382  block.timestamp */\n      timestamp\n        /* \"contracts/TreasuryDAOTest_flattened.sol\":13367:13400  block.timestamp + minVoteDuration */\n      tag_140\n      jump\t// in\n    tag_178:\n        /* \"contracts/TreasuryDAOTest_flattened.sol\":13345:13364  newProposal.endTime */\n      0x03\n      dup3\n      add\n        /* \"contracts/TreasuryDAOTest_flattened.sol\":13345:13400  newProposal.endTime = block.timestamp + minVoteDuration */\n      sstore\n        /* \"contracts/TreasuryDAOTest_flattened.sol\":13446:13466  newProposal.executed */\n      0x04\n      dup2\n      add\n        /* \"contracts/TreasuryDAOTest_flattened.sol\":13446:13474  newProposal.executed = false */\n      dup1\n      sload\n      not(0xff)\n      and\n      swap1\n      sstore\n        /* \"contracts/TreasuryDAOTest_flattened.sol\":13505:13514  proposals */\n      0x02\n        /* \"contracts/TreasuryDAOTest_flattened.sol\":13505:13521  proposals.length */\n      sload\n        /* \"contracts/TreasuryDAOTest_flattened.sol\":13489:13545  ProposalCreated(proposals.length - 1, recipient, amount) */\n      0x3417b456fad6209c73445d5efd446d686e75e4560f0f50c13b5a5cde976447b4\n      swap1\n        /* \"contracts/TreasuryDAOTest_flattened.sol\":13505:13525  proposals.length - 1 */\n      tag_179\n      swap1\n        /* \"contracts/TreasuryDAOTest_flattened.sol\":13446:13474  newProposal.executed = false */\n      0x01\n      swap1\n        /* \"contracts/TreasuryDAOTest_flattened.sol\":13505:13525  proposals.length - 1 */\n      tag_174\n      jump\t// in\n    tag_179:\n        /* \"contracts/TreasuryDAOTest_flattened.sol\":13489:13545  ProposalCreated(proposals.length - 1, recipient, amount) */\n      0x40\n      dup1\n      mload\n        /* \"#utility.yul\":6004:6029   */\n      swap2\n      dup3\n      mstore\n      sub(shl(0xa0, 0x01), 0x01)\n        /* \"#utility.yul\":6065:6097   */\n      dup7\n      and\n        /* \"#utility.yul\":6060:6062   */\n      0x20\n        /* \"#utility.yul\":6045:6063   */\n      dup4\n      add\n        /* \"#utility.yul\":6038:6098   */\n      mstore\n        /* \"#utility.yul\":6114:6132   */\n      dup2\n      add\n        /* \"#utility.yul\":6107:6141   */\n      dup5\n      swap1\n      mstore\n        /* \"#utility.yul\":5992:5994   */\n      0x60\n        /* \"#utility.yul\":5977:5995   */\n      add\n        /* \"contracts/TreasuryDAOTest_flattened.sol\":13489:13545  ProposalCreated(proposals.length - 1, recipient, amount) */\n      tag_141\n        /* \"#utility.yul\":5802:6147   */\n      jump\n        /* \"contracts/TreasuryDAOTest_flattened.sol\":16039:16208  function performUpkeep(bytes calldata performData) external override {... */\n    tag_61:\n        /* \"contracts/TreasuryDAOTest_flattened.sol\":16117:16132  uint proposalId */\n      0x00\n        /* \"contracts/TreasuryDAOTest_flattened.sol\":16135:16166  abi.decode(performData, (uint)) */\n      tag_183\n      dup3\n      dup5\n      add\n        /* \"contracts/TreasuryDAOTest_flattened.sol\":16146:16157  performData */\n      dup5\n        /* \"contracts/TreasuryDAOTest_flattened.sol\":16135:16166  abi.decode(performData, (uint)) */\n      tag_28\n      jump\t// in\n    tag_183:\n        /* \"contracts/TreasuryDAOTest_flattened.sol\":16117:16166  uint proposalId = abi.decode(performData, (uint)) */\n      swap1\n      pop\n        /* \"contracts/TreasuryDAOTest_flattened.sol\":16175:16202  executeProposal(proposalId) */\n      tag_184\n        /* \"contracts/TreasuryDAOTest_flattened.sol\":16191:16201  proposalId */\n      dup2\n        /* \"contracts/TreasuryDAOTest_flattened.sol\":16175:16190  executeProposal */\n      tag_46\n        /* \"contracts/TreasuryDAOTest_flattened.sol\":16175:16202  executeProposal(proposalId) */\n      jump\t// in\n    tag_184:\n        /* \"contracts/TreasuryDAOTest_flattened.sol\":16108:16208  {... */\n      pop\n        /* \"contracts/TreasuryDAOTest_flattened.sol\":16039:16208  function performUpkeep(bytes calldata performData) external override {... */\n      pop\n      pop\n      jump\t// out\n        /* \"contracts/TreasuryDAOTest_flattened.sol\":14912:15200  function releaseFunds(uint proposalId) public {... */\n    tag_65:\n        /* \"contracts/TreasuryDAOTest_flattened.sol\":14967:14992  Proposal storage proposal */\n      0x00\n        /* \"contracts/TreasuryDAOTest_flattened.sol\":14995:15004  proposals */\n      0x02\n        /* \"contracts/TreasuryDAOTest_flattened.sol\":15005:15015  proposalId */\n      dup3\n        /* \"contracts/TreasuryDAOTest_flattened.sol\":14995:15016  proposals[proposalId] */\n      dup2\n      sload\n      dup2\n      lt\n      tag_187\n      jumpi\n      tag_187\n      tag_123\n      jump\t// in\n    tag_187:\n      swap1\n      0x00\n      mstore\n      keccak256(0x00, 0x20)\n      swap1\n      0x07\n      mul\n      add\n        /* \"contracts/TreasuryDAOTest_flattened.sol\":14967:15016  Proposal storage proposal = proposals[proposalId] */\n      swap1\n      pop\n        /* \"contracts/TreasuryDAOTest_flattened.sol\":15052:15060  proposal */\n      dup1\n        /* \"contracts/TreasuryDAOTest_flattened.sol\":15052:15071  proposal.unlockTime */\n      0x05\n      add\n      sload\n        /* \"contracts/TreasuryDAOTest_flattened.sol\":15033:15048  block.timestamp */\n      timestamp\n        /* \"contracts/TreasuryDAOTest_flattened.sol\":15033:15071  block.timestamp >= proposal.unlockTime */\n      lt\n      iszero\n        /* \"contracts/TreasuryDAOTest_flattened.sol\":15025:15101  require(block.timestamp >= proposal.unlockTime, \"Funds locked for 1 minute\") */\n      tag_189\n      jumpi\n      mload(0x40)\n      shl(0xe5, 0x461bcd)\n      dup2\n      mstore\n        /* \"#utility.yul\":8653:8655   */\n      0x20\n        /* \"contracts/TreasuryDAOTest_flattened.sol\":15025:15101  require(block.timestamp >= proposal.unlockTime, \"Funds locked for 1 minute\") */\n      0x04\n      dup3\n      add\n        /* \"#utility.yul\":8635:8656   */\n      mstore\n        /* \"#utility.yul\":8692:8694   */\n      0x19\n        /* \"#utility.yul\":8672:8690   */\n      0x24\n      dup3\n      add\n        /* \"#utility.yul\":8665:8695   */\n      mstore\n        /* \"#utility.yul\":8731:8758   */\n      0x46756e6473206c6f636b656420666f722031206d696e75746500000000000000\n        /* \"#utility.yul\":8711:8729   */\n      0x44\n      dup3\n      add\n        /* \"#utility.yul\":8704:8759   */\n      mstore\n        /* \"#utility.yul\":8776:8794   */\n      0x64\n      add\n        /* \"contracts/TreasuryDAOTest_flattened.sol\":15025:15101  require(block.timestamp >= proposal.unlockTime, \"Funds locked for 1 minute\") */\n      tag_118\n        /* \"#utility.yul\":8451:8800   */\n      jump\n        /* \"contracts/TreasuryDAOTest_flattened.sol\":15025:15101  require(block.timestamp >= proposal.unlockTime, \"Funds locked for 1 minute\") */\n    tag_189:\n        /* \"contracts/TreasuryDAOTest_flattened.sol\":15110:15128  proposal.recipient */\n      dup1\n      sload\n      0x01\n        /* \"contracts/TreasuryDAOTest_flattened.sol\":15138:15153  proposal.amount */\n      dup3\n      add\n      sload\n        /* \"contracts/TreasuryDAOTest_flattened.sol\":15110:15154  proposal.recipient.transfer(proposal.amount) */\n      mload(0x40)\n      sub(shl(0xa0, 0x01), 0x01)\n        /* \"contracts/TreasuryDAOTest_flattened.sol\":15110:15128  proposal.recipient */\n      swap1\n      swap3\n      and\n      swap2\n        /* \"contracts/TreasuryDAOTest_flattened.sol\":15110:15154  proposal.recipient.transfer(proposal.amount) */\n      dup2\n      iszero\n      0x08fc\n      mul\n      swap2\n        /* \"contracts/TreasuryDAOTest_flattened.sol\":15138:15153  proposal.amount */\n      swap1\n        /* \"contracts/TreasuryDAOTest_flattened.sol\":15110:15128  proposal.recipient */\n      0x00\n        /* \"contracts/TreasuryDAOTest_flattened.sol\":15110:15154  proposal.recipient.transfer(proposal.amount) */\n      dup2\n        /* \"contracts/TreasuryDAOTest_flattened.sol\":15110:15128  proposal.recipient */\n      dup2\n        /* \"contracts/TreasuryDAOTest_flattened.sol\":15110:15154  proposal.recipient.transfer(proposal.amount) */\n      dup2\n        /* \"contracts/TreasuryDAOTest_flattened.sol\":15138:15153  proposal.amount */\n      dup6\n        /* \"contracts/TreasuryDAOTest_flattened.sol\":15110:15128  proposal.recipient */\n      dup9\n        /* \"contracts/TreasuryDAOTest_flattened.sol\":15110:15154  proposal.recipient.transfer(proposal.amount) */\n      dup9\n      call\n      swap4\n      pop\n      pop\n      pop\n      pop\n      iszero\n      dup1\n      iszero\n      tag_193\n      jumpi\n      returndatasize\n      0x00\n      dup1\n      returndatacopy\n      revert(0x00, returndatasize)\n    tag_193:\n      pop\n        /* \"contracts/TreasuryDAOTest_flattened.sol\":15169:15194  FundsReleased(proposalId) */\n      mload(0x40)\n        /* \"#utility.yul\":1563:1588   */\n      dup3\n      dup2\n      mstore\n        /* \"contracts/TreasuryDAOTest_flattened.sol\":15169:15194  FundsReleased(proposalId) */\n      0x952b264c8e0a06cddb4bbaa6d6af1d565145329fd95bbe72cb2b53942b2dc966\n      swap1\n        /* \"#utility.yul\":1551:1553   */\n      0x20\n        /* \"#utility.yul\":1536:1554   */\n      add\n        /* \"contracts/TreasuryDAOTest_flattened.sol\":15169:15194  FundsReleased(proposalId) */\n      tag_163\n        /* \"#utility.yul\":1417:1594   */\n      jump\n        /* \"contracts/TreasuryDAOTest_flattened.sol\":16468:16602  function withdrawFromAave(uint256 amount) external onlyOwner {... */\n    tag_69:\n        /* \"contracts/TreasuryDAOTest_flattened.sol\":2493:2506  _checkOwner() */\n      tag_196\n        /* \"contracts/TreasuryDAOTest_flattened.sol\":2493:2504  _checkOwner */\n      tag_197\n        /* \"contracts/TreasuryDAOTest_flattened.sol\":2493:2506  _checkOwner() */\n      jump\t// in\n    tag_196:\n        /* \"contracts/TreasuryDAOTest_flattened.sol\":16538:16549  lendingPool */\n      sload(0x05)\n        /* \"contracts/TreasuryDAOTest_flattened.sol\":16538:16596  lendingPool.withdraw(address(this), amount, address(this)) */\n      mload(0x40)\n      shl(0xe2, 0x1a4ca37b)\n      dup2\n      mstore\n        /* \"contracts/TreasuryDAOTest_flattened.sol\":16567:16571  this */\n      address\n        /* \"contracts/TreasuryDAOTest_flattened.sol\":16538:16596  lendingPool.withdraw(address(this), amount, address(this)) */\n      0x04\n      dup3\n      add\n        /* \"#utility.yul\":9007:9058   */\n      dup2\n      swap1\n      mstore\n        /* \"#utility.yul\":9074:9092   */\n      0x24\n      dup3\n      add\n        /* \"#utility.yul\":9067:9101   */\n      dup5\n      swap1\n      mstore\n        /* \"#utility.yul\":9117:9135   */\n      0x44\n      dup3\n      add\n        /* \"#utility.yul\":9110:9170   */\n      mstore\n      sub(shl(0xa0, 0x01), 0x01)\n        /* \"contracts/TreasuryDAOTest_flattened.sol\":16538:16549  lendingPool */\n      swap1\n      swap2\n      and\n      swap1\n        /* \"contracts/TreasuryDAOTest_flattened.sol\":16538:16558  lendingPool.withdraw */\n      0x69328dec\n      swap1\n        /* \"#utility.yul\":8980:8998   */\n      0x64\n      add\n        /* \"contracts/TreasuryDAOTest_flattened.sol\":16538:16596  lendingPool.withdraw(address(this), amount, address(this)) */\n    tag_199:\n      0x00\n      mload(0x40)\n      dup1\n      dup4\n      sub\n      dup2\n      0x00\n      dup8\n      dup1\n      extcodesize\n      iszero\n      dup1\n      iszero\n      tag_201\n      jumpi\n      0x00\n      dup1\n      revert\n    tag_201:\n      pop\n      gas\n      call\n      iszero\n      dup1\n      iszero\n      tag_203\n      jumpi\n      returndatasize\n      0x00\n      dup1\n      returndatacopy\n      revert(0x00, returndatasize)\n    tag_203:\n      pop\n      pop\n      pop\n      pop\n        /* \"contracts/TreasuryDAOTest_flattened.sol\":16468:16602  function withdrawFromAave(uint256 amount) external onlyOwner {... */\n      pop\n      jump\t// out\n        /* \"contracts/TreasuryDAOTest_flattened.sol\":16270:16403  function depositToAave(uint256 amount) external onlyOwner {... */\n    tag_73:\n        /* \"contracts/TreasuryDAOTest_flattened.sol\":2493:2506  _checkOwner() */\n      tag_205\n        /* \"contracts/TreasuryDAOTest_flattened.sol\":2493:2504  _checkOwner */\n      tag_197\n        /* \"contracts/TreasuryDAOTest_flattened.sol\":2493:2506  _checkOwner() */\n      jump\t// in\n    tag_205:\n        /* \"contracts/TreasuryDAOTest_flattened.sol\":16337:16348  lendingPool */\n      sload(0x05)\n        /* \"contracts/TreasuryDAOTest_flattened.sol\":16337:16397  lendingPool.deposit(address(this), amount, address(this), 0) */\n      mload(0x40)\n      shl(0xe0, 0xe8eda9df)\n      dup2\n      mstore\n        /* \"contracts/TreasuryDAOTest_flattened.sol\":16365:16369  this */\n      address\n        /* \"contracts/TreasuryDAOTest_flattened.sol\":16337:16397  lendingPool.deposit(address(this), amount, address(this), 0) */\n      0x04\n      dup3\n      add\n        /* \"#utility.yul\":9419:9470   */\n      dup2\n      swap1\n      mstore\n        /* \"#utility.yul\":9486:9504   */\n      0x24\n      dup3\n      add\n        /* \"#utility.yul\":9479:9513   */\n      dup5\n      swap1\n      mstore\n        /* \"#utility.yul\":9529:9547   */\n      0x44\n      dup3\n      add\n        /* \"#utility.yul\":9522:9582   */\n      mstore\n        /* \"contracts/TreasuryDAOTest_flattened.sol\":16337:16348  lendingPool */\n      0x00\n        /* \"#utility.yul\":9598:9616   */\n      0x64\n      dup3\n      add\n        /* \"#utility.yul\":9591:9638   */\n      mstore\n      sub(shl(0xa0, 0x01), 0x01)\n        /* \"contracts/TreasuryDAOTest_flattened.sol\":16337:16348  lendingPool */\n      swap1\n      swap2\n      and\n      swap1\n        /* \"contracts/TreasuryDAOTest_flattened.sol\":16337:16356  lendingPool.deposit */\n      0xe8eda9df\n      swap1\n        /* \"#utility.yul\":9391:9410   */\n      0x84\n      add\n        /* \"contracts/TreasuryDAOTest_flattened.sol\":16337:16397  lendingPool.deposit(address(this), amount, address(this), 0) */\n      tag_199\n        /* \"#utility.yul\":9181:9644   */\n      jump\n        /* \"contracts/TreasuryDAOTest_flattened.sol\":15549:15954  function checkUpkeep(bytes calldata /* checkData */) external view override returns (bool upkeepNeeded, bytes memory performData) {... */\n    tag_77:\n        /* \"contracts/TreasuryDAOTest_flattened.sol\":15634:15651  bool upkeepNeeded */\n      0x00\n        /* \"contracts/TreasuryDAOTest_flattened.sol\":15653:15677  bytes memory performData */\n      0x60\n        /* \"contracts/TreasuryDAOTest_flattened.sol\":15693:15699  uint i */\n      0x00\n        /* \"contracts/TreasuryDAOTest_flattened.sol\":15688:15922  for (uint i = 0; i < proposals.length; i++) {... */\n    tag_213:\n        /* \"contracts/TreasuryDAOTest_flattened.sol\":15709:15718  proposals */\n      0x02\n        /* \"contracts/TreasuryDAOTest_flattened.sol\":15709:15725  proposals.length */\n      sload\n        /* \"contracts/TreasuryDAOTest_flattened.sol\":15705:15725  i < proposals.length */\n      dup2\n      lt\n        /* \"contracts/TreasuryDAOTest_flattened.sol\":15688:15922  for (uint i = 0; i < proposals.length; i++) {... */\n      iszero\n      tag_214\n      jumpi\n        /* \"contracts/TreasuryDAOTest_flattened.sol\":15750:15759  proposals */\n      0x02\n        /* \"contracts/TreasuryDAOTest_flattened.sol\":15760:15761  i */\n      dup2\n        /* \"contracts/TreasuryDAOTest_flattened.sol\":15750:15762  proposals[i] */\n      dup2\n      sload\n      dup2\n      lt\n      tag_217\n      jumpi\n      tag_217\n      tag_123\n      jump\t// in\n    tag_217:\n      0x00\n      swap2\n      dup3\n      mstore\n      0x20\n      swap1\n      swap2\n      keccak256\n        /* \"contracts/TreasuryDAOTest_flattened.sol\":15750:15771  proposals[i].executed */\n      0x04\n        /* \"contracts/TreasuryDAOTest_flattened.sol\":15750:15762  proposals[i] */\n      0x07\n      swap1\n      swap3\n      mul\n      add\n        /* \"contracts/TreasuryDAOTest_flattened.sol\":15750:15771  proposals[i].executed */\n      add\n      sload\n      0xff\n      and\n        /* \"contracts/TreasuryDAOTest_flattened.sol\":15749:15771  !proposals[i].executed */\n      iszero\n        /* \"contracts/TreasuryDAOTest_flattened.sol\":15749:15809  !proposals[i].executed && proposals[i].votes >= 500 * 10**18 */\n      dup1\n      iszero\n      tag_219\n      jumpi\n      pop\n        /* \"contracts/TreasuryDAOTest_flattened.sol\":15797:15809  500 * 10**18 */\n      0x1b1ae4d6e2ef500000\n        /* \"contracts/TreasuryDAOTest_flattened.sol\":15775:15784  proposals */\n      0x02\n        /* \"contracts/TreasuryDAOTest_flattened.sol\":15785:15786  i */\n      dup3\n        /* \"contracts/TreasuryDAOTest_flattened.sol\":15775:15787  proposals[i] */\n      dup2\n      sload\n      dup2\n      lt\n      tag_221\n      jumpi\n      tag_221\n      tag_123\n      jump\t// in\n    tag_221:\n      swap1\n      0x00\n      mstore\n      keccak256(0x00, 0x20)\n      swap1\n      0x07\n      mul\n      add\n        /* \"contracts/TreasuryDAOTest_flattened.sol\":15775:15793  proposals[i].votes */\n      0x02\n      add\n      sload\n        /* \"contracts/TreasuryDAOTest_flattened.sol\":15775:15809  proposals[i].votes >= 500 * 10**18 */\n      lt\n      iszero\n        /* \"contracts/TreasuryDAOTest_flattened.sol\":15749:15809  !proposals[i].executed && proposals[i].votes >= 500 * 10**18 */\n    tag_219:\n        /* \"contracts/TreasuryDAOTest_flattened.sol\":15749:15852  !proposals[i].executed && proposals[i].votes >= 500 * 10**18 && block.timestamp >= proposals[i].endTime */\n      dup1\n      iszero\n      tag_223\n      jumpi\n      pop\n        /* \"contracts/TreasuryDAOTest_flattened.sol\":15832:15841  proposals */\n      0x02\n        /* \"contracts/TreasuryDAOTest_flattened.sol\":15842:15843  i */\n      dup2\n        /* \"contracts/TreasuryDAOTest_flattened.sol\":15832:15844  proposals[i] */\n      dup2\n      sload\n      dup2\n      lt\n      tag_225\n      jumpi\n      tag_225\n      tag_123\n      jump\t// in\n    tag_225:\n      swap1\n      0x00\n      mstore\n      keccak256(0x00, 0x20)\n      swap1\n      0x07\n      mul\n      add\n        /* \"contracts/TreasuryDAOTest_flattened.sol\":15832:15852  proposals[i].endTime */\n      0x03\n      add\n      sload\n        /* \"contracts/TreasuryDAOTest_flattened.sol\":15813:15828  block.timestamp */\n      timestamp\n        /* \"contracts/TreasuryDAOTest_flattened.sol\":15813:15852  block.timestamp >= proposals[i].endTime */\n      lt\n      iszero\n        /* \"contracts/TreasuryDAOTest_flattened.sol\":15749:15852  !proposals[i].executed && proposals[i].votes >= 500 * 10**18 && block.timestamp >= proposals[i].endTime */\n    tag_223:\n        /* \"contracts/TreasuryDAOTest_flattened.sol\":15745:15913  if (!proposals[i].executed && proposals[i].votes >= 500 * 10**18 && block.timestamp >= proposals[i].endTime) {... */\n      iszero\n      tag_227\n      jumpi\n        /* \"contracts/TreasuryDAOTest_flattened.sol\":15879:15883  true */\n      0x01\n        /* \"contracts/TreasuryDAOTest_flattened.sol\":15896:15897  i */\n      dup2\n        /* \"contracts/TreasuryDAOTest_flattened.sol\":15885:15898  abi.encode(i) */\n      add(0x20, mload(0x40))\n      tag_228\n      swap2\n        /* \"#utility.yul\":1563:1588   */\n      dup2\n      mstore\n        /* \"#utility.yul\":1551:1553   */\n      0x20\n        /* \"#utility.yul\":1536:1554   */\n      add\n      swap1\n        /* \"#utility.yul\":1417:1594   */\n      jump\n        /* \"contracts/TreasuryDAOTest_flattened.sol\":15885:15898  abi.encode(i) */\n    tag_228:\n      mload(0x40)\n      0x20\n      dup2\n      dup4\n      sub\n      sub\n      dup2\n      mstore\n      swap1\n      0x40\n      mstore\n        /* \"contracts/TreasuryDAOTest_flattened.sol\":15871:15899  return (true, abi.encode(i)) */\n      swap3\n      pop\n      swap3\n      pop\n      pop\n      jump(tag_212)\n        /* \"contracts/TreasuryDAOTest_flattened.sol\":15745:15913  if (!proposals[i].executed && proposals[i].votes >= 500 * 10**18 && block.timestamp >= proposals[i].endTime) {... */\n    tag_227:\n        /* \"contracts/TreasuryDAOTest_flattened.sol\":15727:15730  i++ */\n      0x01\n      add\n        /* \"contracts/TreasuryDAOTest_flattened.sol\":15688:15922  for (uint i = 0; i < proposals.length; i++) {... */\n      jump(tag_213)\n    tag_214:\n      pop\n      pop\n        /* \"contracts/TreasuryDAOTest_flattened.sol\":15930:15948  return (false, \"\") */\n      0x40\n      dup1\n      mload\n      0x20\n      dup2\n      add\n      swap1\n      swap2\n      mstore\n        /* \"contracts/TreasuryDAOTest_flattened.sol\":15938:15943  false */\n      0x00\n        /* \"contracts/TreasuryDAOTest_flattened.sol\":15930:15948  return (false, \"\") */\n      dup1\n      dup3\n      mstore\n        /* \"contracts/TreasuryDAOTest_flattened.sol\":15938:15943  false */\n      swap2\n      pop\n        /* \"contracts/TreasuryDAOTest_flattened.sol\":15549:15954  function checkUpkeep(bytes calldata /* checkData */) external view override returns (bool upkeepNeeded, bytes memory performData) {... */\n    tag_212:\n      swap3\n      pop\n      swap3\n      swap1\n      pop\n      jump\t// out\n        /* \"contracts/TreasuryDAOTest_flattened.sol\":3255:3356  function renounceOwnership() public virtual onlyOwner {... */\n    tag_82:\n        /* \"contracts/TreasuryDAOTest_flattened.sol\":2493:2506  _checkOwner() */\n      tag_230\n        /* \"contracts/TreasuryDAOTest_flattened.sol\":2493:2504  _checkOwner */\n      tag_197\n        /* \"contracts/TreasuryDAOTest_flattened.sol\":2493:2506  _checkOwner() */\n      jump\t// in\n    tag_230:\n        /* \"contracts/TreasuryDAOTest_flattened.sol\":3319:3349  _transferOwnership(address(0)) */\n      tag_232\n        /* \"contracts/TreasuryDAOTest_flattened.sol\":3346:3347  0 */\n      0x00\n        /* \"contracts/TreasuryDAOTest_flattened.sol\":3319:3337  _transferOwnership */\n      tag_233\n        /* \"contracts/TreasuryDAOTest_flattened.sol\":3319:3349  _transferOwnership(address(0)) */\n      jump\t// in\n    tag_232:\n        /* \"contracts/TreasuryDAOTest_flattened.sol\":3255:3356  function renounceOwnership() public virtual onlyOwner {... */\n      jump\t// out\n        /* \"contracts/TreasuryDAOTest_flattened.sol\":15267:15466  function getETHPrice() public view returns (uint256) {... */\n    tag_95:\n        /* \"contracts/TreasuryDAOTest_flattened.sol\":15351:15360  priceFeed */\n      0x04\n      dup1\n      sload\n        /* \"contracts/TreasuryDAOTest_flattened.sol\":15351:15378  priceFeed.latestRoundData() */\n      0x40\n      dup1\n      mload\n      shl(0xe2, 0x3fabe5a3)\n      dup2\n      mstore\n      swap1\n      mload\n        /* \"contracts/TreasuryDAOTest_flattened.sol\":15311:15318  uint256 */\n      0x00\n      swap4\n      dup5\n      swap4\n      sub(shl(0xa0, 0x01), 0x01)\n        /* \"contracts/TreasuryDAOTest_flattened.sol\":15351:15360  priceFeed */\n      and\n      swap3\n        /* \"contracts/TreasuryDAOTest_flattened.sol\":15351:15376  priceFeed.latestRoundData */\n      0xfeaf968c\n      swap3\n        /* \"contracts/TreasuryDAOTest_flattened.sol\":15351:15378  priceFeed.latestRoundData() */\n      dup2\n      dup4\n      add\n      swap3\n      0xa0\n      swap3\n      dup3\n      swap1\n      sub\n      add\n      dup2\n        /* \"contracts/TreasuryDAOTest_flattened.sol\":15351:15360  priceFeed */\n      dup7\n        /* \"contracts/TreasuryDAOTest_flattened.sol\":15351:15378  priceFeed.latestRoundData() */\n      gas\n      staticcall\n      iszero\n      dup1\n      iszero\n      tag_237\n      jumpi\n      returndatasize\n      0x00\n      dup1\n      returndatacopy\n      revert(0x00, returndatasize)\n    tag_237:\n      pop\n      pop\n      pop\n      pop\n      mload(0x40)\n      returndatasize\n      not(0x1f)\n      0x1f\n      dup3\n      add\n      and\n      dup3\n      add\n      dup1\n      0x40\n      mstore\n      pop\n      dup2\n      add\n      swap1\n      tag_238\n      swap2\n      swap1\n      tag_239\n      jump\t// in\n    tag_238:\n        /* \"contracts/TreasuryDAOTest_flattened.sol\":15329:15378  (, int price, , , ) = priceFeed.latestRoundData() */\n      pop\n      pop\n      pop\n      swap2\n      pop\n      pop\n        /* \"contracts/TreasuryDAOTest_flattened.sol\":15411:15414  1e8 */\n      0x05f5e100\n        /* \"contracts/TreasuryDAOTest_flattened.sol\":15402:15407  price */\n      dup2\n        /* \"contracts/TreasuryDAOTest_flattened.sol\":15394:15414  uint256(price) / 1e8 */\n      tag_240\n      swap2\n      swap1\n      tag_241\n      jump\t// in\n    tag_240:\n        /* \"contracts/TreasuryDAOTest_flattened.sol\":15387:15414  return uint256(price) / 1e8 */\n      swap2\n      pop\n      pop\n        /* \"contracts/TreasuryDAOTest_flattened.sol\":15267:15466  function getETHPrice() public view returns (uint256) {... */\n      swap1\n      jump\t// out\n        /* \"contracts/TreasuryDAOTest_flattened.sol\":12817:12906  function addMember(address member) public onlyOwner {... */\n    tag_104:\n        /* \"contracts/TreasuryDAOTest_flattened.sol\":2493:2506  _checkOwner() */\n      tag_243\n        /* \"contracts/TreasuryDAOTest_flattened.sol\":2493:2504  _checkOwner */\n      tag_197\n        /* \"contracts/TreasuryDAOTest_flattened.sol\":2493:2506  _checkOwner() */\n      jump\t// in\n    tag_243:\n      sub(shl(0xa0, 0x01), 0x01)\n        /* \"contracts/TreasuryDAOTest_flattened.sol\":12878:12893  members[member] */\n      and\n      0x00\n      swap1\n      dup2\n      mstore\n        /* \"contracts/TreasuryDAOTest_flattened.sol\":12896:12900  true */\n      0x01\n        /* \"contracts/TreasuryDAOTest_flattened.sol\":12878:12893  members[member] */\n      0x20\n      dup2\n      swap1\n      mstore\n      0x40\n      swap1\n      swap2\n      keccak256\n        /* \"contracts/TreasuryDAOTest_flattened.sol\":12878:12900  members[member] = true */\n      dup1\n      sload\n      not(0xff)\n      and\n      swap1\n      swap2\n      or\n      swap1\n      sstore\n        /* \"contracts/TreasuryDAOTest_flattened.sol\":12817:12906  function addMember(address member) public onlyOwner {... */\n      jump\t// out\n        /* \"contracts/TreasuryDAOTest_flattened.sol\":3505:3720  function transferOwnership(address newOwner) public virtual onlyOwner {... */\n    tag_110:\n        /* \"contracts/TreasuryDAOTest_flattened.sol\":2493:2506  _checkOwner() */\n      tag_247\n        /* \"contracts/TreasuryDAOTest_flattened.sol\":2493:2504  _checkOwner */\n      tag_197\n        /* \"contracts/TreasuryDAOTest_flattened.sol\":2493:2506  _checkOwner() */\n      jump\t// in\n    tag_247:\n      sub(shl(0xa0, 0x01), 0x01)\n        /* \"contracts/TreasuryDAOTest_flattened.sol\":3589:3611  newOwner == address(0) */\n      dup2\n      and\n        /* \"contracts/TreasuryDAOTest_flattened.sol\":3585:3676  if (newOwner == address(0)) {... */\n      tag_249\n      jumpi\n        /* \"contracts/TreasuryDAOTest_flattened.sol\":3634:3665  OwnableInvalidOwner(address(0)) */\n      mload(0x40)\n      shl(0xe0, 0x1e4fbdf7)\n      dup2\n      mstore\n        /* \"contracts/TreasuryDAOTest_flattened.sol\":3662:3663  0 */\n      0x00\n        /* \"contracts/TreasuryDAOTest_flattened.sol\":3634:3665  OwnableInvalidOwner(address(0)) */\n      0x04\n      dup3\n      add\n        /* \"#utility.yul\":3218:3269   */\n      mstore\n        /* \"#utility.yul\":3191:3209   */\n      0x24\n      add\n        /* \"contracts/TreasuryDAOTest_flattened.sol\":3634:3665  OwnableInvalidOwner(address(0)) */\n      tag_118\n        /* \"#utility.yul\":3072:3275   */\n      jump\n        /* \"contracts/TreasuryDAOTest_flattened.sol\":3585:3676  if (newOwner == address(0)) {... */\n    tag_249:\n        /* \"contracts/TreasuryDAOTest_flattened.sol\":3685:3713  _transferOwnership(newOwner) */\n      tag_251\n        /* \"contracts/TreasuryDAOTest_flattened.sol\":3704:3712  newOwner */\n      dup2\n        /* \"contracts/TreasuryDAOTest_flattened.sol\":3685:3703  _transferOwnership */\n      tag_233\n        /* \"contracts/TreasuryDAOTest_flattened.sol\":3685:3713  _transferOwnership(newOwner) */\n      jump\t// in\n    tag_251:\n        /* \"contracts/TreasuryDAOTest_flattened.sol\":3505:3720  function transferOwnership(address newOwner) public virtual onlyOwner {... */\n      pop\n      jump\t// out\n        /* \"contracts/TreasuryDAOTest_flattened.sol\":2758:2920  function _checkOwner() internal view virtual {... */\n    tag_197:\n        /* \"contracts/TreasuryDAOTest_flattened.sol\":2646:2653  address */\n      0x00\n        /* \"contracts/TreasuryDAOTest_flattened.sol\":2672:2678  _owner */\n      sload\n      sub(shl(0xa0, 0x01), 0x01)\n      and\n        /* \"contracts/TreasuryDAOTest_flattened.sol\":757:767  msg.sender */\n      caller\n        /* \"contracts/TreasuryDAOTest_flattened.sol\":2817:2840  owner() != _msgSender() */\n      eq\n        /* \"contracts/TreasuryDAOTest_flattened.sol\":2813:2914  if (owner() != _msgSender()) {... */\n      tag_232\n      jumpi\n        /* \"contracts/TreasuryDAOTest_flattened.sol\":2863:2903  OwnableUnauthorizedAccount(_msgSender()) */\n      mload(0x40)\n      shl(0xe0, 0x118cdaa7)\n      dup2\n      mstore\n        /* \"contracts/TreasuryDAOTest_flattened.sol\":757:767  msg.sender */\n      caller\n        /* \"contracts/TreasuryDAOTest_flattened.sol\":2863:2903  OwnableUnauthorizedAccount(_msgSender()) */\n      0x04\n      dup3\n      add\n        /* \"#utility.yul\":3218:3269   */\n      mstore\n        /* \"#utility.yul\":3191:3209   */\n      0x24\n      add\n        /* \"contracts/TreasuryDAOTest_flattened.sol\":2863:2903  OwnableUnauthorizedAccount(_msgSender()) */\n      tag_118\n        /* \"#utility.yul\":3072:3275   */\n      jump\n        /* \"contracts/TreasuryDAOTest_flattened.sol\":3874:4061  function _transferOwnership(address newOwner) internal virtual {... */\n    tag_233:\n        /* \"contracts/TreasuryDAOTest_flattened.sol\":3947:3963  address oldOwner */\n      0x00\n        /* \"contracts/TreasuryDAOTest_flattened.sol\":3966:3972  _owner */\n      dup1\n      sload\n      sub(shl(0xa0, 0x01), 0x01)\n        /* \"contracts/TreasuryDAOTest_flattened.sol\":3982:3999  _owner = newOwner */\n      dup4\n      dup2\n      and\n      not(sub(shl(0xa0, 0x01), 0x01))\n      dup4\n      and\n      dup2\n      or\n      dup5\n      sstore\n        /* \"contracts/TreasuryDAOTest_flattened.sol\":4014:4054  OwnershipTransferred(oldOwner, newOwner) */\n      mload(0x40)\n        /* \"contracts/TreasuryDAOTest_flattened.sol\":3966:3972  _owner */\n      swap2\n      swap1\n      swap3\n      and\n      swap3\n      dup4\n      swap2\n        /* \"contracts/TreasuryDAOTest_flattened.sol\":4014:4054  OwnershipTransferred(oldOwner, newOwner) */\n      0x8be0079c531659141344cd1fd0a4f28419497f9722a3daafe3b4186f6b6457e0\n      swap2\n        /* \"contracts/TreasuryDAOTest_flattened.sol\":3947:3963  address oldOwner */\n      swap1\n        /* \"contracts/TreasuryDAOTest_flattened.sol\":4014:4054  OwnershipTransferred(oldOwner, newOwner) */\n      log3\n        /* \"contracts/TreasuryDAOTest_flattened.sol\":3937:4061  {... */\n      pop\n        /* \"contracts/TreasuryDAOTest_flattened.sol\":3874:4061  function _transferOwnership(address newOwner) internal virtual {... */\n      pop\n      jump\t// out\n        /* \"#utility.yul\":14:240   */\n    tag_28:\n        /* \"#utility.yul\":73:79   */\n      0x00\n        /* \"#utility.yul\":126:128   */\n      0x20\n        /* \"#utility.yul\":114:123   */\n      dup3\n        /* \"#utility.yul\":105:112   */\n      dup5\n        /* \"#utility.yul\":101:124   */\n      sub\n        /* \"#utility.yul\":97:129   */\n      slt\n        /* \"#utility.yul\":94:146   */\n      iszero\n      tag_266\n      jumpi\n        /* \"#utility.yul\":142:143   */\n      0x00\n        /* \"#utility.yul\":139:140   */\n      dup1\n        /* \"#utility.yul\":132:144   */\n      revert\n        /* \"#utility.yul\":94:146   */\n    tag_266:\n      pop\n        /* \"#utility.yul\":187:210   */\n      calldataload\n      swap2\n        /* \"#utility.yul\":14:240   */\n      swap1\n      pop\n      jump\t// out\n        /* \"#utility.yul\":837:968   */\n    tag_261:\n      sub(shl(0xa0, 0x01), 0x01)\n        /* \"#utility.yul\":912:943   */\n      dup2\n      and\n        /* \"#utility.yul\":902:944   */\n      dup2\n      eq\n        /* \"#utility.yul\":892:962   */\n      tag_251\n      jumpi\n        /* \"#utility.yul\":958:959   */\n      0x00\n        /* \"#utility.yul\":955:956   */\n      dup1\n        /* \"#utility.yul\":948:960   */\n      revert\n        /* \"#utility.yul\":973:1220   */\n    tag_39:\n        /* \"#utility.yul\":1032:1038   */\n      0x00\n        /* \"#utility.yul\":1085:1087   */\n      0x20\n        /* \"#utility.yul\":1073:1082   */\n      dup3\n        /* \"#utility.yul\":1064:1071   */\n      dup5\n        /* \"#utility.yul\":1060:1083   */\n      sub\n        /* \"#utility.yul\":1056:1088   */\n      slt\n        /* \"#utility.yul\":1053:1105   */\n      iszero\n      tag_271\n      jumpi\n        /* \"#utility.yul\":1101:1102   */\n      0x00\n        /* \"#utility.yul\":1098:1099   */\n      dup1\n        /* \"#utility.yul\":1091:1103   */\n      revert\n        /* \"#utility.yul\":1053:1105   */\n    tag_271:\n        /* \"#utility.yul\":1140:1149   */\n      dup2\n        /* \"#utility.yul\":1127:1150   */\n      calldataload\n        /* \"#utility.yul\":1159:1190   */\n      tag_272\n        /* \"#utility.yul\":1184:1189   */\n      dup2\n        /* \"#utility.yul\":1159:1190   */\n      tag_261\n      jump\t// in\n    tag_272:\n        /* \"#utility.yul\":1209:1214   */\n      swap4\n        /* \"#utility.yul\":973:1220   */\n      swap3\n      pop\n      pop\n      pop\n      jump\t// out\n        /* \"#utility.yul\":1599:1974   */\n    tag_55:\n        /* \"#utility.yul\":1675:1681   */\n      0x00\n        /* \"#utility.yul\":1683:1689   */\n      dup1\n        /* \"#utility.yul\":1736:1738   */\n      0x40\n        /* \"#utility.yul\":1724:1733   */\n      dup4\n        /* \"#utility.yul\":1715:1722   */\n      dup6\n        /* \"#utility.yul\":1711:1734   */\n      sub\n        /* \"#utility.yul\":1707:1739   */\n      slt\n        /* \"#utility.yul\":1704:1756   */\n      iszero\n      tag_276\n      jumpi\n        /* \"#utility.yul\":1752:1753   */\n      0x00\n        /* \"#utility.yul\":1749:1750   */\n      dup1\n        /* \"#utility.yul\":1742:1754   */\n      revert\n        /* \"#utility.yul\":1704:1756   */\n    tag_276:\n        /* \"#utility.yul\":1791:1800   */\n      dup3\n        /* \"#utility.yul\":1778:1801   */\n      calldataload\n        /* \"#utility.yul\":1810:1841   */\n      tag_277\n        /* \"#utility.yul\":1835:1840   */\n      dup2\n        /* \"#utility.yul\":1810:1841   */\n      tag_261\n      jump\t// in\n    tag_277:\n        /* \"#utility.yul\":1860:1865   */\n      swap5\n        /* \"#utility.yul\":1938:1940   */\n      0x20\n        /* \"#utility.yul\":1923:1941   */\n      swap4\n      swap1\n      swap4\n      add\n        /* \"#utility.yul\":1910:1942   */\n      calldataload\n      swap4\n      pop\n      pop\n      pop\n        /* \"#utility.yul\":1599:1974   */\n      jump\t// out\n        /* \"#utility.yul\":1979:2565   */\n    tag_60:\n        /* \"#utility.yul\":2049:2055   */\n      0x00\n        /* \"#utility.yul\":2057:2063   */\n      dup1\n        /* \"#utility.yul\":2110:2112   */\n      0x20\n        /* \"#utility.yul\":2098:2107   */\n      dup4\n        /* \"#utility.yul\":2089:2096   */\n      dup6\n        /* \"#utility.yul\":2085:2108   */\n      sub\n        /* \"#utility.yul\":2081:2113   */\n      slt\n        /* \"#utility.yul\":2078:2130   */\n      iszero\n      tag_279\n      jumpi\n        /* \"#utility.yul\":2126:2127   */\n      0x00\n        /* \"#utility.yul\":2123:2124   */\n      dup1\n        /* \"#utility.yul\":2116:2128   */\n      revert\n        /* \"#utility.yul\":2078:2130   */\n    tag_279:\n        /* \"#utility.yul\":2166:2175   */\n      dup3\n        /* \"#utility.yul\":2153:2176   */\n      calldataload\n        /* \"#utility.yul\":2199:2217   */\n      0xffffffffffffffff\n        /* \"#utility.yul\":2191:2197   */\n      dup2\n        /* \"#utility.yul\":2188:2218   */\n      gt\n        /* \"#utility.yul\":2185:2235   */\n      iszero\n      tag_280\n      jumpi\n        /* \"#utility.yul\":2231:2232   */\n      0x00\n        /* \"#utility.yul\":2228:2229   */\n      dup1\n        /* \"#utility.yul\":2221:2233   */\n      revert\n        /* \"#utility.yul\":2185:2235   */\n    tag_280:\n        /* \"#utility.yul\":2254:2276   */\n      dup4\n      add\n        /* \"#utility.yul\":2307:2311   */\n      0x1f\n        /* \"#utility.yul\":2299:2312   */\n      dup2\n      add\n        /* \"#utility.yul\":2295:2322   */\n      dup6\n      sgt\n        /* \"#utility.yul\":2285:2340   */\n      tag_281\n      jumpi\n        /* \"#utility.yul\":2336:2337   */\n      0x00\n        /* \"#utility.yul\":2333:2334   */\n      dup1\n        /* \"#utility.yul\":2326:2338   */\n      revert\n        /* \"#utility.yul\":2285:2340   */\n    tag_281:\n        /* \"#utility.yul\":2376:2378   */\n      dup1\n        /* \"#utility.yul\":2363:2379   */\n      calldataload\n        /* \"#utility.yul\":2402:2420   */\n      0xffffffffffffffff\n        /* \"#utility.yul\":2394:2400   */\n      dup2\n        /* \"#utility.yul\":2391:2421   */\n      gt\n        /* \"#utility.yul\":2388:2438   */\n      iszero\n      tag_282\n      jumpi\n        /* \"#utility.yul\":2434:2435   */\n      0x00\n        /* \"#utility.yul\":2431:2432   */\n      dup1\n        /* \"#utility.yul\":2424:2436   */\n      revert\n        /* \"#utility.yul\":2388:2438   */\n    tag_282:\n        /* \"#utility.yul\":2479:2486   */\n      dup6\n        /* \"#utility.yul\":2474:2476   */\n      0x20\n        /* \"#utility.yul\":2465:2471   */\n      dup3\n        /* \"#utility.yul\":2461:2463   */\n      dup5\n        /* \"#utility.yul\":2457:2472   */\n      add\n        /* \"#utility.yul\":2453:2477   */\n      add\n        /* \"#utility.yul\":2450:2487   */\n      gt\n        /* \"#utility.yul\":2447:2504   */\n      iszero\n      tag_283\n      jumpi\n        /* \"#utility.yul\":2500:2501   */\n      0x00\n        /* \"#utility.yul\":2497:2498   */\n      dup1\n        /* \"#utility.yul\":2490:2502   */\n      revert\n        /* \"#utility.yul\":2447:2504   */\n    tag_283:\n        /* \"#utility.yul\":2531:2533   */\n      0x20\n        /* \"#utility.yul\":2523:2534   */\n      swap2\n      swap1\n      swap2\n      add\n      swap6\n        /* \"#utility.yul\":2553:2559   */\n      swap1\n      swap5\n      pop\n        /* \"#utility.yul\":1979:2565   */\n      swap3\n      pop\n      pop\n      pop\n      jump\t// out\n        /* \"#utility.yul\":2570:3067   */\n    tag_79:\n        /* \"#utility.yul\":2753:2759   */\n      dup3\n        /* \"#utility.yul\":2746:2760   */\n      iszero\n        /* \"#utility.yul\":2739:2761   */\n      iszero\n        /* \"#utility.yul\":2728:2737   */\n      dup2\n        /* \"#utility.yul\":2721:2762   */\n      mstore\n        /* \"#utility.yul\":2798:2800   */\n      0x40\n        /* \"#utility.yul\":2793:2795   */\n      0x20\n        /* \"#utility.yul\":2782:2791   */\n      dup3\n        /* \"#utility.yul\":2778:2796   */\n      add\n        /* \"#utility.yul\":2771:2801   */\n      mstore\n        /* \"#utility.yul\":2702:2706   */\n      0x00\n        /* \"#utility.yul\":2830:2836   */\n      dup3\n        /* \"#utility.yul\":2824:2837   */\n      mload\n        /* \"#utility.yul\":2873:2879   */\n      dup1\n        /* \"#utility.yul\":2868:2870   */\n      0x40\n        /* \"#utility.yul\":2857:2866   */\n      dup5\n        /* \"#utility.yul\":2853:2871   */\n      add\n        /* \"#utility.yul\":2846:2880   */\n      mstore\n        /* \"#utility.yul\":2932:2938   */\n      dup1\n        /* \"#utility.yul\":2927:2929   */\n      0x20\n        /* \"#utility.yul\":2919:2925   */\n      dup6\n        /* \"#utility.yul\":2915:2930   */\n      add\n        /* \"#utility.yul\":2910:2912   */\n      0x60\n        /* \"#utility.yul\":2899:2908   */\n      dup6\n        /* \"#utility.yul\":2895:2913   */\n      add\n        /* \"#utility.yul\":2889:2939   */\n      mcopy\n        /* \"#utility.yul\":2988:2989   */\n      0x00\n        /* \"#utility.yul\":2983:2985   */\n      0x60\n        /* \"#utility.yul\":2974:2980   */\n      dup3\n        /* \"#utility.yul\":2963:2972   */\n      dup6\n        /* \"#utility.yul\":2959:2981   */\n      add\n        /* \"#utility.yul\":2955:2986   */\n      add\n        /* \"#utility.yul\":2948:2990   */\n      mstore\n        /* \"#utility.yul\":3058:3060   */\n      0x60\n        /* \"#utility.yul\":3051:3053   */\n      0x1f\n        /* \"#utility.yul\":3047:3054   */\n      not\n        /* \"#utility.yul\":3042:3044   */\n      0x1f\n        /* \"#utility.yul\":3034:3040   */\n      dup4\n        /* \"#utility.yul\":3030:3045   */\n      add\n        /* \"#utility.yul\":3026:3055   */\n      and\n        /* \"#utility.yul\":3015:3024   */\n      dup5\n        /* \"#utility.yul\":3011:3056   */\n      add\n        /* \"#utility.yul\":3007:3061   */\n      add\n        /* \"#utility.yul\":2999:3061   */\n      swap2\n      pop\n      pop\n        /* \"#utility.yul\":2570:3067   */\n      swap4\n      swap3\n      pop\n      pop\n      pop\n      jump\t// out\n        /* \"#utility.yul\":4079:4206   */\n    tag_123:\n        /* \"#utility.yul\":4140:4150   */\n      0x4e487b71\n        /* \"#utility.yul\":4135:4138   */\n      0xe0\n        /* \"#utility.yul\":4131:4151   */\n      shl\n        /* \"#utility.yul\":4128:4129   */\n      0x00\n        /* \"#utility.yul\":4121:4152   */\n      mstore\n        /* \"#utility.yul\":4171:4175   */\n      0x32\n        /* \"#utility.yul\":4168:4169   */\n      0x04\n        /* \"#utility.yul\":4161:4176   */\n      mstore\n        /* \"#utility.yul\":4195:4199   */\n      0x24\n        /* \"#utility.yul\":4192:4193   */\n      0x00\n        /* \"#utility.yul\":4185:4200   */\n      revert\n        /* \"#utility.yul\":4901:5131   */\n    tag_135:\n        /* \"#utility.yul\":4971:4977   */\n      0x00\n        /* \"#utility.yul\":5024:5026   */\n      0x20\n        /* \"#utility.yul\":5012:5021   */\n      dup3\n        /* \"#utility.yul\":5003:5010   */\n      dup5\n        /* \"#utility.yul\":4999:5022   */\n      sub\n        /* \"#utility.yul\":4995:5027   */\n      slt\n        /* \"#utility.yul\":4992:5044   */\n      iszero\n      tag_293\n      jumpi\n        /* \"#utility.yul\":5040:5041   */\n      0x00\n        /* \"#utility.yul\":5037:5038   */\n      dup1\n        /* \"#utility.yul\":5030:5042   */\n      revert\n        /* \"#utility.yul\":4992:5044   */\n    tag_293:\n      pop\n        /* \"#utility.yul\":5085:5101   */\n      mload\n      swap2\n        /* \"#utility.yul\":4901:5131   */\n      swap1\n      pop\n      jump\t// out\n        /* \"#utility.yul\":5540:5667   */\n    tag_262:\n        /* \"#utility.yul\":5601:5611   */\n      0x4e487b71\n        /* \"#utility.yul\":5596:5599   */\n      0xe0\n        /* \"#utility.yul\":5592:5612   */\n      shl\n        /* \"#utility.yul\":5589:5590   */\n      0x00\n        /* \"#utility.yul\":5582:5613   */\n      mstore\n        /* \"#utility.yul\":5632:5636   */\n      0x11\n        /* \"#utility.yul\":5629:5630   */\n      0x04\n        /* \"#utility.yul\":5622:5637   */\n      mstore\n        /* \"#utility.yul\":5656:5660   */\n      0x24\n        /* \"#utility.yul\":5653:5654   */\n      0x00\n        /* \"#utility.yul\":5646:5661   */\n      revert\n        /* \"#utility.yul\":5672:5797   */\n    tag_140:\n        /* \"#utility.yul\":5737:5746   */\n      dup1\n      dup3\n      add\n        /* \"#utility.yul\":5758:5768   */\n      dup1\n      dup3\n      gt\n        /* \"#utility.yul\":5755:5791   */\n      iszero\n      tag_298\n      jumpi\n        /* \"#utility.yul\":5771:5789   */\n      tag_298\n      tag_262\n      jump\t// in\n    tag_298:\n        /* \"#utility.yul\":5672:5797   */\n      swap3\n      swap2\n      pop\n      pop\n      jump\t// out\n        /* \"#utility.yul\":7960:8088   */\n    tag_174:\n        /* \"#utility.yul\":8027:8036   */\n      dup2\n      dup2\n      sub\n        /* \"#utility.yul\":8048:8059   */\n      dup2\n      dup2\n      gt\n        /* \"#utility.yul\":8045:8082   */\n      iszero\n      tag_298\n      jumpi\n        /* \"#utility.yul\":8062:8080   */\n      tag_298\n      tag_262\n      jump\t// in\n        /* \"#utility.yul\":9649:9828   */\n    tag_263:\n        /* \"#utility.yul\":9727:9740   */\n      dup1\n      mload\n        /* \"#utility.yul\":9780:9802   */\n      0xffffffffffffffffffff\n        /* \"#utility.yul\":9769:9803   */\n      dup2\n      and\n        /* \"#utility.yul\":9759:9804   */\n      dup2\n      eq\n        /* \"#utility.yul\":9749:9822   */\n      tag_313\n      jumpi\n        /* \"#utility.yul\":9818:9819   */\n      0x00\n        /* \"#utility.yul\":9815:9816   */\n      dup1\n        /* \"#utility.yul\":9808:9820   */\n      revert\n        /* \"#utility.yul\":9749:9822   */\n    tag_313:\n        /* \"#utility.yul\":9649:9828   */\n      swap2\n      swap1\n      pop\n      jump\t// out\n        /* \"#utility.yul\":9833:10404   */\n    tag_239:\n        /* \"#utility.yul\":9936:9942   */\n      0x00\n        /* \"#utility.yul\":9944:9950   */\n      dup1\n        /* \"#utility.yul\":9952:9958   */\n      0x00\n        /* \"#utility.yul\":9960:9966   */\n      dup1\n        /* \"#utility.yul\":9968:9974   */\n      0x00\n        /* \"#utility.yul\":10021:10024   */\n      0xa0\n        /* \"#utility.yul\":10009:10018   */\n      dup7\n        /* \"#utility.yul\":10000:10007   */\n      dup9\n        /* \"#utility.yul\":9996:10019   */\n      sub\n        /* \"#utility.yul\":9992:10025   */\n      slt\n        /* \"#utility.yul\":9989:10042   */\n      iszero\n      tag_315\n      jumpi\n        /* \"#utility.yul\":10038:10039   */\n      0x00\n        /* \"#utility.yul\":10035:10036   */\n      dup1\n        /* \"#utility.yul\":10028:10040   */\n      revert\n        /* \"#utility.yul\":9989:10042   */\n    tag_315:\n        /* \"#utility.yul\":10061:10100   */\n      tag_316\n        /* \"#utility.yul\":10090:10099   */\n      dup7\n        /* \"#utility.yul\":10061:10100   */\n      tag_263\n      jump\t// in\n    tag_316:\n        /* \"#utility.yul\":10140:10142   */\n      0x20\n        /* \"#utility.yul\":10125:10143   */\n      dup8\n      add\n        /* \"#utility.yul\":10119:10144   */\n      mload\n        /* \"#utility.yul\":10206:10208   */\n      0x40\n        /* \"#utility.yul\":10191:10209   */\n      dup9\n      add\n        /* \"#utility.yul\":10185:10210   */\n      mload\n        /* \"#utility.yul\":10300:10302   */\n      0x60\n        /* \"#utility.yul\":10285:10303   */\n      dup10\n      add\n        /* \"#utility.yul\":10279:10304   */\n      mload\n        /* \"#utility.yul\":10051:10100   */\n      swap3\n      swap8\n      pop\n        /* \"#utility.yul\":10119:10144   */\n      swap1\n      swap6\n      pop\n        /* \"#utility.yul\":10185:10210   */\n      swap4\n      pop\n        /* \"#utility.yul\":10279:10304   */\n      swap2\n      pop\n        /* \"#utility.yul\":10349:10398   */\n      tag_317\n        /* \"#utility.yul\":10393:10396   */\n      0x80\n        /* \"#utility.yul\":10378:10397   */\n      dup8\n      add\n        /* \"#utility.yul\":10349:10398   */\n      tag_263\n      jump\t// in\n    tag_317:\n        /* \"#utility.yul\":10339:10398   */\n      swap1\n      pop\n        /* \"#utility.yul\":9833:10404   */\n      swap3\n      swap6\n      pop\n      swap3\n      swap6\n      swap1\n      swap4\n      pop\n      jump\t// out\n        /* \"#utility.yul\":10409:10626   */\n    tag_241:\n        /* \"#utility.yul\":10449:10450   */\n      0x00\n        /* \"#utility.yul\":10475:10476   */\n      dup3\n        /* \"#utility.yul\":10465:10597   */\n      tag_319\n      jumpi\n        /* \"#utility.yul\":10519:10529   */\n      0x4e487b71\n        /* \"#utility.yul\":10514:10517   */\n      0xe0\n        /* \"#utility.yul\":10510:10530   */\n      shl\n        /* \"#utility.yul\":10507:10508   */\n      0x00\n        /* \"#utility.yul\":10500:10531   */\n      mstore\n        /* \"#utility.yul\":10554:10558   */\n      0x12\n        /* \"#utility.yul\":10551:10552   */\n      0x04\n        /* \"#utility.yul\":10544:10559   */\n      mstore\n        /* \"#utility.yul\":10582:10586   */\n      0x24\n        /* \"#utility.yul\":10579:10580   */\n      0x00\n        /* \"#utility.yul\":10572:10587   */\n      revert\n        /* \"#utility.yul\":10465:10597   */\n    tag_319:\n      pop\n        /* \"#utility.yul\":10611:10620   */\n      div\n      swap1\n        /* \"#utility.yul\":10409:10626   */\n      jump\t// out\n\n    auxdata: 0xa26469706673582212206e037b89294338930e1cab835e1d3e96681118ffb5f6035450557ae9a12db5ec64736f6c634300081a0033\n}\n",
				"bytecode": {
					"linkReferences": {},
					"object": "6080604052603c600655348015610014575f80fd5b506040516111c93803806111c983398101604081905261003391610136565b806001600160a01b03811661006157604051631e4fbdf760e01b81525f600482015260240160405180910390fd5b61006a816100cc565b50600380546001600160a01b03199081166001600160a01b0396871617909155600480548216948616949094179093556005805490931691841691909117909155165f908152600160208190526040909120805460ff19169091179055610187565b5f80546001600160a01b038381166001600160a01b0319831681178455604051919092169283917f8be0079c531659141344cd1fd0a4f28419497f9722a3daafe3b4186f6b6457e09190a35050565b80516001600160a01b0381168114610131575f80fd5b919050565b5f805f8060808587031215610149575f80fd5b6101528561011b565b93506101606020860161011b565b925061016e6040860161011b565b915061017c6060860161011b565b905092959194509250565b611035806101945f395ff3fe60806040526004361061011b575f3560e01c80636e04ff0d1161009d578063c00d2a8c11610062578063c00d2a8c14610355578063ca6d56dc1461036a578063d0e30db01461013e578063f2fde38b14610389578063f96dae0a146103a8575f80fd5b80636e04ff0d146102b1578063715018a6146102de5780638da5cb5b146102f2578063a59a997314610322578063a607a8d914610341575f80fd5b8063237af348116100e3578063237af348146102165780634585e33b146102355780634d68282f14610254578063688f237b1461027357806368fd2d8014610292575f80fd5b80630121b93f1461011f578063013cf08b1461014057806308ae4b0c1461019d5780630d61b519146101db57806312065fe0146101fa575b5f80fd5b34801561012a575f80fd5b5061013e610139366004610de6565b6103c7565b005b34801561014b575f80fd5b5061015f61015a366004610de6565b61061e565b604080516001600160a01b03909716875260208701959095529385019290925260608401521515608083015260a082015260c0015b60405180910390f35b3480156101a8575f80fd5b506101cb6101b7366004610e11565b60016020525f908152604090205460ff1681565b6040519015158152602001610194565b3480156101e6575f80fd5b5061013e6101f5366004610de6565b610672565b348015610205575f80fd5b50475b604051908152602001610194565b348015610221575f80fd5b5061013e610230366004610e33565b61083f565b348015610240575f80fd5b5061013e61024f366004610e5d565b6109b7565b34801561025f575f80fd5b5061013e61026e366004610de6565b6109d4565b34801561027e575f80fd5b5061013e61028d366004610de6565b610ab5565b34801561029d575f80fd5b5061013e6102ac366004610de6565b610b27565b3480156102bc575f80fd5b506102d06102cb366004610e5d565b610b73565b604051610194929190610ecb565b3480156102e9575f80fd5b5061013e610c67565b3480156102fd575f80fd5b505f546001600160a01b03165b6040516001600160a01b039091168152602001610194565b34801561032d575f80fd5b5060055461030a906001600160a01b031681565b34801561034c575f80fd5b50610208610c7a565b348015610360575f80fd5b5061020860065481565b348015610375575f80fd5b5061013e610384366004610e11565b610d00565b348015610394575f80fd5b5061013e6103a3366004610e11565b610d2e565b3480156103b3575f80fd5b5060035461030a906001600160a01b031681565b335f9081526001602052604090205460ff1661041d5760405162461bcd60e51b815260206004820152601060248201526f2737ba1030902220a79036b2b6b132b960811b60448201526064015b60405180910390fd5b5f6002828154811061043157610431610f09565b5f91825260208083203384526006600790930201918201905260409091205490915060ff16156104935760405162461bcd60e51b815260206004820152600d60248201526c105b1c9958591e481d9bdd1959609a1b6044820152606401610414565b806003015442106104dc5760405162461bcd60e51b8152602060048201526013602482015272159bdd1a5b99c81c195c9a5bd908195b991959606a1b6044820152606401610414565b6003546040516370a0823160e01b81523360048201525f916001600160a01b0316906370a0823190602401602060405180830381865afa158015610522573d5f803e3d5ffd5b505050506040513d601f19601f820116820180604052508101906105469190610f1d565b90505f81116105a35760405162461bcd60e51b815260206004820152602360248201527f4d75737420686f6c6420676f7665726e616e636520746f6b656e7320746f20766044820152626f746560e81b6064820152608401610414565b80826002015f8282546105b69190610f48565b9091555050335f818152600684016020908152604091829020805460ff1916600117905581518681529081019290925281018290527f1abe610cf2bf87e57dcc1181fcf5ac0934e843d8344ab9eed6e86c799f62585e906060015b60405180910390a1505050565b6002818154811061062d575f80fd5b5f9182526020909120600790910201805460018201546002830154600384015460048501546005909501546001600160a01b0390941695509193909260ff9091169086565b5f6002828154811061068657610686610f09565b905f5260205f2090600702019050681b1ae4d6e2ef500000816002015410156107005760405162461bcd60e51b815260206004820152602660248201527f4e6f7420656e6f75676820766f746573202835303020746f6b656e732072657160448201526575697265642960d01b6064820152608401610414565b600481015460ff16156107485760405162461bcd60e51b815260206004820152601060248201526f105b1c9958591e48195e1958dd5d195960821b6044820152606401610414565b806003015442101561079c5760405162461bcd60e51b815260206004820152601760248201527f566f74696e6720706572696f64206e6f7420656e6465640000000000000000006044820152606401610414565b6105dc6107a7610c7a565b116107e85760405162461bcd60e51b815260206004820152601160248201527045544820707269636520746f6f206c6f7760781b6044820152606401610414565b60048101805460ff1916600117905561080242603c610f48565b60058201556040518281527f712ae1383f79ac853f8d882153778e0260ef8f03b504e2866e0593e04d2b291f906020015b60405180910390a15050565b335f9081526001602052604090205460ff166108905760405162461bcd60e51b815260206004820152601060248201526f2737ba1030902220a79036b2b6b132b960811b6044820152606401610414565b804710156108e05760405162461bcd60e51b815260206004820152601d60248201527f496e73756666696369656e742074726561737572792062616c616e63650000006044820152606401610414565b6002805460019081018083555f83815292916108fb91610f61565b8154811061090b5761090b610f09565b5f918252602082206007919091020180546001600160a01b0319166001600160a01b0386161781556001810184905560028101919091556006549091506109529042610f48565b600382015560048101805460ff191690556002547f3417b456fad6209c73445d5efd446d686e75e4560f0f50c13b5a5cde976447b49061099490600190610f61565b604080519182526001600160a01b03861660208301528101849052606001610611565b5f6109c482840184610de6565b90506109cf81610672565b505050565b5f600282815481106109e8576109e8610f09565b905f5260205f20906007020190508060050154421015610a4a5760405162461bcd60e51b815260206004820152601960248201527f46756e6473206c6f636b656420666f722031206d696e757465000000000000006044820152606401610414565b805460018201546040516001600160a01b039092169181156108fc0291905f818181858888f19350505050158015610a84573d5f803e3d5ffd5b506040518281527f952b264c8e0a06cddb4bbaa6d6af1d565145329fd95bbe72cb2b53942b2dc96690602001610833565b610abd610d6b565b600554604051631a4ca37b60e21b815230600482018190526024820184905260448201526001600160a01b03909116906369328dec906064015b5f604051808303815f87803b158015610b0e575f80fd5b505af1158015610b20573d5f803e3d5ffd5b5050505050565b610b2f610d6b565b60055460405163e8eda9df60e01b815230600482018190526024820184905260448201525f60648201526001600160a01b039091169063e8eda9df90608401610af7565b5f60605f5b600254811015610c4c5760028181548110610b9557610b95610f09565b5f91825260209091206004600790920201015460ff16158015610be35750681b1ae4d6e2ef50000060028281548110610bd057610bd0610f09565b905f5260205f2090600702016002015410155b8015610c11575060028181548110610bfd57610bfd610f09565b905f5260205f209060070201600301544210155b15610c4457600181604051602001610c2b91815260200190565b6040516020818303038152906040529250925050610c60565b600101610b78565b505060408051602081019091525f80825291505b9250929050565b610c6f610d6b565b610c785f610d97565b565b6004805460408051633fabe5a360e21b815290515f9384936001600160a01b03169263feaf968c928183019260a0928290030181865afa158015610cc0573d5f803e3d5ffd5b505050506040513d601f19601f82011682018060405250810190610ce49190610f92565b5050509150506305f5e10081610cfa9190610fe0565b91505090565b610d08610d6b565b6001600160a01b03165f908152600160208190526040909120805460ff19169091179055565b610d36610d6b565b6001600160a01b038116610d5f57604051631e4fbdf760e01b81525f6004820152602401610414565b610d6881610d97565b50565b5f546001600160a01b03163314610c785760405163118cdaa760e01b8152336004820152602401610414565b5f80546001600160a01b038381166001600160a01b0319831681178455604051919092169283917f8be0079c531659141344cd1fd0a4f28419497f9722a3daafe3b4186f6b6457e09190a35050565b5f60208284031215610df6575f80fd5b5035919050565b6001600160a01b0381168114610d68575f80fd5b5f60208284031215610e21575f80fd5b8135610e2c81610dfd565b9392505050565b5f8060408385031215610e44575f80fd5b8235610e4f81610dfd565b946020939093013593505050565b5f8060208385031215610e6e575f80fd5b823567ffffffffffffffff811115610e84575f80fd5b8301601f81018513610e94575f80fd5b803567ffffffffffffffff811115610eaa575f80fd5b856020828401011115610ebb575f80fd5b6020919091019590945092505050565b8215158152604060208201525f82518060408401528060208501606085015e5f606082850101526060601f19601f8301168401019150509392505050565b634e487b7160e01b5f52603260045260245ffd5b5f60208284031215610f2d575f80fd5b5051919050565b634e487b7160e01b5f52601160045260245ffd5b80820180821115610f5b57610f5b610f34565b92915050565b81810381811115610f5b57610f5b610f34565b805169ffffffffffffffffffff81168114610f8d575f80fd5b919050565b5f805f805f60a08688031215610fa6575f80fd5b610faf86610f74565b60208701516040880151606089015192975090955093509150610fd460808701610f74565b90509295509295909350565b5f82610ffa57634e487b7160e01b5f52601260045260245ffd5b50049056fea26469706673582212206e037b89294338930e1cab835e1d3e96681118ffb5f6035450557ae9a12db5ec64736f6c634300081a0033",
					"opcodes": "PUSH1 0x80 PUSH1 0x40 MSTORE PUSH1 0x3C PUSH1 0x6 SSTORE CALLVALUE DUP1 ISZERO PUSH2 0x14 JUMPI PUSH0 DUP1 REVERT JUMPDEST POP PUSH1 0x40 MLOAD PUSH2 0x11C9 CODESIZE SUB DUP1 PUSH2 0x11C9 DUP4 CODECOPY DUP2 ADD PUSH1 0x40 DUP2 SWAP1 MSTORE PUSH2 0x33 SWAP2 PUSH2 0x136 JUMP JUMPDEST DUP1 PUSH1 0x1 PUSH1 0x1 PUSH1 0xA0 SHL SUB DUP2 AND PUSH2 0x61 JUMPI PUSH1 0x40 MLOAD PUSH4 0x1E4FBDF7 PUSH1 0xE0 SHL DUP2 MSTORE PUSH0 PUSH1 0x4 DUP3 ADD MSTORE PUSH1 0x24 ADD PUSH1 0x40 MLOAD DUP1 SWAP2 SUB SWAP1 REVERT JUMPDEST PUSH2 0x6A DUP2 PUSH2 0xCC JUMP JUMPDEST POP PUSH1 0x3 DUP1 SLOAD PUSH1 0x1 PUSH1 0x1 PUSH1 0xA0 SHL SUB NOT SWAP1 DUP2 AND PUSH1 0x1 PUSH1 0x1 PUSH1 0xA0 SHL SUB SWAP7 DUP8 AND OR SWAP1 SWAP2 SSTORE PUSH1 0x4 DUP1 SLOAD DUP3 AND SWAP5 DUP7 AND SWAP5 SWAP1 SWAP5 OR SWAP1 SWAP4 SSTORE PUSH1 0x5 DUP1 SLOAD SWAP1 SWAP4 AND SWAP2 DUP5 AND SWAP2 SWAP1 SWAP2 OR SWAP1 SWAP2 SSTORE AND PUSH0 SWAP1 DUP2 MSTORE PUSH1 0x1 PUSH1 0x20 DUP2 SWAP1 MSTORE PUSH1 0x40 SWAP1 SWAP2 KECCAK256 DUP1 SLOAD PUSH1 0xFF NOT AND SWAP1 SWAP2 OR SWAP1 SSTORE PUSH2 0x187 JUMP JUMPDEST PUSH0 DUP1 SLOAD PUSH1 0x1 PUSH1 0x1 PUSH1 0xA0 SHL SUB DUP4 DUP2 AND PUSH1 0x1 PUSH1 0x1 PUSH1 0xA0 SHL SUB NOT DUP4 AND DUP2 OR DUP5 SSTORE PUSH1 0x40 MLOAD SWAP2 SWAP1 SWAP3 AND SWAP3 DUP4 SWAP2 PUSH32 0x8BE0079C531659141344CD1FD0A4F28419497F9722A3DAAFE3B4186F6B6457E0 SWAP2 SWAP1 LOG3 POP POP JUMP JUMPDEST DUP1 MLOAD PUSH1 0x1 PUSH1 0x1 PUSH1 0xA0 SHL SUB DUP2 AND DUP2 EQ PUSH2 0x131 JUMPI PUSH0 DUP1 REVERT JUMPDEST SWAP2 SWAP1 POP JUMP JUMPDEST PUSH0 DUP1 PUSH0 DUP1 PUSH1 0x80 DUP6 DUP8 SUB SLT ISZERO PUSH2 0x149 JUMPI PUSH0 DUP1 REVERT JUMPDEST PUSH2 0x152 DUP6 PUSH2 0x11B JUMP JUMPDEST SWAP4 POP PUSH2 0x160 PUSH1 0x20 DUP7 ADD PUSH2 0x11B JUMP JUMPDEST SWAP3 POP PUSH2 0x16E PUSH1 0x40 DUP7 ADD PUSH2 0x11B JUMP JUMPDEST SWAP2 POP PUSH2 0x17C PUSH1 0x60 DUP7 ADD PUSH2 0x11B JUMP JUMPDEST SWAP1 POP SWAP3 SWAP6 SWAP2 SWAP5 POP SWAP3 POP JUMP JUMPDEST PUSH2 0x1035 DUP1 PUSH2 0x194 PUSH0 CODECOPY PUSH0 RETURN INVALID PUSH1 0x80 PUSH1 0x40 MSTORE PUSH1 0x4 CALLDATASIZE LT PUSH2 0x11B JUMPI PUSH0 CALLDATALOAD PUSH1 0xE0 SHR DUP1 PUSH4 0x6E04FF0D GT PUSH2 0x9D JUMPI DUP1 PUSH4 0xC00D2A8C GT PUSH2 0x62 JUMPI DUP1 PUSH4 0xC00D2A8C EQ PUSH2 0x355 JUMPI DUP1 PUSH4 0xCA6D56DC EQ PUSH2 0x36A JUMPI DUP1 PUSH4 0xD0E30DB0 EQ PUSH2 0x13E JUMPI DUP1 PUSH4 0xF2FDE38B EQ PUSH2 0x389 JUMPI DUP1 PUSH4 0xF96DAE0A EQ PUSH2 0x3A8 JUMPI PUSH0 DUP1 REVERT JUMPDEST DUP1 PUSH4 0x6E04FF0D EQ PUSH2 0x2B1 JUMPI DUP1 PUSH4 0x715018A6 EQ PUSH2 0x2DE JUMPI DUP1 PUSH4 0x8DA5CB5B EQ PUSH2 0x2F2 JUMPI DUP1 PUSH4 0xA59A9973 EQ PUSH2 0x322 JUMPI DUP1 PUSH4 0xA607A8D9 EQ PUSH2 0x341 JUMPI PUSH0 DUP1 REVERT JUMPDEST DUP1 PUSH4 0x237AF348 GT PUSH2 0xE3 JUMPI DUP1 PUSH4 0x237AF348 EQ PUSH2 0x216 JUMPI DUP1 PUSH4 0x4585E33B EQ PUSH2 0x235 JUMPI DUP1 PUSH4 0x4D68282F EQ PUSH2 0x254 JUMPI DUP1 PUSH4 0x688F237B EQ PUSH2 0x273 JUMPI DUP1 PUSH4 0x68FD2D80 EQ PUSH2 0x292 JUMPI PUSH0 DUP1 REVERT JUMPDEST DUP1 PUSH4 0x121B93F EQ PUSH2 0x11F JUMPI DUP1 PUSH4 0x13CF08B EQ PUSH2 0x140 JUMPI DUP1 PUSH4 0x8AE4B0C EQ PUSH2 0x19D JUMPI DUP1 PUSH4 0xD61B519 EQ PUSH2 0x1DB JUMPI DUP1 PUSH4 0x12065FE0 EQ PUSH2 0x1FA JUMPI JUMPDEST PUSH0 DUP1 REVERT JUMPDEST CALLVALUE DUP1 ISZERO PUSH2 0x12A JUMPI PUSH0 DUP1 REVERT JUMPDEST POP PUSH2 0x13E PUSH2 0x139 CALLDATASIZE PUSH1 0x4 PUSH2 0xDE6 JUMP JUMPDEST PUSH2 0x3C7 JUMP JUMPDEST STOP JUMPDEST CALLVALUE DUP1 ISZERO PUSH2 0x14B JUMPI PUSH0 DUP1 REVERT JUMPDEST POP PUSH2 0x15F PUSH2 0x15A CALLDATASIZE PUSH1 0x4 PUSH2 0xDE6 JUMP JUMPDEST PUSH2 0x61E JUMP JUMPDEST PUSH1 0x40 DUP1 MLOAD PUSH1 0x1 PUSH1 0x1 PUSH1 0xA0 SHL SUB SWAP1 SWAP8 AND DUP8 MSTORE PUSH1 0x20 DUP8 ADD SWAP6 SWAP1 SWAP6 MSTORE SWAP4 DUP6 ADD SWAP3 SWAP1 SWAP3 MSTORE PUSH1 0x60 DUP5 ADD MSTORE ISZERO ISZERO PUSH1 0x80 DUP4 ADD MSTORE PUSH1 0xA0 DUP3 ADD MSTORE PUSH1 0xC0 ADD JUMPDEST PUSH1 0x40 MLOAD DUP1 SWAP2 SUB SWAP1 RETURN JUMPDEST CALLVALUE DUP1 ISZERO PUSH2 0x1A8 JUMPI PUSH0 DUP1 REVERT JUMPDEST POP PUSH2 0x1CB PUSH2 0x1B7 CALLDATASIZE PUSH1 0x4 PUSH2 0xE11 JUMP JUMPDEST PUSH1 0x1 PUSH1 0x20 MSTORE PUSH0 SWAP1 DUP2 MSTORE PUSH1 0x40 SWAP1 KECCAK256 SLOAD PUSH1 0xFF AND DUP2 JUMP JUMPDEST PUSH1 0x40 MLOAD SWAP1 ISZERO ISZERO DUP2 MSTORE PUSH1 0x20 ADD PUSH2 0x194 JUMP JUMPDEST CALLVALUE DUP1 ISZERO PUSH2 0x1E6 JUMPI PUSH0 DUP1 REVERT JUMPDEST POP PUSH2 0x13E PUSH2 0x1F5 CALLDATASIZE PUSH1 0x4 PUSH2 0xDE6 JUMP JUMPDEST PUSH2 0x672 JUMP JUMPDEST CALLVALUE DUP1 ISZERO PUSH2 0x205 JUMPI PUSH0 DUP1 REVERT JUMPDEST POP SELFBALANCE JUMPDEST PUSH1 0x40 MLOAD SWAP1 DUP2 MSTORE PUSH1 0x20 ADD PUSH2 0x194 JUMP JUMPDEST CALLVALUE DUP1 ISZERO PUSH2 0x221 JUMPI PUSH0 DUP1 REVERT JUMPDEST POP PUSH2 0x13E PUSH2 0x230 CALLDATASIZE PUSH1 0x4 PUSH2 0xE33 JUMP JUMPDEST PUSH2 0x83F JUMP JUMPDEST CALLVALUE DUP1 ISZERO PUSH2 0x240 JUMPI PUSH0 DUP1 REVERT JUMPDEST POP PUSH2 0x13E PUSH2 0x24F CALLDATASIZE PUSH1 0x4 PUSH2 0xE5D JUMP JUMPDEST PUSH2 0x9B7 JUMP JUMPDEST CALLVALUE DUP1 ISZERO PUSH2 0x25F JUMPI PUSH0 DUP1 REVERT JUMPDEST POP PUSH2 0x13E PUSH2 0x26E CALLDATASIZE PUSH1 0x4 PUSH2 0xDE6 JUMP JUMPDEST PUSH2 0x9D4 JUMP JUMPDEST CALLVALUE DUP1 ISZERO PUSH2 0x27E JUMPI PUSH0 DUP1 REVERT JUMPDEST POP PUSH2 0x13E PUSH2 0x28D CALLDATASIZE PUSH1 0x4 PUSH2 0xDE6 JUMP JUMPDEST PUSH2 0xAB5 JUMP JUMPDEST CALLVALUE DUP1 ISZERO PUSH2 0x29D JUMPI PUSH0 DUP1 REVERT JUMPDEST POP PUSH2 0x13E PUSH2 0x2AC CALLDATASIZE PUSH1 0x4 PUSH2 0xDE6 JUMP JUMPDEST PUSH2 0xB27 JUMP JUMPDEST CALLVALUE DUP1 ISZERO PUSH2 0x2BC JUMPI PUSH0 DUP1 REVERT JUMPDEST POP PUSH2 0x2D0 PUSH2 0x2CB CALLDATASIZE PUSH1 0x4 PUSH2 0xE5D JUMP JUMPDEST PUSH2 0xB73 JUMP JUMPDEST PUSH1 0x40 MLOAD PUSH2 0x194 SWAP3 SWAP2 SWAP1 PUSH2 0xECB JUMP JUMPDEST CALLVALUE DUP1 ISZERO PUSH2 0x2E9 JUMPI PUSH0 DUP1 REVERT JUMPDEST POP PUSH2 0x13E PUSH2 0xC67 JUMP JUMPDEST CALLVALUE DUP1 ISZERO PUSH2 0x2FD JUMPI PUSH0 DUP1 REVERT JUMPDEST POP PUSH0 SLOAD PUSH1 0x1 PUSH1 0x1 PUSH1 0xA0 SHL SUB AND JUMPDEST PUSH1 0x40 MLOAD PUSH1 0x1 PUSH1 0x1 PUSH1 0xA0 SHL SUB SWAP1 SWAP2 AND DUP2 MSTORE PUSH1 0x20 ADD PUSH2 0x194 JUMP JUMPDEST CALLVALUE DUP1 ISZERO PUSH2 0x32D JUMPI PUSH0 DUP1 REVERT JUMPDEST POP PUSH1 0x5 SLOAD PUSH2 0x30A SWAP1 PUSH1 0x1 PUSH1 0x1 PUSH1 0xA0 SHL SUB AND DUP2 JUMP JUMPDEST CALLVALUE DUP1 ISZERO PUSH2 0x34C JUMPI PUSH0 DUP1 REVERT JUMPDEST POP PUSH2 0x208 PUSH2 0xC7A JUMP JUMPDEST CALLVALUE DUP1 ISZERO PUSH2 0x360 JUMPI PUSH0 DUP1 REVERT JUMPDEST POP PUSH2 0x208 PUSH1 0x6 SLOAD DUP2 JUMP JUMPDEST CALLVALUE DUP1 ISZERO PUSH2 0x375 JUMPI PUSH0 DUP1 REVERT JUMPDEST POP PUSH2 0x13E PUSH2 0x384 CALLDATASIZE PUSH1 0x4 PUSH2 0xE11 JUMP JUMPDEST PUSH2 0xD00 JUMP JUMPDEST CALLVALUE DUP1 ISZERO PUSH2 0x394 JUMPI PUSH0 DUP1 REVERT JUMPDEST POP PUSH2 0x13E PUSH2 0x3A3 CALLDATASIZE PUSH1 0x4 PUSH2 0xE11 JUMP JUMPDEST PUSH2 0xD2E JUMP JUMPDEST CALLVALUE DUP1 ISZERO PUSH2 0x3B3 JUMPI PUSH0 DUP1 REVERT JUMPDEST POP PUSH1 0x3 SLOAD PUSH2 0x30A SWAP1 PUSH1 0x1 PUSH1 0x1 PUSH1 0xA0 SHL SUB AND DUP2 JUMP JUMPDEST CALLER PUSH0 SWAP1 DUP2 MSTORE PUSH1 0x1 PUSH1 0x20 MSTORE PUSH1 0x40 SWAP1 KECCAK256 SLOAD PUSH1 0xFF AND PUSH2 0x41D JUMPI PUSH1 0x40 MLOAD PUSH3 0x461BCD PUSH1 0xE5 SHL DUP2 MSTORE PUSH1 0x20 PUSH1 0x4 DUP3 ADD MSTORE PUSH1 0x10 PUSH1 0x24 DUP3 ADD MSTORE PUSH16 0x2737BA1030902220A79036B2B6B132B9 PUSH1 0x81 SHL PUSH1 0x44 DUP3 ADD MSTORE PUSH1 0x64 ADD JUMPDEST PUSH1 0x40 MLOAD DUP1 SWAP2 SUB SWAP1 REVERT JUMPDEST PUSH0 PUSH1 0x2 DUP3 DUP2 SLOAD DUP2 LT PUSH2 0x431 JUMPI PUSH2 0x431 PUSH2 0xF09 JUMP JUMPDEST PUSH0 SWAP2 DUP3 MSTORE PUSH1 0x20 DUP1 DUP4 KECCAK256 CALLER DUP5 MSTORE PUSH1 0x6 PUSH1 0x7 SWAP1 SWAP4 MUL ADD SWAP2 DUP3 ADD SWAP1 MSTORE PUSH1 0x40 SWAP1 SWAP2 KECCAK256 SLOAD SWAP1 SWAP2 POP PUSH1 0xFF AND ISZERO PUSH2 0x493 JUMPI PUSH1 0x40 MLOAD PUSH3 0x461BCD PUSH1 0xE5 SHL DUP2 MSTORE PUSH1 0x20 PUSH1 0x4 DUP3 ADD MSTORE PUSH1 0xD PUSH1 0x24 DUP3 ADD MSTORE PUSH13 0x105B1C9958591E481D9BDD1959 PUSH1 0x9A SHL PUSH1 0x44 DUP3 ADD MSTORE PUSH1 0x64 ADD PUSH2 0x414 JUMP JUMPDEST DUP1 PUSH1 0x3 ADD SLOAD TIMESTAMP LT PUSH2 0x4DC JUMPI PUSH1 0x40 MLOAD PUSH3 0x461BCD PUSH1 0xE5 SHL DUP2 MSTORE PUSH1 0x20 PUSH1 0x4 DUP3 ADD MSTORE PUSH1 0x13 PUSH1 0x24 DUP3 ADD MSTORE PUSH19 0x159BDD1A5B99C81C195C9A5BD908195B991959 PUSH1 0x6A SHL PUSH1 0x44 DUP3 ADD MSTORE PUSH1 0x64 ADD PUSH2 0x414 JUMP JUMPDEST PUSH1 0x3 SLOAD PUSH1 0x40 MLOAD PUSH4 0x70A08231 PUSH1 0xE0 SHL DUP2 MSTORE CALLER PUSH1 0x4 DUP3 ADD MSTORE PUSH0 SWAP2 PUSH1 0x1 PUSH1 0x1 PUSH1 0xA0 SHL SUB AND SWAP1 PUSH4 0x70A08231 SWAP1 PUSH1 0x24 ADD PUSH1 0x20 PUSH1 0x40 MLOAD DUP1 DUP4 SUB DUP2 DUP7 GAS STATICCALL ISZERO DUP1 ISZERO PUSH2 0x522 JUMPI RETURNDATASIZE PUSH0 DUP1 RETURNDATACOPY RETURNDATASIZE PUSH0 REVERT JUMPDEST POP POP POP POP PUSH1 0x40 MLOAD RETURNDATASIZE PUSH1 0x1F NOT PUSH1 0x1F DUP3 ADD AND DUP3 ADD DUP1 PUSH1 0x40 MSTORE POP DUP2 ADD SWAP1 PUSH2 0x546 SWAP2 SWAP1 PUSH2 0xF1D JUMP JUMPDEST SWAP1 POP PUSH0 DUP2 GT PUSH2 0x5A3 JUMPI PUSH1 0x40 MLOAD PUSH3 0x461BCD PUSH1 0xE5 SHL DUP2 MSTORE PUSH1 0x20 PUSH1 0x4 DUP3 ADD MSTORE PUSH1 0x23 PUSH1 0x24 DUP3 ADD MSTORE PUSH32 0x4D75737420686F6C6420676F7665726E616E636520746F6B656E7320746F2076 PUSH1 0x44 DUP3 ADD MSTORE PUSH3 0x6F7465 PUSH1 0xE8 SHL PUSH1 0x64 DUP3 ADD MSTORE PUSH1 0x84 ADD PUSH2 0x414 JUMP JUMPDEST DUP1 DUP3 PUSH1 0x2 ADD PUSH0 DUP3 DUP3 SLOAD PUSH2 0x5B6 SWAP2 SWAP1 PUSH2 0xF48 JUMP JUMPDEST SWAP1 SWAP2 SSTORE POP POP CALLER PUSH0 DUP2 DUP2 MSTORE PUSH1 0x6 DUP5 ADD PUSH1 0x20 SWAP1 DUP2 MSTORE PUSH1 0x40 SWAP2 DUP3 SWAP1 KECCAK256 DUP1 SLOAD PUSH1 0xFF NOT AND PUSH1 0x1 OR SWAP1 SSTORE DUP2 MLOAD DUP7 DUP2 MSTORE SWAP1 DUP2 ADD SWAP3 SWAP1 SWAP3 MSTORE DUP2 ADD DUP3 SWAP1 MSTORE PUSH32 0x1ABE610CF2BF87E57DCC1181FCF5AC0934E843D8344AB9EED6E86C799F62585E SWAP1 PUSH1 0x60 ADD JUMPDEST PUSH1 0x40 MLOAD DUP1 SWAP2 SUB SWAP1 LOG1 POP POP POP JUMP JUMPDEST PUSH1 0x2 DUP2 DUP2 SLOAD DUP2 LT PUSH2 0x62D JUMPI PUSH0 DUP1 REVERT JUMPDEST PUSH0 SWAP2 DUP3 MSTORE PUSH1 0x20 SWAP1 SWAP2 KECCAK256 PUSH1 0x7 SWAP1 SWAP2 MUL ADD DUP1 SLOAD PUSH1 0x1 DUP3 ADD SLOAD PUSH1 0x2 DUP4 ADD SLOAD PUSH1 0x3 DUP5 ADD SLOAD PUSH1 0x4 DUP6 ADD SLOAD PUSH1 0x5 SWAP1 SWAP6 ADD SLOAD PUSH1 0x1 PUSH1 0x1 PUSH1 0xA0 SHL SUB SWAP1 SWAP5 AND SWAP6 POP SWAP2 SWAP4 SWAP1 SWAP3 PUSH1 0xFF SWAP1 SWAP2 AND SWAP1 DUP7 JUMP JUMPDEST PUSH0 PUSH1 0x2 DUP3 DUP2 SLOAD DUP2 LT PUSH2 0x686 JUMPI PUSH2 0x686 PUSH2 0xF09 JUMP JUMPDEST SWAP1 PUSH0 MSTORE PUSH1 0x20 PUSH0 KECCAK256 SWAP1 PUSH1 0x7 MUL ADD SWAP1 POP PUSH9 0x1B1AE4D6E2EF500000 DUP2 PUSH1 0x2 ADD SLOAD LT ISZERO PUSH2 0x700 JUMPI PUSH1 0x40 MLOAD PUSH3 0x461BCD PUSH1 0xE5 SHL DUP2 MSTORE PUSH1 0x20 PUSH1 0x4 DUP3 ADD MSTORE PUSH1 0x26 PUSH1 0x24 DUP3 ADD MSTORE PUSH32 0x4E6F7420656E6F75676820766F746573202835303020746F6B656E7320726571 PUSH1 0x44 DUP3 ADD MSTORE PUSH6 0x756972656429 PUSH1 0xD0 SHL PUSH1 0x64 DUP3 ADD MSTORE PUSH1 0x84 ADD PUSH2 0x414 JUMP JUMPDEST PUSH1 0x4 DUP2 ADD SLOAD PUSH1 0xFF AND ISZERO PUSH2 0x748 JUMPI PUSH1 0x40 MLOAD PUSH3 0x461BCD PUSH1 0xE5 SHL DUP2 MSTORE PUSH1 0x20 PUSH1 0x4 DUP3 ADD MSTORE PUSH1 0x10 PUSH1 0x24 DUP3 ADD MSTORE PUSH16 0x105B1C9958591E48195E1958DD5D1959 PUSH1 0x82 SHL PUSH1 0x44 DUP3 ADD MSTORE PUSH1 0x64 ADD PUSH2 0x414 JUMP JUMPDEST DUP1 PUSH1 0x3 ADD SLOAD TIMESTAMP LT ISZERO PUSH2 0x79C JUMPI PUSH1 0x40 MLOAD PUSH3 0x461BCD PUSH1 0xE5 SHL DUP2 MSTORE PUSH1 0x20 PUSH1 0x4 DUP3 ADD MSTORE PUSH1 0x17 PUSH1 0x24 DUP3 ADD MSTORE PUSH32 0x566F74696E6720706572696F64206E6F7420656E646564000000000000000000 PUSH1 0x44 DUP3 ADD MSTORE PUSH1 0x64 ADD PUSH2 0x414 JUMP JUMPDEST PUSH2 0x5DC PUSH2 0x7A7 PUSH2 0xC7A JUMP JUMPDEST GT PUSH2 0x7E8 JUMPI PUSH1 0x40 MLOAD PUSH3 0x461BCD PUSH1 0xE5 SHL DUP2 MSTORE PUSH1 0x20 PUSH1 0x4 DUP3 ADD MSTORE PUSH1 0x11 PUSH1 0x24 DUP3 ADD MSTORE PUSH17 0x45544820707269636520746F6F206C6F77 PUSH1 0x78 SHL PUSH1 0x44 DUP3 ADD MSTORE PUSH1 0x64 ADD PUSH2 0x414 JUMP JUMPDEST PUSH1 0x4 DUP2 ADD DUP1 SLOAD PUSH1 0xFF NOT AND PUSH1 0x1 OR SWAP1 SSTORE PUSH2 0x802 TIMESTAMP PUSH1 0x3C PUSH2 0xF48 JUMP JUMPDEST PUSH1 0x5 DUP3 ADD SSTORE PUSH1 0x40 MLOAD DUP3 DUP2 MSTORE PUSH32 0x712AE1383F79AC853F8D882153778E0260EF8F03B504E2866E0593E04D2B291F SWAP1 PUSH1 0x20 ADD JUMPDEST PUSH1 0x40 MLOAD DUP1 SWAP2 SUB SWAP1 LOG1 POP POP JUMP JUMPDEST CALLER PUSH0 SWAP1 DUP2 MSTORE PUSH1 0x1 PUSH1 0x20 MSTORE PUSH1 0x40 SWAP1 KECCAK256 SLOAD PUSH1 0xFF AND PUSH2 0x890 JUMPI PUSH1 0x40 MLOAD PUSH3 0x461BCD PUSH1 0xE5 SHL DUP2 MSTORE PUSH1 0x20 PUSH1 0x4 DUP3 ADD MSTORE PUSH1 0x10 PUSH1 0x24 DUP3 ADD MSTORE PUSH16 0x2737BA1030902220A79036B2B6B132B9 PUSH1 0x81 SHL PUSH1 0x44 DUP3 ADD MSTORE PUSH1 0x64 ADD PUSH2 0x414 JUMP JUMPDEST DUP1 SELFBALANCE LT ISZERO PUSH2 0x8E0 JUMPI PUSH1 0x40 MLOAD PUSH3 0x461BCD PUSH1 0xE5 SHL DUP2 MSTORE PUSH1 0x20 PUSH1 0x4 DUP3 ADD MSTORE PUSH1 0x1D PUSH1 0x24 DUP3 ADD MSTORE PUSH32 0x496E73756666696369656E742074726561737572792062616C616E6365000000 PUSH1 0x44 DUP3 ADD MSTORE PUSH1 0x64 ADD PUSH2 0x414 JUMP JUMPDEST PUSH1 0x2 DUP1 SLOAD PUSH1 0x1 SWAP1 DUP2 ADD DUP1 DUP4 SSTORE PUSH0 DUP4 DUP2 MSTORE SWAP3 SWAP2 PUSH2 0x8FB SWAP2 PUSH2 0xF61 JUMP JUMPDEST DUP2 SLOAD DUP2 LT PUSH2 0x90B JUMPI PUSH2 0x90B PUSH2 0xF09 JUMP JUMPDEST PUSH0 SWAP2 DUP3 MSTORE PUSH1 0x20 DUP3 KECCAK256 PUSH1 0x7 SWAP2 SWAP1 SWAP2 MUL ADD DUP1 SLOAD PUSH1 0x1 PUSH1 0x1 PUSH1 0xA0 SHL SUB NOT AND PUSH1 0x1 PUSH1 0x1 PUSH1 0xA0 SHL SUB DUP7 AND OR DUP2 SSTORE PUSH1 0x1 DUP2 ADD DUP5 SWAP1 SSTORE PUSH1 0x2 DUP2 ADD SWAP2 SWAP1 SWAP2 SSTORE PUSH1 0x6 SLOAD SWAP1 SWAP2 POP PUSH2 0x952 SWAP1 TIMESTAMP PUSH2 0xF48 JUMP JUMPDEST PUSH1 0x3 DUP3 ADD SSTORE PUSH1 0x4 DUP2 ADD DUP1 SLOAD PUSH1 0xFF NOT AND SWAP1 SSTORE PUSH1 0x2 SLOAD PUSH32 0x3417B456FAD6209C73445D5EFD446D686E75E4560F0F50C13B5A5CDE976447B4 SWAP1 PUSH2 0x994 SWAP1 PUSH1 0x1 SWAP1 PUSH2 0xF61 JUMP JUMPDEST PUSH1 0x40 DUP1 MLOAD SWAP2 DUP3 MSTORE PUSH1 0x1 PUSH1 0x1 PUSH1 0xA0 SHL SUB DUP7 AND PUSH1 0x20 DUP4 ADD MSTORE DUP2 ADD DUP5 SWAP1 MSTORE PUSH1 0x60 ADD PUSH2 0x611 JUMP JUMPDEST PUSH0 PUSH2 0x9C4 DUP3 DUP5 ADD DUP5 PUSH2 0xDE6 JUMP JUMPDEST SWAP1 POP PUSH2 0x9CF DUP2 PUSH2 0x672 JUMP JUMPDEST POP POP POP JUMP JUMPDEST PUSH0 PUSH1 0x2 DUP3 DUP2 SLOAD DUP2 LT PUSH2 0x9E8 JUMPI PUSH2 0x9E8 PUSH2 0xF09 JUMP JUMPDEST SWAP1 PUSH0 MSTORE PUSH1 0x20 PUSH0 KECCAK256 SWAP1 PUSH1 0x7 MUL ADD SWAP1 POP DUP1 PUSH1 0x5 ADD SLOAD TIMESTAMP LT ISZERO PUSH2 0xA4A JUMPI PUSH1 0x40 MLOAD PUSH3 0x461BCD PUSH1 0xE5 SHL DUP2 MSTORE PUSH1 0x20 PUSH1 0x4 DUP3 ADD MSTORE PUSH1 0x19 PUSH1 0x24 DUP3 ADD MSTORE PUSH32 0x46756E6473206C6F636B656420666F722031206D696E75746500000000000000 PUSH1 0x44 DUP3 ADD MSTORE PUSH1 0x64 ADD PUSH2 0x414 JUMP JUMPDEST DUP1 SLOAD PUSH1 0x1 DUP3 ADD SLOAD PUSH1 0x40 MLOAD PUSH1 0x1 PUSH1 0x1 PUSH1 0xA0 SHL SUB SWAP1 SWAP3 AND SWAP2 DUP2 ISZERO PUSH2 0x8FC MUL SWAP2 SWAP1 PUSH0 DUP2 DUP2 DUP2 DUP6 DUP9 DUP9 CALL SWAP4 POP POP POP POP ISZERO DUP1 ISZERO PUSH2 0xA84 JUMPI RETURNDATASIZE PUSH0 DUP1 RETURNDATACOPY RETURNDATASIZE PUSH0 REVERT JUMPDEST POP PUSH1 0x40 MLOAD DUP3 DUP2 MSTORE PUSH32 0x952B264C8E0A06CDDB4BBAA6D6AF1D565145329FD95BBE72CB2B53942B2DC966 SWAP1 PUSH1 0x20 ADD PUSH2 0x833 JUMP JUMPDEST PUSH2 0xABD PUSH2 0xD6B JUMP JUMPDEST PUSH1 0x5 SLOAD PUSH1 0x40 MLOAD PUSH4 0x1A4CA37B PUSH1 0xE2 SHL DUP2 MSTORE ADDRESS PUSH1 0x4 DUP3 ADD DUP2 SWAP1 MSTORE PUSH1 0x24 DUP3 ADD DUP5 SWAP1 MSTORE PUSH1 0x44 DUP3 ADD MSTORE PUSH1 0x1 PUSH1 0x1 PUSH1 0xA0 SHL SUB SWAP1 SWAP2 AND SWAP1 PUSH4 0x69328DEC SWAP1 PUSH1 0x64 ADD JUMPDEST PUSH0 PUSH1 0x40 MLOAD DUP1 DUP4 SUB DUP2 PUSH0 DUP8 DUP1 EXTCODESIZE ISZERO DUP1 ISZERO PUSH2 0xB0E JUMPI PUSH0 DUP1 REVERT JUMPDEST POP GAS CALL ISZERO DUP1 ISZERO PUSH2 0xB20 JUMPI RETURNDATASIZE PUSH0 DUP1 RETURNDATACOPY RETURNDATASIZE PUSH0 REVERT JUMPDEST POP POP POP POP POP JUMP JUMPDEST PUSH2 0xB2F PUSH2 0xD6B JUMP JUMPDEST PUSH1 0x5 SLOAD PUSH1 0x40 MLOAD PUSH4 0xE8EDA9DF PUSH1 0xE0 SHL DUP2 MSTORE ADDRESS PUSH1 0x4 DUP3 ADD DUP2 SWAP1 MSTORE PUSH1 0x24 DUP3 ADD DUP5 SWAP1 MSTORE PUSH1 0x44 DUP3 ADD MSTORE PUSH0 PUSH1 0x64 DUP3 ADD MSTORE PUSH1 0x1 PUSH1 0x1 PUSH1 0xA0 SHL SUB SWAP1 SWAP2 AND SWAP1 PUSH4 0xE8EDA9DF SWAP1 PUSH1 0x84 ADD PUSH2 0xAF7 JUMP JUMPDEST PUSH0 PUSH1 0x60 PUSH0 JUMPDEST PUSH1 0x2 SLOAD DUP2 LT ISZERO PUSH2 0xC4C JUMPI PUSH1 0x2 DUP2 DUP2 SLOAD DUP2 LT PUSH2 0xB95 JUMPI PUSH2 0xB95 PUSH2 0xF09 JUMP JUMPDEST PUSH0 SWAP2 DUP3 MSTORE PUSH1 0x20 SWAP1 SWAP2 KECCAK256 PUSH1 0x4 PUSH1 0x7 SWAP1 SWAP3 MUL ADD ADD SLOAD PUSH1 0xFF AND ISZERO DUP1 ISZERO PUSH2 0xBE3 JUMPI POP PUSH9 0x1B1AE4D6E2EF500000 PUSH1 0x2 DUP3 DUP2 SLOAD DUP2 LT PUSH2 0xBD0 JUMPI PUSH2 0xBD0 PUSH2 0xF09 JUMP JUMPDEST SWAP1 PUSH0 MSTORE PUSH1 0x20 PUSH0 KECCAK256 SWAP1 PUSH1 0x7 MUL ADD PUSH1 0x2 ADD SLOAD LT ISZERO JUMPDEST DUP1 ISZERO PUSH2 0xC11 JUMPI POP PUSH1 0x2 DUP2 DUP2 SLOAD DUP2 LT PUSH2 0xBFD JUMPI PUSH2 0xBFD PUSH2 0xF09 JUMP JUMPDEST SWAP1 PUSH0 MSTORE PUSH1 0x20 PUSH0 KECCAK256 SWAP1 PUSH1 0x7 MUL ADD PUSH1 0x3 ADD SLOAD TIMESTAMP LT ISZERO JUMPDEST ISZERO PUSH2 0xC44 JUMPI PUSH1 0x1 DUP2 PUSH1 0x40 MLOAD PUSH1 0x20 ADD PUSH2 0xC2B SWAP2 DUP2 MSTORE PUSH1 0x20 ADD SWAP1 JUMP JUMPDEST PUSH1 0x40 MLOAD PUSH1 0x20 DUP2 DUP4 SUB SUB DUP2 MSTORE SWAP1 PUSH1 0x40 MSTORE SWAP3 POP SWAP3 POP POP PUSH2 0xC60 JUMP JUMPDEST PUSH1 0x1 ADD PUSH2 0xB78 JUMP JUMPDEST POP POP PUSH1 0x40 DUP1 MLOAD PUSH1 0x20 DUP2 ADD SWAP1 SWAP2 MSTORE PUSH0 DUP1 DUP3 MSTORE SWAP2 POP JUMPDEST SWAP3 POP SWAP3 SWAP1 POP JUMP JUMPDEST PUSH2 0xC6F PUSH2 0xD6B JUMP JUMPDEST PUSH2 0xC78 PUSH0 PUSH2 0xD97 JUMP JUMPDEST JUMP JUMPDEST PUSH1 0x4 DUP1 SLOAD PUSH1 0x40 DUP1 MLOAD PUSH4 0x3FABE5A3 PUSH1 0xE2 SHL DUP2 MSTORE SWAP1 MLOAD PUSH0 SWAP4 DUP5 SWAP4 PUSH1 0x1 PUSH1 0x1 PUSH1 0xA0 SHL SUB AND SWAP3 PUSH4 0xFEAF968C SWAP3 DUP2 DUP4 ADD SWAP3 PUSH1 0xA0 SWAP3 DUP3 SWAP1 SUB ADD DUP2 DUP7 GAS STATICCALL ISZERO DUP1 ISZERO PUSH2 0xCC0 JUMPI RETURNDATASIZE PUSH0 DUP1 RETURNDATACOPY RETURNDATASIZE PUSH0 REVERT JUMPDEST POP POP POP POP PUSH1 0x40 MLOAD RETURNDATASIZE PUSH1 0x1F NOT PUSH1 0x1F DUP3 ADD AND DUP3 ADD DUP1 PUSH1 0x40 MSTORE POP DUP2 ADD SWAP1 PUSH2 0xCE4 SWAP2 SWAP1 PUSH2 0xF92 JUMP JUMPDEST POP POP POP SWAP2 POP POP PUSH4 0x5F5E100 DUP2 PUSH2 0xCFA SWAP2 SWAP1 PUSH2 0xFE0 JUMP JUMPDEST SWAP2 POP POP SWAP1 JUMP JUMPDEST PUSH2 0xD08 PUSH2 0xD6B JUMP JUMPDEST PUSH1 0x1 PUSH1 0x1 PUSH1 0xA0 SHL SUB AND PUSH0 SWAP1 DUP2 MSTORE PUSH1 0x1 PUSH1 0x20 DUP2 SWAP1 MSTORE PUSH1 0x40 SWAP1 SWAP2 KECCAK256 DUP1 SLOAD PUSH1 0xFF NOT AND SWAP1 SWAP2 OR SWAP1 SSTORE JUMP JUMPDEST PUSH2 0xD36 PUSH2 0xD6B JUMP JUMPDEST PUSH1 0x1 PUSH1 0x1 PUSH1 0xA0 SHL SUB DUP2 AND PUSH2 0xD5F JUMPI PUSH1 0x40 MLOAD PUSH4 0x1E4FBDF7 PUSH1 0xE0 SHL DUP2 MSTORE PUSH0 PUSH1 0x4 DUP3 ADD MSTORE PUSH1 0x24 ADD PUSH2 0x414 JUMP JUMPDEST PUSH2 0xD68 DUP2 PUSH2 0xD97 JUMP JUMPDEST POP JUMP JUMPDEST PUSH0 SLOAD PUSH1 0x1 PUSH1 0x1 PUSH1 0xA0 SHL SUB AND CALLER EQ PUSH2 0xC78 JUMPI PUSH1 0x40 MLOAD PUSH4 0x118CDAA7 PUSH1 0xE0 SHL DUP2 MSTORE CALLER PUSH1 0x4 DUP3 ADD MSTORE PUSH1 0x24 ADD PUSH2 0x414 JUMP JUMPDEST PUSH0 DUP1 SLOAD PUSH1 0x1 PUSH1 0x1 PUSH1 0xA0 SHL SUB DUP4 DUP2 AND PUSH1 0x1 PUSH1 0x1 PUSH1 0xA0 SHL SUB NOT DUP4 AND DUP2 OR DUP5 SSTORE PUSH1 0x40 MLOAD SWAP2 SWAP1 SWAP3 AND SWAP3 DUP4 SWAP2 PUSH32 0x8BE0079C531659141344CD1FD0A4F28419497F9722A3DAAFE3B4186F6B6457E0 SWAP2 SWAP1 LOG3 POP POP JUMP JUMPDEST PUSH0 PUSH1 0x20 DUP3 DUP5 SUB SLT ISZERO PUSH2 0xDF6 JUMPI PUSH0 DUP1 REVERT JUMPDEST POP CALLDATALOAD SWAP2 SWAP1 POP JUMP JUMPDEST PUSH1 0x1 PUSH1 0x1 PUSH1 0xA0 SHL SUB DUP2 AND DUP2 EQ PUSH2 0xD68 JUMPI PUSH0 DUP1 REVERT JUMPDEST PUSH0 PUSH1 0x20 DUP3 DUP5 SUB SLT ISZERO PUSH2 0xE21 JUMPI PUSH0 DUP1 REVERT JUMPDEST DUP2 CALLDATALOAD PUSH2 0xE2C DUP2 PUSH2 0xDFD JUMP JUMPDEST SWAP4 SWAP3 POP POP POP JUMP JUMPDEST PUSH0 DUP1 PUSH1 0x40 DUP4 DUP6 SUB SLT ISZERO PUSH2 0xE44 JUMPI PUSH0 DUP1 REVERT JUMPDEST DUP3 CALLDATALOAD PUSH2 0xE4F DUP2 PUSH2 0xDFD JUMP JUMPDEST SWAP5 PUSH1 0x20 SWAP4 SWAP1 SWAP4 ADD CALLDATALOAD SWAP4 POP POP POP JUMP JUMPDEST PUSH0 DUP1 PUSH1 0x20 DUP4 DUP6 SUB SLT ISZERO PUSH2 0xE6E JUMPI PUSH0 DUP1 REVERT JUMPDEST DUP3 CALLDATALOAD PUSH8 0xFFFFFFFFFFFFFFFF DUP2 GT ISZERO PUSH2 0xE84 JUMPI PUSH0 DUP1 REVERT JUMPDEST DUP4 ADD PUSH1 0x1F DUP2 ADD DUP6 SGT PUSH2 0xE94 JUMPI PUSH0 DUP1 REVERT JUMPDEST DUP1 CALLDATALOAD PUSH8 0xFFFFFFFFFFFFFFFF DUP2 GT ISZERO PUSH2 0xEAA JUMPI PUSH0 DUP1 REVERT JUMPDEST DUP6 PUSH1 0x20 DUP3 DUP5 ADD ADD GT ISZERO PUSH2 0xEBB JUMPI PUSH0 DUP1 REVERT JUMPDEST PUSH1 0x20 SWAP2 SWAP1 SWAP2 ADD SWAP6 SWAP1 SWAP5 POP SWAP3 POP POP POP JUMP JUMPDEST DUP3 ISZERO ISZERO DUP2 MSTORE PUSH1 0x40 PUSH1 0x20 DUP3 ADD MSTORE PUSH0 DUP3 MLOAD DUP1 PUSH1 0x40 DUP5 ADD MSTORE DUP1 PUSH1 0x20 DUP6 ADD PUSH1 0x60 DUP6 ADD MCOPY PUSH0 PUSH1 0x60 DUP3 DUP6 ADD ADD MSTORE PUSH1 0x60 PUSH1 0x1F NOT PUSH1 0x1F DUP4 ADD AND DUP5 ADD ADD SWAP2 POP POP SWAP4 SWAP3 POP POP POP JUMP JUMPDEST PUSH4 0x4E487B71 PUSH1 0xE0 SHL PUSH0 MSTORE PUSH1 0x32 PUSH1 0x4 MSTORE PUSH1 0x24 PUSH0 REVERT JUMPDEST PUSH0 PUSH1 0x20 DUP3 DUP5 SUB SLT ISZERO PUSH2 0xF2D JUMPI PUSH0 DUP1 REVERT JUMPDEST POP MLOAD SWAP2 SWAP1 POP JUMP JUMPDEST PUSH4 0x4E487B71 PUSH1 0xE0 SHL PUSH0 MSTORE PUSH1 0x11 PUSH1 0x4 MSTORE PUSH1 0x24 PUSH0 REVERT JUMPDEST DUP1 DUP3 ADD DUP1 DUP3 GT ISZERO PUSH2 0xF5B JUMPI PUSH2 0xF5B PUSH2 0xF34 JUMP JUMPDEST SWAP3 SWAP2 POP POP JUMP JUMPDEST DUP2 DUP2 SUB DUP2 DUP2 GT ISZERO PUSH2 0xF5B JUMPI PUSH2 0xF5B PUSH2 0xF34 JUMP JUMPDEST DUP1 MLOAD PUSH10 0xFFFFFFFFFFFFFFFFFFFF DUP2 AND DUP2 EQ PUSH2 0xF8D JUMPI PUSH0 DUP1 REVERT JUMPDEST SWAP2 SWAP1 POP JUMP JUMPDEST PUSH0 DUP1 PUSH0 DUP1 PUSH0 PUSH1 0xA0 DUP7 DUP9 SUB SLT ISZERO PUSH2 0xFA6 JUMPI PUSH0 DUP1 REVERT JUMPDEST PUSH2 0xFAF DUP7 PUSH2 0xF74 JUMP JUMPDEST PUSH1 0x20 DUP8 ADD MLOAD PUSH1 0x40 DUP9 ADD MLOAD PUSH1 0x60 DUP10 ADD MLOAD SWAP3 SWAP8 POP SWAP1 SWAP6 POP SWAP4 POP SWAP2 POP PUSH2 0xFD4 PUSH1 0x80 DUP8 ADD PUSH2 0xF74 JUMP JUMPDEST SWAP1 POP SWAP3 SWAP6 POP SWAP3 SWAP6 SWAP1 SWAP4 POP JUMP JUMPDEST PUSH0 DUP3 PUSH2 0xFFA JUMPI PUSH4 0x4E487B71 PUSH1 0xE0 SHL PUSH0 MSTORE PUSH1 0x12 PUSH1 0x4 MSTORE PUSH1 0x24 PUSH0 REVERT JUMPDEST POP DIV SWAP1 JUMP INVALID LOG2 PUSH5 0x6970667358 0x22 SLT KECCAK256 PUSH15 0x37B89294338930E1CAB835E1D3E96 PUSH9 0x1118FFB5F603545055 PUSH27 0xE9A12DB5EC64736F6C634300081A00330000000000000000000000 "
				},
				"gasEstimates": {
					"creation": {
						"codeDepositCost": "829800",
						"executionCost": "infinite",
						"totalCost": "infinite"
					},
					"external": {
						"addMember(address)": "26820",
						"checkUpkeep(bytes)": "infinite",
						"deposit()": "161",
						"depositToAave(uint256)": "infinite",
						"executeProposal(uint256)": "infinite",
						"getBalance()": "294",
						"getETHPrice()": "infinite",
						"governanceToken()": "2446",
						"lendingPool()": "2425",
						"members(address)": "2590",
						"minVoteDuration()": "2316",
						"owner()": "2385",
						"performUpkeep(bytes)": "infinite",
						"proposals(uint256)": "15346",
						"proposeFunding(address,uint256)": "infinite",
						"releaseFunds(uint256)": "infinite",
						"renounceOwnership()": "infinite",
						"transferOwnership(address)": "infinite",
						"vote(uint256)": "infinite",
						"withdrawFromAave(uint256)": "infinite"
					}
				},
				"methodIdentifiers": {
					"addMember(address)": "ca6d56dc",
					"checkUpkeep(bytes)": "6e04ff0d",
					"deposit()": "d0e30db0",
					"depositToAave(uint256)": "68fd2d80",
					"executeProposal(uint256)": "0d61b519",
					"getBalance()": "12065fe0",
					"getETHPrice()": "a607a8d9",
					"governanceToken()": "f96dae0a",
					"lendingPool()": "a59a9973",
					"members(address)": "08ae4b0c",
					"minVoteDuration()": "c00d2a8c",
					"owner()": "8da5cb5b",
					"performUpkeep(bytes)": "4585e33b",
					"proposals(uint256)": "013cf08b",
					"proposeFunding(address,uint256)": "237af348",
					"releaseFunds(uint256)": "4d68282f",
					"renounceOwnership()": "715018a6",
					"transferOwnership(address)": "f2fde38b",
					"vote(uint256)": "0121b93f",
					"withdrawFromAave(uint256)": "688f237b"
				}
			},
			"storageLayout": {
				"storage": [
					{
						"astId": 35,
						"contract": "contracts/TreasuryDAOTest_flattened.sol:TreasuryDAO",
						"label": "_owner",
						"offset": 0,
						"slot": "0",
						"type": "t_address"
					},
					{
						"astId": 396,
						"contract": "contracts/TreasuryDAOTest_flattened.sol:TreasuryDAO",
						"label": "members",
						"offset": 0,
						"slot": "1",
						"type": "t_mapping(t_address,t_bool)"
					},
					{
						"astId": 400,
						"contract": "contracts/TreasuryDAOTest_flattened.sol:TreasuryDAO",
						"label": "proposals",
						"offset": 0,
						"slot": "2",
						"type": "t_array(t_struct(Proposal)392_storage)dyn_storage"
					},
					{
						"astId": 403,
						"contract": "contracts/TreasuryDAOTest_flattened.sol:TreasuryDAO",
						"label": "governanceToken",
						"offset": 0,
						"slot": "3",
						"type": "t_contract(IERC20)349"
					},
					{
						"astId": 406,
						"contract": "contracts/TreasuryDAOTest_flattened.sol:TreasuryDAO",
						"label": "priceFeed",
						"offset": 0,
						"slot": "4",
						"type": "t_contract(AggregatorV3Interface)219"
					},
					{
						"astId": 409,
						"contract": "contracts/TreasuryDAOTest_flattened.sol:TreasuryDAO",
						"label": "lendingPool",
						"offset": 0,
						"slot": "5",
						"type": "t_contract(IAaveLendingPool)371"
					},
					{
						"astId": 412,
						"contract": "contracts/TreasuryDAOTest_flattened.sol:TreasuryDAO",
						"label": "minVoteDuration",
						"offset": 0,
						"slot": "6",
						"type": "t_uint256"
					}
				],
				"types": {
					"t_address": {
						"encoding": "inplace",
						"label": "address",
						"numberOfBytes": "20"
					},
					"t_address_payable": {
						"encoding": "inplace",
						"label": "address payable",
						"numberOfBytes": "20"
					},
					"t_array(t_struct(Proposal)392_storage)dyn_storage": {
						"base": "t_struct(Proposal)392_storage",
						"encoding": "dynamic_array",
						"label": "struct TreasuryDAO.Proposal[]",
						"numberOfBytes": "32"
					},
					"t_bool": {
						"encoding": "inplace",
						"label": "bool",
						"numberOfBytes": "1"
					},
					"t_contract(AggregatorV3Interface)219": {
						"encoding": "inplace",
						"label": "contract AggregatorV3Interface",
						"numberOfBytes": "20"
					},
					"t_contract(IAaveLendingPool)371": {
						"encoding": "inplace",
						"label": "contract IAaveLendingPool",
						"numberOfBytes": "20"
					},
					"t_contract(IERC20)349": {
						"encoding": "inplace",
						"label": "contract IERC20",
						"numberOfBytes": "20"
					},
					"t_mapping(t_address,t_bool)": {
						"encoding": "mapping",
						"key": "t_address",
						"label": "mapping(address => bool)",
						"numberOfBytes": "32",
						"value": "t_bool"
					},
					"t_struct(Proposal)392_storage": {
						"encoding": "inplace",
						"label": "struct TreasuryDAO.Proposal",
						"members": [
							{
								"astId": 377,
								"contract": "contracts/TreasuryDAOTest_flattened.sol:TreasuryDAO",
								"label": "recipient",
								"offset": 0,
								"slot": "0",
								"type": "t_address_payable"
							},
							{
								"astId": 379,
								"contract": "contracts/TreasuryDAOTest_flattened.sol:TreasuryDAO",
								"label": "amount",
								"offset": 0,
								"slot": "1",
								"type": "t_uint256"
							},
							{
								"astId": 381,
								"contract": "contracts/TreasuryDAOTest_flattened.sol:TreasuryDAO",
								"label": "votes",
								"offset": 0,
								"slot": "2",
								"type": "t_uint256"
							},
							{
								"astId": 383,
								"contract": "contracts/TreasuryDAOTest_flattened.sol:TreasuryDAO",
								"label": "endTime",
								"offset": 0,
								"slot": "3",
								"type": "t_uint256"
							},
							{
								"astId": 385,
								"contract": "contracts/TreasuryDAOTest_flattened.sol:TreasuryDAO",
								"label": "executed",
								"offset": 0,
								"slot": "4",
								"type": "t_bool"
							},
							{
								"astId": 387,
								"contract": "contracts/TreasuryDAOTest_flattened.sol:TreasuryDAO",
								"label": "unlockTime",
								"offset": 0,
								"slot": "5",
								"type": "t_uint256"
							},
							{
								"astId": 391,
								"contract": "contracts/TreasuryDAOTest_flattened.sol:TreasuryDAO",
								"label": "voted",
								"offset": 0,
								"slot": "6",
								"type": "t_mapping(t_address,t_bool)"
							}
						],
						"numberOfBytes": "224"
					},
					"t_uint256": {
						"encoding": "inplace",
						"label": "uint256",
						"numberOfBytes": "32"
					}
				}
			},
			"userdoc": {
				"kind": "user",
				"methods": {
					"performUpkeep(bytes)": {
						"notice": "method that is actually executed by the keepers, via the registry. The data returned by the checkUpkeep simulation will be passed into this method to actually be executed."
					}
				},
				"version": 1
			}
		}
	}
}